:020000040800F2
:10000000181100201903000821030008C902000884
:10001000250300082703000829030008000000004A
:100020000000000000000000000000002B0300089A
:100030002D030008000000004B020008E121000829
:1000400033030008330300083303000833030008B8
:100050003303000833030008A70D0008F90D00085A
:100060000D0E0008210E0008350E000833030008AD
:100070003303000833030008330300084D0D000864
:10008000650D00083303000833030008330300083C
:10009000330300083303000833030008490E000847
:1000A0003303000833030008330300083303000858
:1000B0003303000833030008330300083303000848
:1000C0003303000833030008330300083303000838
:1000D00033030008C1250008D925000833030008B0
:1000E000BB0D0008330300083303000800F002F8DA
:1000F00000F068F80AA090E8000C82448344AAF15A
:100100000107DA4501D100F05DF8AFF2090EBAE857
:100110000F0013F0010F18BFFB1A43F0010318473B
:10012000F0DF000010E000000A444FF0000C10F86F
:10013000013B13F0070408BF10F8014B1D1108BF65
:1001400010F8015B641E05D010F8016B641E01F805
:10015000016BF9D113F0080F1EBF10F8014BAD1C55
:100160000C1B09D16D1E58BF01F801CBFAD505E073
:1001700014F8016B01F8016B6D1EF9D59142D6D3CD
:10018000704700000023002400250026103A28BFF5
:1001900078C1FBD8520728BF30C148BF0B607047F9
:1001A000782900F0C781002070471FB500F060FC7F
:1001B0000400002000210BF0DDF9401C60601FBD31
:1001C00010B510BD00F081FD1146FFF7EEFF00F005
:1001D000B8FD00F0ADFD03B4FFF7F2FF03BC03F080
:1001E0009DFA0000EFF308807047EFF30980704735
:1001F00068467047EFF308807047EFF30980704757
:100200006846704780F3098870470000002804D0D2
:1002100090FAA0F0B0FA80F0401C7047EFF3108025
:1002200072B6704780F310887047344A1368012B08
:1002300004D04FF001031360314A1060314A11605D
:1002400031484FF0805101607047EFF3108272B671
:100250002A48016891B14FF0000101602848016807
:1002600029B1EFF3098121E9F00F00680160254908
:1002700009680968B1E8F00F81F3098882F31088F2
:100280004EF0040E70471F4908601D494FF00000F2
:1002900008601A494FF0010008601C481C49D0F85A
:1002A000002041EA0201016017484FF080510160CF
:1002B00018480068006880F3088861B662B6BFF32A
:1002C0004F8FBFF36F8F70471EF0040F0CBFEFF31B
:1002D0000880EFF3098020E9F00F40F804ED1EF0EC
:1002E000040F0CBF80F3088880F3098800B507F07D
:1002F00081F85DF804EB4EF0040E704724000020F6
:100300001C0000202000002004ED00E020ED00E0B3
:100310000000FFFF08ED00E009488047094800475A
:10032000FEE7FEE7FEE7FEE7FEE7FEE7FEE7FEE7A5
:10033000FEE7FEE704480549034A054B7047000005
:1003400099220008ED000008180D00201811002067
:10035000180D00207047000010B500F089FB001D4B
:1003600010BD00BF11B2000053EA020C00F069801A
:100370002DE9F04B4FF00006002B1FBFB3FA83F5B9
:1003800003FA05F424FA05F65E4012BF1643B2FAEA
:1003900082F502FA05F4C5F120051EBF22FA05FC1C
:1003A00044EA0C04203556EA044C4FEA144418BFC2
:1003B000641C4FF000084FF00009904271EB030CF1
:1003C00039D3002919BFB1FA81F701FA07F6B0FA5B
:1003D00080F700FA07F6C7F120071EBF20FA07FCD6
:1003E00046EA0C062037B6FBF4FCA7EB0507103FE6
:1003F00007F01F0BCBF120060CFA0BFB2CFA06F6CC
:1004000044BFB3460026202FA4BF5E464FF0000B2A
:100410005BEA060C08BF4FF0010B19EB0B09ABFBB5
:10042000027C48EB0608C01B06FB02CC0BFB03CC8E
:1004300071EB0C01C1E70B46024641464846BDE858
:10044000F08B13B54FF000004FF00001AFF30080C8
:10045000BDE81C40704710B54C1084EA530404D525
:100460004042C1F1000138BF491E1B4204D552422F
:10047000C3F1000338BF5B1EFFF776FF14F0804F17
:1004800004D04042C1F1000138BF491E14F0004FB2
:1004900004D05242C3F1000338BF5B1E10BD10B53B
:1004A0000446FFF759FF0068005D000704D5DF2C04
:1004B00002D0A4F1200010BD204610BD0FB41CB521
:1004C000074B06AA7B4469460090059800F037FB6D
:1004D0000020694600F046FB1CBC5DF814FB0000E0
:1004E0009D06000070B5044685690068C10601D507
:1004F000302600E02026C00707D070BDD4E90121D6
:1005000030469047206A401C20626D1EF6D570BDB3
:1005100070B5044685690078C00707D170BDD4E97D
:10052000012120209047206A401C20626D1EF6D5D4
:1005300070BD000070B504460D4621461068AFF34B
:1005400000802188090502D50F4A7A4402E00E4A4C
:100550007A440E32002104F1240305E000F00F0676
:100560000009965D5E54491C0028F7D120780023CD
:10057000000704D5702D02D009B1022311322046A4
:10058000BDE8704000F07CBA62C900002DE9F05F60
:10059000894604464FF0000ADFF874B1FB44C0F806
:1005A00020A02046E1688847002874D0252806D07E
:1005B000D4E901219047206A401C2062F1E700261F
:1005C0005F462046E16888472028054607DB312D35
:1005D00005D2781910F8200C08B10643F1E7B007EE
:1005E00001D526F00406C4F81CA00027C4F818A002
:1005F0002A2D09D0284602F039FB38B304EB8708CE
:10060000303DC8F8185019E059F8041B204604EB97
:1006100087029161E1688847012F054618D1E0699A
:10062000002820DA26F020061DE0D8F8180000EB9C
:10063000800005EB40003038C8F818002046E1681B
:100640008847054602F012FB0028EED1012F0AD0A0
:100650002E2D08D12046E16888477F1C0546022FD1
:1006600046F02006C4DBA069002803DA404246F0C9
:100670000106A061F00701D026F010066C2D0BD00A
:10068000682D09D04C2D39D06A2D35D0742D35D038
:100690007A2D33D016E038E0E1682F4620468847AF
:1006A000B842054609D16C2F26D04FF48060E1682E
:1006B000064320468847054604E06C2F1AD04FF4C5
:1006C000807006430DB3A5F14100192802D82035EA
:1006D00046F400664A462946204626604E46FFF705
:1006E0005FFD80B101280BD0F61D26F0070000F158
:1006F000080956E74020E4E78020D8E70020D6E745
:1007000006F104094DE7284652E7206ABDE8F09F4C
:1007100038C9000070B5064600F0AEF90468054619
:1007200030460A22002100F022FA2C6070BD10B57C
:10073000431E13F8014F002CFBD105E011F8014BCB
:10074000002C03F8014B03D0521EF7D20021197080
:1007500010BD40EA010310B59B070FD1042A0DD349
:1007600010C808C9121F9C42F8D020BA19BA884292
:1007700001D9012010BD4FF0FF3010BD1AB1D307D1
:1007800003D0521C07E0002010BD10F8013B11F807
:10079000014B1B1B07D110F8013B11F8014B1B1B30
:1007A00001D1921EF1D1184610BD40EA0103024664
:1007B00030B59B0710D14FF0013400E008C208C9E2
:1007C0001D1B9D4315EAC41FF8D013F0FF0102F86A
:1007D000011B0DD01B0AF8E711F8013B002B02F8B2
:1007E000013B05D011F8013B002B02F8013BF3D18E
:1007F00030BD10B5431C02E010F8011B71B1810738
:10080000FAD14FF0013202C88C1A8C4314EAC2119B
:10081000F9D0C01A0A0603D0C01E10BDC01A10BD00
:100820000A0401D0801E10BD0902FCD0401E10BD7C
:1008300040EA010370B59B072ED14FF00136042A20
:100840002AD308C810C99D1B9D43121F15EAC6155F
:1008500017D0D8B2E1B2401A50EA056110D198B26F
:10086000A1B2401A50EA05410AD123F07F4024F09A
:100870007F41401A50EA052102D1180EA0EB146006
:1008800070BDA342DBD018BA21BA884201D9012039
:1008900070BD4FF0FF3070BD0AB9002070BD10F878
:1008A000013B11F8014B63B1A3420AD1521E08D09B
:1008B00010F8013B11F8014B1BB1A34201D1521EAC
:1008C000EDD1181B70BD421E12F8013F002BFBD169
:1008D00011F8013B002B02F8013BF9D1704710B52C
:1008E000203AC0F00B80B1E81850203AA0E8185028
:1008F000B1E81850A0E81850BFF4F5AF5FEA027CE9
:1009000024BFB1E81850A0E8185044BF18C918C057
:10091000BDE810405FEA827C24BF51F8043B40F8F8
:10092000043B08BF7047D20728BF31F8023B48BFDD
:1009300011F8012B28BF20F8023B48BF00F8012B1B
:1009400070474FF0000200B5134694469646203992
:1009500022BFA0E80C50A0E80C50B1F12001BFF478
:10096000F7AF090728BFA0E80C5048BF0CC05DF8DE
:1009700004EB890028BF40F8042B08BF704748BF2C
:1009800020F8022B11F0804F18BF00F8012B7047A0
:1009900010B5044610F0030F08BF11F0030F40F02C
:1009A00015804FF0013E121FC0F20E8051F8043B3B
:1009B000A3EB0E0C2CEA030C1CEACE1C08BF40F87B
:1009C000043BF0D0A1F1040102F10402521E08DB45
:1009D00011F8013B002B00F8013BF7D1114600F064
:1009E000FEF8204610BD00004FF0013C50F8042BEB
:1009F00051F8043B9A4221D1A2EB0C03934313EA32
:100A0000CC1317D150F8042B51F8043B9A4215D15E
:100A1000A2EB0C03934313EACC130BD150F8042B35
:100A200051F8043B9A4209D1A2EB0C03934313EA19
:100A3000CC13DBD04FF00000704700BFD01A01BAD2
:100A4000B1FA81F101F0180122FA01F0CB40C1F1B5
:100A50002001DBB2C0B2C01A2CFA01F3D11A9143C3
:100A600011EAC311E6D17047704770477047000024
:100A700000487047D80C002000487047B80C002090
:100A80002DE9F0470D4699469246044600F12408A8
:100A90000168880604D5E06921F01001216000E0BA
:100AA0000120A84201DD471B00E00027A1697A1957
:100AB00002EB0900081AA0612078C00602D4204683
:100AC000FFF710FD002608E0D4E901211AF806001E
:100AD0009047206A401C761C20624E45F4DB20784B
:100AE000C0060AD52046FFF7FDFC06E0D4E9012147
:100AF00030209047206A401C2062381EA7F1010771
:100B0000F4DC07E0D4E9012118F805009047206AD9
:100B1000401C2062281EA5F10105F3DC2046FFF7EA
:100B2000F7FC2078000602D50220BDE8F0870120FE
:100B3000FBE7000001694A1C02610878704700B5B4
:100B40008FB0CDE901310021059105497944CDE906
:100B5000031011466846FFF719FD0FB000BD0000F5
:100B6000E5FFFFFF0A6802F8010B0A6070472DE9F4
:100B7000F04791460F4680460446002614F8015B74
:100B80002DB1FFF7E9FB0068405DC007F6D12B2DC2
:100B900002D02D2D18D0641E4A463946204600F05A
:100BA00045F827B13968A14201D1C7F800804FF05C
:100BB000020471050BD54042002803DDFFF75CFFFE
:100BC0000460A007BDE8F08746F48066E4E70028EB
:100BD000F8DAFFF751FF04606FF00040F2E74FF0E2
:100BE00000020429C0F0128010F0030C3FF4ABAEF9
:100BF000CCF1040CBCF1020F18BF00F8012BA8BF08
:100C000020F8022BA1EB0C01FFF79DBE5FEAC17C2F
:100C100024BF00F8012B00F8012B48BF00F8012B7E
:100C20007047000000487047B80C00202DE9F05FC5
:100C3000824615468B4600270AF10104B946007822
:100C4000302801D09DB113E014F8010B012778285A
:100C500003D0582801D045B10AE00DB1102D07D1BD
:100C6000002714F8010B102502E0082500E00A25F2
:100C70000026B0460EE005FB080005FB06F1012743
:100C80001FFA80F801EB1046B6F5803F00D3B94655
:100C900014F8010B294600F03DF80028EBDABBF10F
:100CA000000F05D00FB1641E00E05446CBF80040A1
:100CB000B9F1000F06D0FFF7DFFE02210160C81E68
:100CC000BDE8F09F48EA0640FAE77546FFF7AAFF3D
:100CD000AE4605006946534620F00700854618B029
:100CE00020B5FFF727FBBDE820404FF000064FF08E
:100CF00000074FF000084FF0000B21F00701AC4651
:100D0000ACE8C009ACE8C009ACE8C009ACE8C0096F
:100D10008D4670473A2800D2303820F02002412A10
:100D200001D3A2F13700884201D34FF0FF30704762
:100D300010B50446AFF300802046BDE81040FFF731
:100D40004ABA10B509F024FD002010BD10B506F018
:100D5000F7FD034800F02EF9BDE8104006F00EBE86
:100D60006804002010B506F0EBFD034800F022F9FE
:100D7000BDE8104006F002BE9805002030B590F89E
:100D800040500124AC40C56B6C60046863604368EC
:100D9000102B036803D099600068C26030BD9A6070
:100DA0000068C16030BD10B506F0CAFD012000F03A
:100DB000A1FABDE8104006F0E1BD10B506F0C0FD97
:100DC0004FF4806000F096FA4FF4006000F092FA61
:100DD0004FF4805000F08EFA4FF4005000F08AFA81
:100DE0004FF4804000F086FA4FF4004000F082FAA1
:100DF000BDE8104006F0C2BD10B506F0A1FD02200E
:100E000000F078FABDE8104006F0B8BD10B506F065
:100E100097FD042000F06EFABDE8104006F0AEBD6C
:100E200010B506F08DFD082000F064FABDE8104012
:100E300006F0A4BD10B506F083FD102000F05AFAAC
:100E4000BDE8104006F09ABD10B506F079FD2020EF
:100E500000F050FA402000F04DFA802000F04AFAED
:100E60004FF4807000F046FA4FF4007000F042FA40
:100E7000BDE8104006F082BD10B590F821100022A8
:100E8000022905D00421816380F82020012010BDB3
:100E900001680B6823F00E030B6001680B6823F0F8
:100EA00001030B6090F84030C46B012101FA03F399
:100EB000636080F8211080F82020104610BD0000EB
:100EC00010B590F821100024022903D00421816379
:100ED00001243DE001680A6822F00E020A60016800
:100EE0000A6822F001020A601A4A0168914201D19F
:100EF000012121E0174A1432914201D110211BE057
:100F0000144A2832914201D1891515E0114A3C3228
:100F1000914201D189140FE00E4A5032914202D120
:100F20004FF4803108E00B4A6432914202D14FF411
:100F3000801101E04FF08071064A083A51600121AA
:100F400080F82110002180F82010416B01B1884702
:100F5000204610BD0800024010B528B301680A6899
:100F600022F001020A6002680021116002685160EB
:100F7000026891600268D1600C4B026801241A4437
:100F80001423B2FBF3F29300094AC0E90F239C40FB
:100F900054608162C16201634163816380F8211002
:100FA00080F82010002010BD012010BDF8FFFDBF0B
:100FB000000002402DE9F05FC16B0C6801680B680E
:100FC000D0F840C0042202FA0CF2494DDFF824A107
:100FD000494E4A4FDFF828B1DFF828E122422CD0F1
:100FE0005A072AD50A68920603D40A6822F0040236
:100FF0000A600168A94201D1042219E0514501D1DA
:10100000402215E0B14202D14FF4806210E0B942B3
:1010100002D14FF480420BE0594502D14FF48022B7
:1010200006E0714502D14FF4800201E04FF080628A
:101030002F4908394A60C16A3BE04FF0020808FABC
:101040000CF818EA040F4FF000094FF0010235D0F8
:101050005FEA837832D50B689B0605D40B6823F0D2
:101060000A030B6080F821200168A94201D1022205
:1010700019E0514501D1202215E0B14202D14FF4CF
:10108000007210E0B94202D14FF400520BE0594512
:1010900002D14FF4003206E0714502D14FF4001244
:1010A00001E04FF00072124908394A6080F8209040
:1010B000816A00291AD0BDE8F05F0847082505FAC3
:1010C0000CF5254212D01B0710D50B6823F00E0338
:1010D0000B6090F84010C36B02FA01F15960826313
:1010E00080F8212080F82090016BE2E7BDE8F09FB6
:1010F000080002401C000240300002404400024050
:10110000580002406C00024030B528B308C81349AB
:1011100014221944B1FBF2F18900C16310498163C3
:10112000022141771A6843F6F0718A43D0E900142E
:101130002143D0E902452C432143046921434469FA
:101140002143846921431143196000214163012235
:1011500042770177084630BD012030BDF8FFFDBF62
:101160000000024070B5044690F8200000250128D8
:101170000CD0012084F8200094F821600020012E7A
:1011800006D084F820000225284670BD022070BDDC
:10119000022684F82160A0632068066826F0010614
:1011A00006602046FFF7EAFDE06A00282068016833
:1011B00002D041F00E0106E021F004010160206838
:1011C000016841F00A0101602068016841F00101F5
:1011D0000160D9E72DE9F0430023374F0F2566E082
:1011E00001229A400A4060D023F00304E619D6F8A1
:1011F00008809C074FEA147C05FA0CF909EA0804F8
:10120000DFF8B880404502D14FF0000816E0DFF863
:10121000B080404502D14FF001080FE0DFF8A48014
:10122000404502D14FF0020808E0DFF89C804045BD
:1012300002D14FF0030801E04FF0040808FA0CF85F
:10124000A04515D1D6F808C02CEA090CC6F808C08C
:101250001E4E346894433460341D266896432660DD
:10126000241D266896432660241D26689643266022
:10127000FF2A01D8064601E000F104064FEA830484
:1012800001D9A4F12004D6F800C005FA04F82CEA2C
:10129000080C4FF0040808FA04F84CEA080CC6F8E9
:1012A00000C0C46824EA0204C46003F1010331FAF7
:1012B00003F295D1BDE8F083000001400008014031
:1012C000000C0140001001400014014000040140E6
:1012D00010B502F06DFB00EB4001054800EB81000A
:1012E0004168002903D08068BDE81040084710BD60
:1012F00030000020044910B50A68024202D008609C
:10130000FFF7E6FF10BD0000140401402DE9F84F7F
:10131000DFF8B891002409F1040A0AF1040B23460E
:101320000F270BF1040EC9E00125A5402A40AA426F
:101330007DD1674ED1F804C0ACEB0608B44532D07D
:1013400014DCBCF1030F3AD009DCBCF1000F2AD049
:10135000BCF1010F1CD0BCF1020F31D11DE0BCF17A
:10136000110F17D0BCF1120F2AD119E0B8F5881F60
:1013700019D006DCB8F5803F15D0B8F5801F1FD115
:1013800011E0B8F5001F0ED0B8F5041F18D10AE01F
:10139000CB6815E0CB681B1D12E0CB6808330FE06B
:1013A000CB680C330CE08B682BB1012B4FF008039A
:1013B00003D0456104E0042302E0056100E000235E
:1013C000FF2A01D8064601E000F104064FEA840531
:1013D00001D9A5F12005D6F8008007FA05FC28EA16
:1013E0000C0803FA05F548EA0508C6F800804D68C0
:1013F000ED0062D5374DAE6946F00106AE61AD69CC
:1014000024F0030605F001050095334D06EB050CAD
:10141000DCF80850A607360F07FA06F825EA080593
:10142000DFF8B880404503D14FF0000817E044E0F2
:10143000DFF8AC80404502D14FF001080FE0DFF843
:10144000A480404502D14FF0020808E0DFF8988000
:10145000404502D14FF0030801E04FF0040808FABC
:1014600006F848EA0508CCF808804D68D9F800600D
:10147000ED034D4601D5164300E096432E604D68BE
:10148000DAF80060AD03554601D5164300E09643F7
:101490002E604D68DBF80060ED025D4601D5164315
:1014A00000E096432E604D68DEF80060AD027546A0
:1014B00001D5164300E096432E60641C0D682A4651
:1014C000E5407FF431AFBDE8F88F00000004014033
:1014D000000011100010024000000140000801400F
:1014E000000C0140001001400014014080680840D9
:1014F00000D0012070470AB1016170470904FBE781
:1015000000B54FF0E0200069C00301D500F006F8F7
:101510000148006800BD0000A402002003480168E3
:10152000034A12681144016070470000A4020020C1
:1015300028000020074810B5016841F01001016043
:10154000032000F06BF8002000F006F800F00AF825
:10155000002010BD0020024010B506F087F90020E1
:1015600010BD00000C4808B5816941F0010181619E
:10157000816901F001010091C16941F08051C161AF
:10158000C06900F0805000900448416821F0E0619B
:1015900041F00071416008BD0010024000000140B0
:1015A00000280DDB00F01F0201219140400980005E
:1015B00000F1E020C0F88011BFF34F8FBFF36F8FB1
:1015C0007047002809DB00F01F020121914040090B
:1015D000800000F1E020C0F800117047F0B40E4B1D
:1015E0001B680C46C3F30223C3F10705042D00D981
:1015F0000425191D072901D2002300E0DB1E012666
:1016000006FA05F1491E214099409E40761E16407B
:101610003143F0BC01F014B80CED00E0064900F0D5
:10162000070208684FF6FF03184040EA0220034A09
:1016300010430860704700000CED00E00000FA0560
:101640002DE9F84305460078354CC00754D0E069D1
:101650000026C00008D4E06940F08050E061E069F5
:10166000012600F0805000902E480168C90512D470
:101670000168804641F480710160FFF741FF074631
:1016800005E000BFFFF73CFFC01B642823D8D8F853
:101690000000C005F6D5206A10F4407021D0A9885A
:1016A00001F4407181421CD0206A1F49012220F4BC
:1016B00040700A6000220A602062C00711D0FFF764
:1016C0001FFF074641F2883808E000BFFFF718FF08
:1016D000C11B414502D90320BDE8F883206A800779
:1016E000F4D5206A696820F44070084320621EB176
:1016F000E06920F08050E0612878800705D56068B7
:10170000A96820F44040084360602878C00605D5E9
:101710006068E96820F48000084360600020DBE72F
:101720000010024000700040400442422DE9F047A2
:101730000F46050061D0434E306800F00700B84204
:1017400009D2306820F0070038433060306800F07C
:101750000700B84251D128683B4C810712D5400799
:1017600003D5606840F4E06060602878000703D526
:10177000606840F4605060606068A96820F0F00024
:10178000084360602878C00728D06868012810D016
:101790002168022810D0890700292EDA616821F01B
:1017A000030101436160FFF7ABFE804641F28839D7
:1017B0000DE021688903EFE78901EDE7FFF7A0FE5F
:1017C000A0EB0801494502D90320BDE8F087606815
:1017D000696800F00C00B0EB810FEFD1306800F0C9
:1017E0000700B8420BD9306820F00700384330605A
:1017F000306800F00700B84201D00120E5E7287802
:10180000400705D56068E96820F4E060084360603F
:101810002878000706D56068296920F4605040EAFE
:10182000C100606000F038F86168084AC1F3031134
:10183000515CC8400649086006480068FFF78CFE06
:101840000020C2E7002002400010024003CE000842
:1018500098020020A0020020044805490068496859
:10186000044AC1F30221515CC8407047980200202D
:101870000010024013CE000804480549006849687A
:10188000044AC1F3C221515CC8407047980200204D
:101890000010024013CE000812A185B00FC98DE8D8
:1018A0000F0014A0144A006804905168134801F016
:1018B0000C03042B10D0082B0ED1C1F38343C903B2
:1018C0001DF803000AD5516804AAC1F34041515CD8
:1018D0000A4A5043B0FBF1F005B07047084948434D
:1018E000FAE7000002030405060708090A0B0C0DBD
:1018F0000E0F1010010200000010024000127A00CA
:1019000000093D002DE9F84F040070D02078C04D4B
:10191000C00749D06868C0F38100012807D0686813
:10192000C0F38100022809D16868C00306D5286881
:10193000800339D560680028E7D035E06068B0F5ED
:10194000803F0BD010B1B0F5A02F11D0286820F443
:1019500080302860286820F4802002E0286840F465
:1019600080302860606890B1FFF7CAFD06460AE043
:10197000286840F480202860F0E700BFFFF7C0FD32
:10198000801B642873D828688003F7D50CE0FFF724
:10199000B7FD064605E000BFFFF7B2FD801B6428D7
:1019A000F0D828688003F7D420789A4E80074FF04B
:1019B00001094FF0000839D5686810F00C0F07D006
:1019C0006868C0F38100022809D16868C00306D4A2
:1019D0002868800714D52069012808D110E0206903
:1019E000B0B1C6F80090FFF78BFD074605E00AE1AD
:1019F000FFF786FDC01B0228C4D828688007F7D5EA
:101A00002868616920F0F80040EAC10028600DE014
:101A1000C6F80080FFF774FD074604E0FFF770FD8D
:101A2000C01B022823D828688007F7D42078000735
:101A30002CD57948A169D9B1C0F80090FFF760FDB5
:101A4000074604E0FFF75CFDC01B02280FD8686A58
:101A50008007F7D571484FF4FA510068B0FBF1F0F8
:101A6000009000BF0098411E0091FAD20EE080E085
:101A7000C0F80080FFF744FD074604E0FFF740FD93
:101A8000C01B022875D8686A8007F7D42078400701
:101A900060D5E8690027C00008D4E86940F08050AC
:101AA000E861E869012700F0805000905C48016817
:101AB000C90513D40168834641F480710160FFF7C2
:101AC0001FFD824606E000BFFFF71AFDA0EB0A00EB
:101AD00064284ED8DBF80000C005F5D5E068012881
:101AE0000AD008B1052813D0286A20F00100286226
:101AF000286A20F0040002E0286A40F00100286211
:101B0000E06841F2883B98B1FFF7FAFC82460BE0AF
:101B1000286A40F004002862EEE700BFFFF7F0FCFF
:101B2000A0EB0A0159455AD8286A8007F6D50CE07F
:101B3000FFF7E6FC824605E0FFF7E2FCA0EB0A01B6
:101B400059454CD8286A8007F6D41FB1E86920F0BF
:101B50008050E861E06988B36968C1F381010229B6
:101B600044D00228C6F8608004D0FFF7C9FC0446C0
:101B700038E034E0FFF7C4FC074604E0FFF7C0FCA0
:101B8000C01B02282BD828688001F7D4206AB0F542
:101B9000803F05D16868A16820F400300843686080
:101BA000D4E908010843696821F4741108436860A6
:101BB000C6F86090FFF7A4FC044606E025E000BFED
:101BC000FFF79EFC001B022809D828688001F7D582
:101BD0001BE000BFFFF794FC001B022802D9032082
:101BE000BDE8F88F28688001F4D40EE00128F7D012
:101BF0006868226A00F48031914204D1616A00F47D
:101C00007010884201D00120EAE70020E8E70000D8
:101C1000001002400000424280044242980200202C
:101C20000070004010B5401EB0F1807F01D301204C
:101C300010BD4FF0E02460610F21601700F000FD3F
:101C40000020A06107202061002010BD704710B562
:101C5000040014D0242084F83D002068C16821F4D9
:101C60000051C160204600F059F90020206484F83A
:101C70003D0084F83E0044F8300F207310BD012071
:101C800010BD0000002805D14FF48962024903A06D
:101C900004F09ABE704700001DC7000868756172A5
:101CA0007420213D204E554C4C000000F8B50268D0
:101CB00004461068D168536910F00F0F4FF000050B
:101CC00053D003F0010601F4907737435FD0C20789
:101CD00005D0CA0503D5226C42F0010222644207F6
:101CE00005D5DA0703D0226C42F002022264820793
:101CF00005D5DA0703D0226C42F004022264020701
:101D000007D501F02002324303D0226C42F00802D2
:101D10002264226C002A34D0800604D5880602D5BD
:101D2000204600F05EFB20684069216CC0F3801003
:101D3000090700D430B3204600F032FB2068416927
:101D400049061BD5416921F040014161A06BA8B152
:101D500058494163A06BFFF7B3F8002811D0A06B7E
:101D6000416B01B0BDE8F040084783060FD58B06F4
:101D70000DD52046BDE8F84000F033BB2046FFF704
:101D800081FFF8BD2046FFF77DFF2564F8BD266B77
:101D90002023012E52D1C60650D5CE064ED510684E
:101DA00050680090506940062AD5A16B08684068C9
:101DB0000004000CEAD0A68D8642E7D9E085886948
:101DC000202818D0D06820F48070D0602068416945
:101DD00021F0010141612068416921F04001416128
:101DE00084F83E3025632068C16821F01001C1608D
:101DF000A06BFFF741F8A08DE18D401A81B219E088
:101E0000A08DE18D401A81B2E08D0028BED000295E
:101E1000BCD0D06820F49070D0602068426922F075
:101E20000102426184F83E3025632068C26822F0D6
:101E30001002C2602046FFF709FFF8BD05062BD54A
:101E40000D0629D594F83D002128F6D1A068B0F5FB
:101E5000805F01D12069B0B1206A411C21622168F4
:101E600000784860E08C401E0004000CE084E4D15F
:101E70002068C16821F08001C1602068C16841F01C
:101E80004001C160F8BD206A0088C0F308005060BE
:101E9000206A801C2062E5E74006F3D54806F1D5AC
:101EA000D168204621F04001D16084F83D3000F037
:101EB00039F9F8BD9B22000870B5040004D094F8ED
:101EC0003D00002510B106E0012070BD84F83C50B3
:101ED000204600F043F8242084F83D002068C168C3
:101EE00021F40051C160204600F0D6FA2068016953
:101EF00021F4904101612068416921F02A0141618A
:101F00002068C16841F40051C1602564202084F834
:101F10003D0084F83E00002070BD00000B4B0268BD
:101F20000B490C489A4206D18A6922F480428A61A0
:101F30004FF4C06107E0084B9A4206D1CA6922F407
:101F40000032CA610C21FFF745B9704700380140E3
:101F500000100240000801400044004070B586B007
:101F600000240094019402940394254E03682549AB
:101F700002200322244DB3421DD18B6943F48043D8
:101F80008B618B6903F4804304938B6943F00403F2
:101F90008B618969039201F0040104910102CDE98A
:101FA000001069462846FFF7B1F92815CDE900046D
:101FB000012002901EE0154EB3421FD1CB6943F4BD
:101FC0000033CB61CB6903F4003304938B6943F096
:101FD00004038B618969039201F0040104910421D7
:101FE000CDE9001069462846FFF790F90820CDE9B1
:101FF0000004029469462846FFF788F906B070BDD0
:102000000038014000100240000801400044004038
:1020100090F83E30202B0ED159B152B190F83C309F
:10202000012B08D0012380F83C300023036300F02B
:102030008FBA0120704702207047000010B50400DD
:1020400005D14FF48B62054905A004F0BDFC04F1F5
:10205000D800BDE81040022102F0A6B934C700083C
:10206000687561727420213D204E554C4C00000073
:1020700010B5040005D140F26742054905A004F0FF
:10208000A3FC04F1D800BDE81040012102F08CB996
:102090004CC70008687561727420213D204E554C74
:1020A0004C00000070B5044690F83D00202830D167
:1020B00069B362B394F83C0001282AD0012084F867
:1020C0003C002162A284E28400252564212084F85A
:1020D0003D00636B10489862636B1048D862636B75
:1020E0000F481863606B134645632668606B321DAA
:1020F000FFF738F821686FF04000086084F83C5022
:102100002068416941F080014161002070BD0120DB
:1021100070BD022070BD00006923000897230008ED
:10212000AB22000870B5040005D140F27A420F4995
:102130000FA004F049FC04F1D800050005D140F2DD
:102140007D420A490EA004F03FFCFEF767F8D4F880
:1021500090104C68FEF766F8002C05D12846BDE8C3
:102160007040042105F07ABA70BD000068C700080D
:10217000687561727420213D204E554C4C00000062
:1021800073657269616C20213D2052545F4E554C3D
:102190004C0000007047000010B507A005F000FCDF
:1021A000002006F073F920B107A0BDE8104005F04B
:1021B000F7BB08A0F9E700004B6579205374617400
:1021C00075733A200000000072656C656173656488
:1021D0002E0D0A00707265737365642E0D0A00007F
:1021E00010B505F0ADFB4FF0E0200069C00301D54C
:1021F000FFF794F907F0F6FFBDE8104005F0BEBB0D
:1022000030B593B028216846FEF79BFB14210AA83D
:10221000FEF797FB002401200F9410941194010401
:1022200012948DE8130004904FF4E010CDE90810EB
:10223000022507956846FFF765FB18B11F2112A01C
:1022400000F0D6F90F20CDE90A054FF48060CDE902
:102250000C4002210AA80E94FFF768FA18B12C214D
:1022600009A000F0C5F912200F904FF40040CDE90D
:1022700011040FA8FFF7E4F9002803D0332102A0CE
:1022800000F0B6F913B030BD626F6172645C626FCA
:102290006172642E63000000704710B5406A00212F
:1022A000C185C184FFF7EEFC10BD70B5446A20689B
:1022B000406994F83D10C0F3C0100025212904D1D5
:1022C00018B1E584204600F083F82068406994F84E
:1022D0003E10C0F38010222904D118B1E5852046B4
:1022E00000F05EF8206C40F0100020642046FFF7FC
:1022F000C9FC70BD10B50146406A096809688906C5
:102300001BD40021C1850168CA6822F48072CA60AA
:1023100001684A6922F001024A6101684A6922F0B3
:1023200040024A61202180F83E10016B012904D14E
:102330000168CA6822F01002CA60016B012902D04C
:10234000FFF77CFE10BD818DFFF780FC10BD10B53E
:10235000406A016B012902D0FFF78AFE10BD818D12
:102360004908FFF773FC10BD10B50146406A0968C3
:10237000096889060CD40021C18401684A6922F0E9
:1023800080024A610068C16841F04001C16010BD2F
:10239000FFF7C8FE10BD10B5406AFFF7FBFE10BD89
:1023A0000168CA6822F49072CA6001684A6922F022
:1023B00001024A61016B012904D10168CA6822F057
:1023C0001002CA60202180F83E100021016370478E
:1023D0000168CA6822F0C002CA60202180F83D105E
:1023E000704708B590F83E10222901D0022008BDA0
:1023F00082684FF480539A4201D1016921B1816A08
:102400009A421BD04AB10AE00268816A5268C2F35C
:1024100008020A80816A891C08E0026972B10268B8
:10242000526802F07F020A70816A491C8162C18D84
:10243000491E0904090CC18503D019E002685268DD
:10244000F1E70168CA6822F02002CA600168CA6820
:1024500022F48072CA6001684A6922F001024A616E
:10246000202180F83E10016B012903D0FFF7E6FD23
:10247000002008BD002101630168CA6822F0100233
:10248000CA6001680A68D20602D50A6849680091E4
:10249000818DFFF7DBFBEBE770B50446006801694F
:1024A000E26821F44051114301612169A0680843A9
:1024B000616908432168CA6841F20C639A43024388
:1024C000CA6020684169A26921F4407111434161E9
:1024D0001E492068884202D1FFF7CEF901E0FFF7DC
:1024E000BBF900EBC00101EB0012606864218000C1
:1024F000B2FBF0F3B3FBF1F36FF018067343B2FBDA
:10250000F0F5B2FBF0F605EB8305322303EB05157E
:10251000B5FBF1F5B6FBF1F605F0F00505EB061598
:10252000B2FBF0F6B2FBF0F0B0FBF1F06FF0180286
:10253000504306EB800003EB0010B0FBF1F0216884
:1025400000F00F002844886070BD00000038014092
:1025500038B5816282850025134604460564222031
:1025600084F83E00A26B13489062A26B1248D062BE
:10257000A26B12481063A06B0A4645632168A06BEA
:10258000091DFEF7EFFD206801684168009184F89D
:102590003C50C16841F48071C1602068416941F0DC
:1025A000010141612068416941F040014161002021
:1025B00038BD0000F52200084F230008AB220008B8
:1025C00010B505F0BDF9034808F006FEBDE810405F
:1025D00005F0D4B9F804002010B505F0B1F90348AE
:1025E00008F0FAFDBDE8104005F0C8B92806002043
:1025F00005460C4605A005F0D3F92246294607A05A
:1026000005F0CEF90DA005F0CBF9FEE75B452F6490
:1026100072765F636F6D6D6F6E5D20004572726FD5
:10262000725F48616E646C65722061742066696CCB
:10263000653A2573206E756D3A2564000A00000026
:102640000907090E002804DB00F1E02080F80014DF
:10265000704700F00F0000F1E02080F8141D704773
:1026600070B5054607F096FC040011D009A005F0EE
:1026700097F92A4621460AA005F092F90DA005F027
:102680008FF92046BDE870400022012107F036BADC
:1026900070BD00005B572F7374646C69625D20002D
:1026A0007468726561643A257320657869743A25A7
:1026B000642100000A0000002DE9FF4F87B00546A5
:1026C000089800249246002800D1F64D71E1252893
:1026D00004D02246641C534608994CE2491C4FF032
:1026E000000808460A9101782B2919D004DC20291A
:1026F00019D0232904D119E02D290ED0302909D071
:102700000026C8B202F0AEFCB0B10AA801F039F957
:1027100006461FE048F001010AE048F0020107E028
:1027200048F0040104E048F0080101E048F010011D
:10273000401C88460A90D6E70A9801782A2909D1D0
:10274000149940C91491002E02DA48F0020876422A
:10275000401C0A900A984FF0000B01782E2919D1DD
:10276000401C0A9048F48068007802F07BFC20B19D
:102770000AA801F006F983460CE00A9801782A2994
:1027800008D1149A02CA1492002900DC0021401CCE
:102790008B460A900A9801786C290AD004DC6829D3
:1027A0000FD06A2919D129E074292AD07A2914D1A5
:1027B00027E0401C0A90017848F480786C291DD0ED
:1027C0000BE0401C0A90017848F08008682904D189
:1027D00048F04001401C88460A90007865280CD0DB
:1027E00019DC582829D00FDC252871D0452804D0C1
:1027F00046286ED047287FF46CAFEFE048F40071B4
:10280000E8E748F48071E5E7622816D0632871D0C4
:102810006428F0D111E070286DD008DC662858D00B
:10282000672869D0692808D06F28E4D105E07328AB
:1028300071D0752801D07828DDD1782809D05828A2
:1028400007D06F282BD062282BD00A2228F010083E
:1028500002E01022582826D0692803D0642801D02D
:1028600028F00C085FEA485101D528F001086928D2
:102870001CD064281AD05FEA885066D5149802AB41
:10288000C01D002183E80608CDE9056820F0070097
:102890005346F0E802121490CDE9001264E00822D9
:1028A000DEE70222DCE748F02008D9E75FEA88503B
:1028B00023D51498C01D20F00703F3E802011493F8
:1028C000CDE9032BCDE90568002903DA012202E0F6
:1028D0004CE177E00022002302921A461B1A8A413B
:1028E00003DB0022404262EB010153462246CDE960
:1028F000000156E093E016E170E05FEAC8500BD5A6
:10290000149901C917E0C117EFE7C217002140422F
:1029100061EB0201E9E7AAE05FEA486004D5149997
:1029200011F8040B40B206E05FEA0860E8D514999C
:1029300031F8040B00B21491C10F02AB002883E8F8
:102940000608CDE90568E0DDDDE75FEAC8500DD592
:1029500002A8002180E80608CDE9056814985346CE
:1029600004C81490CDE9002122461AE05FEA4860CD
:1029700003D5149911F8040B08E014995FEA086074
:1029800003D531F8040B80B200E001C9149102AB09
:10299000002183E80608CDE90001CDE9056853462A
:1029A00022462846089903F01DFFDDE00A98401CE6
:1029B0000A900A99087800287FF489AE544570D2AD
:1029C0002246DCE0462801D148F020081498C01DBA
:1029D0000022CDE9048220F0070012E0672801D030
:1029E000472801D148F40068452801D0472801D183
:1029F00048F020081498C01D0123CDE9048320F07D
:102A00000700CDE902B6F0E802121490CDE90012F9
:102A1000534622462846089903F042FEA4E00127C7
:102A20005FEA887006D509E02246641C53462020E0
:102A30000899A84738467F1CB042F5D3149822461F
:102A4000641C10F804CB1490534660460899A847BC
:102A50005FEA887006D4A9E72246641C534620200A
:102A60000899A84738467F1CB042F5D39EE71498D2
:102A700002C814905FEA0109494605D00B46BBF134
:102A800000000AD001460AE0062107A2CDE9002194
:102A9000CDE902685346224662E04FF0FF314846D6
:102AA00007E06AE0DD5F0008296C6C756E280000A5
:102AB000401C02780AB1491EFAD2C71A5FEA485090
:102AC00003D558465F4500D307465FEA887006D5B0
:102AD00011E02246641C534620200899A847384636
:102AE0007F1CB042F5D306E0224609F10109641CBF
:102AF00053460899A84799F8000028B15FEA485161
:102B0000F2D5BBF1010BEFD25FEA887006D44DE736
:102B10002246641C534620200899A84738467F1C4B
:102B2000B042F5D342E7149B41F2010148EA0100AB
:102B300002CB0A22149359B1CDE90520102602AB2D
:102B4000002083E84108CDE900105346224628E7DB
:102B500005210FA3CDE90031CDE9022053462246DD
:102B60002846089903F03BFA04461FE72246641CF6
:102B7000534625200899A84718E7AAF101025346B1
:102B800000200899A8470BB02046BDE8F08F000050
:102B9000296C696E2800000010B507F0FBF90028C9
:102BA00006D0BDE810404FF0FF31024805F0EAB80A
:102BB00010BD00001409002010B528B140F27E526B
:102BC000064907A003F000FF07F0E4F9002804D04D
:102BD000BDE81040064805F001B810BDABCB0008B9
:102BE0006C6576656C203D3D2052545F454F4B002F
:102BF0001409002010B50068143807F085F900208A
:102C000010BD00002DE9F041064614460D46084669
:102C100007F064FA05F11407F4B1012C07D0A422DF
:102C2000104911A003F0D0FE0020BDE8F081346807
:102C30000EE000BF95F8351094F82120A4F114009F
:102C4000914204D23946143004F0D8FE02E02468E0
:102C5000B442EFD1B442E7D13946304604F0CEFE5B
:102C6000E2E700006EC900083000000030380A2892
:102C700001D2012070470020704700002DE9F04785
:102C80008AB016468A4605004FF0000405D140F28E
:102C90001112204920A003F097FE3EB94FF489722B
:102CA0001C491EA003F090FE00E0641C285D202853
:102CB00003D0092801D05445F7D34FF0FF393CB376
:102CC0001848A046184F04680AE042462946206882
:102CD000FDF7AEFD18B9216811F8080020B10C34D9
:102CE00038688442F1D313E0A4688CB12822002113
:102CF000684604F025FF6A465146284603F0F6F878
:102D000030B16946A047306000200AB0BDE8F087C6
:102D10004846FAE718C80008636D6400726574706D
:102D200000000000300100203401002070B50C4686
:102D3000054603281DDB1CA06168FDF755FE78B130
:102D40001AA06168FDF750FEE0B11AA06168FDF7B6
:102D50004BFEE8B119A06168FDF746FEF0B108E04E
:102D6000A06800F043F8A168020006D515A004F0A1
:102D700017FEBDE8704000F0CBB8BDE8704018A069
:102D800004F00EBE21462846BDE8704000F052B85F
:102D900021462846BDE8704000F036B92146284655
:102DA000BDE8704000F06AB96E756D006D6F6465C6
:102DB00000000000726561640000000077726974B1
:102DC00065000000506172616D6574657220696E06
:102DD00076616C6964203A202573210A00000000A6
:102DE0002573203A2025640A000000001CB5044623
:102DF0000020009001902078FDF751FB8DF8000035
:102E00006078FDF74CFB8DF801002046FDF7F1FCE2
:102E1000052800DD0520821EA0782E2802D02E2055
:102E20008DF80200A11C6846FDF781FC684605F09C
:102E3000B5FA1CBD70B50C4604282BDBA06803F066
:102E40003DF80028A0681DD0FDF764FC05461AA0D7
:102E5000E168FDF7C9FD002820D019A0E168FDF761
:102E6000C3FDE8B118A0E168FDF7BEFDD0B11AA01E
:102E7000E168FDF7B9FDB8B11BA0E168FDF7B4FD4D
:102E8000A0B107E0FFF7B2FF0500E0D519A0A168E7
:102E900004F086FDBDE8704000F03AB8002106E07D
:102EA000012104E0022102E0032100E00421284680
:102EB000BDE8704005F0C6BA6F7574707574000097
:102EC000696E707574000000696E7075745F70755E
:102ED0006C6C757000000000696E7075745F7075C1
:102EE0006C6C646F776E00006F75747075745F6FD3
:102EF00064000000506172616D6574657220696ED6
:102F000076616C6964203A202573210A0000000074
:102F100010B50DA004F044FD0FA004F041FD19A070
:102F200004F03EFD27A004F03BFD2E4804F038FDE0
:102F30002D4804F035FD2D4804F032FDBDE8104069
:102F40002BA004F02DBD000070696E205B6F7074C3
:102F5000696F6E5D0A00000020206E756D3A206773
:102F600065742070696E206E756D62657220667280
:102F70006F6D2068617264776172652070696E0A96
:102F800000000000202020206E756D2063616E20FF
:102F9000626520504530322C205045322C2050455F
:102FA0002E30322C2050452E322C20706530322CA1
:102FB000207065322C2070652E30322C2070652EEA
:102FC000320A000020202020652E672E204D534815
:102FD000203E70696E206E756D2050412E31360A8C
:102FE0000000000014D8000868D70008B0D7000817
:102FF000202068656C703A20746869732068656C7D
:1030000070206C6973740A0070B50D46032803DAEA
:10301000BDE87040FFF77CBFA86802F04FFF0028B2
:10302000A8680DD0FDF776FB4FEA000405F02EFAF4
:10303000012821460DD008A0BDE8704004F0B0BCC6
:10304000FFF7D4FE0400F1D50748A96804F0A8FCF6
:10305000DEE706A0F0E7000070696E5B25645D2086
:103060003D206F66660A0000C42D000870696E5B23
:1030700025645D203D206F6E0A00000070B50C468F
:10308000042825DBA06802F019FF0028A06817D0EB
:10309000FDF740FB054614A0E168FDF7A5FCD8B19B
:1030A00013A0E168FDF7A0FCB0B112A0E168FDF744
:1030B0009BFC98B110A0E168FDF796FC70B107E0A9
:1030C000FFF794FE0500E6D50C48A16804F068FC03
:1030D000BDE87040FFF71CBF012100E00021284639
:1030E000BDE8704005F0F4B9686967680000000049
:1030F0006F6E00006C6F77006F666600C42D00086D
:1031000070B51446050004D13722084908A003F021
:103110005BFC3CB1286C628821880368284698478C
:10312000002070BD4FF0FF3070BD00002CC40008BF
:1031300070696E20213D2052545F4E554C4C00006A
:1031400070B51E461546040004D11622084909A090
:1031500003F03AFC0DB1042E01D0002070BD206CAC
:1031600029888268204690476880304670BD0000FC
:1031700017C4000870696E20213D2052545F4E55DF
:103180004C4C000070B51E461546040004D12622A2
:10319000084909A003F018FC0DB1042E01D000204D
:1031A00070BD206C6A88298843682046984730465D
:1031B00070BD000021C4000870696E20213D2052BE
:1031C000545F4E554C4C000010B5044605488068CD
:1031D000FDF71CF80449401E51F830102060A1F1A1
:1031E000140010BD580200203809002010B504005A
:1031F00004D15F22104911A003F0E6FBA06A017818
:10320000232906D1E169814203D9E26A02448A4254
:1032100008D221460EA004F0C3FBFCF7FFFF0028F4
:10322000FDD110BD20308142FBD82146BDE81040C1
:103230000EA004F0B5BB000091CC00087468726564
:10324000616420213D2052545F4E554C4C000000DB
:103250007468726561643A257320737461636B20CE
:103260006F766572666C6F770A0000007761726E28
:10327000696E673A20257320737461636B206973EC
:1032800020636C6F736520746F20656E64206F66B9
:1032900020737461636B20616464726573732E0ABA
:1032A000000000002DE9F0411D461746040005D13D
:1032B0004FF4C772214922A003F086FB15B124B157
:1032C0001FB108E00020BDE8F08140F293121B49D5
:1032D0001FA003F079FB208B266DC0041FD5A06CC6
:1032E000C0F38F20A8420ED224A004F059FBA06C9A
:1032F0002A46C0F38F232146234804F051FB23A024
:1033000004F04EFBDEE7304605F006F9A84206D28F
:1033100035834FF0FF3106F10C0003F0A5FCFCF7FC
:103320007DFF0446AAB23946304605F00DF9054640
:103330002046FCF777FF2846C5E7000014C50008C3
:1033400064657620213D2052545F4E554C4C000060
:103350002873657269616C20213D2052545F4E557F
:103360004C4C29202626202862756666657220212D
:103370003D2052545F4E554C4C2900005B572F5551
:103380004152545D2000000084D800080A0000006B
:103390002DE9F05F9046894606461D009A464FF09B
:1033A00000074BD01EB1B8F1000F06D00BE040F281
:1033B000F712234923A003F007FB40F2F91220493A
:1033C00024A003F001FB746D2CB94FF4FE721C496C
:1033D0002BA003F0F9FA06F0DDFD10B1307E4006B7
:1033E00007D52B46424649463046BDE8F05F00F01F
:1033F00055B92069012821D001204FF4804B04F1F8
:1034000014092061AAB208EB0701204605F04CF927
:1034100002460744E060306CAD1A08EB0701D0F8B3
:1034200010C05B463046E0474FF0FF31484603F09E
:103430001BFC002DE6D15046BDE8F09F0020FBE7C5
:1034400042C5000864657620213D2052545F4E55E8
:103450004C4C00002873657269616C20213D20523C
:10346000545F4E554C4C29202626202862756666EE
:10347000657220213D2052545F4E554C4C2900006E
:1034800074785F6669666F20213D2052545F4E5507
:103490004C4C00002DE9F0411E461746040005D1B2
:1034A0004FF4E572164917A003F08EFA36B304B153
:1034B0002FB94FF4E772124916A003F085FA656D33
:1034C0002DB94FF4E8720E491DA003F07DFA28696A
:1034D000012813D001202861206C4FF4804332462C
:1034E000D0F810C039462046E0474FF0FF3105F1D3
:1034F000140003F0B9FB3046BDE8F0810020FBE783
:1035000024C5000864657620213D2052545F4E5545
:103510004C4C00002873657269616C20213D20527B
:10352000545F4E554C4C292026262028627566662D
:10353000657220213D2052545F4E554C4C290000AD
:1035400074785F6669666F20213D2052545F4E5546
:103550004C4C00002DE9F8431E469046040005D16E
:1035600040F231221F4920A003F02EFA26B134B1D7
:10357000B8F1000F03D008E00020BDE8F88340F266
:10358000352218491CA003F01FFA656DFCF746FEB2
:103590000746286950B1B2B24146284605F084F882
:1035A00004463846FCF73EFE2046E6E70120286147
:1035B000B2B24146284605F077F806463846FCF791
:1035C00031FE002000906946284605F0FBFB0246CC
:1035D000E860206C4FF40043009905692046A84735
:1035E0003046CAE75FC5000864657620213D205259
:1035F000545F4E554C4C00002873657269616C2015
:10360000213D2052545F4E554C4C2920262620281F
:1036100062756666657220213D2052545F4E554C9E
:103620004C2900002DE9F0411C46164605000BD13F
:103630004FF49A720F4910A003F0C6F940F2371206
:103640000C4911A003F0C0F927460DE0286CC168B1
:1036500028468847411C09D006F8010B297E641EC4
:10366000490601D50A2801D0002CEFD1381BBDE84E
:10367000F0810000F4C4000864657620213D2052EA
:10368000545F4E554C4C000073657269616C20218B
:103690003D2052545F4E554C4C0000002DE9F04146
:1036A0001E46144605000BD140F26112114912A0CA
:1036B00003F08AF94FF4B2720E4913A003F084F9B3
:1036C000374611E0287E400607D520780A2804D125
:1036D000286C0D21826828469047286C21788268E2
:1036E00028469047641C761E002EEBD13846BDE874
:1036F000F081000004C5000864657620213D205259
:10370000545F4E554C4C000073657269616C20210A
:103710003D2052545F4E554C4C000000FEF7A0FF78
:10372000FEE7000070B50C480468FCF777FD05461D
:10373000204605F007F904F14C0006F051FE042084
:1037400084F83400204606F075FA2846FCF76AFD36
:10375000BDE8704005F03AB85C0200202DE9FC415C
:103760001F460446DDE90831DDE90A651430406092
:103770000060C4E90827C4E90A310A462321184633
:1037800004F0DEF9D4E90A014218D4E90801154B26
:10379000121F04F04FF8E061202E04D3BD2212491D
:1037A00012A003F011F984F835600020A063E063F3
:1037B00084F840006564A564206384F83400A06741
:1037C000E067009023460190114A194604F14C002D
:1037D00006F076FE0F48816809B120468847002030
:1037E000BDE8FC8125370008ECCC00087072696FD9
:1037F00072697479203C2052545F544852454144C8
:103800005F5052494F524954595F4D415800000092
:10381000193800086C02002070B5040004D186221B
:10382000164917A003F0D0F894F8340000F0070010
:10383000022804D08722114916A003F0C5F82046BB
:1038400004F0F0FC012804D088220C49204803F041
:10385000BBF8FCF7E3FC05466FF00100206304F1C0
:10386000140004F0E4F8204605F01EF82846FCF7A2
:10387000D9FCBDE8704004F0A9BF0000DCCC000812
:1038800074687265616420213D2052545F4E554C2E
:103890004C000000287468726561642D3E73746189
:1038A0007420262052545F5448524541445F53547B
:1038B00041545F4D41534B29203D3D2052545F54AC
:1038C00048524541445F53555350454E4400000013
:1038D0007CDD000810B5029C24F001044472C0E9AC
:1038E00007120021C0E9093114304060006010BDAA
:1038F00070B50D460446FCF791FC2268A24205D043
:1039000051692960FCF78EFC002070BDFCF78AFC31
:103910004FF0FF3070BD143004F092B808B56FF06E
:10392000004469460B48FFF7E3FF30B106F032FB75
:1039300006F0D4FB04F04AFF08E006F04DFC0099C5
:10394000081AA04202D2009006F080F905F0E0FFCC
:10395000E7E700009002002030B4029C14F0FF0F53
:1039600002D030BC08F040B930BC07F0D5BE08B575
:103970000123009303F072F89DF800000128FBD0AA
:1039800008BD70B5044600256FF02F0608E02068DA
:10399000411C2160007805EB850106EB41014518CB
:1039A0002068007801F05EFB0028F0D1284670BD49
:1039B000014600205FF0010202FA00F38B4204D0BE
:1039C000401C2028F8DB4FF0FF30704710B51BA0DB
:1039D00003F0E6FF1C4C21781CA003F0E1FF2078E7
:1039E000C00702D01FA003F0DBFF2078800702D5BC
:1039F0001FA003F0D5FF2078400702D51FA003F0D9
:103A0000CFFF2078000702D520A003F0C9FF20785F
:103A1000C00602D520A003F0C3FF2078000607D51A
:103A200009480F300168BDE810401DA003F0B8BF81
:103A3000BDE810401EA003F0B3BF00006275732004
:103A40006661756C743A0A0029ED00E05343425FE9
:103A5000434653525F424653523A307825303258EB
:103A600020000000494255534552522000000000FA
:103A7000505245434953455252200000494D50523F
:103A8000454349534552522000000000554E5354BF
:103A90004B4552522000000053544B4552522000D7
:103AA0005343422D3E424641523A253038580A008F
:103AB0000A00000010B502A003F072FF002010BD44
:103AC0001B5B324A1B5B48002DE9FC41214F064637
:103AD0003878C8B1FCF78CFB04461FA003F060FFE8
:103AE0001EA003F05DFF00F001FAFCF77BFB1C4D0C
:103AF000A04213D1E86803F053FF18A003F050FF71
:103B0000D7E9010132461EE0154A16A1B23217A0CC
:103B100003F046FF11A003F043FFFEE7FCF765FB4F
:103B2000A04212D106F036FA0146A86803F038FF29
:103B30000AA003F035FF01AA6946304601F064F996
:103B4000DDE90001324600F075FC3046BDE8FC417D
:103B500002F080BB00000020000000000D0A000001
:103B6000F0C10008696E69745F6F6B0028257329C6
:103B70002068617320617373657274206661696C7B
:103B800065642061742025732E0000002DE9F04744
:103B90003A4C8AB0804660680390A0680090002686
:103BA000607815468A46B146D0B1A078A8B93448A5
:103BB00001268269C8F800204069E168401E8842F9
:103BC0000BD322691144814207D3BAF1010F04D902
:103BD00002264FF00109C8F80400E07838B90BE07C
:103BE000FCF706FB0746FCF700FB874204D16A4658
:103BF00003A9284601F008F9A07838B10398854256
:103C000003D300990844A84200D20546D4E9031220
:103C1000009B03981844A8422BD92868C30726D0D4
:103C20000B1D401E984222D38B1883421FD3102EA7
:103C30001DD230F8023C30F8044C1F27B7EBD32FCD
:103C400003D11E27B7EBD42F03D04724B4EB132F97
:103C50000DD156450BD2022E06D1B9F1000F03D07B
:103C6000D8F80430834202D048F82600761C2D1D77
:103C7000CEE70AB03046BDE8F08700000000002023
:103C8000980300202DE9F04190B006460D46202211
:103C9000664906A8FCF723FE654C60680E90A06894
:103CA0000590207858B1607898B1604A61A1163AC1
:103CB00063A003F075FE6AA003F072FEFEE75B4AA4
:103CC00068A1163A5EA003F06BFE65A003F068FEE3
:103CD000FEE74FF0010884F8018064A003F060FE65
:103CE0005FA003F05DFE00F001F9504FC6F38000C5
:103CF000E070DC3FB0B106F04DF910B106F04AF9C2
:103D000000E05BA0BA6A0146104603F049FE54A0E9
:103D100003F046FEFCF769FA054605AA0EA901F074
:103D200073F805E0F86A03F03BFE4DA003F038FE9F
:103D30000E9805F12006864203D305990144B1424D
:103D400001D284F802803246059900F073FBA07816
:103D5000494C00283ED1386B03F022FE40A003F00E
:103D60001FFE2F68276069686160A868A060EA6824
:103D7000E2602B6923616B696361AB69A361EB69E5
:103D8000E361DDE908350091CDE90130CDE9035269
:103D9000DDE906133A4639A003F002FE30A003F035
:103DA000FFFD0DF104080C98E3690D9AA16988E8FC
:103DB0000F00606900900B9B226930A00A9903F004
:103DC000EFFD27A003F0ECFD37A003F0E9FD24A0F0
:103DD00003F0E6FD4448006844F8200F4248001D07
:103DE00000782071404810300068A0603E48401DB7
:103DF000007820733C481430006820613A48801DE8
:103E00000088A082384808300068A06136480C302D
:103E10000088E061344818300088206200F074FBAC
:103E2000304602F017FA10B0BDE8F081CCC20008AD
:103E300000000020216F6E5F6661756C74000000E9
:103E4000282573292068617320617373657274205B
:103E50006661696C65642061742025732E00000022
:103E60000D0A0000696E69745F6F6B00000000004E
:103E70004E4F5F4E414D4500980300202020257392
:103E80003A2025303878202025733A20253038789C
:103E9000202025733A2025303878202025733A20B9
:103EA00025303878000000003D3D3D3D3D3D3D3D25
:103EB0003D3D3D3D3D3D3D3D3D3D3D3D3D3D3D3D32
:103EC0003D3D3D3D3D3D3D3D3D3D3D3D3D3D3D3D22
:103ED0003D3D3D3D3D3D3D3D3D3D3D3D3D3D3D3D12
:103EE0003D3D3D3D3D3D000024ED00E00748084BD1
:103EF00010B5A3F120024068A2F1200103F050FDAB
:103F0000BDE8104003A003F04BBD0000F0C1000865
:103F1000E80200200D0A000070B50C461546014667
:103F200020221448FCF734FD12482022214620307C
:103F3000FCF72EFD0F48202229464030FCF728FDD3
:103F40000E480D490E4A4160521A0E490E4BC0E907
:103F50000221A3EB0101016102D00121017070BDBA
:103F60000A48006803F01CFDBDE8704008A003F09B
:103F700017BD0000A8020020180D0020000000203E
:103F8000181100200000000840E20008F0C10008FD
:103F90000D0A000038B50D46244C022804DA24A08E
:103FA00003F0FEFC002038BD2FA16868FCF71CFD63
:103FB00058B130A16868FCF717FD98B130A1686866
:103FC000FCF712FD002828D02DE0206840F01000FA
:103FD00020600A20002190FBF1F12BA003F0E0FC0F
:103FE000002038BD206840F00800206000210868EB
:103FF000009027A0009A03F0D3FC042108680090E9
:1040000023A0009A03F0CCFC03210868009020A0B4
:10401000009A03F0C5FC002038BD40F24D12234940
:1040200023A002F0D1FC002038BD000014ED00E018
:10403000506C6561736520696E7075742027636DBF
:10404000625F74657374203C44495642595A455224
:104050004F7C554E414C49474E45447C4153534556
:1040600052543E27200A000044495642595A4552AC
:104070004F000000554E414C49474E45440000005A
:1040800041535345525400007A3A25640A00000017
:10409000616464723A3078253032582076616C75EC
:1040A000653A3078253038580D0A0000ECC2000817
:1040B000300000000EB5002000900190029002AA8E
:1040C00001A9684603F020FD09A0009903F068FCEF
:1040D0000BA0019903F064FC0DA0029903F060FCB1
:1040E000DDE90001411A0EA003F05AFC00200EBDCC
:1040F000746F74616C202020203A2025640A00002F
:104100007573656420202020203A2025640A000071
:104110006D6178696D756D20203A2025640A000074
:10412000617661696C61626C653A2025640A000001
:1041300010B50C46022835D139A16068FCF754FC53
:10414000002851D038A16068FCF74EFC00284ED002
:1041500037A16068FCF748FC00284BD035A16068A7
:10416000FCF742FC002848D034A16068FCF73CFC16
:10417000002845D033A16068FCF736FC002842D007
:1041800032A16068FCF730FC00283FD032A16068A3
:10419000FCF72AFC00283CD031A16068FCF724FC25
:1041A000002839D030A003F0FBFB35A003F0F8FB6A
:1041B00036A003F0F5FB3CA003F0F2FB41A003F0B6
:1041C000EFFB47A003F0ECFB4CA003F0E9FB52A08F
:1041D00003F0E6FB58A003F0E3FB60A003F0E0FB74
:1041E00067A003F0DDFB19E001F094FB16E001F09D
:1041F0006FFC13E001F000FB10E000F0C3FF0DE0E6
:1042000001F07EFA0AE001F09BF807E001F0E4F922
:1042100004E001F037F901E000F02CFF002010BDB0
:10422000746872656164000074696D6572000000F5
:1042300073656D006576656E740000006D7574655C
:10424000780000006D61696C626F78006D73677152
:1042500075657565000000006D656D706F6F6C00B1
:10426000646576696365000055736167653A206C23
:10427000697374205B6F7074696F6E735D0A000000
:104280005B6F7074696F6E735D3A0A0020202020A6
:10429000746872656164202D206C69737420746881
:1042A00072656164730A00002020202074696D65C6
:1042B00072202D206C6973742074696D6572730AA5
:1042C000000000002020202073656D202D206C69E7
:1042D00073742073656D6170686F7265730A000096
:1042E000202020206D75746578202D206C697374F2
:1042F000206D75746578730A00000000202020206E
:104300006576656E74202D206C6973742065766502
:104310006E74730A00000000202020206D61696C1B
:10432000626F78202D206C697374206D61696C62F6
:104330006F78730A00000000202020206D736771E1
:1043400075657565202D206C697374206D657373B8
:10435000616765207175657565730A0020202020EE
:104360006D656D706F6F6C202D206C697374206D9E
:10437000656D6F727920706F6F6C730A00000000BA
:1043800020202020646576696365202D206C697388
:104390007420646576696365730A000010B501F0E6
:1043A000B9FA002010BD00002DE9F0410F460500CC
:1043B00005D140F29112194919A002F005FBA5F1AF
:1043C000D804FBF72BFF0646A06C406827B1012FED
:1043D0000BD0022F17D11BE0D4F88C10814208D2E9
:1043E000AA6CC2F38F22114403E0D4F88C108142EE
:1043F00009D9091A07D0C4F88C00032000EB012169
:10440000284603F02BF93046BDE8F041FBF70ABF20
:10441000D4F88C108142E3D9F5E70000E7C6000824
:1044200073657269616C20213D2052545F4E554C7A
:104430004C0000002DE9F041064619481446194F7A
:10444000827875188AB1C07808B1B86900E0F86957
:10445000214603F0A5FA14A003F0A2FAB44201D257
:10446000344602E0A54200D22C46386903F098FA9F
:104470000DA003F095FA08E021460CA0226803F095
:104480008FFA09A003F08CFA241DA542F4D80EA0DF
:1044900003F086FABDE8F04103A003F081BA000002
:1044A00000000020F0C100080D0A00002020616417
:1044B00064723A20253038782020202064617461AD
:1044C0003A202530387800003D3D3D3D3D3D3D3DA5
:1044D0003D3D3D3D3D3D3D3D3D3D3D3D3D3D3D3D0C
:1044E0003D3D3D3D3D3D3D3D3D3D3D3D00000000F0
:1044F00008B50121009102F0FBFA9DF800000128A7
:10450000FBD0002008BD000070B5814D814C95F8AE
:104510003800800705D5606B03F042FA7EA003F0F7
:104520003FFAA86B400079D595F82400A8B3C007DE
:1045300005D0A06B03F034FA77A003F031FA95F8B8
:104540002400800705D5E06B03F02AFA72A003F07F
:1045500027FA95F82400000705D5206C03F020FA0F
:104560006DA003F01DFA95F82400C00605D5606C17
:1045700003F016FA68A003F013FA95F82400010678
:104580000BD5C10701D1800707D5A96AD4F89000DF
:1045900003F006FA60A003F003FA95F82C00E0B3EC
:1045A000C00705D0E06C03F0FBF95BA003F0F8F95D
:1045B00095F82C00800705D5206D03F0F1F956A081
:1045C00003F0EEF995F82C00400705D5606D03F077
:1045D000E7F951A003F0E4F995F82C00000705D5A0
:1045E000A06D03F0DDF94CA003F0DAF995F82C008A
:1045F000C00605D5E06D03F0D3F947A003F0D0F96C
:1046000095F82C0001060CD580070AD5296BD4F843
:10461000940003F0C5F940A001E002E03BE003F0A4
:10462000BFF9A88EB8B3C00705D0606E03F0B8F923
:1046300039A003F0B5F995F83400800705D5A06ED0
:1046400003F0AEF934A003F0ABF995F8340040075D
:1046500005D5E06E03F0A4F92FA003F0A1F995F8B9
:104660003400000705D5206F03F09AF92AA003F063
:1046700097F9A88EC00505D5606F03F091F926A0C3
:1046800003F08EF9A88E800505D5A06F03F088F998
:1046900021A003F085F9A86B002838DAE86B002820
:1046A00035D0C00705D0E06F03F07AF91AA003F007
:1046B00077F995F83C00800706D5D4F8800003F020
:1046C0006FF915A003F06CF995F83C00400706D58A
:1046D000D4F8840003F064F90FA003F061F995F8B1
:1046E0003C00000706D5D4F8880003F059F90AA069
:1046F00003F056F995F83C00C00608D5D4F88C00B4
:1047000003F04EF9BDE8704003A003F049B970BD55
:1047100098030020F0C100080D0A00000D4810B5F4
:10472000C16891F82110890703D40B490020087053
:104730000EE0816821B180220748FCF729F903E0E7
:1047400006A10548FCF731F806A10348FCF7BBF8C1
:10475000014810BD30010020800600206D736820E4
:10476000000000003E000000F8B5154D00208DF857
:104770000000E86820B9A422124913A002F024F92D
:10478000E868D0F80C424FF0FF30002C14D00646F9
:1047900001236A463146204602F0B4FC01280CD0C1
:1047A0003146E86804F0B0F9E868D0F80C02A0429D
:1047B000EED00400ECD13046F8BD9DF80000F8BD05
:1047C00030010020BDC700087368656C6C20213D76
:1047D0002052545F4E554C4C0000000010B5064C62
:1047E000E06820B9C322054905A002F0EDF8E068B1
:1047F00004F040F9002010BD30010020CBC70008B4
:104800007368656C6C20213D2052545F4E554C4CB2
:104810000000000070B5214C0646E06820B9D622A1
:104820001F4920A002F0D0F8304602F0A7FB050097
:104830002CD0E068D0F80C02A8422DD040F24311F1
:10484000284602F09FFB002826D1E068D0F80C0231
:1048500038B102F03DFBE0680021D0F80C0202F014
:10486000C3FCE0685122002100F5DB7003F068F919
:10487000E0680021A0F80812A0F80A12C0F80C5253
:104880002846BDE870400C4902F0AEBC3146BDE898
:1048900070400AA003F084B870BD00003001002011
:1048A000D8C700087368656C6C20213D2052545FA6
:1048B0004E554C4C00000000DD47000866696E73E1
:1048C000683A2063616E206E6F742066696E6420A2
:1048D0006465766963653A2025730A0070B5084CF3
:1048E0000546E06820B99022064907A002F06CF85E
:1048F000E06810F8211F65F34101017070BD0000F0
:1049000030010020A7C700087368656C6C20213D4A
:104910002052545F4E554C4C00000000014AC2E941
:1049200000017047300100207CB516491648FFF79A
:10493000F5FF4FF40471012002F082F8134CE0609F
:10494000D0B10A211420CDE900014FF48053002298
:104950000F4910A005F032F9054600231A460FA1B1
:10496000E06804F027F80120FFF7B8FF15B12846EA
:1049700005F058FB00207CBD0AA003F011F84FF0B1
:10498000FF307CBD10E1000838E000083001002055
:10499000BD490008747368656C6C000073687278B8
:1049A000000000006E6F206D656D6F727920666F7C
:1049B00072207368656C6C0A00000000B84DE868EE
:1049C00010F8211F41F001010170D0F8EB0120B96E
:1049D00002F05AFA08B1FFF71DFFFFF79FFE02F041
:1049E000DFFF0026FFF7C0FE0400FBD41B2C07D01E
:1049F000E86890F82010012907D002290ED017E0AE
:104A0000E968012081F82000ECE75B2C02D080F8F7
:104A100020600DE0022180F82010E3E780F820609C
:104A2000412C3FD0422C45D0442C68D0432C76D02A
:104A3000002CD7D0FF2CD5D0092C6DD07F2C6CD07A
:104A4000082C6AD00D2C69D00A2CFCD0B0F80812C2
:104A5000502901D3A0F80862B0F80A32B0F8081261
:104A60008B426FD2CA1A00F5DB7100F2B7101944FD
:104A7000184403F02FF8E868B0F80A1200F5DB706C
:104A80000C54E86890F82110C90707D0B0F80A1252
:104A900000F5DB70014483A002F082FFE868B0F803
:104AA0000A42D8E0418C19B1491E89B241840EE016
:104AB000468497E7818C428C0B46491E8A4202DA73
:104AC000521C428402E0002B8CD04184418C502245
:104AD00001EB810100EB011100F5DB70263102F0E2
:104AE000D3FFE86800F5DB70FBF783FE0146E8685A
:104AF000A0F80812A0F80A1205F060FE72E7B0F8FC
:104B00000A02002889D068A002F04AFFE868B0F8DD
:104B10000A12491E13E002E015E03AE079E0B0F82D
:104B20000A12B0F808229142C3D200F5DB70095C8A
:104B30005EA002F035FFE868B0F80A12491CA0F840
:104B40000A124FE78DE0002403E057A002F028FF8F
:104B5000641CE868B0F80A02A042F6DCEC6854A0D5
:104B600004F5DB7402F01CFF204601F0FBF8FFF7B0
:104B7000D5FD014622464FA002F012FFE86800F57D
:104B8000DB70FBF736FEE968A1F80802A1F80A021B
:104B900028E7B0F80A22002A8BD0B0F80812521E7B
:104BA000491E89B293B2A0F80812A0F80A329942BD
:104BB00025D9CA1A00F2B71100F5DB701944184460
:104BC00002F088FFE868B0F8081200F5DB700E54B8
:104BD000E868B0F80A1200F5DB70014437A002F073
:104BE000DFFEE868B0F80A4203E02FA002F0D8FE2A
:104BF000641CE868B0F80802A042A2DBF5E731A027
:104C000002F0CEFEE868B0F8081200F5DB700E5432
:104C1000E8E605F0E9FDE86890F82100C00702D059
:104C200023A002F0BDFEE868B0F8081200F5DB70C2
:104C300001F0E2F8FFF772FD02F0B2FEE8685122DF
:104C4000002100F5DB7002F07BFFE86823E016A08E
:104C500002F0A6FE641CE868B0F80802A042F6DC88
:104C60000BE000F5DB700C54E86890F82100C007F9
:104C700003D021460DA002F093FEE868B0F80812B8
:104C8000491C89B2A0F80812B0F80A22521CA0F8F8
:104C90000A225029BCD3A0F80862A0F80A62A1E653
:104CA000300100202573000008000000256300008B
:104CB0000A000000257325730000000008257320FA
:104CC0002008000008200800C0E900237047000009
:104CD0002DE9F04F87B0834614461D46104619460D
:104CE000DDF8409000F078F908B1012100E00021E2
:104CF000434ADFF810A18DF8101002EBC9082046D6
:104D000011B185F0004100E029460D4607F096F903
:104D1000CDE9000106F0DAFE22462B4607F098F8AE
:104D2000D8E9002306F060FF06460F4607F086F933
:104D3000CDE9020106F0CAFE3B46324607F088F88C
:104D400006460F460022534607F04CF818D2DDE91C
:104D50000201401C41F10001CDE9020106F0B6FE5E
:104D6000D8E9002307F03EF81DD80020CDE9020065
:104D7000DDE90001401C41F10001CDE9000112E034
:104D8000002253463046394606F01EFE0BD1DDE9BF
:104D9000020150EA010201D0C20704D0401C41F1D7
:104DA0000001CDE90201B9F1000F20D1DDE90001D8
:104DB00006F08CFE22462B4607F04AF804460D46C4
:104DC00000225646534607F00DF806D90022334616
:104DD0002046294607F006F809D20098C00706D0F9
:104DE000DDE90001401C41F10001CDE9000118227C
:104DF00069465846FBF773FD07B0BDE8F08F000029
:104E000020CE00080000E03F70B514460D0009D028
:104E10008CB105F0BFF8806A286005F0BBF8C06A65
:104E2000206070BD084A09A10BA002F0B9FD12A0D4
:104E300002F0B6FDFEE7044A10A107A002F0B0FDA3
:104E40000DA002F0ADFDFEE788C200087374617228
:104E5000745F61646472000028257329206861739F
:104E600020617373657274206661696C656420618A
:104E7000742025732E0000000D0A000073697A6506
:104E8000000000002DE9FF4F8FB09246DDE920457C
:104E90001CAA92E8C0088DF82010CDE900455A46BA
:104EA000304639461F9BFEF757FD07F0C7F8CDE99E
:104EB000040106F00BFECDE900455A461F9B06F0A3
:104EC00097FA32463B4606F0C3FF89464049804682
:104ED00001EBCA005A46D0E900678DE8F0000AA845
:104EE0001F9B06F090FADDE90C01CDE90001DDE938
:104EF0000A2340464946FEF72FFDDFF8D8800446D6
:104F00000D46BAF1000F13D0204607F097F8CDE90F
:104F1000060106F0DBFD22462B4606F099FF04460B
:104F20000D460022434606F05DFF22D8012121E014
:104F30000020CDE906000246464643462046294663
:104F400006F050FF01D8012100E00021DDE9042333
:104F5000C81789185841CDE904100022334620466D
:104F6000294606F031FD2AD1049921F0010104916E
:104F700025E00021DDE90623C81789185841CDE94D
:104F80000610002243462046294606F01DFD03D1A7
:104F9000069921F001010691DDE9060106F096FD72
:104FA00032463B4606F01EFF09D80020CDE9060038
:104FB000DDE90401401C41F10001CDE904011822A2
:104FC00004A90F98FBF78BFC13B0BDE8F08F00002D
:104FD00020CE00080000E03F1CB502460B466846A4
:104FE000FFF772FE0198C00F1CBD000010B5124CF7
:104FF0002068800702D511A002F0D2FC2068400092
:1050000011D50D48C01E007808B1FEF7DFFC0A4834
:10501000001F007808B100F039FE0748801E0088A4
:1050200008B106F039FA2068002804DABDE810401B
:1050300008A002F0B5BC10BD2CED00E06661696C03
:10504000656420766563746F722066657463680AB0
:10505000000000006465627567206576656E740AFD
:10506000000000003038092801D8012070470020D6
:10507000704700002DE9F04194B0002624A40823D5
:105080000BAA092104A800F015F908208046014662
:10509000224621A002F084FC404600F08FFF28A0A9
:1050A00002F07EFC2F4F04A9304600F015F90646A9
:1050B000002523E00BA850F825400C3CFBF7AEF888
:1050C000217A9DF8182021F08001914202D0FBF74F
:1050D000A9F812E0FBF7A6F8217D234622A01E299D
:1050E00003D257F8211001B10846997E0822CDE974
:1050F000000141461EA002F053FC6D1C0898A84216
:10510000D8DC002ECFD114B00020BDE8F081000023
:105110006465766963650000252D2A2E73202020A2
:10512000202020202020747970652020202020203D
:1051300020202072656620636F756E740A0000007F
:10514000202D2D2D2D2D2D2D2D2D2D2D2D2D2D2D9C
:105150002D2D2D2D2D202D2D2D2D2D2D2D2D2D2D8C
:105160000A00000028C80008556E6B6E6F776E004D
:10517000252D2A2E2A7320252D32307320252D38F7
:10518000640A00002DE9F04194B000262BA4082306
:105190000BAA042105A800F08DF8082080460146DE
:1051A000224628A002F0FCFB404600F007FF2EA09C
:1051B00002F0F6FB05A9304600F08EF80646002501
:1051C00033E00BA850F825400C3CFBF727F8217A78
:1051D0009DF81C2021F08001914202D0FBF722F8BB
:1051E00022E0FBF71FF804F11400616907468142D1
:1051F00012D0384602F009FCE169CDE900102346DF
:105200000822414620A002F0CBFB384605F046FBC1
:1052100014A002F0C5FB07E0E069009023460822D5
:1052200041461FA002F0BCFB6D1C0998A842C8DCD7
:10523000002EBFD114B00020BDE8F0816576656E08
:1052400074000000252D2A2E73202020202020739A
:1052500065742020202073757370656E64207468F7
:10526000726561640A00000020202D2D2D2D2D2D4A
:105270002D2D2D2D202D2D2D2D2D2D2D2D2D2D2D6B
:105280002D2D2D0A00000000252D2A2E2A73202006
:1052900030782530387820253033643A000000001B
:1052A000252D2A2E2A73202030782530387820307A
:1052B0000A0000002DE9F04104461E4617460D463F
:1052C000084602F09DFF001D2060257200206760E7
:1052D000C4E90360BDE8F0812DE9F0410D460021ED
:1052E0002961E96891B1297A81B12E6888B10446B3
:1052F000FAF794FF0146A4F10C002A7A007A20F014
:105300008000904209D00846FAF78CFF0020BDE8E3
:10531000F0813446FAF782FF014668680027246866
:10532000B44201D1002404E010C0EA687F1CBA42F4
:10533000F5D10846FAF776FF20462F61E7E700002F
:105340002DE9F04196B000262FA408230CAA0521D0
:1053500006A8FFF7AFFF08208046014622462CA092
:1053600002F01EFB404600F029FE32A002F018FBBE
:1053700006A93046FFF7B0FF064600253BE00CA823
:1053800050F825400C3CFAF749FF0146207A9DF879
:10539000202020F080009042084602D0FAF742FF19
:1053A00028E0FAF73FFF606904F11407B842384675
:1053B00013D002F02AFB228C618C0091CDE90120F0
:1053C00023460822414622A002F0EAFA384605F0B8
:1053D00065FA25A002F0E4FA0CE002F016FB218C3D
:1053E000628CCDE9002102902346082241461FA08D
:1053F00002F0D6FA6D1C0A98A842C0DC002EB7D184
:1054000016B00020BDE8F0816D61696C626F7800B4
:10541000252D2A2E7320656E7472792073697A6542
:105420002073757370656E64207468726561640AB8
:1054300000000000202D2D2D2D20202D2D2D2D2084
:105440002D2D2D2D2D2D2D2D2D2D2D2D2D2D0A00DC
:10545000252D2A2E2A73202530346420202530342F
:10546000642025643A0000000A000000252D2A2E41
:105470002A732025303464202025303464202564AC
:105480000A000000F0B597B0082300262FA40EAA4A
:10549000194608A8FFF70EFF0827224639462DA017
:1054A00002F07EFA384600F089FD34A002F078FA66
:1054B00008A93046FFF710FF064600253EE00EA87B
:1054C00050F825400C3CFAF7A9FE217A9DF82820D7
:1054D00021F08001914202D0FAF7A4FE2DE0FAF704
:1054E000A1FE2346002054F82C1F01E00968401C4F
:1054F000A142FBD1002814DDD3E90921D3F81CC057
:105500000390CDF800C0CDE901210822394624A03E
:1055100002F046FA204605F0C1F920A002F040FA58
:105520000BE0D3E90942D969CDE90220CDE90014A5
:105530000822394621A002F033FA6D1C0C98A842CB
:10554000BDDC002EB4D117B00020F0BD6D656D70CC
:105550006F6F6C00252D2A2E7320626C6F636B2099
:10556000746F74616C206672656520737573706505
:105570006E64207468726561640A0000202D2D2D10
:105580002D20202D2D2D2D20202D2D2D2D202D2D8C
:105590002D2D2D2D2D2D2D2D2D2D2D2D0A000000E5
:1055A000252D2A2E2A7320253034642020253034DE
:1055B000642020253034642025643A00252D2A2ECD
:1055C0002A7320253034642020253034642020259F
:1055D0003034642025640A002DE9F04194B000269F
:1055E0002CA408230BAA062105A8FFF763FE0820B8
:1055F0008046014622462AA002F0D2F9404600F039
:10560000DDFC2EA002F0CCF905A93046FFF764FEC0
:105610000646002535E00BA850F825400C3CFAF76B
:10562000FDFD217A9DF81C2021F08001914202D0DD
:10563000FAF7F8FD24E0FAF7F5FD606904F11407C4
:10564000B842384611D002F0E0F9A18CCDE9001043
:105650002346082241461FA002F0A2F9384605F071
:105660001DF921A002F09CF90AE002F0CEF9A18C0C
:10567000CDE900102346082241461CA002F090F913
:105680006D1C0998A842C6DC002EBDD114B00020C4
:10569000BDE8F0816D736771756575650000000088
:1056A000252D2A2E7320656E7472792073757370A0
:1056B000656E64207468726561640A00202D2D2D6A
:1056C0002D20202D2D2D2D2D2D2D2D2D2D2D2D2D24
:1056D0002D0A0000252D2A2E2A732025303464201F
:1056E0002025643A000000000A000000252D2A2E23
:1056F0002A732025303464202025640A000000002D
:10570000F0B595B0002623A408230DAA032107A80D
:10571000FFF7D0FD08272246394620A002F040F9C5
:10572000384600F04BFC26A002F03AF907A93046B3
:10573000FFF7D2FD0646002523E00DA850F82540CE
:105740000C3CFAF76BFD217A9DF8242021F08001B2
:10575000914202D0FAF766FD12E0FAF763FD04F118
:10576000140002F052F9E17F226A0823CDE90032E9
:10577000CDE9021023460822394619A002F010F99B
:105780006D1C0B98A842D8DC002ECFD115B000209C
:10579000F0BD00006D75746578000000252D2A2E7F
:1057A000732020206F776E65722020686F6C6420F4
:1057B00073757370656E64207468726561640A0045
:1057C000202D2D2D2D2D2D2D2D202D2D2D2D202D30
:1057D0002D2D2D2D2D2D2D2D2D2D2D2D2D0A000076
:1057E000252D2A2E2A7320252D382E2A7320253088
:1057F00034642025640A00002DE9F04194B00026AD
:105800002CA408230BAA022105A8FFF753FD0820AA
:105810008046014622462AA002F0C2F8404600F027
:10582000CDFB2EA002F0BCF805A93046FFF754FDD1
:105830000646002535E00BA850F825400C3CFAF749
:10584000EDFC217A9DF81C2021F08001914202D0CC
:10585000FAF7E8FC24E0FAF7E5FC606904F11407C4
:10586000B842384611D002F0D0F8A18BCDE9001033
:105870002346082241461FA002F092F8384605F060
:105880000DF815A002F08CF80AE002F0BEF8A18B2A
:10589000CDE900102346082241461AA002F080F804
:1058A0006D1C0998A842C6DC002EBDD114B00020A2
:1058B000BDE8F08173656D6170686F72650000000E
:1058C000252D2A2E73207620202073757370656E27
:1058D00064207468726561640A000000202D2D2D1B
:1058E000202D2D2D2D2D2D2D2D2D2D2D2D2D2D0A18
:1058F00000000000252D2A2E2A7320253033642035
:1059000025643A00252D2A2E2A7320253033642061
:1059100025640A002DE9F041B6B000263DA4082315
:105920002EAA012128A8FFF7C5FC082080460146C1
:1059300022463A4802F034F8404600F03FFB38A0D7
:1059400002F02EF828A93046FFF7C6FC06460025CF
:1059500057E02EA850F825400C3CFAF75FFC0746AC
:10596000207A9DF8A81020F08000884203D03846A5
:10597000FAF758FC44E08022214608A802F084F897
:105980003846FAF74FFC94F8350000902346082279
:10599000414633A002F004F894F8340000F0070008
:1059A000012807D0022807D040B1042808D00328D6
:1059B00008D00AE02DA006E02FA004E031A002E00C
:1059C00033A000E035A001F0EBFFA76A00E07F1CE8
:1059D00038782328FBD0206B03F0FAFF0146D4E986
:1059E0000A023B1AD31A64277B43A76CCDE90071E6
:1059F000B3FBF2F3E169401A81182BA001F0D0FF4C
:105A00006D1C2C98A842A4DC002E9BD136B000203F
:105A1000BDE8F081746872656164000008D900080F
:105A2000202D2D2D20202D2D2D2D2D2D2D202D2DDA
:105A30002D2D2D2D2D2D2D2D202D2D2D2D2D2D2DA3
:105A40002D2D2D20202D2D2D2D2D2D20202D2D2DBA
:105A50002D2D2D2D2D2D2D202D2D2D0A000000005A
:105A6000252D2A2E2A73202533642000207265619B
:105A700064792020000000002073757370656E64E7
:105A80000000000020696E697420202000000000E2
:105A900020636C6F73652020000000002072756E1B
:105AA0006E696E670000000020307825303878205D
:105AB0003078253038782020202025303264252584
:105AC0002020203078253038782025730A00000007
:105AD000F0B593B000262AA408230BAA0A2104A833
