:020000040800F2
:1000000078080020C5000008F31D00084D180008FE
:1000100000000000000000000000000000000000E0
:10002000000000000000000000000000F51E0008B5
:100030000000000000000000F51D0008F71E000889
:10004000D700000800000000D7000008D700000813
:10005000D70000084F0300085F0300086F03000883
:1000600000000000D7000008E9020008D7000008DF
:10007000D7000008711F0008D7000008000000002A
:10008000D70000080000000000000000D7000008B2
:1000900000000000D7000008D7000008D7000008C3
:1000A00000000000D700000800000000ED26000856
:1000B0000348854600F0A2F800480047852800085C
:1000C000780800200448804704480047FEE7FEE720
:1000D000FEE7FEE7FEE7FEE76F1F0008B10000083D
:1000E00030B50B46014600202022012409E00D46D0
:1000F000D5409D4205D31D469540491B2546954058
:1001000040191546521E002DF1DC30BDF0B51FB46C
:100110000646002082B005464024019100901BE075
:10012000019922460F46304600F020F8049A059BBC
:10013000801A994110D310461946224600F04DF816
:10014000361A8F410197224601200021009F00F0BE
:1001500044F838184D4100902046641E0028DFDC2A
:10016000019B00982946324607B0F0BD10B5202A01
:1001700004DB0846203AD040002110BD0B46D34096
:10018000D0402024A21A91400843194610BD10B552
:1001900003461C460C43A40703D009E010C9121FF4
:1001A00010C3042AFAD203E00C781C70491C5B1CB3
:1001B000521EF9D210BDD2B201E00270401C491E9D
:1001C000FBD270470022F6E710B513460A460446F4
:1001D0001946FFF7F0FF204610BD10B5202A04DBBA
:1001E0000146203A9140002010BD914020239C1AE6
:1001F0000346E3401943904010BD0000064C012522
:10020000064E05E0E36807CC2B430C3C98471034BE
:10021000B442F7D3FFF750FFCC290008EC290008BF
:10022000F8B50D00044651D0402002F077FB206065
:10023000002801D102F0FCFA2E462036307802F078
:100240006DFB070043D0307A02F068FB0090002875
:100250003DD031783846FFF7B5FF317A0098FFF787
:10026000B1FF216828780870216868784870216893
:100270001848486021681848886021681748C86095
:100280002168174808612168164848612068C761DD
:1002900021680020203148702168327820310A70AE
:1002A0002268009951622168327A20310A722168ED
:1002B000203148722268696B51632268E96AD16211
:1002C0002168203148762168E86BC863F8BD02F0E8
:1002D000AFFAF8BD511A00081D1C0008E91A000801
:1002E000C91B0008891A000810B5034800F0BEF8C1
:1002F000024800F0BBF810BDEC01002030020020E5
:1003000010B504460068054940181421FFF7E8FEBF
:10031000800020640248E06310BD0000F8FFFDBFCC
:100320000000024030B5056C0124AC40C56B6C6028
:10033000046863604368102B036803D09960006809
:10034000C26030BD9A600068C16030BD704710B5B2
:10035000012000F061F9022000F05EF910BD10B537
:10036000042000F059F9082000F056F910BD10B52E
:10037000102000F051F9202000F04EF9402000F04C
:100380004BF9802000F048F910BD72B6FEE700007E
:100390000EB5044A6B4607CA07C3684601F02BFD39
:1003A0000EBD00008829000870B5044610460023E1
:1003B0000A4D0FE0227850400022641CC60702D08C
:1003C0004008684000E04008521C92B2082AF5D369
:1003D0005B1C9BB28B42EDD370BD000001A00000FE
:1003E00030B5014620314B780022022B04D0042383
:1003F00083630A70012030BD03681C680E25AC437E
:100400001C6003681C68640864001C600123056CA0
:100410001C46C06BAC4044604B700A70002030BD7D
:1004200070B50024014620314A78022A03D0042105
:100430008163012416E0026813680E25AB43136044
:10044000026813685B085B0013600122056C1346A9
:10045000AB40C56B6B604A7000220A70416B00298B
:1004600000D08847204670BD806B7047F0B4C16BE8
:100470000D6801680C680422066C1346B3402B42D9
:100480000DD063070BD50B689B0602D40B68934312
:100490000B60016C8A40C16B4A60C16A19E0022797
:1004A000B74002462F4001232032002F15D0A70766
:1004B00013D50C68A40604D40C680A25AC430C6060
:1004C0005370036C02219940C36B59600021117075
:1004D000816A002916D0F0BC08470827B7402F4290
:1004E00010D024070ED50C680E25AC430C60046CAC
:1004F0001946A140C46B6160836353700021117081
:10050000016BE6E7F0BC704770B5040021D0022112
:100510002046203005464170226811680E48A368C5
:100520000140606826691843E368334318436369F0
:100530001843A3691843E369184308431060204631
:10054000FFF7DEFE0021A1630120687029700846D4
:1005500070BD012070BD00000FC0FFFFF8B504465C
:100560008C46203001780025012909D0012606702B
:1005700041780027012905D0077002252846F8BDDB
:100580000220F8BD02214170A76320680168490874
:100590004900016061462046FFF7C4FEE06A00287A
:1005A0002068016802D00E22114306E00A2211439E
:1005B000016020680168042291430160206801689D
:1005C00031430160DAE7000070B5044600F00EF92F
:1005D0000546601C02D004480078241800F006F993
:1005E000401BA042FAD370BDE400002070B5094A58
:1005F0000524116804E08B88834200D18C600C31A3
:100600001368002B05D095880C2675435B198B4227
:10061000F1D870BD8400002010B504494A69024237
:1006200002D04861FFF7E2FF10BD00000004014066
:10063000F8B5002303240125BAE02E469E40B446B7
:1006400032407CD00E79B607B60F012E01D0022EB3
:1006500017D186682746B6465E00B74000967646B4
:10066000BE43B646CF68009EB740764637438760A4
:1006700046686746BE430F79FF06FF0F9F4037432A
:1006800047600E79F643B6070ED0C6682746B446D3
:100690005E00B646B7406646BE43B4468F687646AF
:1006A000B74066463743C7600E79B607B60F022ECD
:1006B00014D1DE08B60036180096366A5F07B446D5
:1006C000FE0E0F27B646B7406646BE43B4460F69D6
:1006D0007646B74066463743009E3762066827462F
:1006E000B4465E00B646B7406646BE430F79B44690
:1006F000BF07BF0F7646B7406646374307604E6870
:10070000B603B60F53D02D4FBE692E43BE61BE69EE
:100710009F08F607F60F2A4EBF00BE190096B6686E
:100720000F27B4469E07360FB646B7406646BE430F
:100730000927FF06B446B84202D1002710E036E090
:10074000204FB84201D101270AE01F4FB84201D122
:10075000022705E01D4FB84201D1032700E005271D
:100760007646B74066463743009EB760184EB66877
:100770004F689643FF0200D51643154FBE60FE68D2
:100780004F689643BF0200D51643114FFE607E6846
:100790004F689643BF0300D516430D4F7E603E68F9
:1007A0004F689643FF0300D51643094A16605B1C49
:1007B0000A681646DE4000D03FE7F8BD0010024050
:1007C000000001400004004800080048000C0048F8
:1007D000000401400069084000D001207047002A51
:1007E00001D08161704781627047000001488068D4
:1007F00070470000E400002010B505480168054A74
:10080000127889180160044801F0E9FF10BD00006A
:10081000EC000020E40000208400002010B5064811
:100820000168102211430160002000F007F800F079
:1008300027F8002010BD00000020024070B50446DB
:100840000D4D7D202978C000FFF74AFC01460B487A
:100850000068FFF745FC00F073FB002809D1042C69
:1008600007D200222146401E00F070F800206C6084
:1008700070BD012070BD0000E4000020F0000020E9
:1008800008B50848816901221143816181691140DD
:100890000091C26901040A43C261C0690840009026
:1008A00008BD00000010024070B515460E46040059
:1008B00003D0E06F002802D007E0012070BD0021C6
:1008C00078200155204600F0D1FE2420E067206802
:1008D0000168490849000160204601F0DDFD01285A
:1008E000ECD0606A002802D0204601F017FC216895
:1008F0004A680120C00282434A6021688A6808234E
:100900009A438A60854206D121684A681202120A17
:1009100033061A434A6022681168814329431160F3
:1009200020680168012211430160204601F05CFC4F
:1009300070BD0000002805DBC106C90E01208840FB
:10094000014908607047000000E100E010B501F0C7
:1009500015FF10BDF8B505460068354CC00352D5EB
:10096000E0690026C00007D4E16920040143E16189
:10097000E1690140012600912E480168C90510D4A3
:100980000168821511430160FFF730FF074604E05C
:10099000FFF72CFFC01B642824D826480068C00538
:1009A000F6D5206A03273F02384020D069683940D5
:1009B00081421CD0206A226AB843012109040A43FB
:1009C0002262226A8A4322622062C0070FD0FFF7A8
:1009D0000DFF009008E0FFF709FF0099411A164843
:1009E000814201D90320F8BD206A8007F3D5206A2F
:1009F0006968B84308432062002E04D0E1690120F1
:100A000000078143E1612878C00705D0206BA96801
:100A100080088000084320632878800605D5206B75
:100A200010218843E968084320630020F8BD0000D6
:100A3000001002400070004088130000F8B50F4617
:100A4000060059D03A4D2868C007C00FB84209D2F5
:100A5000286840084000384328602868C007C00F55
:100A6000B84249D13068334C81070CD5400704D5D2
:100A7000606807210902084360606068F0218843CC
:100A8000B168084360603078C00726D070680128DC
:100A90000ED0216802280ED0890700292CDA61685F
:100AA0008908890001436160FFF7A0FE00900DE016
:100AB00021688903F1E78901EFE7FFF797FE0099C5
:100AC000411A1D48814201D90320F8BD60680C21FC
:100AD0000840716889008842EFD12868C007C00FBC
:100AE000B8420BD92868400840003843286028687D
:100AF000C007C00FB84201D00120F8BD30784007D0
:100B000006D56068072109028843F16808436060E0
:100B100000F028F86168094A0906090F515CC840CD
:100B2000074908600020FFF789FE0020F8BD00009B
:100B3000002002400010024088130000B429000881
:100B4000F00000200448054900684968044A490546
:100B5000490F515CC8407047F0000020001002406F
:100B6000C429000810B5104A51680C200B460340F8
:100B70000E48042B17D0082B15D18B020C4C1B0FE1
:100B8000E45CD26A0A4B1207120F10339A5CC90355
:100B900005D500231946FFF7B9FA214601E02046A2
:100BA000044901F0D3FD10BD0010024000127A008C
:100BB0009429000800093D00FEB5040070D020789B
:100BC000DC4DC0074AD068680007800F012807D0B5
:100BD00068680007800F022809D16868C00306D53D
:100BE000286880033AD560680028E7D036E061685D
:100BF000012914D001208004002901D0052914D036
:100C00002A68012109048A432A60296881432960EE
:100C10006068002816D0FFF7E9FD06460EE0286858
:100C20000121090408432860F2E72968014329608B
:100C3000F5E7FFF7DBFD801B64286ED8286880038A
:100C4000F7D50BE0FFF7D2FD064604E0FFF7CEFD37
:100C5000801B6428F1D828688003F7D42078012607
:100C6000800700283CDA68680007800F07D06868B2
:100C70000007800F022809D16868C00306D42868DD
:100C8000800716D5E06801280AD112E0E068002844
:100C9000286816D030432860FFF7A8FD074605E016
:100CA00043E1FFF7A3FDC01B0228C6D828688007D0
:100CB000F7D52868F82188432169C90008432860CE
:100CC0000EE0400840002860FFF790FD074604E072
:100CD000FFF78CFDC01B0228AFD828688007F7D427
:100CE0002078000722D5E0690028686A0ED03043DA
:100CF0006862FFF77BFD074604E0FFF777FDC01B46
:100D000002289AD8686A8007F7D50FE040084000AB
:100D10006862FFF76BFD074605E09DE0FFF766FDA3
:100D2000C01B022889D8686A8007F7D42078042776
:100D30004007002860DA00200190E869C00008D46C
:100D4000E969B8060143E961E969014001200091C0
:100D5000019079480168C90511D4016882151143D1
:100D60000160FFF743FD009005E0FFF73FFD0099AC
:100D7000401A642870D870480068C005F5D5A0688E
:100D800001280AD0002801D0052810D0286A400880
:100D900040002862286AB84301E0286A304328628C
:100DA000A068002812D0FFF721FD00900AE0286A11
:100DB00038432862F1E7FFF719FD0099411A5F48AF
:100DC000814249D8286A8007F5D50DE0FFF70EFD6E
:100DD000009006E0FFF70AFD0099411A574881424A
:100DE0003AD8286A8007F5D40198002804D0E96928
:100DF000012000078143E9612078C00635D560698C
:100E000001280CD0401D686B23D038436863686BA1
:100E1000400840006863FFF7E9FC064622E0686B83
:100E200038436863686B30436863FFF7DFFC06464E
:100E300004E0FFF7DBFC801B02285BD8686B8007AF
:100E4000F7D5686BF8218843A169C9000843686336
:100E50000BE0B8436863F4E74CE0FFF7C7FC801B86
:100E6000022847D8686B8007F7D4206A00285ED034
:100E700069680907890F022942D00126360602282F
:100E8000286805D0B0432860FFF7B0FC044633E083
:100E9000B0432860FFF7AAFC074604E0FFF7A6FC72
:100EA000C01B022826D828688001F7D4E86AE16AC6
:100EB000000900010843E862616AA06A08436968A2
:100EC0003D2212049143084368602868304328603B
:100ED000FFF78CFC044604E0FFF788FC001B0228A7
:100EE00008D828688001F7D521E0FFF77FFC001BB8
:100EF000022801D90320FEBD28688001F5D416E040
:100F00000128F8D06868E96A01221204636A024085
:100F10009A420AD10907E26A090F914205D10F21CD
:100F200089040840A16A884201D00120FEBD00204A
:100F3000FEBD000000100240007000408813000059
:100F4000094910B5401E884201D9012010BD074C47
:100F500060610321081F01F011FC0020A06107203F
:100F60002061002010BD0000FFFFFF0000E000E056
:100F700070477047F0B502462032137F012B1BD01B
:100F8000012616770223537705686B68AC687027D3
:100F9000BB430F681F436F600068084B984202D044
:100FA000074B984204D1802349689C4321438160C8
:100FB000567700201077F0BD0220F0BD002C0140D4
:100FC0000004004070B5040005D025462035687F38
:100FD000002802D006E0012070BD002028772046BE
:100FE00000F014F802206877211D206800F0C8FF87
:100FF00001204034A071A877E87720706070A0705D
:10100000E070207160716877002070BD08B50068DD
:10101000094988420FD109488269C1140A43826193
:10102000806900220840009011460D20FFF78EFCD9
:101030000D20FFF77FFC08BD002C0140001002408E
:10104000014620314A7F012A01D001207047022247
:101050004A770268D36801210B43D3600068084ACD
:10106000904202D0074A904204D182685207520F40
:10107000062A02D002680A4302600020704700007E
:10108000002C014000040040F8B505460446203518
:10109000287F0026012817D00120287702206877B2
:1010A000226890687727FF23B8431B02984390601B
:1010B0000868502838D00EDC20284FD006DC0028E5
:1010C0004CD010281ED149E00220F8BD302845D070
:1010D000402817D13AE060282ED0702819D001227C
:1010E0001203801A0FD090420CD1CB684A688968ED
:1010F000206800F081FF206881680122920311437B
:10110000816000E0012601206877002028773046C2
:10111000F8BDCB684A688968206800F06DFF2168D7
:10112000886838438860EEE7CA684968206800F03C
:1011300076FF5021206806E0CA684968206800F000
:101140007FFF6021206800F062FFDCE7CA68496821
:10115000206800F064FF40212068F4E7226801461F
:101160001046F0E7704770B5044600680169002535
:10117000C9438907002915DBC168C943890711D410
:10118000E91E0161012020772068806980072046E0
:1011900002D0FFF7E7FF04E000F096F8204600F0E9
:1011A00094F8257720680169C943490717D4C168B5
:1011B000C943490713D40421C943016102202077A0
:1011C000206880698005800F204602D0FFF7CAFFA3
:1011D00004E000F079F8204600F077F825772068E1
:1011E0000169C943090716D4C168C943090712D464
:1011F0000821C9430161042020772068C069800765
:10120000204602D0FFF7AEFF04E000F05DF8204674
:1012100000F05BF8257720680169C943C90617D437
:10122000C168C943C90613D41021C943016108200C
:1012300020772068C0698005800F204602D0FFF724
:1012400091FF04E000F040F8204600F03EF82577DA
:1012500020680169C943C90708D1C168C943C907E2
:1012600004D1891E0161204600F030F82068016930
:10127000C943090609D4C168C943090605D48021B8
:10128000C94301612046FFF773FE20680169C94325
:10129000490609D4C168C943490605D44021C94358
:1012A0000161204600F044F820680169C9438906BD
:1012B00009D4C168C943890605D42021C943016105
:1012C0002046FFF756FE70BD7047704770B5006846
:1012D0001549884226D1154D2868002822D0046877
:1012E00019E02079810715D5002C13D02188491CDD
:1012F00089B22180628891420CD3410705D5A1684B
:10130000002902D0E068884702E0012108432071EB
:101310000020208010342868016800790001081836
:10132000A042DED870BD0000002C0140E00000208B
:1013300070477047F8B50446C06F254680352E6863
:1013400021688A6810271206002A1BDA212819D181
:10135000EFF31080012282F310888A6880239A4379
:101360008A6080F31088206F002808D0FFF738F8D3
:10137000002804D0206FFFF777F8202824D02046DB
:1013800001F07AF82168886840061BD5222E19D111
:10139000EFF31080012282F310888A6840239A4379
:1013A0008A6080F31088606F002808D0FFF718F873
:1013B000002804D0606FFFF757F8202804D020469B
:1013C00001F02AF80020F8BD6F600320F8BD10B5C9
:1013D00000F020FB10BD0000F8B502680446D0699B
:1013E000116893689E4D06462E4025468035002E96
:1013F00071D09C4FDE07F60F0F4037437ED0C707F2
:1014000006D0CF0504D5012717626A683A436A609F
:10141000820708D5DA0706D0276802223A626A688E
:1014200004273A436A60420708D5DA0706D02368E2
:1014300004221A626A6802231A436A60020709D505
:1014400020220A40324305D0236808221A626B68C2
:1014500013436B60020509D54A0107D501222368B1
:10146000D2021A626B68202213436B606A68002AFA
:1014700039D0800606D5880604D5A16E002901D092
:1014800020468847686821688968490602D428216F
:1014900008422DD0204600F0BFFF21688868400632
:1014A00022D5EFF31080012282F310888A6840234E
:1014B0009A438A6080F31088606F002814D06A49CC
:1014C0004163606FFEF7ACFF00280CD0606F416B8A
:1014D00008E000E012E0830610D58B060ED5A16E61
:1014E000A3E020468847F8BD2046FFF770FFF8BD0F
:1014F0002046FFF76CFF00206860F8BD236E012BCB
:101500007ED1C3067CD5CB067AD510231362226820
:101510009068264640064036002848DA616F086821
:1015200040680004000CE8D0378B8742E5D970830F
:101530008869202834D0EFF31080012181F31088CE
:1015400011681F01B943116080F31088EFF3108018
:10155000012181F3108821688A68520852008A604C
:1015600080F31088EFF31080012181F31088216847
:101570008A684027BA438A6080F310882020286058
:1015800000202066EFF31080012181F3108821688C
:101590000A689A430A6080F31088606FFEF720FFA4
:1015A00002206066308B718B401A81B234E0308B40
:1015B000718B401A81B2708B00289ED000299CD07C
:1015C000EFF31080012686F310881668FF27213775
:1015D000BE43166080F31088EFF31080012282F37F
:1015E00010882268966876087600966080F31088E6
:1015F0002020286000202066A066EFF3108000E025
:101600000EE0012282F31088226815689D43156060
:1016100080F31088022060662046FFF78AFEF8BD3E
:10162000030606D50B0604D5E16E002900D058E765
:10163000F8BD4006FCD54806FAD52046EFF31081E8
:10164000012383F31088146840239C43146081F3C2
:1016500010882021C1670021C16600F0F5F8F8BDAF
:101660000F08000020010004AD220008F0B587B08B
:10167000064614216846FEF7A5FD2D4930688842CC
:1016800054D12C488269012189030A43826182690D
:101690000A4005924269C9000A4342614069002438
:1016A0000840059003204002009002200190032092
:1016B000039001200490092002946946C006FEF7B9
:1016C000B7FF1E4D1C48286010208027291D91C19E
:1016D0002C616C610002AC61E8612846FEF714FFE2
:1016E000002801D0FEF751FE35676E621248134D97
:1016F0001430443511C52C60AC60EC6001206F6083
:1017000040032C61686128460838083DFEF7FCFE5E
:10171000002801D0FEF739FE7567002211461B2014
:101720006E62FFF713F91B20FFF704F907B0F0BD55
:1017300000380140001002401C000240EC01002073
:1017400070B580231B58202B01D0022070BD0029CA
:101750000BD0002A09D0012483682403A34206D1B8
:101760000369002B03D1CB0701D0012070BD0023FA
:101770000366046863681B020BD5EFF31083012531
:1017800085F3108825680126B6063543256083F366
:10179000108800F00FFF70BD7047704770B50446A9
:1017A000C06F202801D0022070BD00290BD0002A74
:1017B00009D00123A0681B03984206D120690028A4
:1017C00003D1C80701D0012070BD20464030E1643C
:1017D0000282428200202546803568602121E1672F
:1017E000216F002918D0154B8B62236F1449D962E1
:1017F000236F14491963216F134648632668E16C0F
:1018000032462832206FFEF7A9FE002804D01020AF
:1018100068602020E067D6E7216840200862EFF387
:101820001080012181F3108821688A6880231A437F
:101830008A6080F31088002070BD0000C523000876
:101840000F240008C122000870477047FEE700001F
:10185000014600B50548012900D0002102689171B8
:1018600002680121917300F053FF00BD18000020B1
:1018700008B508484169012211434161406910409F
:101880000022009011460A20FFF760F80A20FFF7B7
:1018900051F808BD0010024070B586B014216846AA
:1018A000FEF790FC2B484269012189050A434261F9
:1018B00042690A400592426949110A4342614269FC
:1018C0000A400592426949000A4342614069032582
:1018D000084009266D03F606059001222946304688
:1018E000FEF77DFFFF2000902120000400240190DE
:1018F000694602943046FEF79BFE02200194009058
:101900000124694614480294FEF792FE03200390D6
:1019100001946946009502943046FEF789FE002244
:1019200001210520FFF712F80520FFF703F8002238
:1019300001210620FFF70AF80620FEF7FBFF002230
:1019400001210720FFF702F80720FEF7F3FF06B09A
:1019500070BD0000001002400004004800B591B0C6
:10196000FEF716FD694648700007000F0F2800D9E2
:1019700010200870402008A90870C020087206488E
:101980000B9006480F9006480D9003486946C01C0E
:10199000FEF746FC11B000BD0100002064010020EC
:1019A000FC00002010B586B0002400941848019473
:1019B0000294039404941549059401602F218460D6
:1019C00041607D210461C9004461C1608021816161
:1019D000FFF7F8FA002801D0FEF7D7FC012000033A
:1019E000009069460A48FFF74FFB002801D0FEF738
:1019F000CCFC049404A906480594FFF7BBFA002820
:101A000001D0FEF7C2FC06B010BD0000002C014062
:101A10001C01002010B50D480B490160E12149026D
:101A2000416000218160C16001618161C1610C225E
:101A30000162426141620A46FEF736FF002801D08A
:101A4000FEF7A3FC10BD0000003801406401002037
:101A5000C06A002806D00122054B022903D01129B3
:101A600000D11A70704719780029FBD002707047B6
:101A70000000002003484068002801D0C1680847E2
:101A80007047000000000020F8B505462030067CB5
:101A9000022E01D2102700E020270024B94215D2DF
:101AA000BB4213D2007E0F461037002810D0686B5F
:101AB000002E16D0C0191146002807D0002905D0E5
:101AC0001A46FEF764FB002800D001242046F8BD2A
:101AD0001046002E02D0696BC919EDE76A6B5118E8
:101AE000EAE74018E7E70000F8B504462546203548
:101AF000697E0020002963D000266E76697A02296B
:101B000005D9891E89B22F4A606AFEF74DFC616AC9
:101B100023780A789A424ED16A7A8A181E3A537FFD
:101B2000177F1A023A4353BA020A0002024390B2E4
:101B3000834240D14878052813D004DC012807D01F
:101B4000022838D104E00F280BD0112833D10CE043
:101B5000204600F084F86268002A2CD0606A417840
:101B600027E0204600F0F4F825E02978E069FEF748
:101B700029FB6E70616AE0690A78027049784170E9
:101B800068780122801CC0B268700146401CC0B257
:101B9000E36968705A5403466178401CE2696870D2
:101BA000D15422690021204690476268002A02D061
:101BB000112120469047697A606AFEF703FB6E7236
:101BC000F8BD0000FFFF000038B50546203504468B
:101BD000002913D16978104AE069FEF7E5FB014658
:101BE000684601806978E0694118684600780870A5
:101BF0006846407848706878801C6870E06B002800
:101C000009D06A78E169FFF7C9FDE06B0068C16936
:101C1000C9434906FBD438BDFFFF000070B5044638
:101C2000C06B0E460068C169C943C90616D41021AD
:101C3000016225462035002C0ED0606A00280BD0AA
:101C4000E06BFFF777FB30682A7A4068101A6872F9
:101C5000616AE06BFFF774FD0120687670BDFEB528
:101C6000416A0446487909790002084340BAC6B27D
:101C7000F008710700D0012140180190304600F0B3
:101C80004DFE009000285FD03146FEF79BFA2546B6
:101C900020352978E069FEF795FA00276F70616AB0
:101CA000E0690A7802704978417068780199801C6F
:101CB000C0B2431CE2696B701154606A417801291B
:101CC00001D0012100E0002129742F76C1788278AB
:101CD0000802104341BA676933462046009AB84764
:101CE00000212AE00020CA0094461DE0009B9A5C77
:101CF000D207D20F08D0E7696B78BE46FF5C8240FE
:101D00003A437746FA540BE0E36902936F78BE4694
:101D1000DB5D17461A468740BA43029B7746DA5581
:101D2000401CC0B2082803D262461218B242DDD36A
:101D30006878401C491C6870C9B201988142D1D3AF
:101D40002269002120469047009800F071FDFEBDF9
:101D5000F8B5044625460020203528740120287651
:101D6000606A417802790529417906D0080210435A
:101D700040BAC3B20020E2691DE008021043FF210F
:101D800040BA0902884201D1012000E000206946E2
:101D900008700123687A6A4668701E4610E0C10820
:101DA000666AC91D715C4607760FF140C907C90F05
:101DB0001154401CC0B29842F1D30620687000262E
:101DC000002A08D0616A6769C878897800020843E8
:101DD00041BA2046B8472978E069FEF7F3F96A78F6
:101DE000616AE069FEF7D3F92269314620469047DF
:101DF000F8BDFEE77047F8B500260446002836D047
:101E00002168002933D00968002088712168096899
:101E10008873206800F07CFC2068012700688771C7
:101E2000206800688773206800F072FC00256068F5
:101E3000002818D02168002009688873206800F005
:101E400067FC21896068FEF7C5FCA072C007C00F5F
:101E50000721491B88403043C6B220680068877359
:101E6000206800F055FC6D1CEDB2082DDFD3304624
:101E7000F8BD0000FEB504461C48002100680E466F
:101E80001B4B01221EE02589CD40EF07FF0F6D4659
:101E90006F541D78AC46CD40ED07ED0FBD420FD01D
:101EA000C56A2E706D466D5C002D154604D08D40C0
:101EB00067463D431D7003E08D406746AF431F708A
:101EC000491CC9B200280ED0002C01D00829DAD351
:101ED0000146268120310A740A76082344696A463D
:101EE0000021A047FEBD2681FEBD000004000020A9
:101EF00080000020704710B5FEF77EFC10BD70B565
:101F000094B030216846FEF75DF9002401250E9457
:101F1000280413940F9409900D94109400950001D7
:101F20000C941294022601950A90119408960B9431
:101F30006846FEF741FE002801D072B6FEE7072092
:101F40000C900E9401210D960F940CA8FEF776FDCF
:101F5000002801D072B6FEE710A810951294FEF783
:101F6000F9FC002801D072B6FEE714B070BD7047CE
:101F700010B50248FFF7F7F810BD00001C01002063
:101F800070B50268174B184E984201D0B04203D189
:101F90007024A2434C682243144C154D984208D03B
:101FA000B04206D0134EB04203D0A04201D0A842A6
:101FB00004D103263602B243CE6832438026B243B0
:101FC0004E69324302608A68C2620A68826298423D
:101FD00003D0A04201D0A84201D1096901630121C7
:101FE000416170BD002C01400004004000440140EC
:101FF000004801400020004030B58468FF252D02D4
:102000001B021343AC430B432343836030BD826800
:1020100070239A430A4307210A438260704730B510
:10202000036A046A6408640004628469F025AC43AE
:10203000120122430A24A3430B438261036230BD91
:1020400030B5036A1024A34303628469036A0F2531
:102050002D031203AC432243A024A34309011943D7
:102060008261016230BD000070B51C490968CC6A0C
:10207000002C2ED000282CD0194924780B78DA09AE
:10208000D201002C01D0022306E04C78E40702D0F4
:102090005B065B0E00E000231A4355066D0E00241C
:1020A0000A70002D05D08023012D06D0022D0AD103
:1020B00010E001224A804A7004E01A43C823D20982
:1020C0004B80D2010A704A8842800878C009FFF725
:1020D000BFFB70BD4C701A43F4E700000400002001
:1020E000D400002070B50C4D286804680CE02079FD
:1020F000C00708D0A168002905D0E068884720798A
:1021000040084000207110342868016800790001FF
:102110000818A042EBD870BDE000002010B5818CFB
:10212000C90707D001684A6801235B049A43836AA0
:102130001A434A60818C890707D501684A680123E0
:102140001B049A43C36A1A434A60818C490707D526
:1021500001684A6801239B049A43036B1A434A604F
:10216000818C090707D501684A680123DB039A437C
:10217000436B1A434A60818CC90607D5026891688F
:1021800001231B039943836B19439160818C89065A
:1021900007D501688A6801235B039A43C36B1A431E
:1021A0008A60818C490612D503685A6801210905A5
:1021B000046C8A4322435A60026C8A4207D1026847
:1021C000516803235B059943436C19435160818C2B
:1021D000090607D501684A680123DB04806C9A432D
:1021E00002434A6010BD0000FEB507460025803757
:1021F00004467D60FEF7FAFA0190206800682646E2
:1022000000076036002819DA2748009001210022D3
:1022100049052046019B00F023FA00280ED0EFF379
:102220001080012181F3108821680A6880239A4375
:102230000A6080F310882020E06729E020680068A9
:10224000400728D518480090012100228905204622
:10225000019B00F005FA00281DD0EFF3108001214A
:1022600081F3108821680A68FF2321339A430A60AA
:1022700080F31088EFF31080012181F3108821682A
:102280008A68520852008A6080F3108820203860E3
:1022900035760320FEBD2020E06738602566656640
:1022A00035760020FEBD0000FFFFFF0110B5406A3B
:1022B0000022014640314A834A82FFF788F810BD68
:1022C000F8B5446AE06F254680352E682168896834
:1022D00000270906002906DA212804D152200753D5
:1022E000204600F0C9F820688068400606D5222EF6
:1022F00004D15A200753204600F08EF86868102158
:10230000084368602046FFF762F8F8BD70B50146E3
:102310008969406A0022202938D05A210A52EFF3F5
:102320001081012383F3108803681C68FF250135A1
:10233000AC431C6081F31088EFF31081012383F319
:10234000108803689C68640864009C6081F31088AE
:10235000EFF31081012383F3108803689C68402504
:10236000AC439C6081F31088202380210B50016EC8
:1023700001290BD1EFF31081012383F31088036847
:102380001C681025AC431C6081F310884266016E06
:10239000012902D0FFF700FA70BD5821095AFEF753
:1023A000C8FF70BD10B5406A01214166016E012968
:1023B00002D0FFF7F2F910BD5821095A4908FEF77B
:1023C000B8FF10BD10B501468969406A20291BD0AD
:1023D000002252210A52EFF31081012282F3108869
:1023E000026893688024A343936081F31088EFF31D
:1023F0001081012282F310880068026840231A438A
:10240000026081F3108810BDFFF71EFA10BD10B5F1
:10241000406AFFF71AFA10BD10B5EFF310810122E0
:1024200082F3108802681368FF242134A3431360E9
:1024300081F31088EFF31081012282F31088026883
:1024400093685B085B00936081F31088016E01293B
:102450000BD1EFF31081012282F310880268136818
:102460001024A343136081F31088202280210A5096
:1024700000210166816610BD10B5EFF310810122C5
:1024800082F3108802681368C024A343136081F3A9
:1024900010882021C16710BD70B50446806821698D
:1024A000E2690843616900251143084321680A680D
:1024B0003C4B1A4002430A60216848680322120319
:1024C0009043E26810434860A169206A084321688C
:1024D0008A680B231B029A4302438A603248006BCE
:1024E0008007800F16D0012818D0022818D00328A2
:1024F00012D010210122E369D2032C482C4E9342C2
:102500002AD100290ED0022913D004290DD0082980
:102510003BD11FE00021EDE70221EBE70421E9E7D1
:102520000821E7E7FEF70EFB01E0FEF71BFB0028A2
:1025300032D0616840004A088018FDF7D1FD01469D
:102540001039B14221D81A49491C01400007400FF7
:1025500008431FE01046ECE7002906D002290BD003
:10256000042905D0082910D111E0FEF7EBFA01E0AB
:10257000FEF7F8FA00280FD061684A081018FDF736
:10258000AFFD01461039B14203D9012504E01046E0
:10259000F2E780B22168C8600020A066E0662846A5
:1025A00070BD0000F369FFFF0010024000127A00C6
:1025B000EFFF000070B50446416540300283002003
:1025C00025468035686022212960616F002919D075
:1025D000204B8B62636F2049D962636F1F49196377
:1025E000616F13464863666D216832462431606F1F
:1025F000FDF7B4FF002805D0102068602020286077
:10260000012070BD206900280CD0EFF3108001215B
:1026100081F3108821680A68FF2301331A430A6096
:1026200080F31088EFF31080012181F31088226875
:1026300093680B43936080F31088EFF3108081F36D
:10264000108821688A6840231A438A6080F31088C2
:10265000002070BD0D230008A5230008C12200083A
:10266000FFB5064681B080360546044660350A9FB0
:102670002EE0781C2CD0FEF7B9F80499401AB84225
:1026800014D8002F12D020680168490720D5C169ED
:10269000C94309070CD4082707622046FFF7BCFE90
:1026A000776000202876012005B0F0BD0320FBE70D
:1026B000C069C04300050BD401202168C002086234
:1026C0002046FFF7A9FE2020706000202876EDE765
:1026D0002068C1690298884305D00021039881428F
:1026E000C7D00020E0E70121F8E7000010B5054859
:1026F0000068002802D08268034990470348FEF72B
:102700006BFE10BD04000020300200206401002098
:1027100070B501680C680B46616905798AB2ED00F5
:1027200019465D1907E08E79002E8E8801D032435C
:1027300000E0B24308318D42F5D8002805D0002BC7
:1027400003D0D04300041043A06170BDF8B5040C61
:102750008BB2264682B25E430D0C1046370C5843AE
:10276000360480190021794116466E43370C360431
:102770008019794126466E438919F8BD8307FF22E7
:10278000DB0E9A408907090E9940002808DB830870
:1027900009489B001B18186890430843186070474D
:1027A0000007000F0838830804489B001B18D869ED
:1027B00090430843D861704700E400E000ED00E07A
:1027C00002E008C8121F08C1002AFAD170477047FA
:1027D000002001E001C1121F002AFBD1704770B533
:1027E00005460026046817E0A068002802D0401EB5
:1027F000A0600EE00520A0602068002809D0A18814
:10280000FDF7E8FF002804D128890121B1400843E1
:102810002881761CF6B20C34002D08D028680028D8
:1028200005D0A9880C2251434018A042DCD870BDC5
:1028300010B5002823D0124B0022001F196803E0B6
:10284000814203D80A4649680029F9D1002A0AD0F2
:102850001368841A9C4204D100681818106010464E
:1028600002E0506000E01860002907D002680B1AEF
:10287000934203D10B68D21802604968416010BDD1
:10288000F4000020FDF7CAFFFFF739FBFFF704F85B
:10289000FEF7EEFFFFF7BEF8FFF784F81B4D1A486E
:1028A0002860FFF75BF81A4C206800281CD0C06B2A
:1028B00000680168102211430160206828210A5C29
:1028C000416AC06BFEF73CFF2068002229210A54B0
:1028D00029680A68D2600078002802D04000C83019
:1028E00000E0C820096848800A4800688168012221
:1028F000114381607D20C000FDF766FE0648FEF7AB
:102900009FFBFFF7EFFBFCE7D8000020E000002072
:1029100004000020640100201C010020F0B50B30F1
:10292000C108C900144F0026144A0FE003688B4207
:102930000BD38B4205D95C1A4318456830C3083B5A
:1029400000E04368136002C004E0021D1068002824
:10295000ECD13046002803D13868002801D000208F
:10296000F0BD064A06481060064A121AD208D20084
:1029700044C001203860D7E7F8000020F4000020B0
:102980007C02002078040020180000200004004889
:102990000200000002030405060708090A0B0C0DDB
:1029A0000E0F10100102030405060708090A0B0C9C
:1029B0000D0E0F10000000000000000001020304D3
:1029C000060708090000000001020304EC290008C2
:1029D00000000020FC000000C0270008E82A0008D2
:1029E000FC0000207C070000D02700080000000049
:1029F0000000000000000048002000000000004827
:102A00000040000008000020020000000000004814
:102A1000010000000000000000000048020000006B
:102A2000000000000000004804000000000000005A
:102A300000000048080000000000000000000048FE
:102A4000100000000000000000000048200000000E
:102A500000000000000000484000000000000000EE
:102A6000000000488000000000000000000000009E
:102A7000200000200800000000000000000000000E
:102A8000000064000600000069200008000000004B
:102A90000000010002000000751A0008000000009C
:102AA0000000320002000000751E000884000020B3
:102AB0000000E803000000004D03000800000000D3
:102AC000000000009400002004000000000000004E
:102AD00001000000040000000000000000127A0065
:082AE0000000000000000000EE
:04000005080000B13E
:00000001FF
