:020000040800F2
:10000000880A0020C500000817250008F91E00080E
:1000100000000000000000000000000000000000E0
:100020000000000000000000000000009126000811
:1000300000000000000000001925000893260008B9
:10004000D700000800000000D7000008D700000813
:10005000D7000008D7000008D7000008D700000824
:10006000000000004D0600085D060008D7000008EB
:10007000D700000815270008D7000008000000007E
:10008000D70000080000000000000000D7000008B2
:1000900000000000D7000008D7000008D7000008C3
:1000A00000000000D700000800000000912E0008AA
:1000B0000348854600F0BEF900480047413000087B
:1000C000880A00200448804704480047FEE7FEE70E
:1000D000FEE7FEE7FEE7FEE713270008B100000891
:1000E00030B50B46014600202022012409E00D46D0
:1000F000D5409D4205D31D469540491B2546954058
:1001000040191546521E002DF1DC30BDF0B51FB46C
:100110000646002082B005464024019100901BE075
:10012000019922460F46304600F020F8049A059BBC
:10013000801A994110D310461946224600F028F93A
:10014000361A8F410197224601200021009F00F0BE
:100150001FF938184D4100902046641E0028DFDC4E
:10016000019B00982946324607B0F0BD10B5202A01
:1001700004DB0846203AD040002110BD0B46D34096
:10018000D0402024A21A91400843194610BD10B552
:1001900003461C460C43A40703D009E010C9121FF4
:1001A00010C3042AFAD203E00C781C70491C5B1CB3
:1001B000521EF9D210BDD2B201E00270401C491E9D
:1001C000FBD270470022F6E710B513460A460446F4
:1001D0001946FFF7F0FF204610BDF8B502464A4029
:1001E000D40F42004B0052085B089A4202D20246EA
:1001F000084611464A0023D0C30D4A00DDB2120E54
:10020000AD1A202D35DA49020126490AF6058A1968
:10021000002C00D0524220214F1B1146B9402A41E8
:100220001018C20D9A4221D0002C17D0012D08DCE5
:10023000DA05801AD20F8019D207DBB200F0C0F8BD
:10024000F8BDDA05801A012340001B06C01880188B
:100250005A428018CA0F1043490007E04908C207F4
:100260001143DA05801A80194008801800F0A0F8C0
:10027000F8BD61000122511A001BF7E70122D207E5
:100280005140AAE70122D2075040A6E7024670B5C6
:100290004A40D30FDB0740002DD04A002AD0010E80
:1002A000140E000212020919400A520A8418E501CC
:1002B00004465443000A120A2E045043A41942195A
:1002C000200CC543AA18120C0125AD03521C52196B
:1002D00012047F39240400D0521C104301D4400082
:1002E000491EC2B20C06C0092018401C4008802AD2
:1002F00002D003E0002070BD40084000002900DA71
:100300000020184370BD70B502464A40D50F40002A
:100310004A00ED0740085208002814D0002A12D0E5
:10032000C40DD30D41020120C0055202490A520AF0
:10033000E41A091812187D34914201D3641C00E0BC
:100340004900002C01DA002070BD0023914201D346
:10035000891A0343400849000028F7D100290AD030
:10036000914202D10121C90705E0914201D2012148
:1003700001E00121C943E005C018401900F018F858
:1003800070BD10B500229623114600F019F810BD7B
:1003900010B5202A04DB0146203A9140002010BD10
:1003A000914020239C1A0346E3401943904010BD1E
:1003B000002904DA401C490001D140084000704780
:1003C00070B40024050C05D11024000402D10029CA
:1003D00021D01124050E01D100020834050F01D1EE
:1003E0000001241D850F01D18000A41C002801DB21
:1003F0004000641C002908D020252E1B0D46F54026
:10040000A14000D001212943084301061B1B000A1B
:10041000DB1D02D5002070BC7047DB051818801862
:100420000029F8DA401C4900F5D170BC40084000B2
:1004300070470000064C0125064E05E0E36807CC36
:100440002B430C3C98471034B442F7D3FFF734FEEB
:10045000B8310008D831000810B50146406A826BF7
:1004600050231A420AD1816B012252021143816347
:100470000168CA681205920F05D020E0006B026B7C
:100480000846904710BD827E002A18D10A681207DC
:1004900015D58A6853070122002B09DB4B680C2411
:1004A000A3434B60816B130299431143816306E0C0
:1004B000816B202319438163C16B1143C16300F039
:1004C000C9F910BD10B5406A816B402211438163A8
:1004D000C16B04221143C16300F0BEF910BD10B519
:1004E000406A00F0B8F910BDF8B50446002000904D
:1004F000206881688907890F012905D10168C9072A
:1005000031D1C16809042ED48168184A10261140DF
:10051000012500291AD181682943816015481449B1
:100520000068FFF7DDFD00E0401E00900028FBD1D1
:1005300000F0CCFC074611E000F0C8FCC01B02280C
:100540000CD920680068C043C00707D0A06B3043B7
:10055000A063E06B2843E0630120F8BD20680068D9
:10056000C043C007E8D10020F8BD0000170000809C
:1005700040420F00C0000020F8B50D00044654D0E2
:10058000442002F0B5FD2060002801D102F0FAFC01
:100590002E462036307902F0ABFD070046D0307B86
:1005A00002F0A6FD0090002840D031793846FFF7D0
:1005B00009FE317B0098FFF705FE21682878087056
:1005C00021686878487021681A48486021681A488C
:1005D000886021681948C860216819480861216845
:1005E00018484861216818488861206807622168B6
:1005F0000020203148712168327920310A71226847
:10060000009991622168327B20310A732168203180
:1006100048732268A96B91632268296B1163216872
:10062000203148772168286C0864F8BD02F0AAFCE4
:10063000F8BD00001D220008DD230008AD220008DF
:100640008D230008B12100085522000810B502488A
:1006500000F09EFA10BD0000EC02002010B5034827
:1006600000F096FA024800F093FA10BD0004002052
:100670004404002010B504460068054940181421C0
:10068000FFF72EFD800020640248E06310BD0000EB
:10069000F8FFFDBF0000024030B5056C0124AC40FE
:1006A000C56B6C60046863604368102B036803D0FB
:1006B00099600068C26030BD9A600068C16030BD5A
:1006C000704772B6FEE700000021094A082801D9E8
:1006D0000020704740008018054A803202E00388FD
:1006E000591810309042FAD34803000C70470000AC
:1006F0002C0200200EB5044A6B4607CA07C36846A1
:1007000001F00BFF0EBD00007431000870B5044607
:10071000104600230A4D0FE0227850400022641C4E
:10072000C60702D04008684000E04008521C92B260
:10073000082AF5D35B1C9BB28B42EDD370BD000041
:1007400001A00000F8B50025044620340095227D64
:10075000012A39D00122227503689E68760767D482
:10076000384F4E68BE424DD09E6A0F78BA4016434D
:100770009E620123C26A1B079A421FD0012A1DD024
:10078000022A1BD0032A19D0042A17D0052A15D013
:10079000062A13D0072A11D002688B68566976079B
:1007A000760FB3420AD05369DB08DB00536100685F
:1007B00042690B7A5B075B0F1A4342610A68102A91
:1007C00004D0112A02D038E00220F8BD1E48836808
:1007D000102A07D00122920513438360086810286D
:1007E00003D02AE00122D205F6E71948174900682C
:1007F000FFF776FC0A21484300E0401E00900028E5
:10080000FBD11AE0986A0E78B2409043986209686A
:10081000102901D0112910D10B488268102904D069
:10082000012189058A43826007E00121C905F9E7B2
:10083000816B202211438163012500202075284609
:10084000F8BD0000011000000027014040420F00E9
:10085000C00000207047704770470000F8B50026C0
:100860000446002805D0A06B25462035002802D07C
:1008700007E00120F8BD0020E0632875204600F065
:10088000A9F8A06B1022C006002870DB20688168E0
:1008900049076CD4A16B1301994302231943A16347
:1008A00081688907890F012905D10168C9070FD11E
:1008B000C16809040CD4C16818239943A36819437B
:1008C000C160206801696368890089081943016172
:1008D0002068C1683D4B1940C160207E617E800365
:1008E000C9030843A17E4B031843A36A012B02D01E
:1008F00001231B0300E000231843E3681843236926
:10090000022B09D0002318432B79E57E5B001843A6
:100910000123012D02D00AE00423F4E7002927D0A7
:10092000A16B20252943A163E16B1943E163E169D0
:100930000D46FF3DC23D02D0256A29430843216888
:10094000CD680543CD600125E16A2D07A94213D08A
:10095000012911D002290FD003290DD004290BD071
:10096000052909D0062907D0072905D010E028E07D
:10097000012109040843DAE721684D69ED08ED001B
:100980004D6121684D69A78D7F077F0F3D434D6104
:100990002168C9680E4D2940814207D10020E063DB
:1009A000A06B80088000401CA06308E0A06B0221BF
:1009B00088431043A063E06B1843E0630126304690
:1009C000F8BDA06B1043A063F8E700001902FEFF1A
:1009D000E7FF3F8370B586B0054614216846FFF7F0
:1009E000F1FB1C492868884232D11B498A694015AD
:1009F00002438A618A69024005924A690002024301
:100A00004A614969002601400591FF2000900320BA
:100A10000190092069460296C00600F079F90F4856
:100A20000F4C41C48020266060604000A0608000C0
:100A3000E060202020610320000360610848083C3A
:100A400000F0F4F8002801D0FFF73BFE2C6365624C
:100A500006B070BD002401400010024008000240B2
:100A6000EC020020F7B504460068002580684007C6
:100A70003DD426462036307D01280AD0012737751F
:100A8000607E012807D02046FFF72EFD050002D02A
:100A90002EE00220FEBDA06B16490840FF21013167
:100AA0000843A0630020E0633075216B1248886220
:100AB000216B1248C862216B1148086321681C2011
:100AC0000860206841681022114341602068C168B5
:100AD0003943C1602168206B4031029B019A00F0CC
:100AE000CFF82068816804221143816000E002256C
:100AF0002846FEBDFEF1FFFF59040008DF04000890
:100B0000C504000830B5014620314B780022022B85
:100B100004D0042383630A70012030BD03681C687D
:100B20000E25AC431C6003681C68640864001C60EC
:100B30000123056C1C46C06BAC4044604B700A70CE
:100B4000002030BD70B50024014620314A78022AC9
:100B500003D004218163012416E0026813680E2586
:100B6000AB431360026813685B085B0013600122EB
:100B7000056C1346AB40C56B6B604A7000220A706F
:100B8000416B002900D08847204670BD806B7047BC
:100B9000F0B4C16B0D6801680C680422066C134642
:100BA000B3402B420DD063070BD50B689B0602D4D4
:100BB0000B6893430B60016C8A40C16B4A60C16A49
:100BC00019E00227B74002462F4001232032002FB0
:100BD00015D0A70713D50C68A40604D40C680A2501
:100BE000AC430C605370036C02219940C36B596095
:100BF00000211170816A002916D0F0BC084708272F
:100C0000B7402F4210D024070ED50C680E25AC43F8
:100C10000C60046C1946A140C46B6160836353701F
:100C200000211170016BE6E7F0BC704770B504005D
:100C300021D00221204620300546417022681168EB
:100C40000E48A3680140606826691843E36833438F
:100C5000184363691843A3691843E36918430843B9
:100C600010602046FFF706FD0021A1630120687097
:100C70002970084670BD012070BD00000FC0FFFF45
:100C8000F8B504468C46203001780025012909D0AA
:100C90000126067041780027012905D0077002253A
:100CA0002846F8BD0220F8BD02214170A7632068E4
:100CB000016849084900016061462046FFF7ECFCE5
:100CC000E06A00282068016802D00E22114306E085
:100CD0000A221143016020680168042291430160E7
:100CE0002068016831430160DAE7000070B504460E
:100CF00000F0ECF80546601C02D004480078241887
:100D000000F0E4F8401BA042FAD370BDB40000200C
:100D1000F8B5002303240125BAE02E469E40B446D0
:100D200032407CD00E79B607B60F012E01D0022ECC
:100D300017D186682746B6465E00B74000967646CD
:100D4000BE43B646CF68009EB740764637438760BD
:100D500046686746BE430F79FF06FF0F9F40374343
:100D600047600E79F643B6070ED0C6682746B446EC
:100D70005E00B646B7406646BE43B4468F687646C8
:100D8000B74066463743C7600E79B607B60F022EE6
:100D900014D1DE08B60036180096366A5F07B446EE
:100DA000FE0E0F27B646B7406646BE43B4460F69EF
:100DB0007646B74066463743009E37620668274648
:100DC000B4465E00B646B7406646BE430F79B446A9
:100DD000BF07BF0F7646B7406646374307604E6889
:100DE000B603B60F53D02D4FBE692E43BE61BE6908
:100DF0009F08F607F60F2A4EBF00BE190096B66888
:100E00000F27B4469E07360FB646B7406646BE4328
:100E10000927FF06B446B84202D1002710E036E0A9
:100E2000204FB84201D101270AE01F4FB84201D13B
:100E3000022705E01D4FB84201D1032700E0052736
:100E40007646B74066463743009EB760184EB66890
:100E50004F689643FF0200D51643154FBE60FE68EB
:100E60004F689643BF0200D51643114FFE607E685F
:100E70004F689643BF0300D516430D4F7E603E6812
:100E80004F689643FF0300D51643094A16605B1C62
:100E90000A681646DE4000D03FE7F8BD0010024069
:100EA000000001400004004800080048000C004811
:100EB000000401400069084000D001207047002A6A
:100EC00001D08161704781627047000001488068ED
:100ED00070470000B4000020024881680278891839
:100EE00081607047B400002010B5064801681022E8
:100EF00011430160002000F007F800F027F80020FF
:100F000010BD00000020024070B504460D4D7D204C
:100F10002978C000FFF7E4F801460B480068FFF7A6
:100F2000DFF800F02DFB002809D1042C07D20022A5
:100F30002146401E00F02AF800206C6070BD0120A0
:100F400070BD0000B4000020C000002008B50848B3
:100F50008169012211438161816911400091C26957
:100F600001040A43C261C0690840009008BD000046
:100F700000100240002805DBC106C90E0120884090
:100F8000014908607047000000E100E010B501F081
:100F9000C7FF10BDF8B505460068354CC00352D5F3
:100FA000E0690026C00007D4E16920040143E16143
:100FB000E1690140012600912E480168C90510D45D
:100FC0000168821511430160FFF780FF074604E0C6
:100FD000FFF77CFFC01B642824D826480068C005A2
:100FE000F6D5206A03273F02384020D0696839408F
:100FF00081421CD0206A226AB843012109040A43B5
:101000002262226A8A4322622062C0070FD0FFF761
:101010005DFF009008E0FFF759FF0099411A16485C
:10102000814201D90320F8BD206A8007F3D5206AE8
:101030006968B84308432062002E04D0E1690120AA
:1010400000078143E1612878C00705D0206BA968BB
:1010500080088000084320632878800605D5206B2F
:1010600010218843E968084320630020F8BD000090
:10107000001002400070004088130000F8B50F46D1
:10108000060059D03A4D2868C007C00FB84209D2AF
:10109000286840084000384328602868C007C00F0F
:1010A000B84249D13068334C81070CD5400704D58C
:1010B000606807210902084360606068F021884386
:1010C000B168084360603078C00726D07068012896
:1010D0000ED0216802280ED0890700292CDA616819
:1010E0008908890001436160FFF7F0FE00900DE080
:1010F00021688903F1E78901EFE7FFF7E7FE00992F
:10110000411A1D48814201D90320F8BD60680C21B5
:101110000840716889008842EFD12868C007C00F75
:10112000B8420BD928684008400038432860286836
:10113000C007C00FB84201D00120F8BD3078400789
:1011400006D56068072109028843F168084360609A
:1011500000F028F86168094A0906090F515CC84087
:10116000074908600020FFF7CFFE0020F8BD00000F
:10117000002002400010024088130000A031000847
:10118000C00000200448054900684968044A490530
:10119000490F515CC8407047C00000200010024059
:1011A000B031000810B5104A51680C200B460340BE
:1011B0000E48042B17D0082B15D18B020C4C1B0F9B
:1011C000E45CD26A0A4B1207120F10339A5CC9030F
:1011D00005D500231946FEF799FF214601E0204678
:1011E000044901F085FE10BD0010024000127A0093
:1011F0008031000800093D00FEB5040070D0207861
:10120000DC4DC0074AD068680007800F012807D06E
:1012100068680007800F022809D16868C00306D5F6
:10122000286880033AD560680028E7D036E0616816
:10123000012914D001208004002901D0052914D0EF
:101240002A68012109048A432A60296881432960A8
:101250006068002816D0FFF739FE06460EE02868C1
:101260000121090408432860F2E729680143296045
:10127000F5E7FFF72BFE801B64286ED828688003F3
:10128000F7D50BE0FFF722FE064604E0FFF71EFE4F
:10129000801B6428F1D828688003F7D420780126C1
:1012A000800700283CDA68680007800F07D068686C
:1012B0000007800F022809D16868C00306D4286897
:1012C000800716D5E06801280AD112E0E0680028FE
:1012D000286816D030432860FFF7F8FD074605E080
:1012E00043E1FFF7F3FDC01B0228C6D8286880073A
:1012F000F7D52868F82188432169C9000843286088
:101300000EE0400840002860FFF7E0FD074604E0DB
:10131000FFF7DCFDC01B0228AFD828688007F7D490
:101320002078000722D5E0690028686A0ED0304393
:101330006862FFF7CBFD074604E0FFF7C7FDC01B5F
:1013400002289AD8686A8007F7D50FE04008400065
:101350006862FFF7BBFD074605E09DE0FFF7B6FDBD
:10136000C01B022889D8686A8007F7D42078042730
:101370004007002860DA00200190E869C00008D426
:10138000E969B8060143E961E9690140012000917A
:10139000019079480168C90511D40168821511438B
:1013A0000160FFF793FD009005E0FFF78FFD0099C6
:1013B000401A642870D870480068C005F5D5A06848
:1013C00001280AD0002801D0052810D0286A40083A
:1013D00040002862286AB84301E0286A3043286246
:1013E000A068002812D0FFF771FD00900AE0286A7B
:1013F00038432862F1E7FFF769FD0099411A5F4819
:10140000814249D8286A8007F5D50DE0FFF75EFDD7
:10141000009006E0FFF75AFD0099411A57488142B3
:101420003AD8286A8007F5D40198002804D0E969E1
:10143000012000078143E9612078C00635D5606945
:1014400001280CD0401D686B23D038436863686B5B
:10145000400840006863FFF739FD064622E0686BEC
:1014600038436863686B30436863FFF72FFD0646B7
:1014700004E0FFF72BFD801B02285BD8686B800718
:10148000F7D5686BF8218843A169C90008436863F0
:101490000BE0B8436863F4E74CE0FFF717FD801BEF
:1014A000022847D8686B8007F7D4206A00285ED0EE
:1014B00069680907890F022942D0012636060228E9
:1014C000286805D0B0432860FFF700FD044633E0EC
:1014D000B0432860FFF7FAFC074604E0FFF7F6FC8C
:1014E000C01B022826D828688001F7D4E86AE16A80
:1014F000000900010843E862616AA06A084369685C
:101500003D221204914308436860286830432860F4
:10151000FFF7DCFC044604E0FFF7D8FC001B0228C0
:1015200008D828688001F7D521E0FFF7CFFC001B21
:10153000022801D90320FEBD28688001F5D416E0F9
:101540000128F8D06868E96A01221204636A02403F
:101550009A420AD10907E26A090F914205D10F2187
:1015600089040840A16A884201D00120FEBD002004
:10157000FEBD000000100240007000408813000013
:10158000094910B5401E884201D9012010BD074C01
:1015900060610321081F01F0C3FC0020A061072047
:1015A0002061002010BD0000FFFFFF0000E000E010
:1015B00070477047F0B502462032137F012B1BD0D5
:1015C000012616770223537705686B68AC6870278D
:1015D000BB430F681F436F600068084B984202D0FE
:1015E000074B984204D1802349689C432143816082
:1015F000567700201077F0BD0220F0BD002C01408E
:101600000004004070B5040005D025462035687FF1
:10161000002802D006E0012070BD00202877204677
:1016200000F014F802206877211D206801F07AF894
:1016300001204034A071A877E87720706070A07016
:10164000E070207160716877002070BD08B5006897
:10165000094988420FD109488269C1140A4382614D
:10166000806900220840009011460D20FFF78EFC93
:101670000D20FFF77FFC08BD002C01400010024048
:10168000014620314A7F012A01D001207047022201
:101690004A770268D36801210B43D3600068084A87
:1016A000904202D0074A904204D182685207520FFA
:1016B000062A02D002680A43026000207047000038
:1016C000002C014000040040F8B5054604462035D2
:1016D000287F0026012817D001202877022068776C
:1016E000226890687727FF23B8431B0298439060D5
:1016F0000868502838D00EDC20284FD006DC00289F
:101700004CD010281ED149E00220F8BD302845D029
:10171000402817D13AE060282ED0702819D0012235
:101720001203801A0FD090420CD1CB684A688968A6
:10173000206801F033F82068816801229203114388
:10174000816000E00126012068770020287730467C
:10175000F8BDCB684A688968206801F01FF82168E5
:10176000886838438860EEE7CA684968206801F0F5
:1017700028F85021206806E0CA684968206801F00E
:1017800031F86021206801F014F8DCE7CA68496884
:10179000206801F016F840212068F4E7226801462D
:1017A0001046F0E7704770B50446006801690025EF
:1017B000C9438907002915DBC168C943890711D4CA
:1017C000E91E01610120207720688069800720469A
:1017D00002D0FFF7E7FF04E000F096F8204600F0A3
:1017E00094F8257720680169C943490717D4C1686F
:1017F000C943490713D40421C9430161022020775A
:10180000206880698005800F204602D0FFF7CAFF5C
:1018100004E000F079F8204600F077F8257720689A
:101820000169C943090716D4C168C943090712D41D
:101830000821C9430161042020772068C06980071E
:10184000204602D0FFF7AEFF04E000F05DF820462E
:1018500000F05BF8257720680169C943C90617D4F1
:10186000C168C943C90613D41021C94301610820C6
:1018700020772068C0698005800F204602D0FFF7DE
:1018800091FF04E000F040F8204600F03EF8257794
:1018900020680169C943C90708D1C168C943C9079C
:1018A00004D1891E0161204600F030F820680169EA
:1018B000C943090609D4C168C943090605D4802172
:1018C000C94301612046FFF773FE20680169C943DF
:1018D000490609D4C168C943490605D44021C94312
:1018E0000161204600F044F820680169C943890677
:1018F00009D4C168C943890605D42021C9430161BF
:101900002046FFF756FE70BD7047704770B50068FF
:101910001549884226D1154D2868002822D0046830
:1019200019E02079810715D5002C13D02188491C96
:1019300089B22180628891420CD3410705D5A16804
:10194000002902D0E068884702E0012108432071A5
:1019500000202080103428680168007900010818F0
:10196000A042DED870BD0000002C0140B000002075
:1019700070477047F8B50446C06F254680352E681D
:1019800021688A6810271206002A1BDA212819D13B
:10199000EFF31080012282F310888A6880239A4333
:1019A0008A6080F31088206F002808D0FFF7AAF81B
:1019B000002804D0206FFFF7E9F8202824D0204623
:1019C00001F02CF92168886840061BD5222E19D118
:1019D000EFF31080012282F310888A6840239A4333
:1019E0008A6080F31088606F002808D0FFF78AF8BB
:1019F000002804D0606FFFF7C9F8202804D02046E3
:101A000001F0DCF80020F8BD6F600320F8BD10B5D0
:101A100000F0B2FB10BD0000F8B502680446D069C2
:101A2000116893689E4D06462E4025468035002E4F
:101A300071D09C4FDE07F60F0F4037437ED0C707AB
:101A400006D0CF0504D5012717626A683A436A6059
:101A5000820708D5DA0706D0276802223A626A6848
:101A600004273A436A60420708D5DA0706D023689C
:101A700004221A626A6802231A436A60020709D5BF
:101A800020220A40324305D0236808221A626B687C
:101A900013436B60020509D54A0107D5012223686B
:101AA000D2021A626B68202213436B606A68002AB4
:101AB00039D0800606D5880604D5A16E002901D04C
:101AC00020468847686821688968490602D4282129
:101AD00008422DD0204601F071F821688868400640
:101AE00022D5EFF31080012282F310888A68402308
:101AF0009A438A6080F31088606F002814D06A4986
:101B00004163606FFFF71EF800280CD0606F416BD7
:101B100008E000E012E0830610D58B060ED5A16E1A
:101B2000A3E020468847F8BD2046FFF770FFF8BDC8
:101B30002046FFF76CFF00206860F8BD236E012B84
:101B40007ED1C3067CD5CB067AD5102313622268DA
:101B50009068264640064036002848DA616F0868DB
:101B600040680004000CE8D0378B8742E5D97083C9
:101B70008869202834D0EFF31080012181F3108888
:101B800011681F01B943116080F31088EFF31080D2
:101B9000012181F3108821688A68520852008A6006
:101BA00080F31088EFF31080012181F31088216801
:101BB0008A684027BA438A6080F310882020286012
:101BC00000202066EFF31080012181F31088216846
:101BD0000A689A430A6080F31088606FFEF792FFEC
:101BE00002206066308B718B401A81B234E0308BFA
:101BF000718B401A81B2708B00289ED000299CD036
:101C0000EFF31080012686F310881668FF2721372E
:101C1000BE43166080F31088EFF31080012282F338
:101C200010882268966876087600966080F310889F
:101C30002020286000202066A066EFF3108000E0DE
:101C40000EE0012282F31088226815689D4315601A
:101C500080F31088022060662046FFF78AFEF8BDF8
:101C6000030606D50B0604D5E16E002900D058E71F
:101C7000F8BD4006FCD54806FAD52046EFF31081A2
:101C8000012383F31088146840239C43146081F37C
:101C900010882021C1670021C16600F02BF9F8BD32
:101CA0000F08000020010004512A000810B50400AC
:101CB00003D0E06F002802D007E0012010BD002112
:101CC00078200155204600F027F82420E06720689E
:101CD0000168490849000160204600F0AFFF012873
:101CE000ECD0606A002802D0204600F0E9FD2068B0
:101CF00041680122D2029143416020688168082234
:101D000091438160206801680122114301602046EF
:101D100000F03CFE10BD0000F0B587B0064614216F
:101D20006846FEF74FFA2D493068884254D12C4856
:101D30008269012189030A43826182690A4005920E
:101D40004269C9000A434261406900240840059085
:101D50000320400200900220019003200390012004
:101D60000490092002946946C006FEF7D1FF1E4D7B
:101D70001C48286010208027291D91C12C616C61AE
:101D80000002AC61E8612846FEF750FF002801D050
:101D9000FEF797FC35676E621248134D14304435D8
:101DA00011C52C60AC60EC6001206F6040032C61B9
:101DB000686128460838083DFEF738FF002801D042
:101DC000FEF77FFC7567002211461B206E62FFF74D
:101DD000DDF81B20FFF7CEF807B0F0BD003801405A
:101DE000001002401C0002400004002070B5802357
:101DF0001B58202B01D0022070BD00290BD0002AD7
:101E000009D0012483682403A34206D10369002B6F
:101E100003D1CB0701D0012070BD00230366046805
:101E200063681B020BD5EFF31083012585F310883F
:101E300025680126B6063543256083F3108800F037
:101E40008BFF70BD7047704770B50446C06F202887
:101E500001D0022070BD00290BD0002A09D0012337
:101E6000A0681B03984206D12069002803D1C80747
:101E700001D0012070BD20464030E16402824282E0
:101E800000202546803568602121E167216F002907
:101E900018D0154B8B62236F1449D962236F1449F4
:101EA0001963216F134648632668E16C3246283275
:101EB000206FFEF7E5FE002804D010206860202087
:101EC000E067D6E7216840200862EFF31080012127
:101ED00081F3108821688A6880231A438A6080F31E
:101EE0001088002070BD0000692B0008B32B00088B
:101EF000652A000870477047FEE70000014600B5FC
:101F00000548012900D00021026891710268012171
:101F1000917300F0CFFF00BD5C000020FEB50024EF
:101F20003749384800940194029412C001250426D0
:101F3000011D046070C1047444748574C474FF216D
:101F4000C23184614161014618310D710562083862
:101F5000FEF784FC002801D0FEF7B3FB012000034C
:101F6000009401900524694626480294FEF7EAFB96
:101F7000002801D0FEF7A5FB694622480095FEF730
:101F8000E1FB002801D0FEF79CFB0220009069468F
:101F90001C48FEF7D7FB002801D0FEF792FB032078
:101FA000009069461748FEF7CDFB002801D0FEF7E8
:101FB00088FB694613480096FEF7C4FB002801D051
:101FC000FEF77FFB69460F480094FEF7BBFB002835
:101FD00001D0FEF776FB0620009069460948FEF71F
:101FE000B1FB002801D0FEF76CFB0720009069468A
:101FF0000448FEF7A7FB002801D0FEF762FBFEBDF8
:1020000000240140AC02002008B50C4841690122BF
:10201000114341614069104000220090114609209F
:10202000FEF7B4FF0920FEF7A5FF002211460A20A3
:10203000FEF7ACFF0A20FEF79DFF08BD001002402E
:1020400070B586B014216846FEF7BCF81A4842699C
:10205000012189050A43426142690A4005924269A9
:1020600049110A43426142690A40059242694900A6
:102070000A43426140690325084009266D03F606BC
:102080000590012229463046FEF719FF02200090F4
:10209000002001240190694602940848FEF738FEAA
:1020A0000320039001946946009502943046FEF7A0
:1020B0002FFE06B070BD0000001002400004004872
:1020C00000B591B0FEF716FB694648700007000F97
:1020D0000F2800D910200870802008A90871087303
:1020E00006480C900648109006480E900348694632
:1020F000C01CFEF741FA11B000BD000045000020F1
:1021000078030020AC01002010B586B000240094B4
:1021100018480194029403940494154905940160AD
:102120002F21846041607D210461C9004461C16048
:1021300080218161FFF766FA002801D0FEF7C1FA1D
:1021400001200003009069460A48FFF7BDFA002805
:1021500001D0FEF7B6FA049404A906480594FFF7E7
:1021600029FA002801D0FEF7ACFA06B010BD000035
:10217000002C01403003002010B50C480A490160D2
:10218000E1214902416000218160C16001618161FA
:10219000C1610C22016242614162FFF787FD0028A4
:1021A00001D0FEF78EFA10BD003801407803002000
:1021B000FFB5044617A205CA83B0009001922278A9
:1021C000684602700A0A8270C170002606715908BA
:1021D0001D4641718571274620373979206AFDF700
:1021E000F1FF7E7107226946206AFDF7D0FF7879FA
:1021F0002A46C01DC0B27871216A08180599FDF7FA
:10220000C6FF7879401978712269002120469047ED
:1022100007B0F0BD0046000000000000006B002881
:1022200006D00122054B042903D0112900D11A70D0
:10223000704719780029FBD00270704744000020D5
:1022400003484068002801D0C16808477047000073
:1022500044000020F8B50D46014620310E7D9C4615
:10226000022E01D2102700E020270024BD4211D207
:102270000B7F69000F464037002B0DD0806B022E7C
:1022800012D0C519114662462846FDF780FF002886
:1022900000D001242046F8BD806B1546022E01D0E7
:1022A000C119F0E74118EEE74518EBE7F8B5044629
:1022B00025462035697F0020002963D000266E77EF
:1022C000697B022905D9891E89B22F4AA06AFEF7C7
:1022D0001DFAA16A23780A789A424ED16A7B8A183D
:1022E0001E3A537F177F1A023A4353BA020A00027A
:1022F000024390B2834240D14878062813D004DCD0
:10230000032807D0042838D104E010280BD0112866
:1023100033D10CE0204600F082F86268002A2CD00D
:10232000A06A417827E0204600F0C6F825E0297928
:10233000206AFDF747FF6E71A16A206A0A78027071
:102340004978417068790122801CC0B268710146E9
:10235000401CC0B2236A68715A5403466178401C1D
:10236000226A6871D1542269002120469047626830
:10237000002A02D0112120469047697BA06AFDF710
:1023800021FF6E73F8BD0000FFFF000038B5054661
:1023900020350446002913D169790F4A206AFEF7D7
:1023A000B5F90146684601806979206A4118684696
:1023B000007808706846407848706879801C6871B9
:1023C0006A79216A206CFFF73FFD206C0068C169C3
:1023D000C9434906FBD438BDFFFF000070B5044671
:1023E000006C0E460068C169C943C90616D41021A5
:1023F000016225462035002C0ED0A06A00280BD0A3
:10240000206CFFF7B7FA30682A7B4068101A6873AF
:10241000A16A206CFFF7EAFC0120687770BDF8B56F
:10242000816A0446487909790002084340BA4006A7
:10243000060E304600F05CFE0090002838D0314691
:10244000FDF7C0FE254620352979206AFDF7BAFE42
:1024500000206871A26A216A13780B7052784A7062
:102460006979891CC9B26971226A56546979491C13
:102470006971A16A4A78032A00D002222A75287756
:10248000C87889780002084341BAA76933462046D4
:10249000009AB8476979206A324640180099FDF7DA
:1024A00076FE68798019687122690021204690477C
:1024B000009800F067FDF8BDF8B5044625460320F6
:1024C0002035287501202877A06A417806291CD07C
:1024D00006218379C21D69710026002A07D0C178C0
:1024E00087780802384341BAA7692046B847297956
:1024F000206AFDF767FE6A79A16A206AFDF747FE48
:102500002269314620469047F8BD0223021D697BAF
:1025100069710126E1E7FEE77047F8B50026044639
:10252000002836D02168002933D00968002088713E
:10253000216809688873206800F0BCFC20680127C6
:1025400000688771206800688773206800F0B2FC1B
:1025500000256068002818D0216800200968887369
:10256000206800F0A7FC21896068FEF7A3FCA07238
:10257000C007C00F0721491B88403043C6B22068FE
:1025800000688773206800F095FC6D1CEDB2082D83
:10259000DFD33046F8BD0000F0B5374887B0056896
:1025A000182236496846FDF7F2FD3548354F017867
:1025B00000290DD101210170002418206043C019A9
:1025C00018226946FDF7E3FD641CA4B2082CF4D37D
:1025D000202000F08DFD060049D02021FDF7F2FDFE
:1025E00000242046FEF770F8FDF7CBFE2449E700F3
:1025F000091DC959FDF74AFE2149091D7918496885
:10260000FDF7EBFDA7002049F051884200DC0020D7
:1026100018211C4A61438A18F0510146104600F007
:10262000DBFC1849F051C031CA5901461046FDF78C
:1026300025FE410015484908814206DB296B002030
:1026400008701048F159C030C151641CA4B2082C64
:10265000C7D3002D0BD0284602212030017501215F
:1026600001772023AC69324600212846A047304636
:1026700000F088FC07B0F0BD480000205C31000885
:1026800000000020CC000020954B243FCDCCCC3C5A
:10269000704710B5FEF720FC10BD70B594B0302126
:1026A0006846FDF78FFD002401250F941120059544
:1026B000109400900195102006900E94139400033E
:1026C00009900D9400010C94129402260A90119422
:1026D00008960B946846FEF78FFD002801D072B66D
:1026E000FEE707200C900E9401210D960F940CA884
:1026F000FEF7C4FC002801D072B6FEE710A81095C2
:102700001294FEF747FC002801D072B6FEE714B021
:1027100070BD704710B50248FFF745F810BD0000C6
:102720003003002070B50268174B184E984201D054
:10273000B04203D17024A2434C682243144C154D7F
:10274000984208D0B04206D0134EB04203D0A04207
:1027500001D0A84204D103263602B243CE683243E8
:102760008026B2434E69324302608A68C2620A68B8
:102770008262984203D0A04201D0A84201D10969E7
:1027800001630121416170BD002C01400004004043
:1027900000440140004801400020004030B58468FA
:1027A000FF252D021B021343AC430B4323438360DD
:1027B00030BD826870239A430A4307210A4382602E
:1027C000704730B5036A046A64086400046284696F
:1027D000F025AC43120122430A24A3430B43826138
:1027E000036230BD30B5036A1024A34303628469D9
:1027F000036A0F252D031203AC432243A024A343F5
:10280000090119438261016230BD000070B51C49A5
:1028100009680C6B002C2ED000282CD01949247884
:102820000B78DA09D201002C01D0022306E04C78A3
:10283000E40702D05B065B0E00E000231A43550656
:102840006D0E00240A70002D05D08023012D06D0C6
:10285000022D0AD110E001224A804A7004E01A4396
:10286000C823D2094B80D2010A704A884280087876
:10287000C009FFF743FB70BD4C701A43F4E700003A
:1028800048000020A400002070B50C4D28680468A2
:102890000CE02079C00708D0A168002905D0E068C5
:1028A000884720794008400020711034286801686A
:1028B000007900010818A042EBD870BDB0000020DC
:1028C00010B5818CC90707D001684A6801235B04F1
:1028D0009A43836A1A434A60818C890707D5016845
:1028E0004A6801231B049A43C36A1A434A60818CD5
:1028F000490707D501684A6801239B049A43036B83
:102900001A434A60818C090707D501684A68012388
:10291000DB039A43436B1A434A60818CC90607D58F
:102920000268916801231B039943836B19439160EB
:10293000818C890607D501688A6801235B039A4365
:10294000C36B1A438A60818C490612D503685A68A2
:1029500001210905046C8A4322435A60026C8A42B1
:1029600007D10268516803235B059943436C1943FF
:102970005160818C090607D501684A680123DB0490
:10298000806C9A4302434A6010BD0000FEB50746C2
:102990000025803704467D60FEF798FA0190206894
:1029A0000068264600076036002819DA274800909C
:1029B0000121002249052046019B00F023FA00284E
:1029C0000ED0EFF31080012181F3108821680A688E
:1029D00080239A430A6080F310882020E06729E072
:1029E00020680068400728D518480090012100227F
:1029F00089052046019B00F005FA00281DD0EFF361
:102A00001080012181F3108821680A68FF23213397
:102A10009A430A6080F31088EFF31080012181F35C
:102A2000108821688A68520852008A6080F31088F2
:102A30002020386035760320FEBD2020E067386016
:102A40002566656635760020FEBD0000FFFFFF01AC
:102A500010B5406A0022014640314A834A82FEF79F
:102A6000D6FF10BDF8B5446AE06F254680352E6864
:102A70002168896800270906002906DA212804D17F
:102A800052200753204600F0C9F8206880684006AD
:102A900006D5222E04D15A200753204600F08EF886
:102AA00068681021084368602046FEF7B0FFF8BD53
:102AB00070B501468969406A0022202938D05A2120
:102AC0000A52EFF31081012383F3108803681C6816
:102AD000FF250135AC431C6081F31088EFF31081B2
:102AE000012383F3108803689C68640864009C6079
:102AF00081F31088EFF31081012383F310880368BA
:102B00009C684025AC439C6081F310882023802181
:102B10000B50016E01290BD1EFF31081012383F3D8
:102B2000108803681C681025AC431C6081F3108872
:102B30004266016E012902D0FFF784F970BD582169
:102B4000095AFEF716FF70BD10B5406A01214166B3
:102B5000016E012902D0FFF776F910BD5821095AFC
:102B60004908FEF706FF10BD10B501468969406AA5
:102B700020291BD0002252210A52EFF3108101229A
:102B800082F31088026893688024A343936081F3E2
:102B90001088EFF31081012282F310880068026828
:102BA00040231A43026081F3108810BDFFF7A2F999
:102BB00010BD10B5406AFFF79EF910BD10B5EFF3D8
:102BC0001081012282F3108802681368FF242134E7
:102BD000A343136081F31088EFF31081012282F385
:102BE0001088026893685B085B00936081F310882B
:102BF000016E01290BD1EFF31081012282F31088BD
:102C0000026813681024A343136081F31088202204
:102C100080210A5000210166816610BD10B5EFF3D6
:102C20001081012282F3108802681368C024A34334
:102C3000136081F310882021C16710BD70B5044670
:102C400080682169E26908436169002511430843EE
:102C500021680A683C4B1A4002430A6021684868B0
:102C6000032212039043E26810434860A169206A7E
:102C7000084321688A680B231B029A4302438A6037
:102C80003248006B8007800F16D0012818D0022828
:102C900018D0032812D010210122E369D2032C4856
:102CA0002C4E93422AD100290ED0022913D0042998
:102CB0000DD008293BD11FE00021EDE70221EBE711
:102CC0000421E9E70821E7E7FEF75CFA01E0FEF7F7
:102CD00069FA002832D0616840004A088018FDF780
:102CE000FFF901461039B14221D81A49491C014067
:102CF0000007400F08431FE01046ECE7002906D00C
:102D000002290BD0042905D0082910D111E0FEF7C3
:102D100039FA01E0FEF746FA00280FD061684A0848
:102D20001018FDF7DDF901461039B14203D901252C
:102D300004E01046F2E780B22168C8600020A06677
:102D4000E066284670BD0000F369FFFF00100240F6
:102D500000127A00EFFF000070B504464165403074
:102D60000283002025468035686022212960616F3A
:102D7000002919D0204B8B62636F2049D962636FA1
:102D80001F491963616F13464863666D21683246B7
:102D90002431606FFDF774FF002805D010206860B3
:102DA00020202860012070BD206900280CD0EFF39E
:102DB0001080012181F3108821680A68FF23013304
:102DC0001A430A6080F31088EFF31080012181F329
:102DD0001088226893680B43936080F31088EFF3A8
:102DE000108081F3108821688A6840231A438A6022
:102DF00080F31088002070BDB12A0008492B00081C
:102E0000652A0008FFB5064681B0803605460446AF
:102E100060350A9F2EE0781C2CD0FEF757F80499F5
:102E2000401AB84214D8002F12D020680168490710
:102E300020D5C169C94309070CD408270762204679
:102E4000FFF7BCFE776000202876012005B0F0BDBA
:102E50000320FBE7C069C04300050BD401202168B3
:102E6000C00208622046FFF7A9FE20207060002003
:102E70002876EDE72068C1690298884305D00021D3
:102E800003988142C7D00020E0E70121F8E7000065
:102E900010B505480068002802D0826803499047B1
:102EA0000348FEF7B9FD10BD48000020440400208F
:102EB0007803002070B501680C680B4661690579DC
:102EC0008AB2ED0019465D1907E08E79002E8E88D2
:102ED00001D0324300E0B24308318D42F5D80028DA
:102EE00005D0002B03D0D04300041043A06170BD77
:102EF000F8B5040C8BB2264682B25E430D0C104628
:102F0000370C5843360480190021794116466E4328
:102F1000370C36048019794126466E438919F8BD6D
:102F20008307FF22DB0E9A408907090E994000288B
:102F300008DB830809489B001B1818689043084366
:102F4000186070470007000F0838830804489B008A
:102F50001B18D86990430843D861704700E400E02B
:102F600000ED00E002E008C8121F08C1002AFAD1F3
:102F700070477047002001E001C1121F002AFBD1F9
:102F80007047000010B5002823D0124B0022001F0C
:102F9000196803E0814203D80A4649680029F9D13B
:102FA000002A0AD01368841A9C4204D100681818B9
:102FB0001060104602E0506000E01860002907D061
:102FC00002680B1A934203D10B68D2180260496859
:102FD000416010BDC4000020F3B50446016981B012
:102FE0000068FDF7FAF8606006466169FDF7F5F8DC
:102FF00001463046FDF787F9E060A7680546394687
:103000000298FDF73BF92946FDF740F93946FDF7EF
:10301000E4F80746A0607F202946C005FDF72EF999
:103020003146FDF733F920600448874201DDA0688E
:10303000FEBD0020E060A060FEBD000077CC2B321A
:10304000FDF752FFFFF729FBFEF7FAFFFEF7DCFF63
:10305000FFF792F8FFF758F8FEF760FF40221D498E
:103060001D48FDF7FFFC1E4D1C482860FFF728F89F
:103070001C4C206800281CD0006C006801681022DD
:103080001143016020682C210A5C816A006CFEF704
:10309000ADFE206800222D210A5429680A68D260FA
:1030A0000078002802D04000C83000E0C82009683D
:1030B00048800D48006881680122114381607D20AD
:1030C000C000FDF713FE0948FEF7DAFAFFF7DCFB54
:1030D000FCE700002C020020AC020020A800002029
:1030E000B0000020480000207803002030030020BA
:1030F000F0B50B30C108C900144F0026144A0FE088
:1031000003688B420BD38B4205D95C1A4318456880
:1031100030C3083B00E04368136002C004E0021DB6
:1031200010680028ECD13046002803D13868002808
:1031300001D00020F0BD064A06481060064A121A67
:10314000D208D20044C001203860D7E7C800002070
:10315000C40000208C040020880600200000003FEE
:103160000000000000000000000000000AD7A33BA0
:103170004C37893D5C00002000040048020000003C
:1031800002030405060708090A0B0C0D0E0F1010A8
:103190000102030405060708090A0B0C0D0E0F10A7
:1031A00000000000000000000102030406070809F7
:1031B0000000000001020304D831000800000020D4
:1031C000CC000000642F0008A4320008CC000020CE
:1031D000BC090000742F000800000000A27D123C12
:1031E000F83D0A3F5A82143C9FBB0C3F27A4143C75
:1031F000FDE10C3FCE98143CA8EB0F3F9E8D143C94
:103200002D49083F4709143CBAD80C3F538D143C54
:10321000E6650D3F9A98143CBE110E3F0000000079
:1032200000000000000000480020000000000048EE
:10323000004000004C00002002000000000064007C
:10324000060000000D28000800000000000001003A
:103250000200000041220008000000000000C80039
:103260000200000099250008000000000000E803AB
:1032700000000000C106000800000000000000007F
:1032800064000020040000000000000001000000B5
:10329000040000000000000000127A00000000009E
:0432A000000000002A
:04000005080000B13E
:00000001FF
