:020000040800F2
:10000000184900200D0300084F420008B9360008C7
:100010002D3B00088F1F00083D470008000000002E
:100020000000000000000000000000007502000851
:10003000D521000800000000B90200085D42000858
:1000400027030008270300082703000827030008E8
:1000500027030008270300082703000827030008D8
:1000600027030008270300082703000827030008C8
:1000700027030008270300080921000815210008AC
:10008000212100082D21000827030008270300086C
:100090002703000827030008270300082703000898
:1000A00027030008F142000827030008270300087F
:1000B0002703000827030008270300082703000878
:1000C0002703000827030008270300082703000868
:1000D00027030008F54600081147000831470008CB
:1000E00027030008270300082703000800F002F890
:1000F00000F0B0F80AA090E8000C82448344AAF112
:100100000107DA4501D100F0A5F8AFF2090EBAE80F
:100110000F0013F0010F18BFFB1A43F0010318473B
:1001200008920000289200000A444FF0000C10F8DA
:10013000013B13F0070408BF10F8014B1D1108BF65
:1001400010F8015B641E05D010F8016B641E01F805
:10015000016BF9D113F0080F1EBF10F8014BAD1C55
:100160000C1B09D16D1E58BF01F801CBFAD505E073
:1001700014F8016B01F8016B6D1EF9D59142D6D3CD
:10018000704700000023002400250026103A28BFF5
:1001900078C1FBD8520728BF30C148BF0B607047F9
:1001A0006E2900F06383702900F0AD84662908F0A1
:1001B0001581652908F01281672908F00F816129EE
:1001C00008F00E8103681B0A28BF41F080016929ED
:1001D00000F01083642900F00D83752900F00A8374
:1001E0006F2900F03A84782900F07984E92900F039
:1001F000D583E42900F0D283F52900F0CF83EF29DD
:1002000000F03784F82900F078840368DB0928BF00
:1002100041F08001632901F0B781732901F0BC81AD
:10022000E32901F0C781F32901F0CC810020704758
:100230001FB501F019FA04000020002107F0FEFEAE
:10024000401C60600020002107F0E2FEE0601FBD5E
:1002500010B510BD01F0DAF91146FFF7E9FF04F01F
:100260007CFD01F0B7FA03B4FFF7F2FF03BC01F025
:10027000BFFA0000224B19680868B0E8F00F80F35D
:100280000988BFF36F8F4FF0000080F311884EF0A4
:100290000D0E70470000000006480068006880F3FB
:1002A000088862B661B6BFF34F8FBFF36F8F00DF70
:1002B00000BF00BF08ED00E0EFF30980BFF36F8FD0
:1002C0000F4B1A6820E9F00F106008B54FF050008E
:1002D00080F31188BFF34F8FBFF36F8F06F070FF6D
:1002E0004FF0000080F31188BDE8084019680868E5
:1002F000B0E8F00F80F30988BFF36F8F704700BF3D
:100300006C010020EFF3058070470000094880472A
:1003100009480047FEE7FEE7FEE7FEE7FEE7FEE7E7
:10032000FEE7FEE7FEE7FEE704480549034A054B02
:1003300070470000ED420008ED000008184500205D
:1003400018490020184500207CB51D4616460C00B3
:10035000009001D02044401E074B7B442A4669464A
:100360000190304600F09BFA05461CB1002069461A
:1003700000F0A8FA28467CBD7105000030B505469E
:100380000B462A4613F8014B12F8010B08B1A042A4
:10039000F8D01CB1002802D06D1CF1E7284630BD12
:1003A00010B5431C02E010F8011B71B18107FAD1AE
:1003B0004FF0013202C88C1A8C4314EAC211F9D0F2
:1003C000C01A0A0603D0C01E10BDC01A10BD0A0410
:1003D00001D0801E10BD0902FCD0401E10BD40EAB5
:1003E000010370B59B072ED14FF00136042A2AD3A2
:1003F00008C810C99D1B9D43121F15EAC61517D0CA
:10040000D8B2E1B2401A50EA056110D198B2A1B257
:10041000401A50EA05410AD123F07F4024F07F4181
:10042000401A50EA052102D1180EA0EB146070BDED
:10043000A342DBD018BA21BA884201D9012070BD8D
:100440004FF0FF3070BD0AB9002070BD10F8013BBD
:1004500011F8014B63B1A3420AD1521E08D010F823
:10046000013B11F8014B1BB1A34201D1521EEDD14A
:10047000181B70BD421E12F8013F002BFBD111F872
:10048000013B002B02F8013BF9D17047032A40F2EF
:10049000308010F0030C00F0158011F8013BBCF126
:1004A000020F624498BF11F801CB00F8013B38BF3E
:1004B00011F8013BA2F1040298BF00F801CB38BF4C
:1004C00000F8013B11F0030300F06B80083AC0F024
:1004D000088051F8043B083A51F804CBA0E8081012
:1004E000F5E7121D5CBF51F8043B40F8043BAFF345
:1004F0000080D20724BF11F8013B11F801CB48BF9F
:1005000011F8012B24BF00F8013B00F801CB48BFD4
:1005100000F8012B7047431A28BF9A427FF6B6AF06
:10052000032A1044114440F2268010F0030F1EBF2E
:1005300011F8013D521E00F8013D10F0030F7FF449
:10054000F6AF11F0030300F0C083083AC0F00B804F
:1005500051F8043D083A51F804CD40F8043D40F804
:1005600004CDFFF7F3BF121D5CBF51F8043D40F806
:10057000043DAFF30080D20724BF11F8013D11F80C
:1005800001CD48BF11F8012C24BF00F8013D00F84F
:1005900001CD48BF00F8012C704701B5FFF776FF89
:1005A00001BD10B5203AC0F00B80B1E81850203AD8
:1005B000A0E81850B1E81850A0E81850BFF4F5AF03
:1005C0005FEA027C24BFB1E81850A0E8185044BF8D
:1005D00018C918C0BDE810405FEA827C24BF51F8FA
:1005E000043B40F8043B08BF7047D20728BF31F8EE
:1005F000023B48BF11F8012B28BF20F8023B48BF3F
:1006000000F8012B704702F0FF0343EA032242EA9D
:10061000024200F002B84FF000020429C0F012803C
:1006200010F0030C00F01B80CCF1040CBCF1020FA5
:1006300018BF00F8012BA8BF20F8022BA1EB0C017A
:1006400000F00DB85FEAC17C24BF00F8012B00F870
:10065000012B48BF00F8012B70474FF0000200B596
:10066000134694469646203922BFA0E80C50A0E8D5
:100670000C50B1F12001BFF4F7AF090728BFA0E883
:100680000C5048BF0CC05DF804EB890028BF40F84F
:10069000042B08BF704748BF20F8022B11F0804F91
:1006A00018BF00F8012B70474FF0013C50F8042BA5
:1006B00051F8043B9A4221D1A2EB0C03934313EA75
:1006C000CC1317D150F8042B51F8043B9A4215D1A2
:1006D000A2EB0C03934313EACC130BD150F8042B79
:1006E00051F8043B9A4209D1A2EB0C03934313EA5D
:1006F000CC13DBD04FF00000704700BFD01A01BA16
:10070000B1FA81F101F0180122FA01F0CB40C1F1F8
:100710002001DBB2C0B2C01A2CFA01F3D11A914306
:1007200011EAC311E6D1704770477047704770B542
:10073000044685690068C10601D5302600E0202600
:10074000C00707D070BDD4E9012130469047206A28
:10075000401C20626D1EF6D570BD70B504468569DB
:100760000078C00707D170BDD4E90121202090474F
:10077000206A401C20626D1EF6D570BD09684A05CE
:1007800001D540B27047C905FCD500B27047096871
:100790004A0501D5C0B27047C905FCD580B2704783
:1007A00070B50C460546012A05D02878800600D58C
:1007B000EA69002302E0012305E05B1C934202D2B8
:1007C000E05C0028F9D1A869E618C01AA861286A77
:1007D000184428622846FFF7AAFF04E0D5E9012162
:1007E00014F8010B9047B442F8D32846FFF7B5FF41
:1007F00070BD00002DE9F0410646002410687529FF
:10080000314616A510D0FFF7B9FF002802DA4042A2
:1008100013A507E031688A0701D512A502E0490750
:1008200004D511A5012401E0FFF7B1FF00210A2240
:1008300006F1240709E0B0FBF2FCB0FBF2F302FB87
:100840001C00303078541846491C0028F3D1234648
:100850002A463046BDE8F04100F0A6BA000000008C
:100860002D0000002B00000020000000116802682D
:10087000006A530501D508700AE0D30501D5088048
:1008800006E0130603D5C217C1E9000200E00860C4
:100890000120704701694A1C02610878704700B561
:1008A0008FB0CDE901310021059105497944CDE9A9
:1008B00003101146684600F031F90FB000BD00008A
:1008C000E5FFFFFF0A6802F8010B0A607047D1E9F3
:1008D00000239A4202D2531C0B6010707047000034
:1008E0002DE9FF5F15468A460446DFF8AC80F844E0
:1008F0000027D8E900103E46CDE9001010E03AF894
:1009000016106A4602A800F061FE411C07D021784B
:10091000890603D5E269391891420DD80744761C3F
:100920002078800602D5E069B84205DDAE42E6DBFC
:100930003AF816000028E2D1A069C01BA061204649
:10094000FFF7F5FED8E90010CDE90010002017E010
:100950003AF818106A4602A800F038FEB0F1FF3FDE
:1009600081460BD000250DF1080B05E0D4E90121EB
:100970001BF8050090476D1C4D45F7D308F10100A9
:10098000B0428046E4DB206A384420622046FFF70C
:10099000E4FEBDE8FF9F0000D67E00002DE9F04197
:1009A0008046D21D22F007020025D2E90002F52977
:1009B00015A614D0011E72F1000106DA0023D0EB57
:1009C000030063EB020211A608E0D8F800108B07C1
:1009D00001D50FA602E0490701D50EA60125114653
:1009E000002408F1240704E000F099F930323A5568
:1009F000641C50EA0102F7D12B463246214640469C
:100A0000BDE8F04100F0D0B9000000002D0000006A
:100A10002B0000002000000030B4002100F124046D
:100A200008E002F00705D208303542EA4372DB08DD
:100A30006554491C52EA0305F3D10468002310A24F
:100A4000250707D5A40600D421B1C46901230DA24E
:100A5000641EC46130BC00F0A7B910B5044621463D
:100A60001068FFF794FE02462046BDE810400023C0
:100A7000D2E7D21D22F00701D1E90023CCE7000024
:100A80000000000030000000F0B40D4601880905A8
:100A900002D5214C7C4402E01F4C7C440E340021E2
:100AA00000F1240608E002F00F071209E75D42EAB0
:100AB00003721B097754491C52EA0307F3D10278E9
:100AC0000023120704D5702D06D009B1022311347A
:100AD0002246F0BC00F068B901231034F8E770B585
:100AE00004460D4621461068FFF751FE024629468E
:100AF0002046BDE870400023C6E7D21D22F0070360
:100B0000D3E90023C0E70368126843F020030360C1
:100B10000823C3610023B7E7387D00002DE9F05FAB
:100B2000894604464FF0000ADFF874B1FB44C0F870
:100B300020A02046E1688847002874D0252806D0E8
:100B4000D4E901219047206A401C2062F1E7002689
:100B50005F462046E16888472028054607DB312D9F
:100B600005D2781910F8200C08B10643F1E7B00758
:100B700001D526F00406C4F81CA00027C4F818A06C
:100B80002A2D09D0284603F01DFE38B304EB870850
:100B9000303DC8F8185019E059F8041B204604EB02
:100BA00087029161E1688847012F054618D1E06905
:100BB000002820DA26F020061DE0D8F8180000EB07
:100BC000800005EB40003038C8F818002046E16886
:100BD0008847054603F0F6FD0028EED1012F0AD024
:100BE0002E2D08D12046E16888477F1C0546022F3C
:100BF00046F02006C4DBA069002803DA404246F034
:100C00000106A061F00701D026F010066C2D0BD074
:100C1000682D09D04C2D39D06A2D35D0742D35D0A2
:100C20007A2D33D016E038E0E1682F462046884719
:100C3000B842054609D16C2F26D04FF48060E16898
:100C4000064320468847054604E06C2F1AD04FF42F
:100C5000807006430DB3A5F14100192802D8203554
:100C600046F400664A462946204626604E46FFF76F
:100C700097FA80B101280BD0F61D26F0070000F18D
:100C8000080956E74020E4E78020D8E70020D6E7AF
:100C900006F104094DE7284652E7206ABDE8F09FB7
:100CA000C87C0000431A28BF9A427FF67AAC1044F1
:100CB00010F0030F11441EBF11F8013D521E00F841
:100CC000013D10F0030F7FF4F6AF103AC0F00A8038
:100CD00010B531E91850103A20E91850BFF4F9AFB7
:100CE000BDE81040530724BF31E9081020E908107F
:100CF00044BF51F8043D40F8043D12F0030F08BF13
:100D00007047D20728BF31F8023D48BF11F8012CC7
:100D100028BF20F8023D48BF00F8012C704730B5CD
:100D2000B0F10A024FEA900E71F100034EEA817EA3
:100D3000B0EB0E0061EB91014FEA101E4EEA017E0E
:100D400010EB0E0041EB11114FEA102E4EEA016E2E
:100D500010EB0E0041EB11214FEA104E4EEA014E0E
:100D600010EB0E0041EB1141401841F100014FEA38
:100D7000D00040EA41704FEAD10110EB80054FEA04
:100D8000810444EA907444EB01046D1944EB0404BB
:100D9000521BA3414FF0000348BF0A3200D530BDBB
:100DA000401C41F1000130BD2DE9F0470D46994648
:100DB0009246044600F124080168880604D5E069DB
:100DC00021F01001216000E00120A84201DD471B55
:100DD00000E00027A1697A1902EB0900081AA06156
:100DE0002078C00602D42046FFF7A1FC002608E0C8
:100DF000D4E901211AF806009047206A401C761CAD
:100E000020624E45F4DB2078C0060AD52046FFF765
:100E10008EFC06E0D4E9012130209047206A401C76
:100E20002062381EA7F10107F4DC07E0D4E90121B4
:100E300018F805009047206A401C2062281EA5F182
:100E40000105F3DC2046FFF788FC2078000602D578
:100E50000220BDE8F0870120FBE770472DE9FF4F36
:100E60000C461E464FF0FF378BB0D2E90001DDF88B
:100E700060800A908A46C1F30A5505B93D460021B3
:100E800008464FF00000BAF1000F00F4400005DA08
:100E900000EB80004FF4400101EA50004FEA905906
:100EA000B9F1010F00DDB9460A9850EA4A000ED0A8
:100EB00044F61050A5F2FF3545432F14B8F1000F4A
:100EC0001ED07542291E1EDDC9F100021CE0B8F1DA
:100ED000010F4FF0000001D0302103E0F24305E0A4
:100EE0002154401CB042FBDB30460022002121543B
:100EF0000B99C1F80880C1E900200FB0BDE8F08F60
:100F0000BD1B6D1CDEE74A4600DA694206A800F008
:100F1000EFFB06AB93E8070003AB83E807005046FE
:100F20000A9900F06CFC8DE80700A0F500501F380E
:100F300000900398002D0ADD42F21F014A46084442
:100F4000002303A90390684600F0D5FE09E0A0F550
:100F500000504A461F38002303A90390684600F05A
:100F6000DFFE8DE807000004000C03D04FF0FF30D7
:100F7000410800E01046B8F1000F03D000220092B3
:100F800015461EE0751E05D4FFF7C9FE30326255C6
:100F90006D1EF9D5B3460122084302D000227F1C02
:100FA00004E02078302801D100227F1E002A099712
:100FB00084D01DE0112D07DAFFF7B1FE3032625503
:100FC0006D1C50EA0102F5D1084302D00098C8B167
:100FD0000EE00021681E05E0235C625C635422542D
:100FE000401E491C8142F7DBAB46A81B401E0990FE
:100FF000002004F80B000B98099AC0F80880C0E99B
:10100000002B7AE711264FF0000857E72DE9F04F43
:1010100088460446D21D22F0070191B0D1E90001B3
:10102000CDE90A0103F0AAFB02460B98C00F01D0DC
:101030002D2007E02068810701D52B2002E0202128
:1010400001EAC000032A099001D0072A05DB034604
:101050004146204600F00CFB0BE12078800601D5CC
:10106000E06900E00620B8F1650F814606D0B8F1CE
:10107000660F18D0B8F1670F70D131E00020B9F1D8
:10108000110F009001DB112301E009F101030AAA0D
:1010900001A90CA8FFF7E2FEDDE90C70002609F1BA
:1010A0000105834647E001204B4600904FF0004782
:1010B0000AAA01A90CA8FFF7D1FEDDE90DB00C9931
:1010C0005D46002610B909F101000D18B9EB0500C5
:1010D00003D4C0F1FF3609F10105A5EB09002BE0AF
:1010E000B9F1010F01DA4FF001090020B9F1110F38
:1010F0000090484601DD112300E003460AAA01A939
:101100000CA8FFF7ABFEDDE90C704D4600268346C8
:10111000207800070AD4AB4500DA5D4601A8012D0E
:1011200004DD411911F8011C302907D04F4502DABE
:1011300017F1040F04DA012082460FE06D1EEEE77E
:10114000002F02DCED1B3E4403E0781CA84200DDCA
:101150007D1CB81B00F1010A4FF000472078000702
:1011600003D4AA4501DB4FF0FF3A0021B7F1004F4D
:101170000DF143088DF8431024D002202B23002FBB
:1011800001DA7F422D230A21021EA0F1010000DCBA
:101190005FB197FBF1FC97FBF1F201FB1C7C17465A
:1011A0000CF1300C08F801CDEEE7A8F10100037056
:1011B0002188090501D5452100E06521A0F101083C
:1011C00000F8011C09980FA9A1EB0807FF1D00B149
:1011D0000120411901EBEA70A1693844081A401E48
:1011E000A0612078C00602D42046FFF7A0FA099833
:1011F00028B1D4E901219047206A401C2062207860
:10120000C00622D52046FFF792FA1EE0002E04DB2E
:10121000B34502DD01A8805D00E03020D4E9012162
:101220009047206A401C2062761CAAF101005FEA08
:10123000000A0AD100F018FAC0680168405CD4E9DD
:1012400001219047206A401C2062281EA5F101055B
:10125000DCDC07E0D4E9012118F8010B9047206A93
:10126000401C2062381EA7F10107F3DC2046FFF77F
:1012700074FA032011B041E62DE9F04F04460D4603
:10128000D21D22F0070089B0D0E9009748463946C0
:1012900003F074FA0246F80F01D02D2307E020680E
:1012A000810701D52B2302E0202101EAC0038DF83C
:1012B00020300BB1012000E00020032A824601D03B
:1012C000072A04DB2946204600F0D2F93FE12078C6
:1012D000800601D40D2500E0E569C7F30A560D2DFF
:1012E00049DA00214FEA175B08464FF00000002F53
:1012F00000F4400007DA00EB80004FF4400100EBFF
:10130000D07001EA60008115012901DD4FF0FF3145
:1013100000224FEA850CBCF1180F06D31346ACF13E
:1013200018004FF08052C24003E04FF4801323FABC
:101330000CF30CF10C0CBCF1200F04D3ACF1200C1D
:1013400009FA0CF001E007FA0CF000294FF0004810
:1013500001DD18B90FE00ED140450CD319EB02099D
:101360005F4121B9404502D19F4329EA0209BBEB05
:10137000175F00D0761C2088000502D57B48784492
:1013800002E07A487844193808AA302302F80A3073
:10139000037C0AF10101002E0AF1020A53546A4645
:1013A00002DC4FF0300101E04FF031014FF0010855
:1013B0008DF8001002D0A6F2FF3603E059EA47018B
:1013C00000D06B4E002D02DC2178090704D54FF0C8
:1013D00002082E218DF80110C44600210BE0C7F34E
:1013E00003433F01C35C491C6D1E02F80830052908
:1013F00008F1010801DA002DF1DC00210CE000EB1E
:101400001973491C1B786D1E082902F808304FEA31
:10141000091908F1010801DA002DF0DC21688B06BA
:1014200002D516E0A8F10108E04505DD02EB08034E
:1014300013F8013C302BF5D0B8F1000F09DD02EBB9
:10144000080313F8013C2E2B03D1090701D4A8F19E
:101450000108002D05DD3E2102F808106D1E08F17F
:101460000108407C002E02F8080008F1010804DAA7
:101470002D20764202F8080002E02B2002F8080036
:101480000A214FF47A70864208F101080BDB96FBC3
:10149000F0F3303302F8083096FBF0F308F101085E
:1014A00000FB136601E0642E0CDB642096FBF0F376
:1014B000303302F8083096FBF0F308F1010800FB26
:1014C000136601E00A2E06DB96FBF1F0303002F8DD
:1014D000080008F1010896FBF1F001FB10603030C4
:1014E00002F80800A16908F1010808EB050202EB07
:1014F0000A00081AA0612078C00602D42046FFF72F
:1015000016F9216A08AE01EB0A00206204E0D4E972
:10151000012116F8010B9047BAF1010AF7D22078A1
:10152000C00602D52046FFF702F96E4609E016F81C
:10153000010B3E280FD0D4E901219047206A401CBE
:101540002062B8F10108F2D22046FFF706F909B08F
:101550000320BDE8F08F206A2844206203E0D4E92C
:101560000121302090476D1EEBD3F8E79A740000FC
:1015700002FCFFFF10B5436913B1AFF3008001E037
:10158000FFF70EF9012010BD127800F124010A7056
:1015900000224A700122EDE711684FF0FF32E9E7BF
:1015A00010B5436913B1AFF3008001E0FFF798F97C
:1015B000012010BD128800F1240182840022C2841F
:1015C0000122EDE711684FF0FF32E9E770B51646EA
:1015D0000C46054600F040F8036893F80101012825
:1015E00006D0FF2C0FD8185D68B101202C7070BD9B
:1015F000D3F807013246214603F207130344284675
:10160000BDE8704018474FF0FF3070BD754600F0E0
:10161000EBF8AE4605006946534620F007008546C4
:1016200018B020B5FEF780FEBDE820404FF0000660
:101630004FF000074FF000084FF0000B21F00701BA
:10164000AC46ACE8C009ACE8C009ACE8C009ACE8FD
:10165000C0098D467047000010B500F005F8001D68
:1016600010BD00BFD969000000487047D444002075
:101670002DE9F0411F46044603260168072A01F4BC
:10168000006004DB08B116A505E016A503E008B16B
:1016900015A500E015A521F010002060A069C01E6E
:1016A000A0610FB1401EA0612046FFF740F84FB186
:1016B000D4E9012138469047206A401C2062C01CB2
:1016C000206206E0206AFAE7D4E9012115F8010B4F
:1016D0009047761EF8D22046FFF73FF8BDE8F0812C
:1016E0004E414E006E616E00494E4600696E6600C6
:1016F0002DE9F047814616468AB0354878440DC832
:101700008DE80D0032487844801C03AC0DC884E895
:101710000D0041F69B300844372190FBF1F290FB1D
:10172000F1F5A5F1800501FB12041B3C02D56442D2
:10173000012000E00020DFF898A080460027FA444E
:10174000AAF1BE0A0EE0E0070AD03246684607EB6F
:10175000470101230AEB810100F0E2FA8DE807005E
:1017600064107F1C002CEED1194F7F44AE3F19E06E
:10177000E80715D007EB04100DF1180A90E80E00E9
:101780008AE80E00C068F04201D1981908903246EC
:10179000012306A903A800F0C3FA03AB83E80700FE
:1017A0006D10641C002DE3D14FF0010332466946F1
:1017B000B8F1000F03A802D000F09DFA01E000F09C
:1017C000AFFAC9E90001C9F808200AB0BDE8F087FE
:1017D000AC71000010B50446AFF300802046BDE8B0
:1017E0001040FEF740BD000000487047B4440020A0
:1017F00001491820ABBEFEE72600020070475FEAF1
:10180000400C08BF91F0000F4FEA8C234FEAC12231
:1018100043EA51514FEA1C5018BF00F5F0404FEA1F
:10182000300018BF41F000415FEA6C5C00F0298095
:10183000BCF1FF3F08BF40F080407047130C06BF6B
:1018400012044FF0100C4FF0000C130E04BF1202E4
:101850000CF1080C130F04BF12010CF1040C930FD0
:1018600004BF92000CF1020CD30F04BF52000CF124
:10187000010C11464FF00002A0F11F00A0EB0C007C
:10188000704711F0004F08BF704731F000413FF43E
:10189000D5AF0B0C06BF09044FF0100C4FF0000C35
:1018A0000B0E04BF09020CF1080C0B0F04BF090159
:1018B0000CF1040C8B0F04BF89000CF1020CCB0F50
:1018C00004BF49000CF1010CCCF12003A0EB0C008B
:1018D00022FA03F302FA0CF241EA030100F10100DB
:1018E000704720F07F4C80EA030023F07F47ACEB89
:1018F000070303F57C5300F0004003F1FF032DE9DB
:1019000080494FEA154B09B44FEA144325EA0B4EC0
:1019100024EA03480FF2042606EB132749083E7811
:101920005FEA320203FB0667C7F5000707FB06F60E
:101930004FEA54374FEAD64606F1020607FB066C1B
:10194000CCF1005C4FEA1C472CEA074C07FB06F47D
:101950000CFB06F504EB15464FEA961634BF002043
:101960004FF000404FEAD13706FB07FC4FEA1C4C12
:101970000CFB0BF7D21B03FB0CF761EB07010CFB15
:101980000EF7B0EB074072EB17420CFB08F734BFC1
:10199000A2EB0742B2EB074261EB17414FEA0C445E
:1019A0004FEA910706FB07FC4FEA1C4C0CFB0BF7B8
:1019B000B0EBC74072EB573203FB0CF734BFA2EB1E
:1019C000C742B2EBC74261EB57310CFB0EF7B0EBED
:1019D000C70072EB57720CFB08F734BFA2EBC702CB
:1019E000B2EBC70261EB5771039F4FEA816141EA95
:1019F000921104EBCC044FEAD1374FEA826206FB26
:101A000007FC42EA90124FEA80604FEA1C4C0CFB44
:101A10000BF7D21B03FB0CF761EB07010CFB0EF776
:101A2000B0EB074072EB17420CFB08F734BFA2EB98
:101A30000742B2EB074261EB17414FEA8C554FEA80
:101A4000910704EB9C2406FB07FC4FEA1C4C0CFBA3
:101A50000BF7B0EBC74072EB573203FB0CF734BF08
:101A6000A2EBC742B2EBC74261EB57310CFB0EF75A
:101A7000B0EBC70072EB57720CFB08F734BFA2EB58
:101A8000C702B2EBC70261EB577115EB4C254FEA69
:101A9000816141EA92114FEA82624FEAD13742EA0C
:101AA000901206FB07FC44F100044FEA80604FEA05
:101AB0001C4C0CFB0BF7D21B03FB0CF761EB070173
:101AC0000CFB0EF7B0EB074072EB17420CFB08F76C
:101AD00034BFA2EB0742B2EB074261EB174115EBB3
:101AE0001C154FEA813141EA92414FEA823242EAC3
:101AF00090424FEA80304FEA0C7644F1000448EA05
:101B000003434EEA0B484FF0000EB2EB080C71EBAA
:101B1000030724BF624639464EEB0E0E4FF0000B12
:101B20000018524149414BEB0B0BB2EB080C71EB27
:101B300003077BF1000B24BF624639464EEB0E0EC5
:101B40004FF0000B0018524149414BEB0B0BB2EB2D
:101B5000080C71EB03077BF1000B24BF624639468A
:101B60004EEB0E0E51EA020718BF46F0010616EBC7
:101B70000E7655F1000254F1000103D5BDE889014C
:101B8000BDE80088BDE88901BDE80048B6195241AA
:101B900041EB0101A3F10103704780807F7E7D7CD2
:101BA0007B7A7978777676757473727171706F6EEF
:101BB0006E6D6C6C6B6A6A6968686766666564649A
:101BC000636362616160605F5F5E5E5D5D5C5C5B24
:101BD0005B5A5A5959585857575656555555545493
:101BE000535352525251515050504F4F4F4E4E4DF1
:101BF0004D4D4C4C4C4B4B4B4A4A4A49494948483D
:101C0000484747474746464645454544444444437C
:101C100043434342424242414141002B9C4630D41F
:101C200077002BD01CB54FEA370703B44FF01000F4
:101C30004FF01001BAF1000F06D0BCF1000FDCBF6D
:101C400040F0080040F008014FF000000FBCBDE874
:101C500010400BF1010BBBF1010F08BF5FEA170742
:101C600022BF12F1010211F101014FF0004143F1D5
:101C7000000300F0004043EA00007047F9D3570822
:101C8000D0E746EA064613F1400F4FEA16461FDD3D
:101C900013F1200FDFBF16430A46002120335B42B9
:101CA000BED0C3F1200746EA064602FA07F74FEA1C
:101CB000164646EA0706C3F1200722FA03F201FAA4
:101CC00007F721FA03F14FF0000342EA0702A7E702
:101CD00046EA020646EA06464FEA164646EA010684
:101CE000BCBF46EA0646360C4FF000034FF0000238
:101CF0004FF0000194E72DE9804C9A46934670B46A
:101D000091E8380007C831EA400C48BF34EA430C78
:101D100003D5FFF7E6FDFFF780FFF0BCBDE8008CC0
:101D20002DE9804C9A46934670B491E8380007C874
:101D300010F0804F08BF13F0804F03D100F005F87A
:101D4000FFF76BFFF0BCBDE8008C20F07F4780EA16
:101D5000030023F07F4C07EB0C03A3F57C5300F04A
:101D60000040A3F1FE0392F0000F00F0B38095F065
:101D7000000F00F077802DE901494FEA11404FEA4A
:101D8000144621EA004800FB06FC24EA064708FB4B
:101D900006F607FB08F800FB07F718EB06484CEBC4
:101DA000164C4FEA124B18EB07484FEA15464CEB1E
:101DB000174022EA0B4E0BFB06FC25EA06470EFBFA
:101DC00006F607FB0EFE0BFB07F71EEB064E4CEB71
:101DD000164C4FF000061EEB074E4CEB174B18EB62
:101DE0000B0840F1000018EB0E0B58EB000840F117
:101DF00000008F1A4FF000013CBFC943661B14BF9F
:101E0000B5EB040C00213CBFC943F61B4FEA174455
:101E10004EEA8E0E27EA04454FEA1C4704FB076290
:101E20002CEA074C05FB07F70CFB05F604FB0CFC42
:101E300016EB074642EB174216EB0C4642EB1C42F0
:101E40001BEB060658EB0202414146EA9E0601D50D
:101E5000BDE80189B619524141EB0101A3F101032B
:101E6000BDE801894FEA14454FEA114724EA0546C7
:101E700021EA074C05FB07F406FB07F70CFB06F10C
:101E800005FB0CFC11EB074144EB17444FEA1247EA
:101E900011EB0C4144EB1C4422EA074C05FB07F212
:101EA00006FB07F70CFB06F605FB0CFC16EB0746DA
:101EB00042EB174216EB0C4642EB1C456A1854F1F4
:101EC000000148BF7047B619524141EB0101A3F12F
:101ED0000103704795F0000F37D04FEA11424FEAE7
:101EE000144721EA024624EA074C02FB07F106FBED
:101EF00007F70CFB06F402FB0CFC14EB074441EB68
:101F000017414FEA154714EB0C4441EB1C4125EAFD
:101F1000074C02FB07F506FB07F70CFB06F602FB76
:101F20000CFC16EB074645EB174516EB0C4645EB4C
:101F30001C42121951F1000148BF7047B6195241B5
:101F400041EB0101A3F1010370474FEA14454FEA49
:101F5000114724EA054621EA074C05FB07F106FB79
:101F600007F70CFB06F24FF0000605FB0CFC12EB2A
:101F7000074241EB174112EB0C4251EB1C4148BFA9
:101F80007047921841EB0101A3F101037047FEE78E
:101F90002DE9F0410C00054674D0742003F0BAFB23
:101FA000286008B904F064FFA06E03F0B3FB0700DB
:101FB0003ED0A06D03F0AEFB060040D03846A16EC7
:101FC000FEF729FB3046A16DFEF725FB03F0EEFE80
:101FD00094F83C202CA12B6804F07AFA2078012890
:101FE00000D901202968087029686068486029685C
:101FF000A06A88622968E06AC8622968206A086263
:102000002968606A486229682848886029682069C8
:10201000086129682648C8602968264848612968F7
:102020002548886129682548C861606E88B111E03B
:1020300003F0BCFE22A104F04BFA384605E003F0A1
:10204000B5FE28A104F044FA3046BDE8F04104F0A2
:102050000FBF6766606D00B9666528682C2204F1C1
:1020600048014830FEF79DFA303428680ECC3030F5
:1020700080E80E0074E80F122868C0E90F12296882
:10208000606C4864BDE8F081406E6F74653A4D6FD6
:10209000646275735B25645D5F68616E646C657214
:1020A000203D20307825700D0A000000476C0008A4
:1020B000CD3C0008313B0008C53B0008113C00083E
:1020C000406572726F723A7054786275662043721E
:1020D000656174696F6E206661696C6564210D0AC3
:1020E00000000000406572726F723A70527862753B
:1020F00066204372656174696F6E206661696C6504
:1021000064210D0A00000000014800F0D5B800006D
:10211000B4060020014800F0CFB80000700600208F
:10212000014800F0C9B80000F8060020014800F09E
:10213000C3B800003C07002030B590F8405001249F
:10214000AC40C56B6C60046863604368102B036827
:1021500003D099600068C26030BD9A600068C160B9
:1021600030BD000008B50446002CFDD016480422FE
:1021700069464068009004F13200FEF7CCF913483C
:1021800004F14801006A02F0A5FD4FF0FF31206F15
:1021900002F0B6FE0E4D4FF47A7800264FF4FA772F
:1021A0004146206F02F0ACFE0028287806D00028B7
:1021B000F6D1A786A16920468847F1E70028EFD12C
:1021C000A686E168F7E70000E4830008000000202D
:1021D00054000020704772B6FEE710B590F8211049
:1021E0000022022905D00421816380F820200120EB
:1021F00010BD01680B6823F00E030B6001680B68CB
:1022000023F001030B6090F84030C46B012101FA08
:1022100003F3636080F8211080F82020104610BD81
:1022200010B590F821100024022903D00421816305
:1022300001243DE001680A6822F00E020A6001688C
:102240000A6822F001020A601A4A0168914201D12B
:10225000012121E0174A1432914201D110211BE0E3
:10226000144A2832914201D1891515E0114A3C32B5
:10227000914201D189140FE00E4A5032914202D1AD
:102280004FF4803108E00B4A6432914202D14FF49E
:10229000801101E04FF08071064A083A5160012137
:1022A00080F82110002180F82010416B01B188478F
:1022B000204610BD080002402DE9F05FC16B0C689C
:1022C00001680B68D0F840C0042202FA0CF2494DB4
:1022D000DFF824A1494E4A4FDFF828B1DFF828E1A2
:1022E00022422CD05A072AD50A68920603D40A68DB
:1022F00022F004020A600168A94201D1042219E017
:10230000514501D1402215E0B14202D14FF4806223
:1023100010E0B94202D14FF480420BE0594502D19E
:102320004FF4802206E0714502D14FF4800201E0B3
:102330004FF080622F4908394A60C16A3BE04FF094
:10234000020808FA0CF818EA040F4FF000094FF0E1
:10235000010235D05FEA837832D50B689B0605D43D
:102360000B6823F00A030B6080F821200168A94262
:1023700001D1022219E0514501D1202215E0B142DC
:1023800002D14FF4007210E0B94202D14FF4005272
:102390000BE0594502D14FF4003206E0714502D1FD
:1023A0004FF4001201E04FF00072124908394A6000
:1023B00080F82090816A00291AD0BDE8F05F0847B4
:1023C000082505FA0CF5254212D01B0710D50B681D
:1023D00023F00E030B6090F84010C36B02FA01F17A
:1023E0005960826380F8212080F82090016BE2E739
:1023F000BDE8F09F080002401C000240300002408F
:1024000044000240580002406C00024030B528B33E
:1024100008C8134914221944B1FBF2F18900C163C1
:1024200010498163022141771A6843F6F0718A43AB
:10243000D0E900142143D0E902452C43214304692B
:1024400021434469214384692143114319600021D8
:102450004163012242770177084630BD012030BD3B
:10246000F8FFFDBF0000024070B5044690F8200060
:10247000002501280CD0012084F8200094F8216068
:102480000020012E06D084F820000225284670BDC9
:10249000022070BD022684F82160A06320680668CF
:1024A00026F0010606602046FFF746FEE06A002897
:1024B0002068016802D041F00E0106E021F004011D
:1024C00001602068016841F00A010160206801682C
:1024D00041F001010160D9E72DE9F84FDFF8B8912B
:1024E000002409F1040A0AF1040B23460F270BF11B
:1024F000040EC9E00125A5402A40AA427DD1674EBD
:10250000D1F804C0ACEB0608B44532D014DCBCF101
:10251000030F3AD009DCBCF1000F2AD0BCF1010F47
:102520001CD0BCF1020F31D11DE0BCF1110F17D04E
:10253000BCF1120F2AD119E0B8F5881F19D006DCBA
:10254000B8F5803F15D0B8F5801F1FD111E0B8F560
:10255000001F0ED0B8F5041F18D10AE0CB6815E0B3
:10256000CB681B1D12E0CB6808330FE0CB680C333F
:102570000CE08B682BB1012B4FF0080303D04561B1
:1025800004E0042302E0056100E00023FF2A01D8F3
:10259000064601E000F104064FEA840501D9A5F1E1
:1025A0002005D6F8008007FA05FC28EA0C0803FA93
:1025B00005F548EA0508C6F800804D68ED0062D5CB
:1025C000374DAE6946F00106AE61AD6924F00306F1
:1025D00005F001050095334D06EB050CDCF80850BD
:1025E000A607360F07FA06F825EA0805DFF8B880CF
:1025F000404503D14FF0000817E044E0DFF8AC801D
:10260000404502D14FF001080FE0DFF8A4804045BB
:1026100002D14FF0020808E0DFF89880404502D16F
:102620004FF0030801E04FF0040808FA06F848EA02
:102630000508CCF808804D68D9F80060ED034D46D8
:1026400001D5164300E096432E604D68DAF800602D
:10265000AD03554601D5164300E096432E604D6804
:10266000DBF80060ED025D4601D5164300E09643BD
:102670002E604D68DEF80060AD02754601D5164348
:1026800000E096432E60641C0D682A46E5407FF406
:1026900031AFBDE8F88F00000004014000001110C8
:1026A000001002400000014000080140000C014001
:1026B0000010014000140140C26821EA02030A40F0
:1026C00043EA0241016170470AB1016170470904A0
:1026D000FBE7000001488068704700005C010020B3
:1026E0000248816802781144816070475C010020D3
:1026F000074810B5016841F010010160032000F0A7
:10270000A1F80F2000F006F800F04AF8002010BDF4
:102710000020024030B505461C4887B0816941F46D
:1027200000618161806906A900F40060009001A841
:1027300000F030F900F05EF91549164AB0FBF1F1EE
:102740001548491E0260416040F2E7320021C0E9AD
:1027500003218160816100F025FB040012D10E4845
:1027600000F04EFB04000DD1192000F03DF8102DB3
:1027700007D200222946192000F044F807480560D6
:1027800000E0012407B0204630BD000000100240E8
:1027900040420F00002C0140800700206001002013
:1027A0000F4808B5816941F001018161816901F03B
:1027B00001010091C16941F08051C161C0690022ED
:1027C00000F0805000900F21901E00F01BF805488B
:1027D000416821F0E06141F00071416008BD0000F6
:1027E0000010024000000140002809DB00F01F0239
:1027F000012191404009800000F1E020C0F8001163
:1028000070470000F0B40E4B1B680C46C3F3022364
:10281000C3F10705042D00D90425191D072901D28C
:10282000002300E0DB1E012606FA05F1491E2140C7
:1028300099409E40761E16403143F0BC01F0B2BF75
:102840000CED00E0064900F0070208684FF6FF03B0
:10285000184040EA0220034A104308607047000015
:102860000CED00E00000FA052DE9F0470F460500E9
:1028700061D0434E306800F00700B84209D230689A
:1028800020F0070038433060306800F00700B8429D
:1028900051D128683B4C810712D5400703D56068A9
:1028A00040F4E06060602878000703D5606840F479
:1028B000605060606068A96820F0F00008436060C4
:1028C0002878C00728D06868012810D0216802281D
:1028D00010D0890700292EDA616821F00301014335
:1028E0006160FFF7F7FE804641F288390DE021680C
:1028F0008903EFE78901EDE7FFF7ECFEA0EB0801A4
:10290000494502D90320BDE8F0876068696800F096
:102910000C00B0EB810FEFD1306800F00700B84237
:102920000BD9306820F0070038433060306800F081
:102930000700B84201D00120E5E72878400705D517
:102940006068E96820F4E060084360602878000768
:1029500006D56068296920F4605040EAC1006060D3
:1029600000F058F86168084AC1F30311515CC8408F
:102970000649086006480068FFF7CCFE0020C2E761
:102980000020024000100240B087000868010020CB
:10299000600100200F2202600C4A536803F0030319
:1029A0004360536803F0F0038360536803F4E0630B
:1029B000C36052684FF4E06303EAD2020261044844
:1029C000006800F007000860704700000010024037
:1029D000002002400448054900684968044AC1F3E0
:1029E0000221515CC840704768010020001002407D
:1029F000C08700080448054900684968044AC1F3D3
:102A0000C221515CC840704768010020001002409C
:102A1000C087000812A185B00FC98DE80F0014A06F
:102A2000144A006804905168134801F00C03042B09
:102A300010D0082B0ED1C1F38343C9031DF8030046
:102A40000AD5516804AAC1F34041515C0A4A504377
:102A5000B0FBF1F005B0704708494843FAE70000C1
:102A600002030405060708090A0B0C0D0E0F1010CF
:102A7000010200000010024000127A0000093D002F
:102A80002DE9F84F040070D02078C04DC00749D020
:102A90006868C0F38100012807D06868C0F381002E
:102AA000022809D16868C00306D52868800339D593
:102AB00060680028E7D035E06068B0F5803F0BD053
:102AC00010B1B0F5A02F11D0286820F48030286014
:102AD000286820F4802002E0286840F480302860D4
:102AE000606890B1FFF7F6FD06460AE0286840F4FA
:102AF00080202860F0E700BFFFF7ECFD801B642812
:102B000073D828688003F7D50CE0FFF7E3FD06468D
:102B100005E000BFFFF7DEFD801B6428F0D82868C1
:102B20008003F7D420789A4E80074FF001094FF0C8
:102B3000000839D5686810F00C0F07D06868C0F33A
:102B40008100022809D16868C00306D4286880077C
:102B500014D52069012808D110E02069B0B1C6F869
:102B60000090FFF7B7FD074605E00AE1FFF7B2FD69
:102B7000C01B0228C4D828688007F7D52868616977
:102B800020F0F80040EAC10028600DE0C6F800809F
:102B9000FFF7A0FD074604E0FFF79CFDC01B0228DD
:102BA00023D828688007F7D4207800072CD57948E7
:102BB000A169D9B1C0F80090FFF78CFD074604E089
:102BC000FFF788FDC01B02280FD8686A8007F7D579
:102BD00071484FF4FA510068B0FBF1F0009000BF6B
:102BE0000098411E0091FAD20EE080E0C0F800800B
:102BF000FFF770FD074604E0FFF76CFDC01B0228DD
:102C000075D8686A8007F7D42078400760D5E869EE
:102C10000027C00008D4E86940F08050E861E86906
:102C2000012700F0805000905C480168C90513D46A
:102C30000168834641F480710160FFF74BFD8246D5
:102C400006E000BFFFF746FDA0EB0A0064284ED85F
:102C5000DBF80000C005F5D5E06801280AD008B10E
:102C6000052813D0286A20F001002862286A20F085
:102C7000040002E0286A40F001002862E06841F2A6
:102C8000883B98B1FFF726FD82460BE0286A40F0AA
:102C900004002862EEE700BFFFF71CFDA0EB0A016D
:102CA00059455AD8286A8007F6D50CE0FFF712FD7F
:102CB000824605E0FFF70EFDA0EB0A0159454CD80E
:102CC000286A8007F6D41FB1E86920F08050E861D7
:102CD000E06988B36968C1F38101022944D0022800
:102CE000C6F8608004D0FFF7F5FC044638E034E015
:102CF000FFF7F0FC074604E0FFF7ECFCC01B0228DE
:102D00002BD828688001F7D4206AB0F5803F05D120
:102D10006868A16820F4003008436860D4E90801BD
:102D20000843696821F4741108436860C6F860902C
:102D3000FFF7D0FC044606E025E000BFFFF7CAFC21
:102D4000001B022809D828688001F7D51BE000BFC6
:102D5000FFF7C0FC001B022802D90320BDE8F88F52
:102D600028688001F4D40EE00128F7D06868226A50
:102D700000F48031914204D1616A00F470108842FD
:102D800001D00120EAE70020E8E70000001002403F
:102D9000000042428004424268010020007000406E
:102DA0007047704710B5040003D094F83D0010B18F
:102DB00007E0012010BD002084F83C00204600F010
:102DC0001EF8022084F83D00211D206801F096FACB
:102DD000012084F8460084F83E0084F83F0084F81F
:102DE000400084F8410084F8420084F8430084F8ED
:102DF000440084F8450084F83D00002010BD704771
:102E000090F83D10012901D001207047022180F87F
:102E10003D100168CA6842F00102CA6000680B49AF
:102E2000884208D0B0F1804F05D00949884202D0CD
:102E30000849884204D1816801F00701062903D0BE
:102E4000016841F00101016000207047002C014041
:102E50000004004000080040704770B50446006858
:102E600001694FF00005C943890715D4C168C943FA
:102E7000890711D4E91E016101202077206880694B
:102E80008007204602D0FFF7E7FF04E000F098F843
:102E9000204600F096F8257720680169C943490764
:102EA00017D4C168C943490713D46FF00401016105
:102EB000022020772068806910F4407F204602D0ED
:102EC000FFF7CAFF04E000F07BF8204600F079F835
:102ED000257720680169C943090716D4C168C94329
:102EE000090712D46FF008010161042020772068DF
:102EF000C0698007204602D0FFF7AEFF04E000F073
:102F00005FF8204600F05DF8257720680169C94325
:102F1000C90617D4C168C943C90613D46FF010019C
:102F20000161082020772068C06910F4407F2046A6
:102F300002D0FFF791FF04E000F042F8204600F0D5
:102F400040F8257720680169C943C90708D1C168DD
:102F5000C943C90704D1891E0161204600F032F837
:102F600020680169C943090609D4C168C943090633
:102F700005D46FF0800101612046FFF711FF206842
:102F80000169C943490609D4C168C943490605D442
:102F90006FF040010161204600F01EF820680169D1
:102FA000C94389060BD4C168C943890607D46FF0A9
:102FB000200101612046BDE87040FFF7F2BE70BD00
:102FC0007047704700680349884201D1FFF788BB0A
:102FD00070470000002C01407047704710B5044650
:102FE0000068416994F83D20C1F3C011212A0BD13A
:102FF00051B1416921F080014161606B08B1FFF777
:10300000ECF8204601F04CFA2068416994F83E2023
:10301000C1F38011222A0BD151B1416921F0400145
:103020004161A06B08B1FFF7D8F8204601F020FA03
:10303000002010BD70470000F8B502680446106813
:10304000D168536910F00F0F4FF0000553D003F013
:10305000010601F4907737435FD0C20705D0CA0557
:1030600003D5226C42F001022264420705D5DA073B
:1030700003D0226C42F002022264820705D5DA07EF
:1030800003D0226C42F004022264020707D501F04B
:103090002002324303D0226C42F008022264226CE8
:1030A000002A34D0800604D5880602D5204601F0D7
:1030B00000FA20684069216CC0F38010090700D431
:1030C00030B3204601F0D4F92068416949061BD588
:1030D000416921F040014161A06BA8B158494163A9
:1030E000A06BFFF79DF8002811D0A06B416B01B0D9
:1030F000BDE8F040084783060FD58B060DD5204666
:10310000BDE8F84001F0D5B92046FFF793FFF8BDC0
:103110002046FFF78FFF2564F8BD266B2023012E84
:1031200052D1C60650D5CE064ED5106850680090D4
:10313000506940062AD5A16B086840680004000C5D
:10314000EAD0A68D8642E7D9E0858869202818D084
:10315000D06820F48070D0602068416921F00101BE
:1031600041612068416921F04001416184F83E30AD
:1031700025632068C16821F01001C160A06BFFF7D2
:103180002CF8A08DE18D401A81B219E0A08DE18D5F
:10319000401A81B2E08D0028BED00029BCD0D06892
:1031A00020F49070D0602068426922F001024261F0
:1031B00084F83E3025632068C26822F01002C260A5
:1031C0002046FFF70AFFF8BD05062BD50D0629D5C9
:1031D00094F83D002128F6D1A068B0F5805F01D1B8
:1031E0002069B0B1206A411C2162216800784860E2
:1031F000E08C401E0004000CE084E4D12068C1682B
:1032000021F08001C1602068C16841F04001C160C7
:10321000F8BD206A0088C0F308005060206A801C56
:103220002062E5E74006F3D54806F1D5D16820468F
:1032300021F04001D16084F83D3000F03BFAF8BD48
:103240006B43000870B5040004D094F83D000025DD
:1032500010B106E0012070BD84F83C50204600F01B
:1032600023F8242084F83D002068C16821F400512F
:10327000C160204601F078F92068016921F490418D
:1032800001612068416921F02A0141612068C1681B
:1032900041F40051C1602564202084F83D0084F889
:1032A0003E00002070BD00002DE9F04385B00025F0
:1032B00000950195029503950446DFF8B4C10368B3
:1032C0006C48022103226C4F80264FF480684FF037
:1032D000100963454BD1836943F48043836183695B
:1032E00003F480430493836943F00403836180699A
:1032F000039200F0040004900802CDE90001694641
:103300003846FFF7E9F8CDE9008569463846029569
:10331000FFF7E2F85A4F5948C7E90005C7E90256D6
:103320003D617D61BD613846FD61FFF76FF808B111
:10333000FEF751FFA7637C62514F50484437143861
:10334000C7E902563D617D61BD61FD61C7E90009C4
:103350003846FFF75BF808B1FEF73DFF67630022D0
:10336000052125207C62FFF74DFA252051E0DFF88A
:1033700014C1634552D1C36943F40033C361C369C7
:1033800003F400330493836943F004038361806989
:10339000039200F0040004900420CDE90001694686
:1033A0003846FFF799F80820CDE900056946384608
:1033B0000295FFF791F8324F304888371430C7E94B
:1033C0000005C7E902563D617D61BD613846FD617A
:1033D000FFF71CF808B1FEF7FEFEA7637C62284FDA
:1033E0002648CC372830C7E902563D617D61BD6172
:1033F000FD61C7E900093846FFF708F808B1FEF794
:10340000EAFE67630022052126207C62FFF7FAF9B5
:103410002620FFF7E9F905B0BDE8F0831A4CA34276
:10342000F9D1C36943F48023C361C36903F48023E2
:103430000493836943F0080383618069CDE90081C7
:1034400000F00800CDE90320104C69462046FFF744
:1034500043F8E014CDE90005694620460295FFF7E0
:103460003BF8002205212720FFF7CCF92720D0E7E1
:10347000003801400010024000080140580002409E
:10348000700600200044004000480040000C01404D
:103490002DE9F84F044690F83E009A4616460D4630
:1034A000202853D1FDB1F6B194F83C0001284DD04D
:1034B000012084F83C0000272764222084F83E0085
:1034C0002763FFF707F9A6858146E685A0684FF4D4
:1034D0008058404501D1206940B12E465FF000057B
:1034E00084F83C7027E00120BDE8F88F0026F7E75C
:1034F0004B46002220212046CDF800A001F0C8F85C
:1035000008B10320F0E726B1A06840451BD038B1D0
:1035100008E020684068C0F3080025F8020B07E0C7
:10352000206980B12068406800F07F0006F8010B38
:10353000E08D401EE085E08D0028D9D1202084F860
:103540003E000020D0E720684068EFE70220CBE78C
:1035500090F83E30202B0ED159B152B190F83C304A
:10356000012B08D0012380F83C300023036301F0D5
:1035700057B801207047022070477047704700001D
:103580002DE9F843044690F83D001F4616460D46C7
:1035900020284CD1C5B1BEB194F83C00012846D0DA
:1035A000012084F83C004FF00008C4F8408021203E
:1035B00084F83D00FFF78EF8A6848146E684A06873
:1035C000B0F5805F03D004E00120BDE8F8832069F6
:1035D00028B12E465FF0000584F83C800EE00026FE
:1035E000FAE78021204601F053F8A0B9AEB116F8F1
:1035F000010B21684860E08C401EE084E08C4B4663
:103600004FF0000200970028EBD14FF04001204618
:1036100001F03EF830B10320D7E735F8020BC0F3D4
:103620000800E6E7202084F83D000020CDE70220D6
:10363000CBE7000070B5044690F83D00202830D15B
:1036400069B362B394F83C0001282AD0012084F8C1
:103650003C002162A284E28400252564212084F8B4
:103660003D00636B10489862636B1048D862636BCF
:103670000F481863606B134645632668606B321D04
:10368000FEF7F2FE21686FF04000086084F83C50BD
:103690002068416941F080014161002070BD012036
:1036A00070BD022070BD0000394400086744000866
:1036B0007B43000870477047FEE70000064D4FF45B
:1036C00080544FF47A7621462846FEF7F5FF3046BF
:1036D00001F05CFBF7E7000000080140F0B589B09D
:1036E00004004FF000000F46ADF8200051D0002F2D
:1036F0004FD0616905294CD9E0680278022A48D187
:10370000891E4FF6FF7689B2324601F002FBADF812
:1037100020006269E168030A0A4443EA002032F8A3
:10372000022C80B252BA824233D14879112140062C
:10373000050E03A8FCF791FF1748152D00680290AD
:103740008DF80A500AD20DF10B00CDE900050023D7
:10375000D7F81CC01A4602213846E0476D1D656245
:10376000AD1EA9B2324602A801F0D3FAADF820008E
:1037700008A90222481FFCF7CEFEA08C02A982B243
:103780002068FFF757FF206800680168C9434906B1
:10379000FBD409B0F0BD0000E48300080F4C0546DF
:1037A000002DFDD00D4821462438C06901F092FA61
:1037B0004FF0FF363146A06A01F0A2FB084F3146B8
:1037C000A06A01F09DFB0028F9D138780028F6D1D5
:1037D00029462046FFF782FFF1E700002400002081
:1037E00054000020154808B5416941F001014161CC
:1037F0004069002200F00100009005210E20FFF733
:1038000001F80E20FEF7F0FF002205210F20FEF741
:10381000F9FF0F20FEF7E8FF002205211020FEF738
:10382000F1FF1020FEF7E0FF002205211120FEF736
:10383000E9FFBDE808401120FEF7D6BF00100240A6
:1038400030B5A7B02D4800F005F900F0E7F80025E5
:103850001C951CA81D9501F0A5FA294C60611E95C8
:103860001EA81F9501F09EFAA0612095012120A8B5
:10387000219501F0FDFAE0612295012122A823950E
:1038800001F0F6FA1F4920620022D1E90201CDE9D8
:103890002401012124A801F08FFB1A4920611C2278
:1038A00010316846FCF77DFE1449684601F05AFB6A
:1038B000144920601C222C3107A8FCF772FE124D1F
:1038C00007A8296801F04EFB0E4960601C224831B0
:1038D0000EA8FCF766FE0EA8296801F043FB094913
:1038E000A0601C22643115A8FCF75BFE002115A81E
:1038F00001F038FBE06027B030BD0000A8090020CF
:1039000000000020E4830008500000202DE9F0476B
:1039100086B000253D480095019502950395816983
:1039200041F010018161816901F010010491816908
:1039300041F020018161816901F0200104918169D8
:1039400041F004018161816901F004010491816900
:1039500041F0080181618069DFF8B4A000F008003F
:103960000490012241F202015046FEF7ADFEDFF85D
:10397000A49048F20208012241464846FEF7A4FE00
:1039800000224FF480715046FEF79EFE4FF4005027
:103990000326CDE9000669461F48FEF79DFD48F263
:1039A000F100CDE9000669465046FEF795FD012479
:1039B0004FF48170CDE900040227CDE90247694642
:1039C0005046FEF789FD47F2FD30CDE90006694615
:1039D0004846FEF781FDCDE90084CDE902476946FE
:1039E0004846FEF779FDE002CDE9000569460294FC
:1039F0005046FEF771FD20038DE8B1006946504640
:103A0000FEF76AFD06B0BDE8F08700000010024036
:103A100000080140000C01400010014000B5A9B0B1
:103A20002C220A491DA8FCF7BCFD084974222C3140
:103A30006846FCF7B6FD2C221DA912A8FCF7B1FDC3
:103A400069460348FEF7A4FA29B000BD7484000853
:103A5000500000200649C167064981670649C0F841
:103A600080100649C0F884108022054902F0F4BA9B
:103A70005D47000841470008996C0008B16C0008D8
:103A8000300A00200C4810B50A4901604FF4E131BA
:103A90004160002181600C22C160C0E90412816193
:103AA000C161FFF7CFFB002803D0BDE81040FEF74F
:103AB00092BB10BD00380140A40500200C4810B591
:103AC0000A4901604FF4E1314160002181600C221C
:103AD000C160C0E904128161C161FFF7B3FB002836
:103AE00003D0BDE81040FEF776BB10BD0044004097
:103AF000E80500200C4810B50A4901604FF4E13197
:103B00004160002181600C22C160C0E90412816122
:103B1000C161FFF797FB002803D0BDE81040FEF716
:103B20005ABB10BD004800402C060020FEE70000F4
:103B30002DE9FC4104461CA01646D0E90020CDE941
:103B4000002094F830008DF80000080A8DF802007B
:103B500000278DF8047058088DF805008DF80310C3
:103B60008DF80630D4E919011D46FCF754FDE766CF
:103B7000606E00992A460160BDF8041081809DF8AE
:103B800006108171E06EC01DE066616E084431462A
:103B9000FCF77CFCE06E00212844E066226902B05C
:103BA0002046BDE8F041104700460000000000003C
:103BB0007047704702484FF0FF31006801F022B9AA
:103BC0001800002082B090F830108DF8001090F8A6
:103BD00032108DF80110818E0A0A8DF802208DF8BE
:103BE000031000218DF8041090F833108DF80510A3
:103BF000416E00290AD0009A0A60BDF804208A802C
:103C00000621C1660269002102B0104702B0704768
:103C10002DE9F0471E46DDE9085992460F4604009B
:103C200033D0206A00B180474FF000087FB3012FE6
:103C30002ED0022F2ED0032F2CD0002086421ED251
:103C400081451CD8402202EB4603C02206F1200128
:103C500002EB4602BAF1000F1ED077B3012F30D02D
:103C6000606C022F30D01044294640B139B1B9F10F
:103C7000000204D0FCF791FC08B14FF00108606A23
:103C800000B180474046BDE8F0870120FBE7FFE731
:103C90002020D3E78020D1E7284637B1012F07D075
:103CA000616C022F07D01144DFE7616C3144DCE71F
:103CB000626C1144D9E71944D7E7FFE7606C3044E0
:103CC000D2E7606C0844CFE71844CDE72DE9F04116
:103CD0000446C06D0025012803D1606D00780D28D1
:103CE0000CD0204600F02EF9070026D002F05EF836
:103CF00029A1E26D02F0ECFB002610E002F056F87C
:103D00002AA102F0E5FBE16A2AE000BF02F04EF8CA
:103D1000616D8A5D2DA102F0DBFB761CF6B2E06DD1
:103D2000B042F3D802F042F82AA102F0D1FBA26A15
:103D30000AB339462046904721E0284890E84600DB
:103D4000C368606D4078112819D2DFE800F01809C7
:103D50000911110D1518181818181818180D150034
:103D600049B1204688470AE02AB12046904706E03C
:103D70000EB12046B04702E00BB12046984762687A
:103D80001AB1606D417820469047D4E91501FCF7DF
:103D900042FCE565BDE8F0816D6F646275735F722A
:103DA000785F6275665B25645D3A00000D0A4073BA
:103DB0007563636573733A2065786974206D6F6409
:103DC000627573206D6F64652E00000025303258D7
:103DD000200000000D0A0D0A0000000064840008A5
:103DE0002DE9FC410446406D808840BAC5B26807A1
:103DF00000D0012000EBD507284601F08BFC06001F
:103E00004BD02946FCF707FCD4E91901FCF703FC69
:103E10000020E066616D606E09880180E06E626E70
:103E2000C11C801CE1661754606D4178012901D0E6
:103E3000012100E00021CDE900654088D4F81CC0D4
:103E400043BA00222046E047002120E0002015E090
:103E5000D4F86CC0636EB25C12F0010213F80CE08F
:103E600002FA00F202D04EEA020E01E02EEA020E41
:103E7000401CC0B203F80CE0082803D200EBC102DA
:103E8000AA42E5D3E06E401C491CC9B2E066B942C3
:103E9000DCD322690021204690473046BDE8FC4132
:103EA00002F0E6BF2DE9FC410446406D818849BA25
:103EB00049060D0E2178C9B3284601F02BFC0600F7
:103EC0002FD02946FCF7A7FBD4E91901FCF7A3FB87
:103ED0000020E066616D606E09880180E06E801CE4
:103EE000E066616E0D54E06E401CE066606D4178E6
:103EF000032900D00221CDE900654088E76943BA73
:103F000000222046B847E16E606E2A4608443146DA
:103F1000FCF7BCFAE06E00212844E06622692046E6
:103F200090473046BDE8FC4102F0A2BF8178A38EE5
:103F3000C01CCDE900010122E56902212046A84705
:103F4000BDE8FC81F8B501780446012906D901F0E5
:103F50002DFF26A102F0BCFA0120F8BDE06D022879
:103F600002D3A26D904207D901F020FF2DA1E26D8E
:103F700002F0AEFA0220F8BD94F83C5009B994F86A
:103F80003050636D1978A94209D001F00FFF616DBF
:103F90002A460B782FA102F09BFA0320F8BD801E61
:103FA00081B24FF6FF72184600F0B3FEE26D616D0C
:103FB0001144020A31F8021C42EA002549BAA8B2AB
:103FC000814210D001F0F2FE0646E06D0090616D76
:103FD000AAB208442E4930F8020C43BA304602F027
:103FE00077FA0420F8BD0020F8BD00004065727229
:103FF0006F723A50726F746F636F6C207374616389
:104000006B2074797065206572726F722C4D7573B8
:1040100074204D61737465722F536C6176652E0D3B
:104020000A000000406572726F723A50726F746FCE
:10403000636F6C206672616D65206C656E67746875
:10404000206572726F722C6375723A2025642E0D92
:104050000A000000406572726F723A50726F746F9E
:10406000636F6C20737461636B2061646472657349
:1040700073206572726F722C7461726765743A2076
:1040800025642C6375723A2025642E0D0A00000009
:10409000EC88000838B5040028D0A06C002825D092
:1040A00091B9B4F86C004FF6FF7281B2606E00F007
:1040B00030FEADF80000E16E606E0844BDF80010FF
:1040C0000180E06E801CE06694F8600078B1012801
:1040D0000CD1B4F86C00616E82B2A06CFFF7AAFA42
:1040E000A06C00680168C9434906FBD438BDB4F828
:1040F0006C00616E82B2A06C01B04FF48073BDE8B9
:104100003040FFF73DBA00000148006800F052BEA1
:10411000180000202DE9FC410446406D417880885C
:10412000052940BA04D0C6B200200721656E19E007
:10413000B0F57F4F08D000208DF800000126E06D1B
:104140006D463746E06612E00120F5E7626D01EB4F
:10415000D003D25C00F00703DA4002F001022A54D7
:10416000401CC0B2B042F1D306200027E06601F047
:104170001DFE2A78334611A102F0AAF94DB1CDE90E
:104180000056606D0122E5694088002143BA20464F
:10419000A847D4E91901FCF73EFAE26E616D606E42
:1041A000FCF774F92078012806D1226902B039465B
:1041B0002046BDE8F0411047BDE8FC8170646174A1
:1041C00061203D202523582C206C656E3D20256400
:1041D0002E0D0A007CB50446406D002541884BBA7F
:1041E0004178032914D0062907D010290BD0A26AE0
:1041F000CAB105212046904715E00221E26D012554
:10420000001DE26607E081790622C01DE26602E039
:104210008178A38EC01C30B1CDE900010122E6698E
:1042200003212046B047207801280FD1D4E9190195
:10423000FCF7F1F9E26E616D606EFCF727F9226917
:1042400002B029462046BDE8704010477CBDFEE71D
:104250000446204602F0AAFBFBE7000010B5502000
:1042600080F31188BFF34F8FBFF36F8F03F0A8FC6B
:1042700018B104494FF080500860002080F3118885
:1042800010BD000004ED00E030B58FB02821684675
:10429000FCF7E3F914210AA8FCF7DFF90920012152
:1042A00000904FF48030002404910691CDE9010480
:1042B0000225CDE907504FF4E01009906846FEF75B
:1042C000DFFB08B172B6FEE70F20CDE90A054FF417
:1042D0008060CDE90C4002210AA80E94FEF7C4FAD2
:1042E000002801D072B6FEE70FB030BD7047000065
:1042F0000148FEF7B2BD000080070020F0B502685B
:10430000164B174C174D4FF08047984205D0B842D6
:1043100003D0A04201D0A84203D122F070064A681F
:104320003243984205D0B84203D0A04201D0A842FF
:1043300003D122F44074CA6822434C6922F08002FF
:10434000224302608A68C2620A688262984201D18E
:104350000969016301214161F0BD0000002C0140A9
:104360000004004000080040704710B5406A00217A
:10437000C185C184FEF75EFE10BD70B5446A206839
:10438000406994F83D10C0F3C0100025212904D1E4
:1043900018B1E584204600F083F82068406994F85D
:1043A0003E10C0F38010222904D118B1E5852046C3
:1043B00000F05EF8206C40F0100020642046FEF70C
:1043C00039FE70BD10B50146406A09680968890662
:1043D0001BD40021C1850168CA6822F48072CA60BA
:1043E00001684A6922F001024A6101684A6922F0C3
:1043F00040024A61202180F83E10016B012904D15E
:104400000168CA6822F01002CA60016B012902D05B
:10441000FFF7B3F810BD818DFEF7DFFD10BD10B5BD
:10442000406A016B012902D0FFF7A8F810BD818D09
:104430004908FEF7D2FD10BD10B50146406A096873
:10444000096889060CD40021C18401684A6922F0F8
:1044500080024A610068C16841F04001C16010BD3E
:10446000FFF728F910BD10B5406AFFF724F910BD19
:104470000168CA6822F49072CA6001684A6922F031
:1044800001024A61016B012904D10168CA6822F066
:104490001002CA60202180F83E100021016370479D
:1044A0000168CA6822F0C002CA60202180F83D106D
:1044B000704708B590F83E10222901D0022008BDAF
:1044C00082684FF480539A4201D1016921B1816A17
:1044D0009A421BD04AB10AE00268816A5268C2F36C
:1044E00008020A80816A891C08E0026972B10268C8
:1044F000526802F07F020A70816A491C8162C18D94
:10450000491E0904090CC18503D019E002685268EC
:10451000F1E70168CA6822F02002CA600168CA682F
:1045200022F48072CA6001684A6922F001024A617D
:10453000202180F83E10016B012903D0FFF71DF800
:10454000002008BD002101630168CA6822F0100242
:10455000CA6001680A68D20602D50A6849680091F3
:10456000818DFEF73AFDEBE770B5044600680169FE
:10457000E26821F44051114301612169A0680843B8
:10458000616908432168CA6841F20C639A43024397
:10459000CA6020684169A26921F4407111434161F8
:1045A0001E492068884202D1FEF724FA01E0FEF796
:1045B00011FA00EBC00101EB001260686421800079
:1045C000B2FBF0F3B3FBF1F36FF018067343B2FBE9
:1045D000F0F5B2FBF0F605EB8305322303EB05158E
:1045E000B5FBF1F5B6FBF1F605F0F00505EB0615A8
:1045F000B2FBF0F6B2FBF0F0B0FBF1F06FF0180296
:10460000504306EB800003EB0010B0FBF1F0216893
:1046100000F00F002844886070BD000000380140A1
:1046200038B5816282850025134604460564222040
:1046300084F83E00A26B13489062A26B1248D062CD
:10464000A26B12481063A06B0A4645632168A06BF9
:10465000091DFDF709FF206801684168009184F891
:104660003C50C16841F48071C1602068416941F0EB
:10467000010141612068416941F040014161002030
:1046800038BD0000C54300081F4400087B430008F4
:104690002DE9F041984617460E460446069D1DE05A
:1046A000681C1BD02DB1FEF715F8A0EB0800A8423E
:1046B00014D92068C16821F4D071C16020684169B3
:1046C00021F001014161202084F83D0084F83E0082
:1046D000002084F83C000320BDE8F08120680068D9
:1046E00036EA000004D00020B842D9D00020F3E719
:1046F0000120F9E710B5044802F0A5FABDE8104022
:104700000248FEF799BC000024000020A405002008
:10471000054810B5006810B1483002F094FABDE8C1
:1047200010400248FEF788BC50000020E805002039
:104730000148FEF781BC00002C060020FEE70000C7
:1047400010B50C460A46014601230348FEF7A0FEB9
:1047500000B10024204610BD2C06002010B50C46E8
:104760000A4601464FF6FF730348FEF709FF00B102
:104770000024204610BD00002C060020490050EA0D
:10478000C12018BF04204A0D18BF40F0010040F2BC
:10479000FF72B2EB515F08BF40F00200012808BF72
:1047A000052070470907090E002804DB00F1E0200E
:1047B00080F80014704700F00F0000F1E02080F84E
:1047C000141D704730380A2801D20120704700209C
:1047D000704700002DE9F84304007AD020680028D3
:1047E00077D0A168002974D000218DF8001081468F
:1047F0000F462269002A68D00121684690470028A8
:104800005FD008255BE0A2882946484600F05EF9A3
:104810000646A089A84206D9A06832A150F82520F2
:10482000324801F055FE32A13048726801F050FE66
:104830007068B0B3FBF7B4FD801C00F06BFF5FEA5B
:10484000000816D07068FBF7ABFD421C404671684B
:10485000FBF71CFE092D03D92AA14046FBF70AFEEF
:10486000206A30B14046FBF79BFD81B2226A404688
:104870009047404602F0FCFA082D18D00A2D16D0B9
:1048800021A100BF4FF47A72204600F0E3F90646FA
:10489000A06850F82610154802F0C2F9062E1AD169
:1048A00007E0FFE7A0680127D0F8801016E0B168A4
:1048B000E8E7162D0FD06D1CEDB2172D01D2002F99
:1048C000A1D09DF800001B2893D1A069002800D03A
:1048D0008047BDE8F883A0680127C16F034802F054
:1048E0009FF9EEE70D0A257300000000A8090020DB
:1048F0003E5B4D43552D3E4C3130325D3A25730DB4
:104900000A0000000D0A00004F4B00002DE9F05F87
:1049100092468B46050064D008244FF47A7902E071
:104920000C2C00D11624AA882146584600F0CEF857
:104930000646082C1ED00A2C1CD02BA08046BEB3E5
:104940007068FBF72DFD801C00F0E4FE07002CD002
:104950007068FBF725FD421C38467168FBF796FD31
:10496000092C03D921A13846FBF784FD0B2C03D079
:104970003E4602E0B068E1E75646A889A04206D963
:10498000A8681BA150F824201B4801F0A1FD324665
:104990001AA1194801F09CFD286A30B13046FBF796
:1049A000FFFC81B22A6A30469047384602F060FA2E
:1049B0004A464146284600F04DF90646A86850F898
:1049C00026100D4802F02CF9062E01D1162C04D128
:1049D000A868C16F084802F023F9641CE4B20D2CEA
:1049E0009ED3BDE8F09F00004F4B00000D0A000071
:1049F0000D0A257300000000A80900203E5B4D430E
:104A0000552D3E4C3130325D3A25730D0A000000C1
:104A1000F8B505004CD02868002849D0A8680028BF
:104A200046D000278DF800703C46402000F072FE12
:104A300006003AD02A69A2B30121684690470028AF
:104A4000F8D09DF80000082823D00D280DD01B2891
:104A50002BD03055641CA4B2402C00D30024154840
:104A60000121C26F68469047E4E73755002432467B
:104A700011A1104801F02CFDA86900B1804712A1D6
:104A80003046FBF7F7FC024628462968FFF73EFF51
:104A9000D0E73CB10121074800F084FF641EA0B2BA
:104AA00001E002E0002084B2C4E7304602F0E0F901
:104AB000F8BD0000A80900200D0A496E7075743A0F
:104AC00025730D0A000000000D0A000010B5002338
:104AD0000AE000BF00EB031424788C4202D100EB03
:104AE000031010BD5B1C9BB29342F3D3002010BD9A
:104AF000084810B504685CB1D4E91610884206D99C
:104B000005A10D4801F0E4FCA06D401EE06510BD5C
:104B1000002010BD50000020406572726F723A2074
:104B20007265637620627566206F766572666C6F5B
:104B3000772E0D0A00000000A80900200348006835
:104B400010B1406D002800D10020704750000020B7
:104B500070B50B4964280D6801D2642406E0642115
:104B6000B0FBF1F402E0642000F010F9E86D08B148
:104B7000012070BD2046641EA4B2F4D270BD0000B6
:104B800050000020064810B50468002C07D0606D66
:104B9000002804D0A16DFBF73EFD0020E06510BDAC
:104BA0005000002070B50D4601460A480468002CEC
:104BB0000FD0002D0DD0A06EA84204D92A46606EF9
:104BC000FBF764FCE56620462269BDE870400021E1
:104BD000104770BD500000202DE9F041054601F05E
:104BE000E5F804461748184E006808B1012D05D9AC
:104BF000B168BDE8F041154802F012B856F825102A
:104C0000124802F00DF8DFF84080114908F18408DD
:104C10000120C8F80860C8F80010A16FA8F1880644
:104C2000C8F81010307000274046A76715B1FFF78D
:104C3000EFFE01E0FFF7CEFDD8F81000A067377057
:104C4000BDE8F0815000002058000020A809002095
:104C5000148500082DE9F04104464069174688464E
:104C6000B0B1606AA0B1E06990B105268047050047
:104C70000ED0616A38468847A8B160698047002134
:104C8000295441462846FBF779FB20B106260AE065
:104C90000420BDE8F08108A12846FBF76FFB08B1AE
:104CA000042600E005262A4604A1094801F010FC6C
:104CB000A06980473046ECE7455252003E5B4C31DC
:104CC00030322D3E4D43555D3A25730D0A000000EC
:104CD000A809002070B50C00054616D02068A0B1C8
:104CE000616891B1E16881B10068C16841F010016B
:104CF000C160208AE16882B22068FEF729FC0020AA
:104D00006061D4E90301FBF786FC002D00D0A562A9
:104D100070BD70B50300104603D000244AF20105AF
:104D200011E0002070BD13F8012B50400022C6078F
:104D300002D085EA500000E04008521C92B2082AD6
:104D4000F5D3641CA4B28C42EDD370BDEFF30580A3
:104D5000002800D0012070477047FDF7C9FCFFF71D
:104D600093FAFEF7D3FDFEF73DFDFEF7C3FEFEF717
:104D700089FEFEF7A3FEFEF763FD00F00EF8FEE7E6
:104D800001460020842900D0C81C704710B500B926
:104D9000012002F00DF9002010BD10B502F0C4F999
:104DA000002010BD41684FF0010009B102F0B7BA10
:104DB00002F0AABA38B5002405460094FFF7C6FFF2
:104DC00090B16946284602F061FC012801D0FF201D
:104DD00038BD009888B10A494FF080500860BFF391
:104DE0004F8FBFF36F8F08E000231A4619462846FD
:104DF00002F03EFB012800D0FF24204638BD000011
:104E000004ED00E038B505004FF0000000900FD031
:104E10000024481C0ED001B10C46FFF797FFB8B133
:104E20006A460021284602F01BFD012816D104E045
:104E3000802038BD4FF0FF34EFE7009880B109497A
:104E40004FF080500860BFF34F8FBFF36F8F07E0C4
:104E50002146284602F052FD012801D0FF2038BD2E
:104E6000002038BD04ED00E08120704781207047AC
:104E700038B543684BB1012909D1032000220090C5
:104E80001146012002F07CFA38BD012901D0002032
:104E900038BD03220021012002F04EFA040004D0A4
:104EA00000231A46194602F0E3FA204638BD0000F6
:104EB00038B5002405460094FFF748FF90B16946D5
:104EC000284602F0E3FB012801D0FF2038BD0098FE
:104ED00088B10A494FF080500860BFF34F8FBFF38D
:104EE0006F8F08E000231A461946284602F0C0FAE0
:104EF000012800D0FF24204638BD000004ED00E06A
:104F000038B505004FF0000000900FD00024481C79
:104F10000ED001B10C46FFF719FFB8B16A46002167
:104F2000284602F09DFC012816D104E0802038BDFF
:104F30004FF0FF34EFE7009880B109494FF08050FF
:104F40000860BFF34F8FBFF36F8F07E021462846FD
:104F500002F0D4FC012801D0FF2038BD002038BD6C
:104F600004ED00E07FB50D4604464169B0F9080044
:104F700081B1A16971B1FFF703FFD4E905128DE892
:104F80000700D4E900102B46226902F0DAFD0390F5
:104F900004B070BDFFF7F4FE03A9CDE90001208A3B
:104FA0002B4682B2D4E9001002F09EFD012801D008
:104FB0000020EDE70398EBE71CB511C86CB1CDE913
:104FC0000004012907D0002013460246012109A050
:104FD00002F0A6FF1CBD0120F6E70090012907D0D2
:104FE000002013460246012102A002F07FFF1CBDF3
:104FF0000120F6E7000000002DE9F041184C0F46B3
:10500000054626692068001D01F05CFE38B920685D
:1050100090F82C1001208840616981436161681C0F
:1050200007D137B12168BDE8F0410E48091D01F0F4
:10503000DFBE20683544B5424560216805D2A068CE
:10504000BDE8F041091D01F0BBBE6068091D01F01B
:10505000B7FEE06A854200D2E562BDE8F08100005B
:105060006C010020B80B00202DE9F041054601F04D
:10507000CBFE2C4CE068401CE06020682A4F10B149
:10508000A06920B329E02560E068012825D1002629
:1050900006EB860007EB800001F084FE761C072EED
:1050A000F6D321488C3001F07DFE1F48A03001F07E
:1050B00079FE1D48B43001F075FE1B48C83001F080
:1050C00071FE19488C3060601430A06005E02068E3
:1050D000E96AC06A884200D82560A06A401CA062C4
:1050E000E96A0120626988401043606101EB810038
:1050F00007EB8000291D01F07BFE01F0A5FEA069F1
:1051000000280CD02068E96AC06A884207D20749A3
:105110004FF080500860BFF34F8FBFF36F8FBDE833
:10512000F08100006C010020F00A002004ED00E096
:1051300038B501F069FE104CA068C8B90F4801F0FD
:1051400031FE0E48143001F02DFE0C482060143062
:1051500060600A4B00202833009003F148020C21C4
:105160000A2002F00DF9A06010B105A101F0EAFEDD
:10517000BDE8384001F068BEA4010020CC0B00203F
:10518000546D72510000000030B4026C0B46002ACE
:105190000BD0C1681144C1604468A14201D30168C9
:1051A000C16030BC1846FBF771B930BC70472DE9BF
:1051B000F041856B174604460026026C82B1C7B1E8
:1051C000E068FBF763F9E168206C091AE160226886
:1051D000914202D26168081AE060022F16D017E0EF
:1051E0002068A8B9606802F04FFD064600206060A4
:1051F0000EE0A068FBF74AF9216CA0680844A060A3
:105200006168884204D32068A06001E005B16D1E8A
:105210006D1CA5633046BDE8F081000010484FF4D6
:105220006051420706D0C01D0D4920F00700411A09
:10523000C1F560510B4A00230144C2E9000308395B
:10524000103A21F0070111604B600B600B1AC0E9A6
:10525000001393604FF000405360D060704700002F
:10526000B40C0020C80100200648074A4FF08051C6
:105270000368012BFCD91160BFF34F8FBFF36F8F11
:10528000F6E70000F00A002004ED00E0002807D057
:105290000021416001600B460A46C16002F0E8B897
:1052A00070470346009829B10260C0E90F3101211F
:1052B00002F09AB80060F8E72DE9F0470E46DDE904
:1052C00009841746824691009946089DA522206BC5
:1052D000FBF799F96FF00301206B01EB870108449C
:1052E00020F00707780707D0502080F31188BFF31C
:1052F0004F8FBFF36F8FFEE72218315C82F83410B6
:10530000315C11B1401C1028F6D3002684F84360AC
:10531000072D00D30625E562C4E91156201D01F0D2
:105320004CFD04F1180001F048FD2461C5F10700AF
:105330006462A061E66484F850604A46514638468B
:1053400000F064FA2060B8F1000F01D0C8F8004006
:10535000BDE8F0872DE9F0471E46DDE908941746C1
:105360000D0080460ED0002C14D0FFF7E1FEC4F8EB
:105370000080C4E90657C4E90869201DBDE8F0476C
:1053800001F01BBD502080F31188BFF34F8FBFF396
:105390006F8FFEE7BDE8F08730B5114900E0114698
:1053A0000A688242FBD34B685C18844203D1406890
:1053B00018444860084643681C18944209D1084CB8
:1053C000103C2468A24209D052681A4442600A681C
:1053D00012680260814200D0086030BD0460F9E7C5
:1053E000C801002070B5002441600B4D006191425E
:1053F00006D8D11A8269914206D2011D686807E079
:105400009A4203D2994201D3012403E0011D286886
:1054100001F0D6FC204670BDA401002010B5044662
:1054200001F0F2FCA06B28B15FF0000401F00CFD6C
:10543000204610BD0124F9E730B587B02C4D4EE071
:10544000049800284BDB069C606910B1201D01F018
:1054500039FC02A800F0B8F8024604980A283ED2A7
:10546000DFE800F00505053D263705053D260598D2
:10547000A169034601442046FFF7B4FF00B3616A07
:1054800020468847E069012829D10020009005982E
:10549000A169002342181946204602F089FD78B917
:1054A000502080F31188BFF34F8FBFF36F8FFEE75B
:1054B0000598A06128B1811813462046FFF792FF96
:1054C0000DE0502080F31188BFF34F8FBFF36F8F33
:1054D000FEE794F8280010B9204601F0C9FC00222C
:1054E00004A9A86802F020F90028A9D107B030BDAE
:1054F000A40100202DE9FC410F46054601F058FEAD
:1055000001A800F061F80446019818B102F08CFC83
:10551000BDE8FC81224EAFB170680068A8B30027D7
:10552000291B3A46B06801F021FD02F07DFC0028FD
:10553000EED11C494FF080500860BFF34F8FBFF38E
:105540006F8FE5E7A542EBD802F06EFC3068274686
:10555000C068C468201D01F0B5FBE069012810D1C6
:10556000A0692B4641193A462046FFF73BFF40B160
:1055700000200346014600902A46204602F018FD0E
:1055800020B1616A20468847C2E707E0502080F3D7
:105590001188BFF34F8FBFF36F8FFEE70127BFE77F
:1055A000A401002004ED00E006484168096829B123
:1055B0004168C968C9684968C16270474FF0FF31E6
:1055C000FAE700006C01002070B5054602F0F2FA1F
:1055D000064E04463069844203D200F009F80120E7
:1055E00000E0002028602046346170BDA401002046
:1055F000F8B5194D1FE0C068C4680668201D01F0A9
:1056000061FB616A20468847E069012813D1A069DF
:105610003044B04206D924616060211D286801F041
:10562000CFFB08E0002003460146009032462046AA
:1056300002F0BEFC38B1286801680029DBD1696836
:10564000C5E90010F8BD502080F31188BFF34F8FDB
:10565000BFF36F8FFEE70000A401002008484068F8
:10566000401C4FF0500080F3118804D0BFF34F8FDF
:10567000BFF36F8FFEE7BFF34F8FBFF36F8FFEE770
:10568000D0010020074C2068016841B1C0680021AA
:10569000D0F80000FFF72EFFFFF7CEFEF3E7012161
:1056A0000020F7E7A40100202DE9F041044601F0B5
:1056B000ABFB94F9455004F1240609E0606A48B157
:1056C000304602F077FB08B101F0A0FC6D1E6DB210
:1056D000002DF3DC4FF0FF3684F8456001F0B4FB99
:1056E00001F092FB94F9445004F1100709E020699D
:1056F00048B1384602F05EFB08B101F087FC6D1E30
:105700006DB2002DF3DC84F84460BDE8F04101F097
:105710009BBB00002DE9F0410546002701F048FD44
:10572000334E306808B9FFF779FDF068054216D1AD
:10573000ADB1083568070ED005F00700C0F10800CC
:105740000544680707D0502080F31188BFF34F8FBE
:10575000BFF36F8FFEE715B17068854202D902F082
:1057600063FB36E02248103001460C6801E0204619
:105770000C466168A94202D221680029F7D131683C
:105780008C42ECD007682168016060680837411BD3
:1057900010290ED96019420707D0502080F31188D4
:1057A000BFF34F8FBFF36F8FFEE741606560FFF778
:1057B000F3FD61687068401A7060B268904200D270
:1057C000B060F06801430020C4E9000102F02CFB46
:1057D0000FB901F09FFA780707D0502080F31188A5
:1057E000BFF34F8FBFF36F8FFEE73846BDE8F08100
:1057F000B80100200449086818B10868826C521C7E
:1058000082640868704700006C01002010B5031F17
:105810004FF080741C601B1F21F001011960191FDB
:10582000024B0B60143940380A6010BD5D56000809
:10583000012100F04BB80A7842B14B7803F00F0316
:10584000082B03D003681B781A4208D090F8740024
:10585000C00702D14878C00601D5002070474FF03C
:10586000FF30704710B500F0A1FA002805D00349B9
:10587000896BBDE8104001F0D3B910BD04010020D0
:10588000F8B505468089E989401A04B2202607E068
:105890008DF80060EA6F012168469047641E24B2CB
:1058A000002CF5DC297B2846BDE8F84000F07AB8EA
:1058B00010B500F07BFA002803D0BDE8104000F0DE
:1058C000ABBC10BD4FF0FF31AFF30080F8B504461C
:1058D000481C03D00023E28912B103E00123FAE758
:1058E00001295DD0A089824201D14D1C58D00025EC
:1058F000824201D1012901D0184613E0521E401EF8
:10590000E28180B2A08121690D542046BDE8F840B3
:10591000012100F047B822691144421E465C401C38
:105920008E5400B2A289E189521A8242F3DCA08926
:10593000401EA081082643B9E089401EE0818DF811
:105940000060E26F012168469047A18920694554B3
:10595000B4F90E5009E020690121405D8DF8000086
:10596000E26F684690476D1C2DB2A089A842F2DC18
:1059700020208DF80000E26F012168469047A08941
:10598000E189401A401C05B208E000BF8DF80060B4
:10599000E26F0121684690476D1E2DB2002DF5DCA7
:1059A000F8BD000070B50C46054603E003A128468B
:1059B00001F036F9641EE4B2F8D270BD0820080088
:1059C0004FF0FF3100F0C8BA10B5044600F006F8F9
:1059D0002046BDE81040012101F0B4B870B504467E
:1059E0008089002835D0216900251E4E0D5494F879
:1059F0007400C00721D0204600F0FAFA204600F0DB
:105A00002BFDE581A581E08E002822D016A120463D
:105A100001F006F900232046E26E616900F0E0FD26
:105A2000010004D02046BDE8704000F07DBD204656
:105A3000B169BDE8704001F0F3B820688168206961
:105A4000FAF732FE30B1716B204601F0E9F8A5811A
:105A5000E58170BD94F8740040F0010084F8740092
:105A60003168F1E7040100200D0A00007FB50C4603
:105A7000054600F09BF9060014D0022D12DB616888
:105A800000F0C3F80B4BD3E90012DB68CDE900123C
:105A9000CDE90203231D6A1E6946304600F005F970
:105AA00004B070BD0448416D304601F0B9F84FF0C4
:105AB000FF30F5E7A087000804010020411C00200A
:105AC0000A785C2A01D01046704749786E290FD0B9
:105AD00004DC3029F8D0622904D105E0722905D010
