:020000040800F2
:10000000084A00201D030008194900085903000888
:10001000A14300082F1F0008954D000800000000B4
:100020000000000000000000000000008502000841
:100030004920000800000000C902000845490008E6
:1000400037030008370300083703000837030008A8
:100050003703000837030008370300083703000898
:100060003703000837030008370300083703000888
:10007000370300083703000819200008252000086E
:10008000312000083D20000837030008370300082E
:100090003703000837030008370300083703000858
:1000A0003703000837030008370300083703000848
:1000B00037030008370300087549000837030008B4
:1000C0003703000837030008370300083703000828
:1000D00037030008414D0008654D0008894D0008B0
:1000E00037030008370300083703000800F002F860
:1000F00000F0B0F80AA090E8000C82448344AAF112
:100100000107DA4501D100F0A5F8AFF2090EBAE80F
:100110000F0013F0010F18BFFB1A43F0010318473B
:10012000A4BF0000C4BF00000A444FF0000C10F848
:10013000013B13F0070408BF10F8014B1D1108BF65
:1001400010F8015B641E05D010F8016B641E01F805
:10015000016BF9D113F0080F1EBF10F8014BAD1C55
:100160000C1B09D16D1E58BF01F801CBFAD505E073
:1001700014F8016B01F8016B6D1EF9D59142D6D3CD
:10018000704700000023002400250026103A28BFF5
:1001900078C1FBD8520728BF30C148BF0B607047F9
:1001A0006E2900F0AF84702900F09B8166290AF067
:1001B000118365290AF00E8367290AF00B836129F0
:1001C0000AF00A8303681B0A28BF41F080016929ED
:1001D00000F05C84642900F05984752900F056848D
:1001E0006F2900F09C85782900F06781E92900F0EB
:1001F0003785E42900F03485F52900F03185EF29B1
:1002000000F09985F82900F066810368DB0928BFB2
:1002100041F08001632900F0B884732900F0BD84A7
:10022000E32901F09781F32901F09C8100207047B8
:100230001FB501F0E9F90400002000210AF0FAF8E6
:10024000401C6060002000210AF0DEF8E0601FBD65
:1002500010B510BD01F0AAF91146FFF7E9FF05F04E
:10026000E1FE01F087FA03B4FFF7F2FF03BC01F0EF
:100270008FFA0000EFF308807047EFF309807047B2
:1002800068467047224B19680868B0E8F00F80F3A1
:100290000988BFF36F8F4FF0000080F311884EF094
:1002A0000D0E70470000000006480068006880F3EB
:1002B000088862B661B6BFF34F8FBFF36F8F00DF60
:1002C00000BF00BF08ED00E0EFF30980BFF36F8FC0
:1002D0000F4B1A6820E9F00F106008B54FF050007E
:1002E00080F31188BFF34F8FBFF36F8F08F06EFF5D
:1002F0004FF0000080F31188BDE8084019680868D5
:10030000B0E8F00F80F30988BFF36F8F704700BF2C
:100310006C010020EFF3058070470000094880471A
:1003200009480047FEE7FEE7FEE7FEE7FEE7FEE7D7
:10033000FEE7FEE7FEE7FEE704480549034A054BF2
:100340007047000071490008ED00000808420020D5
:10035000084A0020084200207046694605F01EF950
:10036000FFF7FEFF7CB51D4616460C00009001D03D
:100370002044401E074B7B442A4669460190304684
:1003800000F0D9FB05461CB10020694600F0E6FBF1
:1003900028467CBDED0700000FB41CB5084B06AA2B
:1003A0007B4469460090059800F0C5FB0446002098
:1003B000694600F0D3FB20461CBC5DF814FB00002E
:1003C000B907000070B5044685690068C10601D50B
:1003D000302600E02026C00707D070BDD4E90121F7
:1003E00030469047206A401C20626D1EF6D570BDD5
:1003F00070B5044685690078C00707D170BDD4E99F
:10040000012120209047206A401C20626D1EF6D5F5
:1004100070BD70B50C460546012A05D028788006C7
:1004200000D5EA69002302E0012305E05B1C93424A
:1004300002D2E05C0028F9D1A869E618C01AA861C8
:10044000286A184428622846FFF7BCFF04E0D5E973
:10045000012114F8010B9047B442F8D32846FFF766
:10046000C7FF70BDF0B40D460188090502D5214CC7
:100470007C4402E01F4C7C440E34002100F1240631
:1004800008E002F00F071209E75D42EA03721B0958
:100490007754491C52EA0307F3D10278002312076C
:1004A00004D5702D06D009B1022311342246F0BCC8
:1004B00000F093BA01231034F8E770B504460D46F6
:1004C0002146106800F080FA024629462046BDE821
:1004D00070400023C6E7D21D22F00703D3E90023B2
:1004E000C0E70368126843F0200303600823C36178
:1004F0000023B7E7C0A800002DE9F05F8946044655
:100500004FF0000ADFF874B1FB44C0F820A0204689
:10051000E1688847002874D0252806D0D4E9012155
:100520009047206A401C2062F1E700265F46204683
:10053000E16888472028054607DB312D05D2781968
:1005400010F8200C08B10643F1E7B00701D526F0FA
:100550000406C4F81CA00027C4F818A02A2D09D04E
:10056000284604F061FC38B304EB8708303DC8F836
:10057000185019E059F8041B204604EB87029161DA
:10058000E1688847012F054618D1E069002820DA84
:1005900026F020061DE0D8F8180000EB800005EBDF
:1005A00040003038C8F818002046E1688847054602
:1005B00004F03AFC0028EED1012F0AD02E2D08D1EC
:1005C0002046E16888477F1C0546022F46F020063A
:1005D000C4DBA069002803DA404246F00106A061AE
:1005E000F00701D026F010066C2D0BD0682D09D035
:1005F0004C2D39D06A2D35D0742D35D07A2D33D08D
:1006000016E038E0E1682F4620468847B8420546A4
:1006100009D16C2F26D04FF48060E1680643204654
:100620008847054604E06C2F1AD04FF480700643CB
:100630000DB3A5F14100192802D8203546F4006613
:100640004A462946204626604E46FFF7A9FD80B15E
:1006500001280BD0F61D26F0070000F1080956E727
:100660004020E4E78020D8E70020D6E706F104091F
:100670004DE7284652E7206ABDE8F09F50A80000E9
:1006800030B505460B462A4613F8014B12F8010B0C
:1006900008B1A042F8D01CB1002802D06D1CF1E7CF
:1006A000284630BD10B5431C02E010F8011B71B1A3
:1006B0008107FAD14FF0013202C88C1A8C4314EA38
:1006C000C211F9D0C01A0A0603D0C01E10BDC01A4C
:1006D00010BD0A0401D0801E10BD0902FCD0401ECE
:1006E00010BD40EA010370B59B072ED14FF00136D3
:1006F000042A2AD308C810C99D1B9D43121F15EA5E
:10070000C61517D0D8B2E1B2401A50EA056110D12F
:1007100098B2A1B2401A50EA05410AD123F07F40B5
:1007200024F07F41401A50EA052102D1180EA0EBB7
:10073000146070BDA342DBD018BA21BA884201D937
:10074000012070BD4FF0FF3070BD0AB9002070BDB0
:1007500010F8013B11F8014B63B1A3420AD1521EBC
:1007600008D010F8013B11F8014B1BB1A34201D195
:10077000521EEDD1181B70BD421E12F8013F002B16
:10078000FBD111F8013B002B02F8013BF9D1704776
:10079000032A40F2308010F0030C00F0158011F8AD
:1007A000013BBCF1020F624498BF11F801CB00F885
:1007B000013B38BF11F8013BA2F1040298BF00F8D9
:1007C00001CB38BF00F8013B11F0030300F0298092
:1007D000083AC0F0088051F8043B083A51F804CBBD
:1007E000A0E80810F5E7121D5CBF51F8043B40F883
:1007F000043BAFF30080D20724BF11F8013B11F88E
:1008000001CB48BF11F8012B24BF00F8013B00F8D1
:1008100001CB48BF00F8012B704701B5FFF7B8FFC7
:1008200001BD10B5203AC0F00B80B1E81850203A55
:10083000A0E81850B1E81850A0E81850BFF4F5AF80
:100840005FEA027C24BFB1E81850A0E8185044BF0A
:1008500018C918C0BDE810405FEA827C24BF51F877
:10086000043B40F8043B08BF7047D20728BF31F86B
:10087000023B48BF11F8012B28BF20F8023B48BFBC
:1008800000F8012B704702F0FF0343EA032242EA1B
:10089000024200F002B84FF000020429C0F01280BA
:1008A00010F0030C00F05482CCF1040CBCF1020FE8
:1008B00018BF00F8012BA8BF20F8022BA1EB0C01F8
:1008C00000F046BA5FEAC17C24BF00F8012B00F8B3
:1008D000012B48BF00F8012B704710B5044610F0FB
:1008E000030F08BF11F0030F40F015804FF0013ED9
:1008F000121FC0F20E8051F8043BA3EB0E0C2CEA41
:10090000030C1CEACE1C08BF40F8043BF0D0A1F158
:10091000040102F10402521E08DB11F8013B002B16
:1009200000F8013BF7D11146FFF7B5FF204610BD97
:100930004FF0013C50F8042B51F8043B9A4221D16E
:10094000A2EB0C03934313EACC1317D150F8042BFA
:1009500051F8043B9A4215D1A2EB0C03934313EADE
:10096000CC130BD150F8042B51F8043B9A4209D117
:10097000A2EB0C03934313EACC13DBD04FF000003F
:10098000704700BFD01A01BAB1FA81F101F0180125
:1009900022FA01F0CB40C1F12001DBB2C0B2C01A93
:1009A0002CFA01F3D11A914311EAC311E6D1704731
:1009B00070477047704709684A0501D540B27047D3
:1009C000C905FCD500B2704709684A0501D5C0B217
:1009D0007047C905FCD580B270472DE9F0470D4638
:1009E00099469246044600F124080168880604D519
:1009F000E06921F01001216000E00120A84201DD42
:100A0000471B00E00027A1697A1902EB0900081AC8
:100A1000A0612078C00602D42046FFF7D3FC002650
:100A200008E0D4E901211AF806009047206A401C2A
:100A3000761C20624E45F4DB2078C0060AD520469D
:100A4000FFF7C0FC06E0D4E9012130209047206A7E
:100A5000401C2062381EA7F10107F4DC07E0D4E94E
:100A6000012118F805009047206A401C2062281ECA
:100A7000A5F10105F3DC2046FFF7BAFC207800065B
:100A800002D50220BDE8F0870120FBE72DE9F04107
:100A90000646002410687529314616A510D0FFF7C8
:100AA0008AFF002802DA404213A507E031688A076E
:100AB00001D512A502E0490704D511A5012401E0E2
:100AC000FFF782FF00210A2206F1240709E0B0FBAC
:100AD000F2FCB0FBF2F302FB1C00303078541846F5
:100AE000491C0028F3D123462A463046BDE8F04190
:100AF000FFF773BF000000002D0000002B00000076
:100B00002000000011680268006A530501D50870D2
:100B10000AE0D30501D5088006E0130603D5C21705
:100B2000C1E9000200E008600120704701694A1C29
:100B300002610878704700B58FB0CDE9013100211E
:100B4000059105497944CDE9031011466846FFF740
:100B5000D3FC0FB000BD0000E5FFFFFF0A6802F8FC
:100B6000010B0A607047D1E900239A4202D2531C5C
:100B70000B601070704710B5436913B1AFF300807C
:100B800001E0FFF746FC012010BD127800F12401BE
:100B90000A7000224A700122EDE711684FF0FF321F
:100BA000E9E700002DE9FF5F15468A460446DFF8B5
:100BB000AC80F8440027D8E900103E46CDE900108B
:100BC00010E03AF816106A4602A800F0CFFC411C6B
:100BD00007D02178890603D5E269391891420DD8EA
:100BE0000744761C2078800602D5E069B84205DD0E
:100BF000AE42E6DB3AF816000028E2D1A069C01B3D
:100C0000A0612046FFF7DEFBD8E90010CDE9001017
:100C1000002017E03AF818106A4602A800F0A6FC77
:100C2000B0F1FF3F81460BD000250DF1080B05E028
:100C3000D4E901211BF8050090476D1C4D45F7D301
:100C400008F10100B0428046E4DB206A38442062AB
:100C50002046FFF7CDFBBDE8FF9F0000BAA10000D2
:100C60002DE9F0418046D21D22F007020025D2E98D
:100C70000002F52915A614D0011E72F1000106DA52
:100C80000023D0EB030063EB020211A608E0D8F8C2
:100C900000108B0701D50FA602E0490701D50EA66B
:100CA00001251146002408F1240704E000F075F83E
:100CB00030323A55641C50EA0102F7D12B463246D5
:100CC00021464046BDE8F041FFF787BE0000000026
:100CD0002D0000002B0000002000000030B4002197
:100CE00000F1240408E002F00705D208303542EA9A
:100CF0004372DB086554491C52EA0305F3D10468CA
:100D0000002310A2250707D5A40600D421B1C46989
:100D100001230DA2641EC46130BCFFF75EBE10B596
:100D2000044621461068FFF74FFE02462046BDE804
:100D300010400023D2E7D21D22F00701D1E90023A1
:100D4000CCE7000000000000300000004FF000027F
:100D500000B5134694469646203922BFA0E80C50B1
:100D6000A0E80C50B1F12001BFF4F7AF090728BF8C
:100D7000A0E80C5048BF0CC05DF804EB890028BF08
:100D800040F8042B08BF704748BF20F8022B11F031
:100D9000804F18BF00F8012B704730B5B0F10A0240
:100DA0004FEA900E71F100034EEA817EB0EB0E0027
:100DB00061EB91014FEA101E4EEA017E10EB0E002E
:100DC00041EB11114FEA102E4EEA016E10EB0E00AE
:100DD00041EB11214FEA104E4EEA014E10EB0E008E
:100DE00041EB1141401841F100014FEAD00040EAC7
:100DF00041704FEAD10110EB80054FEA810444EACB
:100E0000907444EB01046D1944EB0404521BA3419C
:100E10004FF0000348BF0A3200D530BD401C41F1FD
:100E2000000130BD70472DE9FF4F0C461E464FF0C4
:100E3000FF378BB0D2E90001DDF860800A908A4666
:100E4000C1F30A5505B93D46002108464FF00000A0
:100E5000BAF1000F00F4400005DA00EB80004FF417
:100E6000400101EA50004FEA9059B9F1010F00DD4D
:100E7000B9460A9850EA4A000ED044F61050A5F23E
:100E8000FF3545432F14B8F1000F1ED07542291EBF
:100E90001EDDC9F100021CE0B8F1010F4FF00000A7
:100EA00001D0302103E0F24305E02154401CB04260
:100EB000FBDB30460022002121540B99C1F8088049
:100EC000C1E900200FB0BDE8F08FBD1B6D1CDEE74F
:100ED0004A4600DA694206A800F0DAFB06AB93E85E
:100EE000070003AB83E8070050460A9900F057FC5F
:100EF0008DE80700A0F500501F3800900398002DE2
:100F00000ADD42F21F014A460844002303A9039068
:100F1000684600F0C0FE09E0A0F500504A461F38C0
:100F2000002303A90390684600F0CAFE8DE807007D
:100F30000004000C03D04FF0FF30410800E01046E1
:100F4000B8F1000F03D00022009215461EE0751E76
:100F500005D4FFF722FF303262556D1EF9D5B34636
:100F60000122084302D000227F1C04E020783028B0
:100F700001D100227F1E002A099784D01DE0112D87
:100F800007DAFFF70AFF303262556D1C50EA0102A2
:100F9000F5D1084302D00098C8B10EE00021681EC8
:100FA00005E0235C625C63542254401E491C81426C
:100FB000F7DBAB46A81B401E0990002004F80B008D
:100FC0000B98099AC0F80880C0E9002B7AE711262F
:100FD0004FF0000857E72DE9F04F88460446D21D30
:100FE00022F0070191B0D1E90001CDE90A0103F037
:100FF00007FF02460B98C00F01D02D2007E02068A4
:10100000810701D52B2002E0202101EAC000032A3C
:10101000099001D0072A05DB03464146204600F02F
:10102000F7FA0BE12078800601D5E06900E00620A0
:10103000B8F1650F814606D0B8F1660F18D0B8F147
:10104000670F70D131E00020B9F1110F009001DB82
:10105000112301E009F101030AAA01A90CA8FFF775
:10106000E2FEDDE90C70002609F10105834647E048
:1010700001204B4600904FF000470AAA01A90CA896
:10108000FFF7D1FEDDE90DB00C995D46002610B9E1
:1010900009F101000D18B9EB050003D4C0F1FF36CA
:1010A00009F10105A5EB09002BE0B9F1010F01DA07
:1010B0004FF001090020B9F1110F0090484601DD01
:1010C000112300E003460AAA01A90CA8FFF7ABFE12
:1010D000DDE90C704D4600268346207800070AD4CF
:1010E000AB4500DA5D4601A8012D04DD411911F878
:1010F000011C302907D04F4502DA17F1040F04DA3A
:10110000012082460FE06D1EEEE7002F02DCED1B92
:101110003E4403E0781CA84200DD7D1CB81B00F1B2
:10112000010A4FF000472078000703D4AA4501DBED
:101130004FF0FF3A0021B7F1004F0DF143088DF851
:10114000431024D002202B23002F01DA7F422D23CD
:101150000A21021EA0F1010000DC5FB197FBF1FC47
:1011600097FBF1F201FB1C7C17460CF1300C08F8E0
:1011700001CDEEE7A8F1010003702188090501D532
:10118000452100E06521A0F1010800F8011C099843
:101190000FA9A1EB0807FF1D00B10120411901EBC8
:1011A000EA70A1693844081A401EA0612078C00680
:1011B00002D42046FFF706F9099828B1D4E90121A5
:1011C0009047206A401C20622078C00622D5204625
:1011D000FFF7F8F81EE0002E04DBB34502DD01A89E
:1011E000805D00E03020D4E901219047206A401C56
:1011F0002062761CAAF101005FEA000A0AD100F021
:1012000003FAC0680168405CD4E901219047206A74
:10121000401C2062281EA5F10105DCDC07E0D4E9B2
:10122000012118F8010B9047206A401C2062381EEB
:10123000A7F10107F3DC2046FFF7DAF8032011B02D
:1012400041E600002DE9F04F04460D46D21D22F084
:10125000070089B0D0E900974846394603F0D0FD31
:101260000246F80F01D02D2307E02068810701D541
:101270002B2302E0202101EAC0038DF820300BB1BE
:10128000012000E00020032A824601D0072A04DB67
:101290002946204600F0BCF93FE12078800601D4C1
:1012A0000D2500E0E569C7F30A560D2D49DA002146
:1012B0004FEA175B08464FF00000002F00F4400093
:1012C00007DA00EB80004FF4400100EBD07001EA38
:1012D00060008115012901DD4FF0FF3100224FEA46
:1012E000850CBCF1180F06D31346ACF118004FF073
:1012F0008052C24003E04FF4801323FA0CF30CF148
:101300000C0CBCF1200F04D3ACF1200C09FA0CF04A
:1013100001E007FA0CF000294FF0004801DD18B990
:101320000FE00ED140450CD319EB02095F4121B902
:10133000404502D19F4329EA0209BBEB175F00D069
:10134000761C2088000502D57B48784402E07A4864
:101350007844193808AA302302F80A30037C0AF1CD
:101360000101002E0AF1020A53546A4602DC4FF0D2
:10137000300101E04FF031014FF001088DF800100D
:1013800002D0A6F2FF3603E059EA470100D06B4EC7
:10139000002D02DC2178090704D54FF002082E2128
:1013A0008DF80110C44600210BE0C7F303433F0151
:1013B000C35C491C6D1E02F80830052908F10108BC
:1013C00001DA002DF1DC00210CE000EB1973491C5F
:1013D0001B786D1E082902F808304FEA091908F138
:1013E000010801DA002DF0DC21688B0602D516E039
:1013F000A8F10108E04505DD02EB080313F8013C04
:10140000302BF5D0B8F1000F09DD02EB080313F81B
:10141000013C2E2B03D1090701D4A8F10108002DAE
:1014200005DD3E2102F808106D1E08F10108407C20
:10143000002E02F8080008F1010804DA2D20764297
:1014400002F8080002E02B2002F808000A214FF4FD
:101450007A70864208F101080BDB96FBF0F330331B
:1014600002F8083096FBF0F308F1010800FB136660
:1014700001E0642E0CDB642096FBF0F3303302F8BD
:10148000083096FBF0F308F1010800FB136601E059
:101490000A2E06DB96FBF1F0303002F8080008F166
:1014A000010896FBF1F001FB1060303002F80800F3
:1014B000A16908F1010808EB050202EB0A00081A0D
:1014C000A0612078C00602D42046FEF77BFF216A87
:1014D00008AE01EB0A00206204E0D4E9012116F80D
:1014E000010B9047BAF1010AF7D22078C00602D565
:1014F0002046FEF767FF6E4609E016F8010B3E280E
:101500000FD0D4E901219047206A401C2062B8F135
:101510000108F2D22046FEF76BFF09B00320BDE8B8
:10152000F08F206A2844206203E0D4E901213020B2
:1015300090476D1EEBD3F8E73D9A000002FCFFFFD9
:1015400010B5436913B1AFF3008001E0FFF72AFB48
:10155000012010BD128800F1240182840022C2847F
:101560000122EDE711684FF0FF32E9E770B516464A
:101570000C46054600F040F8036893F80101012885
:1015800006D0FF2C0FD8185D68B101202C7070BDFB
:10159000D3F807013246214603F2071303442846D5
:1015A000BDE8704018474FF0FF3070BD754600F041
:1015B000EBF8AE4605006946534620F00700854625
:1015C00018B020B5FEF7B8FEBDE820404FF0000689
:1015D0004FF000074FF000084FF0000B21F007011B
:1015E000AC46ACE8C009ACE8C009ACE8C009ACE85E
:1015F000C0098D467047000010B500F005F8001DC9
:1016000010BD00BF318E000000487047C841002067
:101610002DE9F0411F46044603260168072A01F41C
:10162000006004DB08B116A505E016A503E008B1CB
:1016300015A500E015A521F010002060A069C01ECE
:10164000A0610FB1401EA0612046FEF7BBFE4FB166
:10165000D4E9012138469047206A401C2062C01C12
:10166000206206E0206AFAE7D4E9012115F8010BAF
:101670009047761EF8D22046FEF7BAFEBDE8F0810C
:101680004E414E006E616E00494E4600696E660026
:101690002DE9F047814616468AB0354878440DC892
:1016A0008DE80D0032487844801C03AC0DC884E8F6
:1016B0000D0041F69B300844372190FBF1F290FB7E
:1016C000F1F5A5F1800501FB12041B3C02D5644233
:1016D000012000E00020DFF898A080460027FA44AF
:1016E000AAF1BE0A0EE0E0070AD03246684607EBD0
:1016F000470101230AEB810100F0E2FA8DE80700BF
:1017000064107F1C002CEED1194F7F44AE3F19E0CE
:10171000E80715D007EB04100DF1180A90E80E0049
:101720008AE80E00C068F04201D19819089032464C
:10173000012306A903A800F0C3FA03AB83E807005E
:101740006D10641C002DE3D14FF001033246694651
:10175000B8F1000F03A802D000F09DFA01E000F0FC
:10176000AFFAC9E90001C9F808200AB0BDE8F0875E
:101770007C97000010B50446AFF300802046BDE81A
:101780001040FEF770BD000000487047A8410020DF
:1017900001491820ABBEFEE72600020070475FEA51
:1017A000400C08BF91F0000F4FEA8C234FEAC12292
:1017B00043EA51514FEA1C5018BF00F5F0404FEA80
:1017C000300018BF41F000415FEA6C5C00F02980F6
:1017D000BCF1FF3F08BF40F080407047130C06BFCC
:1017E00012044FF0100C4FF0000C130E04BF120245
:1017F0000CF1080C130F04BF12010CF1040C930F31
:1018000004BF92000CF1020CD30F04BF52000CF184
:10181000010C11464FF00002A0F11F00A0EB0C00DC
:10182000704711F0004F08BF704731F000413FF49E
:10183000D5AF0B0C06BF09044FF0100C4FF0000C95
:101840000B0E04BF09020CF1080C0B0F04BF0901B9
:101850000CF1040C8B0F04BF89000CF1020CCB0FB0
:1018600004BF49000CF1010CCCF12003A0EB0C00EB
:1018700022FA03F302FA0CF241EA030100F101003B
:10188000704720F07F4C80EA030023F07F47ACEBE9
:10189000070303F57C5300F0004003F1FF032DE93B
:1018A00080494FEA154B09B44FEA144325EA0B4E21
:1018B00024EA03480FF2042606EB132749083E7872
:1018C0005FEA320203FB0667C7F5000707FB06F66F
:1018D0004FEA54374FEAD64606F1020607FB066C7C
:1018E000CCF1005C4FEA1C472CEA074C07FB06F4DE
:1018F0000CFB06F504EB15464FEA961634BF0020A4
:101900004FF000404FEAD13706FB07FC4FEA1C4C72
:101910000CFB0BF7D21B03FB0CF761EB07010CFB75
:101920000EF7B0EB074072EB17420CFB08F734BF21
:10193000A2EB0742B2EB074261EB17414FEA0C44BE
:101940004FEA910706FB07FC4FEA1C4C0CFB0BF718
:10195000B0EBC74072EB573203FB0CF734BFA2EB7E
:10196000C742B2EBC74261EB57310CFB0EF7B0EB4D
:10197000C70072EB57720CFB08F734BFA2EBC7022B
:10198000B2EBC70261EB5771039F4FEA816141EAF5
:10199000921104EBCC044FEAD1374FEA826206FB86
:1019A00007FC42EA90124FEA80604FEA1C4C0CFBA5
:1019B0000BF7D21B03FB0CF761EB07010CFB0EF7D7
:1019C000B0EB074072EB17420CFB08F734BFA2EBF9
:1019D0000742B2EB074261EB17414FEA8C554FEAE1
:1019E000910704EB9C2406FB07FC4FEA1C4C0CFB04
:1019F0000BF7B0EBC74072EB573203FB0CF734BF69
:101A0000A2EBC742B2EBC74261EB57310CFB0EF7BA
:101A1000B0EBC70072EB57720CFB08F734BFA2EBB8
:101A2000C702B2EBC70261EB577115EB4C254FEAC9
:101A3000816141EA92114FEA82624FEAD13742EA6C
:101A4000901206FB07FC44F100044FEA80604FEA65
:101A50001C4C0CFB0BF7D21B03FB0CF761EB0701D3
:101A60000CFB0EF7B0EB074072EB17420CFB08F7CC
:101A700034BFA2EB0742B2EB074261EB174115EB13
:101A80001C154FEA813141EA92414FEA823242EA23
:101A900090424FEA80304FEA0C7644F1000448EA65
:101AA00003434EEA0B484FF0000EB2EB080C71EB0B
:101AB000030724BF624639464EEB0E0E4FF0000B73
:101AC0000018524149414BEB0B0BB2EB080C71EB88
:101AD00003077BF1000B24BF624639464EEB0E0E26
:101AE0004FF0000B0018524149414BEB0B0BB2EB8E
:101AF000080C71EB03077BF1000B24BF62463946EB
:101B00004EEB0E0E51EA020718BF46F0010616EB27
:101B10000E7655F1000254F1000103D5BDE88901AC
:101B2000BDE80088BDE88901BDE80048B61952410A
:101B300041EB0101A3F10103704780807F7E7D7C32
:101B40007B7A7978777676757473727171706F6E4F
:101B50006E6D6C6C6B6A6A696868676666656464FA
:101B6000636362616160605F5F5E5E5D5D5C5C5B84
:101B70005B5A5A59595858575756565555555454F3
:101B8000535352525251515050504F4F4F4E4E4D51
:101B90004D4D4C4C4C4B4B4B4A4A4A49494948489D
:101BA00048474747474646464545454444444443DD
:101BB00043434342424242414141002B9C4630D480
:101BC00077002BD01CB54FEA370703B44FF0100055
:101BD0004FF01001BAF1000F06D0BCF1000FDCBFCE
:101BE00040F0080040F008014FF000000FBCBDE8D5
:101BF00010400BF1010BBBF1010F08BF5FEA1707A3
:101C000022BF12F1010211F101014FF0004143F135
:101C1000000300F0004043EA00007047F9D3570882
:101C2000D0E746EA064613F1400F4FEA16461FDD9D
:101C300013F1200FDFBF16430A46002120335B4219
:101C4000BED0C3F1200746EA064602FA07F74FEA7C
:101C5000164646EA0706C3F1200722FA03F201FA04
:101C600007F721FA03F14FF0000342EA0702A7E762
:101C700046EA020646EA06464FEA164646EA0106E4
:101C8000BCBF46EA0646360C4FF000034FF0000298
:101C90004FF0000194E72DE9804C9A46934670B4CA
:101CA00091E8380007C831EA400C48BF34EA430CD9
:101CB00003D5FFF7E6FDFFF780FFF0BCBDE8008C21
:101CC0002DE9804C9A46934670B491E8380007C8D5
:101CD00010F0804F08BF13F0804F03D100F005F8DB
:101CE000FFF76BFFF0BCBDE8008C20F07F4780EA77
:101CF000030023F07F4C07EB0C03A3F57C5300F0AB
:101D00000040A3F1FE0392F0000F00F0B38095F0C5
:101D1000000F00F077802DE901494FEA11404FEAAA
:101D2000144621EA004800FB06FC24EA064708FBAB
:101D300006F607FB08F800FB07F718EB06484CEB24
:101D4000164C4FEA124B18EB07484FEA15464CEB7E
:101D5000174022EA0B4E0BFB06FC25EA06470EFB5A
:101D600006F607FB0EFE0BFB07F71EEB064E4CEBD1
:101D7000164C4FF000061EEB074E4CEB174B18EBC2
:101D80000B0840F1000018EB0E0B58EB000840F177
:101D900000008F1A4FF000013CBFC943661B14BFFF
:101DA000B5EB040C00213CBFC943F61B4FEA1744B6
:101DB0004EEA8E0E27EA04454FEA1C4704FB0762F1
:101DC0002CEA074C05FB07F70CFB05F604FB0CFCA3
:101DD00016EB074642EB174216EB0C4642EB1C4251
:101DE0001BEB060658EB0202414146EA9E0601D56E
:101DF000BDE80189B619524141EB0101A3F101038C
:101E0000BDE801894FEA14454FEA114724EA054627
:101E100021EA074C05FB07F406FB07F70CFB06F16C
:101E200005FB0CFC11EB074144EB17444FEA12474A
:101E300011EB0C4144EB1C4422EA074C05FB07F272
:101E400006FB07F70CFB06F605FB0CFC16EB07463A
:101E500042EB174216EB0C4642EB1C456A1854F154
:101E6000000148BF7047B619524141EB0101A3F18F
:101E70000103704795F0000F37D04FEA11424FEA47
:101E8000144721EA024624EA074C02FB07F106FB4D
:101E900007F70CFB06F402FB0CFC14EB074441EBC8
:101EA00017414FEA154714EB0C4441EB1C4125EA5E
:101EB000074C02FB07F506FB07F70CFB06F602FBD7
:101EC0000CFC16EB074645EB174516EB0C4645EBAD
:101ED0001C42121951F1000148BF7047B619524116
:101EE00041EB0101A3F1010370474FEA14454FEAAA
:101EF000114724EA054621EA074C05FB07F106FBDA
:101F000007F70CFB06F24FF0000605FB0CFC12EB8A
:101F1000074241EB174112EB0C4251EB1C4148BF09
:101F20007047921841EB0101A3F101037047FEE7EE
:101F3000002908BF70472DE9F04105460C46642092
:101F400004F060FD2860002808BF06F063FFA06D64
:101F500004F058FD070055D0A06C04F053FD0600B6
:101F600050D03846A16DFEF796FC3046A16CFEF7C6
:101F700092FC2078012888BF012029680870296810
:101F8000606848602968206A08622968606A486257
:101F90002968A06988612968E069C86129681B48C7
:101FA0008860296820690861296894F8280081F808
:101FB000280029681648C860296816484861606D7D
:101FC000002808BF6765606C002808BF6664383465
:101FD0002868B4E80E103830A0E80E10B4E80E10EF
:101FE000A0E80E10A36874E816128360C0E900121E
:101FF000D4E90B122868C0E90B122968606B4863AA
:10200000BDE8F081BDE8F04106F004BFCD8B0008CB
:1020100095440008CD430008014800F0B7B800001F
:102020007C0E0020014800F0B1B80000380E0020FE
:10203000014800F0ABB80000C00E0020014800F0DD
:10204000A5B80000040F00207047000072B605A17B
:102050000B4805F017FE4FF4FA6000F0D3F904F0D6
:10206000BDFDF4E773797374656D206572726F72EC
:102070002C20726573746172742E2E2E0D0A00006E
:102080008007002010B54FF48051034800F0C0FADB
:10209000002818BF012010BD0008014090F8212041
:1020A0000021022A05D00422826380F8201001203A
:1020B00070470268136823F00E0313600268136808
:1020C00023F00103136090F84030D0F83CC00122A7
:1020D00002FA03F3CCF8043080F8212080F82010B5
:1020E0000846704710B590F821100024022903D04B
:1020F00004218163012439E001680A6822F00E029C
:102100000A6001680A6822F001020A60184A016840
:10211000914208BF01211DD0164A914208BF1021EB
:1021200018D0154A914208BF4FF4807112D0134A5B
:10213000914208BF4FF480510CD0114A914208BF20
:102140004FF4803106D00F4A91420CBF4FF48011FA
:102150004FF080710C4A5160012180F8211000215C
:1021600080F82010416B002918BF8847204610BD19
:10217000080002401C0002403000024044000240BF
:10218000580002406C000240000002402DE9F05F60
:10219000C16BD1F800C001680B68046C0422A24036
:1021A0004C4D4D4E4D4FDFF83881DFF83891DFF858
:1021B00038A112EA0C0F18BF13F0040F2CD00A68D4
:1021C00012F0200F03D10A6822F004020A600168AD
:1021D000A94208BF042218D0B14208BF402214D03F
:1021E000B94208BF4FF480620FD0414508BF4FF499
:1021F00080420AD0494508BF4FF4802205D051459E
:102200000CBF4FF480024FF0806238494A60C16AC7
:1022100000295BD1BDE8F09F0222A24012EA0C0F18
:102220004FF0000B4FF0010218BF13F0020F2FD038
:102230000B6813F0200F05D10B6823F00A030B6025
:1022400080F821200168A94208BF022218D0B142BB
:1022500008BF202214D0B94208BF4FF400720FD03B
:10226000414508BF4FF400520AD0494508BF4FF41A
:10227000003205D051450CBF4FF400124FF00072F0
:102280001A494A6080F820B0816AF9B9BDE8F09F28
:10229000082505FA04F414EA0C0F14BF13F0080F14
:1022A000BDE8F09F0B6823F00E030B6090F8401020
:1022B000C36B02FA01F15960826380F8212080F833
:1022C00020B0016B002908BFBDE8F09FBDE8F05FBA
:1022D00008470000080002401C0002403000024095
:1022E00044000240580002406C00024000000240DE
:1022F000002804BF0120704710B40168184A194B28
:102300000A44A3FB0232120992000264164AC26315
:10231000022280F821200A68D0E9013C43EA0C033C
:10232000D0E903C44CEA040C43EA0C03D0F814C00F
:102330006FF30D1243EA0C03D0F818C043EA0C0304
:10234000D0F81CC043EA0C031A430A6000218163E1
:10235000012280F8212080F8201010BC0846704728
:10236000F8FFFDBFCDCCCCCC0000024070B490F89B
:1023700020404FF0000C012C02BF022070BC7047BF
:10238000012480F8204090F821600025012E1CBF18
:1023900080F820504FF0020C02D070BC60467047AD
:1023A000022680F82160856305682E6826F0010604
:1023B0002E6090F84050AC40C56B6C600468636060
:1023C0004368102B036803BF9A600268D16099606C
:1023D0001CBF0168CA60C16A002901680A6818BF89
:1023E00042F00E0206D122F004020A6001680A6877
:1023F00042F00A020A600068016841F001010160D0
:10240000CBE7000070B5044600F00CF90546B4F1C6
:10241000FF3F02D004480078044400F003F9401B59
:10242000A042FAD370BD00005C01002000230A68BE
:102430009C46002A08BF70472DE9F84F704EDFF820
:10244000BC914FF001080F2706F1040E0A6808FA44
:1024500003F42240A2427DD14D68A5F1805AAAF52D
:10246000881A4D4577D077DC032D08BF4FF0000C5C
:102470001BD00DDC002D6ED0012D08BFD1F80CC093
:1024800013D0022D04BFD1F80CC00CF1080C0CE0E5
:10249000112D04BFD1F80CC00CF1040C05D0122D85
:1024A00004BFD1F80CC00CF10C0CB2F5807F34BF26
:1024B0000546051D4FEA830428BF203CD5F800A03F
:1024C00007FA04FB2AEA0B0A0CFA04F44AEA0404A9
:1024D0002C604C6814F0805F64D04A4CA56945F0CC
:1024E0000105A561A46904F00104009423F003042C
:1024F00004F1804505F58035D5F808A04FEA8374CE
:102500004FEA147407FA04FB2AEA0B0AA0F1804B85
:10251000BBF5843B18D0A0F1804BBBF5863B08BFD0
:102520004FF0010B10D0A0F1804BBBF5883B08BFEA
:102530004FF0020B08D0A0F1804BBBF58A3B0CBFDB
:102540004FF0030B4FF0040B0BFA04F444EA0A04B7
:10255000AC6002E026E03FE02BE04C6814F4803FE2
:10256000346814BF1443944334604C6814F4003F3F
:10257000DEF8004014BF14439443CEF800404C688A
:1025800014F4801F204C256814BF15439543256023
:102590004C6814F4001F1D4C256814BF2A4325EA1B
:1025A000020222600A685B1CDA407FF44FAFBDE88C
:1025B000F88FBAF5881F0FD007DCBAF5803F18BF37
:1025C000BAF5801F7FF471AF06E0BAF5001F18BF9F
:1025D000BAF5041F7FF469AFD1F808C0BCF1000F51
:1025E00008BF4FF0040C3FF460AFBCF1010F4FF097
:1025F000080C0CBF0461446157E700000000111093
:102600000004014000100240080401400C04014095
:102610008068084018BF01207047002A08BF0904DD
:102620000161704701488068704700005C0100202C
:102630000248816802781144816070475C01002083
:10264000074810B5016841F010010160032000F057
:10265000B1F80F2000F006F800F050F8002010BD8F
:102660000020024030B505461F4887B0C16941F0DF
:102670000401C161C06906A900F004000590684624
:1026800000F08CF90398B0B100F0A8F940001749A8
:10269000174AB0FBF1F0411E16480260416040F25B
:1026A000E7320021C0E903218160816100F0D8FB9D
:1026B000040016D102E000F091F9E8E70D4800F0BF
:1026C000FDFB04000DD11E2000F032F8102D28BFB4
:1026D000012406D2002229461E2000F039F80648BF
:1026E000056007B0204630BD0010024040420F0098
:1026F00000080040480F0020600100200B4882B015
:10270000816941F001018161816901F0010100915C
:10271000C16941F08051C161C069002200F0805060
:1027200000900F21901E02B000F012B8001002407D
:102730000028B8BF704700F01F01012202FA01F122
:102740004009800000F1E020C0F80011704700004F
:10275000174B10B41B68C3F30223C3F1070CBCF181
:10276000040F88BF4FF0040C1C1D072C34BF00233E
:10277000DB1E012404FA0CFCACF1010C0CEA010193
:10278000994004FA03F35B1E1A40114300284FEAF4
:102790000111A1BF00F1E02080F8001410BC7047C7
:1027A00000F00F0000F1E02080F8141D10BC70470D
:1027B0000CED00E0074900F007000A684FF6FF0340
:1027C0001A4042EA002040F0FD7040F0806008604E
:1027D000704700000CED00E0002804BF01207047A6
:1027E0002DE9F043DFF89081054685B0D8F8000068
:1027F0000E4600F00700B0420CD2D8F8000020F0DE
:1028000007003043C8F80000D8F8000000F00700C7
:10281000B04265D12868594C10F0020F14D010F066
:10282000040F03D0606840F4E0606060287810F026
:10283000080F03D0606840F4605060606068A96869
:1028400020F0F00008436060287810F0010F34D0C9
:102850006868012821D02168022823D011F0020FD6
:102860003ED0616821F0030108436060FFF7DAFEA3
:1028700007466068696800F00C00B0EB810F18BF74
:1028800041F2883919D000BFFFF7CCFEC01B484584
:102890000CD905B00320BDE8F083216811F4003F96
:1028A000DFD11DE011F0007FDBD119E060686968BD
:1028B00000F00C00B0EB810FE6D1D8F8000000F07A
:1028C0000700B04210D9D8F8000020F007003043CC
:1028D000C8F80000D8F8000000F00700B04203D0AC
:1028E00005B00120BDE8F083287810F0040F05D072
:1028F0006068E96820F4E06008436060287810F0C0
:10290000080F06D06068296920F4605040EAC100D1
:1029100060601B490FC98DE80F001A4800680490D9
:102920006168194801F00C02042A14D0082A12D157
:10293000C1F3834211F4803F1DF8020004BF134924
:10294000484308D0616804AAC1F34041515C0E4A73
:102950005043B0FBF1F061680D4AC1F30311515CC3
:10296000C8400C4908600C480068FFF77BFE05B0C2
:102970000020BDE8F083000000200240001002406B
:10298000742A0008842A000800127A0000093D0019
:102990001CAD000868010020600100200F220260C9
:1029A0000C4A536803F003034360536803F0F003D9
:1029B0008360536803F4E063C36052684FF4E063DC
:1029C00003EAD20202610448006800F007000860D0
:1029D00070470000001002400020024004480549F2
:1029E00000684968044AC1F30221515CC84070473D
:1029F00068010020001002402CAD00080448054981
:102A000000684968044AC1F3C221515CC84070475C
:102A100068010020001002402CAD000815A186B00E
:102A20000FC98DE80F0017A0174A0068049051687D
:102A3000164801F00C03042B04BF06B07047082BA6
:102A40001CBF06B07047C1F3834311F4803F1DF8EB
:102A5000030001BF0E49484306B07047516804AAFD
:102A6000C1F34041515C094A06B05043B0FBF1F05C
:102A70007047000002030405060708090A0B0C0D45
:102A80000E0F1010010200000010024000127A0028
:102A900000093D00002804BF012070472DE9F84FD0
:102AA00004460078E84D10F0010F59D0686800F036
:102AB0000C00042808D0686800F00C0008280CD12D
:102AC000686810F4803F08D0286810F4003F47D0B1
:102AD0006068002800F0B28142E06068B0F5803F95
:102AE00004BF286840F480300AD010B1B0F5A02FA0
:102AF00011D0286820F480302860286820F48020D5
:102B000028606068D0B1FFF78DFD0646286810F494
:102B1000003F08D024E0286840F48020286028681E
:102B200040F48030ECE7FFF77DFD801B642800F265
:102B30003681286810F4003FF5D011E0FFF772FDF0
:102B40000646286810F4003F0AD000BFFFF76AFD70
:102B5000801B642800F22381286810F4003FF5D11F
:102B60002078BA4E10F0020F4FF0010B4FF0000822
:102B700045D0686810F00C0F14D0686800F00C00A5
:102B8000082804BF686810F4803F0BD0206918B390
:102B9000C6F800B0FFF746FD0746286810F0020FA0
:102BA00009D011E0286810F0020F1CBF206901282D
:102BB0000AD000F043B9FFF735FDC01B02287DD8CD
:102BC000286810F0020FF6D02868616920F0F8003C
:102BD00040EAC100286012E0C6F80080FFF722FD3D
:102BE0000746286810F0020F09D000BFFFF71AFD52
:102BF000C01B022862D8286810F0020FF6D1207896
:102C000010F0080F35D09248A169F9B1C0F800B0B2
:102C1000FFF708FD0746686A10F0020F09D100BFF0
:102C2000FFF700FDC01B022848D8686A10F0020FA9
:102C3000F6D0884801684FF4FA50B1FBF0F00090EC
:102C400000BF0098411E0091FAD212E0C0F8008047
:102C5000FFF7E8FC0746686A10F0020F09D000BFD2
:102C6000FFF7E0FCC01B022828D8686A10F0020FAA
:102C7000F6D1207810F0040F79D0E8694FF0000AFF
:102C800010F0805F09D1E86940F08050E861E869A0
:102C90004FF0010A00F080500090DFF8BC91D9F8A5
:102CA000000010F4807F19D1D9F8000040F4807042
:102CB000C9F80000FFF7B6FC074600E06FE0D9F85E
:102CC000000010F4807F09D1FFF7ACFCC01B642822
:102CD00065D8D9F8000010F4807FF5D0E0680128AD
:102CE00004BF286A40F0010009D008B1052813D0BC
:102CF000286A20F001002862286A20F00400286277
:102D0000E06841F28837D0B1FFF78CFC8146286A31
:102D100010F0020F08D023E0286A40F00400286277
:102D2000286A40F00100EAE7FFF77CFCA0EB09000D
:102D3000B84234D8286A10F0020FF5D010E0FFF73F
:102D400071FC8146286A10F0020F09D0FFF76AFC77
:102D5000A0EB0900B84222D8286A10F0020FF5D182
:102D6000BAF1000F03D0E86920F08050E861E06913
:102D7000F0B3696801F00C01082950D00228C6F8A8
:102D800060800FD0FFF74EFC0446286810F0007FEB
:102D900057D000BFFFF746FC001B02283AD903209A
:102DA000BDE8F88FFFF73EFC0746286810F0007F6B
:102DB00009D000BFFFF736FCC01B0228EFD82868F7
:102DC00010F0007FF6D1206AB0F5803F05D1686829
:102DD000A16820F4003008436860D4E90801084382
:102DE000696821F4741108436860C6F860B000E0B7
:102DF00027E0FFF717FC0446286810F0007F20D179
:102E0000FFF710FC001B0228C9D8286810F0007FCB
:102E1000F6D016E0286810F0007FBBD111E0012841
:102E200008BFBDE8F88F6868226A00F480319142DB
:102E300004D1616A00F47010884202D00120BDE81C
:102E4000F88F0020BDE8F88F0010024000004242D9
:102E500080044242680100200070004070477047C3
:102E6000002804BF0120704710B5044690F83D00CB
:102E700028B9002084F83C00204600F01EF802200B
:102E800084F83D00211D206801F07AFD012084F8BE
:102E9000460084F83E0084F83F0084F8400084F83F
:102EA000410084F8420084F8430084F8440084F828
:102EB000450084F83D00002010BD704790F83D109B
:102EC00001291CBF01207047022180F83D100168D4
:102ED000CA6842F00102CA600068A0F18041B1F501
:102EE000963118BFB0F1804F09D0A0F18041B1F503
:102EF00080611CBFA0F18041B1F5006104D18168FF
:102F000001F00701062903D0016841F001010160C9
:102F100000207047704770B50446006801694FF0A3
:102F2000000511F0020F1CBFC16811F0020F13D091
:102F30006FF002010161012020772068806910F0A4
:102F4000030F204602D0FFF7E5FF04E000F099F8F8
:102F5000204600F097F825772068016911F0040FEA
:102F60001CBFC16811F0040F13D06FF004010161A0
:102F7000022020772068806910F4407F204602D02C
:102F8000FFF7C8FF04E000F07CF8204600F07AF874
:102F900025772068016911F0080F1CBFC16811F086
:102FA000080F13D06FF0080101610420207720681A
:102FB000C06910F0030F204602D0FFF7ABFF04E01A
:102FC00000F05FF8204600F05DF825772068016981
:102FD00011F0100F1CBFC16811F0100F13D06FF06B
:102FE00010010161082020772068C06910F4407F3B
:102FF000204602D0FFF78EFF04E000F042F82046A2
:1030000000F040F825772068016911F0010F1CBF1E
:10301000C16811F0010F05D06FF001010161204678
:1030200000F031F82068016911F0800F1CBFC16801
:1030300011F0800F05D06FF0800101612046FFF78D
:103040000DFF2068016911F0400F1CBFC16811F02D
:10305000400F05D06FF040010161204600F01CF8E0
:103060002068016911F0200F1ABFC16811F0200F0C
:1030700070BD6FF0200101612046BDE87040FFF790
:10308000EEBE704770470068A0F18041B1F5006165
:1030900018BF7047FFF7CCBA7047704770B5044649
:1030A0000068416994F83D20C1F3C0112025212A10
:1030B00010D179B1416921F080014161606B002834
:1030C00018BFFEF7EBFF2068C16821F0C001C160A6
:1030D00084F83D502068416994F83E20C1F3801186
:1030E000222A1FD1F1B1416921F040014161A06B59
:1030F000002818BFFEF7D2FF2068C16821F4907144
:10310000C1602068416921F001014161206B012803
:1031100004D12068C16821F01001C16084F83E50DC
:1031200000202063002070BD70470000F8B50268E1
:1031300004461068D168536910F00F0F4FF0200556
:103140004FF0000653D003F0010C01F490775CEAD5
:10315000070778D010F0010F18BF11F4807F03D05B
:10316000226C42F00102226410F0040F18BF13F029
:10317000010F03D0226C42F00202226410F0020F11
:1031800018BF13F0010F03D0226C42F00402226436
:1031900010F0080F1CBF01F0200252EA0C0203D00D
:1031A000226C42F008022264226C002A08BFF8BD9B
:1031B00010F0200F1EBF11F0200F204601F0C2FCBE
:1031C00020684169226CC1F3801112F0080F08BF1A
:1031D00000293DD0C16821F49071C1602068416927
:1031E00021F001014161206B01280BD00FE010F0AC
:1031F000200F18BF11F0200F2FD02046BDE8F84057
:1032000001F0A0BC2068C16821F01001C16084F801
:103210003E5026632068416911F0400F14D0416987
:1032200021F040014161A06B70B15C494163A06B2A
:10323000FEF758FF002808BFF8BDA06B416B01B036
:10324000BDE8F040084708E02046FFF76DFFF8BDF5
:103250002046FFF769FF2664F8BD236B012B59D187
:1032600010F0100F18BF11F0100F53D010685068F5
:103270000090506910F0400F2ED0A16B0868406894
:103280000004000C1CBFA38D834298BFF8BDE085ED
:103290008869202818D0D06820F48070D060206819
:1032A000416921F0010141612068416921F040013B
:1032B000416184F83E5026632068C16821F0100106
:1032C000C160A06BFEF7EAFEA08DE18D401A81B2CD
:1032D0002046FFF7E2FEF8BDA08DE18D401A81B2D5
:1032E000E08D002814BF0029F8BDD06820F490704C
:1032F000D0602068426922F00102426184F83E50A9
:1033000026632068C26822F01002C2602046FFF7E0
:10331000C4FEF8BD10F0800F18BF11F0800F2DD043
:1033200094F83D00212818BFF8BDA068B0F5805F73
:1033300004BF20690028206A18D000F10101216231
:10334000216800784860E08CA0F101000004000CC6
:10335000E08418BFF8BD2068C16821F08001C16019
:103360002068C16841F04001C160F8BD0088C0F329
:1033700008005060206A801C2062E4E710F0400FD3
:1033800014BF11F0400FF8BD2046D16821F0400174
:10339000D16084F83D5000F077FAF8BDF949000893
:1033A000002804BF0120704770B5044690F83D0026
:1033B000002520B984F83C50204600F023F8242052
:1033C00084F83D002068C16821F40051C1602046A6
:1033D00001F018FC2068016921F490410161206826
:1033E000416921F02A0141612068C16841F400511E
:1033F000C1602564202084F83D0084F83E00002050
:1034000070BD00002DE9F04186B0002400940194C5
:103410000294039402680546764902230320764EFF
:103420008027A2F1804C4FF01008BCF59C3C39D0AD
:10343000A2F1804CBCF5884C7CD0A2F1804CBCF54C
:10344000904C1CBF06B0BDE8F081CA6942F48022EE
:10345000CA61CA6902F4802204928A6942F00802B1
:103460008A618969039001F0080104914FF4806139
:10347000CDE9001369463046FEF7D8FF4FF40060EF
:10348000CDE90004694630460294FEF7CFFF0022E2
:1034900005212720FFF75CF92720FFF749F906B03F
:1034A000BDE8F0818A6942F480428A618A6902F447
:1034B000804204928A6942F008028A618969039015
:1034C00001F0080104914021CDE90013694630461E
:1034D000FEF7ACFFCDE90074694630460294FEF772
:1034E000A5FF4648416841F0040141F0E0614160B8
:1034F000444E4348C6E90004C6E90247346174619A
:10350000B4613046F461FEF7F3FE002818BFFEF701
:103510009DFDAE6375623D4E3B48C6E9024734618E
:103520007461B461F461C6E900083046FEF7E0FE5C
:10353000002800E00BE018BFFEF788FD6E63002254
:10354000052125207562FFF703F925204CE0CA69A3
:1035500042F40032CA61CA6902F4003204928A69F4
:1035600042F004028A618969294E01F00401049144
:103570000421CDE90013039069463046FEF756FF5B
:103580000820CDE90004694630460294FEF74EFF5C
:10359000214E2048C6E90004C6E90247346174613F
:1035A000B4613046F461FEF7A3FE002818BFFEF7B1
:1035B0004DFDAE6375621A4E1848C6E90247346184
:1035C0007461B461F461C6E900083046FEF790FE0C
:1035D000002818BFFEF73AFD6E6300220521262061
:1035E0007562FFF7B5F82620FFF7A2F806B0BDE830
:1035F000F081000000100240000C0140000001407A
:1036000058000240380E0020440002407C0E00208A
:10361000000801406C000240C00E00208000024003
:10362000040F002090F83E30202B0FD1002912BF4C
:10363000002A0120704790F83C30012B06D001236E
:1036400080F83C300023036301F042BB0220704746
:1036500090F83E30202B24D1002912BF002A0120EF
:10366000704790F83C30012B1BD00023036381622C
:103670008285C2850364222180F83E1080F83C30A8
:103680000168CA6842F48072CA6001684A6942F0FF
:1036900001024A610068C16841F02001C16018461A
:1036A000704702207047000010B50068A0F180410B
:1036B000B1F5904118BF10BD0548006802F09EFDAD
:1036C000BDE81040012203490348FFF7C1BF0000D5
:1036D000540100202D010020F40D0020704700004F
:1036E0002DE9F05F044690F83D001D4616468846D9
:1036F000202870D1B8F1000F12BF002E0120BDE8C4
:10370000F09F94F83C00012878D0012084F83C0018
:103710004FF0000BC4F840B0212084F83D00FEF7C4
:1037200081FFA6848146E684A068B0F5805F03BF70
:10373000206900280026464618BF4FF0000884F88C
:103740003CB0E08C4FF0200A10B300BF20684FF06F
:103750008007006837EA00000FD000BFB5F1FF3FD7
:1037600006D02DB3FEF75EFFA0EB0901A9421FD8DA
:103770002068006837EA0000F0D16EB3216816F8BF
:10378000010B4860E08C401EE084E08C0028DDD115
:1037900020684026006836EA00002AD0B5F1FF3FD5
:1037A00022D02DB1FEF73EFFA0EB0900A8421BD9A5
:1037B0002068C16821F4D071C1602068416921F09E
:1037C0000101416184F83DA084F83EA084F83CB03A
:1037D0000320BDE8F09F11E0FFE738F8020B2168F5
:1037E000C0F308004860CDE72068006836EA0000B2
:1037F000D4D184F83DA00020BDE8F09F0220BDE8B0
:10380000F09F000070B5044690F83D00202833D1A9
:10381000002912BF002A012070BD94F83C00012845
:103820002AD0012084F83C002162A284E284002591
:103830002564212084F83D00636B10489862636B17
:103840000F48D862636B0F481863606B134645637B
:10385000206800F1040C6246606BFEF787FD21686A
:103860006FF04000086084F83C502068416941F0E6
:1038700080014161002070BD022070BD0B4B00082B
:103880003B4B0008094A00087047704770B50400B8
:1038900082B0606E0E46056B12BF002E02B070BD86
:1038A0004FF008020E49CDE90012217CD0F814C077
:1038B0004FEAC1034FF000024FF00101E04700283A
:1038C00004BF02B070BD0822A36A0549304698477C
:1038D00000281EBF002D0020287002B070BD00001F
:1038E0002401002010B4002300281CBF0029002A56
:1038F0000CD000BF90F800C00C78A4451CBF81F824
:1039000000C00123401C491C521EF3D110BC1846B4
:1039100070472DE9F047040084B0E36B676E93F8BD
:103920000080A8F10100C5B212BF002F04B0BDE8AD
:10393000F087102D24BF04B0BDE8F0874FF00009D8
:10394000606C05287DD9801E81B24FF6FF72184643
:1039500002F094FA626CE16B1144020A31F8021C25
:1039600042EA002049BA80B281426AD1A668F06872
:103970000168B1F1FF3F09D00268AA4201D198B9AC
:1039800004E040680168B1F1FF3FF5D1142003F075
:1039900039F85FEA000A7FD005F0D9F95146304680
:1039A000CAF8005005F0F3F9E16828460A6892B1B8
:1039B000CE683168B1F1FF3F0DD0316881426ED1E0
:1039C000002E18BFB1F1FF3F05D0304605F042F997
:1039D000304605F01FFA786B05F1A0020121835CE7
:1039E000012B03D08154386B80F8009084F8049048
:1039F00014B1A07C002858D002206070002C04BFB5
:103A000004B0BDE8F087B8F1100F3AD8B8F1040F50
:103A100057D802AE711E00200422E36B00F0070CA1
:103A2000DB7823FA0CF303F001034B70E36B00F136
:103A3000010C0CF0070CDB7823FA0CF303F0010304
:103A400000E014E0801C521E01F8023F12F0FF0259
:103A5000E3D1E26A3146204690470820CDE9006074
:103A6000EB000122D7F814C011463846E0476078D1
:103A700002281CBF03206070002C04BF04B0BDE806
:103A8000F087616CE06BFCF706FFC4F8449004B06B
:103A9000BDE8F08700E002E005F0BCF984E7766855
:103AA0003168B1F1FF3F88D195E7207C401CC2B25C
:103AB0002274102A08BFA174207C00F00F01217429
:103AC0009AE7B8F10C0FDCD9E06BEB0001228178AA
:103AD000C01CCDE90001D7F814C002213846E047E8
:103AE000386B102180F80090626CE06B02F0ACF84B
:103AF000BDE7002808BF704710B50446006BFFF70C
:103B000081FE206B0068016811F0400FFBD010BDF2
:103B10002DE9F04F040087B0D4F8649012BFB9F1DA
:103B2000000F07B0BDE8F08FA06800281FBFD4F8D1
:103B30000CA0BAF1000F257C102D24BF07B0BDE802
:103B4000F08F6078012700264FF00408052824BF75
:103B500007B0BDE8F08FDFE800F003FC03F0F000F1
:103B60002046A169884738B9012002F0B1FAA1695D
:103B7000204688470028F7D0E6706770A07C0028B0
:103B80006AD0607C401CC0B26074A1680968884239
:103B90004DD96674E068002C18BF5FEA000146D07A
:103BA0000168002943D0416800F10802496841607A
:103BB000914204BF496841600D0038D0D4F808A094
:103BC000D5F80090DAF80C000168B1F1FF3F09D098
:103BD00002684A4501D198B904E040680168B1F132
:103BE000FF3FF5D1142002F00DFF5FEA000B7DD0FE
:103BF00005F0ADF859465046CBF8009005F0C7F8EF
:103C0000E16828680A6892B1CD682968B1F1FF3F80
:103C10000DD0296881426AD1002D18BFB1F1FF3F54
:103C200005D0284605F016F8284605F0F3F8A068F8
:103C3000002C18BF5FEA00010ED0016861B1416835
:103C400000F1080249684160914204BF496841603F
:103C500008001CBF00782074E06D20B1B4F860103B
:103C60000122FEF7DAFC85A3207CD3E90012D4F808
:103C700064C09B68401CCDE90212C0B204938DF869
:103C80000B008DF81860BCF1000F45D004B310286C
:103C90001ED8082104289CBF02208DF80C0055D99D
:103CA0000C2888BF8DF80C8050D806A9401FCDE99C
:103CB000001783B20022DCF8145011466046A84772
:103CC00050B305208DF80C009DF818008DF80F00FA
:103CD0000B2161654FF6FF7206210DF10B0002F01A
:103CE000CDF8ADF800009DF80B0001E022E026E0E1
:103CF00040F080008DF80B00BDF80000ADF8110019
:103D000002A9626DE06CFCF743FDB4F85400636AED
:103D100082B22046E16C9847E06D002804BF07B0EE
:103D2000BDE8F08FB4F8601007B00022BDE8F04F96
:103D3000FEF773BC05F06EF862E717E009E06D6806
:103D40002968B1F1FF3F7FF464AF70E78DF8101080
:103D5000BEE7E078401CC0B2E070A178884224BF82
:103D6000E67084F8018007B0BDE8F08F05F120000F
:103D700000F0FF08DAF80C000168B1F1FF3F09D04C
:103D80000268AA4201D198B904E040680168B1F123
:103D9000FF3FF5D1142002F035FE5FEA000B42D060
:103DA00004F0D5FF59465046CBF8005004F0EFFF21
:103DB000A07CB0B1A168207C0A6892B1CD68296866
:103DC000B1F1FF3F0DD0296881422FD1002D18BFDE
:103DD000B1F1FF3F05D0284604F03CFF284605F02E
:103DE00019F8D9F8340008F18001425C1AB1465440
:103DF000D9F8300006702079401CC0B2207102282A
:103E000028D92671217C481CC0B204B310281ED8C2
:103E10008022042810D8D9F8340002EBC1010844EC
:103E20000660466013E004F0F5FFC1E76D6829689D
:103E3000B1F1FF3FC7D1D4E70C2808D9D9F8340035
:103E400002EB41110844066046608660C660D9F8FE
:103E5000300006700CB1A07C18B1667007B0BDE8E8
:103E6000F08F207C401CC1B22174102908BFA774B8
:103E7000207C00F00F012174EFE700000001010039
:103E80000500000000000000154808B5416941F038
:103E9000010141614069002200F00100009005210C
:103EA0000E20FEF755FC0E20FEF742FC00220521F5
:103EB0000F20FEF74DFC0F20FEF73AFC00220521F3
:103EC0001020FEF745FC1020FEF732FC00220521F1
:103ED0001120FEF73DFCBDE808401120FEF728BC8C
:103EE0000010024030B5A9B03F4800F0EDF900F0F5
:103EF000B1F900F025F93DA23EA140A001F02CFE51
:103F000000251C951CA81D9502F0EFF83F4C606140
:103F10001E951EA81F9502F0E8F8A06120950121CA
:103F200020A8219502F04AF9E0612295012122A8FA
:103F3000239502F043F920622495012124A82595B8
:103F400002F03CF960622695012126A8279502F02F
:103F500035F92F4DA06295E80F008DE80F00D5E9E7
:103F60000401AA69CDE9040106921F49684602F0DE
:103F7000A1F9606005F11C000DF11C0C0FC88CE864
:103F80000F00D5E90B016A6B0D92CDE90B012148B9
:103F9000016807A802F08EF9A06005F138000DF164
:103FA000380C0FC88CE80F00D5E912012A6DCDE955
:103FB00012011948149201680EA802F07BF9E06022
:103FC00005F154000DF1540C0FC88CE80F00D5E931
:103FD0001901EA6E1B92CDE91901034915A802F0F7
:103FE00069F9206129B030BD8007002056302E319C
:103FF0002E30000056312E302E300000436F6D6D94
:104000005F4672656572746F730000002C010020BA
:10401000ACAC000804000020200100202DE9F04392
:1040200085B000244248009401940294039481696D
:1040300041F010018161816901F0100104918169F1
:1040400041F020018161816901F0200104918169C1
:1040500041F004018161816901F0040104918169E9
:1040600041F0080181618069324E00F008000122B0
:104070000490D1033046FEF7D0FADFF8BC8001226D
:1040800008214046FEF7C9FA002220214046FEF7EB
:10409000C4FA4FF4C040CDE90004694630460294AA
:1040A000FEF7C4F94FF4004001250227CDE90005D1
:1040B000CDE9024769463046FEF7B8F94EF6F3708F
:1040C0000326CDE90006DFF8749069464846FEF7FE
:1040D000ADF941F20730CDE900046946404602944B
:1040E000FEF7A4F94EF21000CDE9000669464046FD
:1040F000FEF79CF92803CDE900046946484602947E
:10410000FEF794F90820CDE90005CDE9025769468C
:104110004046FEF78BF92020CDE90005CDE90246A7
:1041200069464046FEF782F905B0BDE8F08300001D
:104130000010024000100140000C01400008014046
:1041400010B59AB0682239496846FCF76AFB3848CE
:1041500000681990682002F055FC364C0028206059
:1041600004BF1AB010BDDDF80110C0F801103249CB
:10417000C16132490162324981613249416132494A
:104180004162324981623249C162142002F03AFC34
:104190002168886010B104F0CFFD01E004F03AFE20
:1041A000142002F02FFC2168C86010B104F0C4FD97
:1041B00001E004F02FFE206800210DF1300E817423
:1041C000417401749EE80E1030300DF1400EA0E8ED
:1041D0000E109EE80E10A0E80E10DDE91412169BDA
:1041E0008360C0E90012149802F00CFC2168C864D6
:1041F00018B11499FCF74FFB01E004F00BFE109886
:1042000002F000FC2168C86318B11099FCF743FB69
:1042100002E0C86C04F0FEFDDDE917122068C0E979
:104220001712199941661AB010BD000044AC00087D
:10423000040000202001002013390008113B000871
:10424000852000081D490008F33A0008E5380008F9
:104250008D3800082DE9F04F18489DB0642290E891
:10426000F003D0E906A11B91D0F820B0416A806A22
:10427000CDE9191012496846FCF7D3FA0EA880E878
:10428000F0001B99CDE91289CDE914A1DDE91901EE
:10429000CDF858B0CDE9170101F0D6FD8DF8280012
:1042A00000F00F008DF82C0001F0CEFD69460548A6
:1042B000FDF73EFE1DB0BDE8F08F0000ECA7000842
:1042C00018A80008040000200649C1670649816754
:1042D0000649C0F880100649C0F8841080220549BC
:1042E00003F0A2B9C54D0008994D0008298C0008BB
:1042F000418C0008080800200C4810B50A490160EC
:104300004FF4E1314160002181600C22C160C0E9BD
:1043100004128161C161FFF743F8002808BF10BD96
:10432000BDE81040FDF792BE003801406C0D002042
:104330000C4810B50A4901604FF4E1314160002199
:1043400081600C22C160C0E904128161C161FFF784
:1043500027F8002808BF10BDBDE81040FDF776BE65
:1043600000440040B00D00200C4810B50A4901601F
:104370004FF4E1314160002181600C22C160C0E94D
:1043800004128161C161FFF70BF8002808BF10BD5E
:10439000BDE81040FDF75ABE00480040F40D002073
:1043A000FEE7006B002808BF7047022919BF0429E7
:1043B00011290121017070477047000002484FF039
:1043C000FF31006801F0C4BE44010020002804BF92
:1043D000012070472DE9F0470446DDE90897806920
:1043E0001E4692460D46002818BF80474FF0000831
:1043F000002D14BF012D802005D0022D16BF032DE6
:104400004FF40070002086422AD2B84228D34FF4DD
:10441000807000EB46024FF4407006F1800300EB21
:104420004601BAF1000F22D0002D04BF606B30446A
:1044300009D0012D04BF606B184404D0606B022DBD
:104440000CBF10440844494600281CBF0029002F17
:1044500006D03A46FCF7E1F9002818BF4FF00108F2
:10446000E069002818BF80474046BDE8F08748460D
:10447000002D04BF616B3144E6D0012D04BF616B98
:104480001944E1D0022D07BF616B1144626B1144E6
:10449000DAE70000F0B50446C06C0025012685B0BF
:1044A000012803D1616C09780D2930D021780129C8
:1044B00088BF31462ED8022826BFA16C8142022136
:1044C00028D3636C94F82C101A788A4218BF032101
:1044D00020D1801E81B24FF6FF72184601F0CEFC4B
:1044E000E26C616C1144020A31F8021C42EA0020BD
:1044F00049BA80B2814218BF04210BD1DFF8F0C065
:1045000020789CE80E108DE80E10F0B908E0616A82
:1045100071BB5FE0226A002A1CBF2046904759E029
:104520000421684600EB8101091A0122091D891046
:1045300001EBD17306E0D0E9007C011D40F808CB07
:10454000521C0F60B2EB630FF5DD606C9DE80E103E
:10455000407812283ED2DFE800F03D090913130E1F
:10456000183D3D3D3D3D3D3D3D0E181E002931D0DD
:10457000204688472EE0002A1CBF2046904729E0AD
:10458000002B1CBF2046984724E0BCF1000F1CBF45
:104590002046E0471EE0D4E91501FCF77CF9E5650B
:1045A000616C606D09880180E06D616D801C421C4A
:1045B000E2650E54E06D626D94F82810431CE365CB
:1045C00011542269002120469047626842B11121AE
:1045D0002046904762681AB1606C41782046904747
:1045E000D4E91101FCF757F9E56405B0F0BD00000E
:1045F000DCA700082DE9F0410446406C82B08088B9
:1046000040BAC5B215F0070018BF012000EBD5076E
:10461000284602F0F7F9060051D02946FCF73BF98D
:10462000D4E91501FCF737F90020E065616C606D95
:1046300009880180E06D616DC21C801CE2650F5429
:10464000606C4178491E18BF0121CDE900654088A2
:10465000D4F814C043BA00222046E0470021002FBE
:1046600029D900201CE0B25C12F001020AD0D4F873
:1046700054C0E36D82401CF8038048EA02020CF843
:10468000032009E0D4F85CC0636D824013F80C800D
:1046900028EA020203F80C20401CC0B2082803D20A
:1046A00000EBC102AA42DED3E06D401CE065481C6D
:1046B000C1B2B942D5D3226900212046904702B049
:1046C0003046BDE8F04104F0A5BB70B50446406C2F
:1046D000FE2182B0808840BA01EA4005284602F0F7
:1046E00091F9060030D02946FCF7D5F8D4E9150138
:1046F000FCF7D1F80020E065616C606D09880180ED
:10470000E06D801CE065616D0D54E06D401CE0655E
:10471000606C4178032918BF0221CDE9006540880B
:10472000D4F814C043BA00222046E047E16D606D22
:104730002A4608443146FCF72BF8E06D0021284456
:10474000E06522692046904702B03046BDE87040DF
:1047500004F060BB002808BF704738B50446806B82
:10476000002808BF38BD91B9B4F85C004FF6FF725D
:1047700081B2606D01F082FBADF80000E16D606D0B
:104780000844BDF800100180E06D801CE065154D07
:10479000012220212846FDF740FF94F8500010B177
:1047A00001280AD016E0B4F85C004FF4807382B29E
:1047B000616DA06BFEF794FF0CE0B4F85C00616DD6
:1047C00082B2A06BFFF71EF8A06B0068016811F0C1
:1047D000400FFBD02846BDE8384000222021FDF7DD
:1047E0001CBF0000000C01400148006801F086BCBD
:1047F00044010020F0B50446406C83B041788088C5
:10480000052940BA3CD0636D10F0FF0514D01A465C
:10481000002128464FF0070C666C0CEBE107F65DB3
:1048200001F00707FE40401E06F00106491C02F891
:10483000016B10F0FF00EFD106200026E06553B1B8
:10484000CDE90035606C0122D4F814C04088002105
:1048500043BA2046E047D4E91501FCF71CF8E26DA5
:10486000616C606DFBF794FF207801281CBF03B0DA
:10487000F0BD3146226903B02046BDE8F040104744
:10488000B0F57F4F14BF002001208DF800000125F6
:10489000E06C6B462E46E065D1E730B50446406CCF
:1048A000002583B041884BBA4178032904BF827840
:1048B000C01C13D0062907D010290BD0226AB2B130
:1048C00005212046904712E00222E16C0125001DDF
:1048D000E16503E082790621C01DE16538B1CDE9CB
:1048E00000020122D4F814C003212046E0472078BA
:1048F00001281CBF03B030BDD4E91501FBF7CBFF85
:10490000E26D616C606DFBF743FF226903B02946DD
:104910002046BDE830401047FEE7000010B5084CC7
:10492000002208212046FDF778FE40F6AC5001F049
:10493000CFFB20460122BDE810400821FDF76DBEE7
:10494000000C014010B5502080F31188BFF34F8F49
:10495000BFF36F8F05F09AFA18B104494FF08050F9
:104960000860002080F3118810BD000004ED00E015
:10497000704700000148FEF7CEBA0000480F002043
:1049800030B40268194BDFF868C01A4C984218BF5F
:10499000B0F1804F03D0604518BFA04204D14D68EC
:1049A00022F0700245EA0202984218BFB0F1804F2F
:1049B00003D0604518BFA04205D1D1F80CC022F445
:1049C00040724CEA0202D1F814C022F0800242EA9E
:1049D0000C0202608A68C2620A688262984204BF5E
:1049E000096901630121416130BC7047002C01401D
:1049F000000400400008004010B5406A0021C18555
:104A0000C184FEF791FB10BD10B5406A0168496989
:104A100090F83DC0C1F3C01220230021BCF1210F4A
:104A20000AD14AB1C1840268D2F80CC02CF0C00C83
:104A3000C2F80CC080F83D300268D2F814C090F87B
:104A40003E40CCF3801C222C1DD1BCF1000F1AD0AB
:104A5000C185D2F80CC02CF4907CC2F80CC002685E
:104A6000D2F814C02CF0010CC2F814C0026B012A59
:104A700006D10268D2F80CC02CF0100CC2F80CC0A1
:104A800080F83E300163016C41F010010164FEF7D3
:104A90004BFB10BD10B50146406A0968096811F06A
:104AA000200F1BD10021C1850168CA6822F48072E1
:104AB000CA6001684A6922F001024A6101684A69D4
:104AC00022F040024A61202180F83E10016B01294A
:104AD00004D10168CA6822F01002CA60016B012982
:104AE00002D0FEF7E1FD10BD818DFEF7D6FA10BDB4
:104AF00010B5406A016B012902D0FEF7EFFD10BD31
:104B0000818D4908FEF7C9FA10BD10B50146406A0B
:104B10000968096811F0200F02D0FEF7B5FE10BD3C
:104B20000021C18401684A6922F080024A6100685C
:104B3000C16841F04001C16010BD10B5406AFEF788
:104B4000A4FE10BD08B590F83E1022291CBF02201B
:104B500008BD8268B2F5805F04BF01690029816ADF
:104B600018D0B2F5805F1DD0002A04BF0269002A68
:104B700018D00268526802F07F020A70816A01F15F
:104B800001018162C18DA1F101010904090CC185F6
:104B90000BD021E002685268C2F308020A80816AE1
:104BA000891CEEE702685268E7E70168CA6822F0EC
:104BB0002002CA600168CA6822F48072CA60016873
:104BC0004A6922F001024A61202180F83E10016BFF
:104BD000012903D0FEF768FD002008BD0021016314
:104BE0000168CA6822F01002CA6001680A6812F0FF
:104BF000100F02D00A6849680091818DFEF74DFAC6
:104C0000EAE7000070B5044600680169E26821F433
:104C10004051114301612169A06808436169014362
:104C20002068C26822F4037222F4A0521143C160CA
:104C300020684169A26921F44071114341612068F3
:104C4000A0F18041B1F59C313CD0FDF7C7FE00BF1B
:104C500000EBC00101EB001260681C498000B2FB50
:104C6000F0F3A1FB0353B2FBF0FC5B096FF01805F6
:104C70006B430CEB830C322303EB0C1CA1FB0C5C91
:104C80004FEA5C1C0CF0F005B2FBF0FCA1FB0C6CD5
:104C90004FEA5C1C05EB0C1CB2FBF0F5B2FBF0F02C
:104CA000A1FB002040096FF01802504305EB800083
:104CB00003EB0010A1FB00102168C0F34310604417
:104CC000886070BDFDF79AFEC2E700001F85EB51BA
:104CD00038B581628285002513460446056422208A
:104CE00084F83E00A26B13489062A26B1248D06217
:104CF000A26B12481063A06B0A4645632068011D31
:104D0000A06BFDF733FB206801684168009184F8CF
:104D10003C50C16841F48071C1602068416941F034
:104D2000010141612068416941F040014161002079
:104D300038BD0000954A0008F14A0008094A0008F9
:104D4000064810B5006800281CBF383003F03EFF4D
:104D50000348BDE81040FEF7E9B900000400002058
:104D60006C0D0020064810B5006800281CBF3030CC
:104D700003F02CFF0348BDE81040FEF7D7B9000050
:104D800020010020B00D00200148FEF7CFB900003F
:104D9000F40D0020FEE7000070B5044607480D46FC
:104DA0004FF0FF31006801F053FA00281CBF0020CB
:104DB00070BD034800782070284670BD5401002063
:104DC0002D01002010B50C460A4601464FF6FF7330
:104DD0000348FEF785FC002818BF0024204610BDBC
:104DE000F40D00200A6802600B7903717047C9B2A4
:104DF00041EA012141EA01410160416001727047CD
:104E0000490050EAC12018BF04204A0D18BF40F0E5
:104E1000010040F2FF72B2EB515F08BF40F00200A8
:104E2000012808BF0520704730380A2801D2012028
:104E300070470020704700002DE9F04F83B0040058
:104E40001FBF2668002EA068002804BF03B0BDE87D
:104E5000F08F4FF000098DF80490C8464FF0040A17
:104E60002269002A00F0B380012101A890470028A0
:104E700018BF082500F0A68000F0A0B8A188002087
:104E8000A1B1B1F1004F80F0B180012201290DDB09
:104E900006EB00131B78AB4203D100BF06EB0017F3
:104EA00005E0401C521C80B28A42F1DD4F46A089C9
:104EB000A84206D9A06853A150F82520534802F013
:104EC000E1FE53A151487A6802F0DCFE78680028C0
:104ED00059D0FBF7E7FB801C01F094FD5FEA000B63
:104EE00016D07868FBF7DEFB421C58467968FBF762
:104EF0004FFC092D03D94BA15846FBF73DFC206A16
:104F000030B15846FBF7CEFB81B2226A5846904733
:104F1000584603F07FFF082D16BF0A2DBF6842A731
:104F20004FF47A7B606900281FBF606A0028E0693F
:104F3000002831D04FF0050102918047009058B30E
:104F4000616A5846884768B160698047009901F8EE
:104F5000009039460098FBF793FB002818BF062005
:104F60001CD0029031492948009A02F08BFEA069BA
:104F70008047029FA06850F82710244803F000FEE5
:104F8000062F2BD113E0A0684FF00108D0F8801055
:104F90001E4803F0F5FD15E05746EBE7244900985D
:104FA000FBF76EFB002814BF04200520D9E7162D5F
:104FB00014D0681CC5B2172D04D200BFB8F1000F81
:104FC0003FF45CAF9DF804001B287FF449AFA06953
:104FD000002818BF804703B0BDE8F08FA0684FF0ED
:104FE0000108C16F094803F0CBFDEBE706EB0012A7
:104FF0001378AB423FF452AF401C80B28842F5D3E5
:1050000054E700000D0A257300000000800700200F
:105010003E5B4D43552D3E4C3130325D3A25730D8C
:105020000A0000000D0A00004F4B000080540008E9
:10503000985400082DE9F04F8BB004001FBF206882
:105040000028A068002804BF0BB0BDE8F08F4FF027
:1050500000098DF820904D464FF0400001F0D2FC41
:105060000190002818BF4FF0040B00F0E98022697E
:10507000002A00F0E580012108A890470028F6D01A
:105080009DF82000082800F0CF800D280FD01B28A5
:1050900000F0D68001994855681C85B2402D28BF84
:1050A000002570480121C26F08A89047DFE70198EA
:1050B0006DA100F805906B48019A02F0E3FDA0692C
:1050C000002818BF80476CA127680198FBF754FBA4
:1050D0000390002C18BF082500F0A48002E00C2DDE
:1050E00008BF1625A1880020A1B1B1F1004F80F0C2
:1050F000AD80012201290DDB07EB00131B78AB42C9
:1051000003D100BF07EB001605E0401C521C80B223
:105110008A42F1DD4E46082D16BF0A2DD6F80880CA
:105120000FF25818002E35D07068FBF7BBFA801CC0
:1051300001F068FC5FEA000A29D07068FBF7B2FA58
:10514000421C50467168FBF723FB092D03D94CA183
:105150005046FBF711FB0B2D14BF5646039EA0894A
:10516000A84206D9A06847A150F825203D4802F082
:1051700089FD324645A13B4802F084FD206A30B1EA
:105180003046FBF78FFA81B2226A3046904750468C
:1051900003F040FE60694FF47A7A00281FBF606A0E
:1051A0000028E069002826D04FF0050680470090CF
:1051B00008B3616A5046884768B160698047014614
:1051C000009800F8019041460098FBF759FA002832
:1051D00018BF062611D032492248009A02F052FD2B
:1051E000A0698047A06850F826101E4803F0C8FC4C
:1051F000062E0DD10AE05E46F4E72A490098FBF737
:105200003FFA002814BF04260526E4E7162D04D132
:10521000A068C16F134803F0B3FC681CC5B20D2D24
:10522000FFF45DAF002522E7002D08BF002005D068
:1052300001210C4801F0DAFD681E80B285B216E744
:10524000019803F0E7FD0BB0BDE8F08F07EB00120B
:105250001278AA423FF456AF401C80B28842F5D380
:1052600058E70000800700200D0A496E7075743AF7
:1052700025730D0A000000000D0A00004F4B0000CE
:105280000D0A00000D0A2573000000003E5B4D432F
:10529000552D3E4C3130325D3A25730D0A00000029
:1052A0008054000898540008084810B50468D4E9F0
:1052B0001010884206D906A10D4802F0E3FC206CCC
:1052C000401E6064002C08BF002010BD200100209B
:1052D000406572726F723A207265637620627566FD
:1052E000206F766572666C6F772E0D0A00000000E5
:1052F000800700200348006800281ABFC06B002800
:10530000002070472001002070B50C4964280D680A
:1053100038BF642408D34AF2D73100FB0110840D52
:1053200002E0642000F0D4FE686C08B1012070BD7A
:105330002046611E8CB2F4D270BD00002001002016
:10534000064810B50468002C1ABFE06B002810BD99
:10535000216CFBF7A0FA0020606410BD2001002042
:10536000844605480068002814BF002970470A4693
:10537000436A614618470000200100202DE9F041F2
:10538000064602F051F805461C481D4F04680CB152
:10539000012E05D9B968BDE8F0411A4803F0F0BB09
:1053A00057F82610174803F0EBFBDFF8608016482B
:1053B000C8F80870C8F80000A86FC8F810000120ED
:1053C00020700027AF67E06D20B1B4F860100022B4
:1053D000FDF723F90D4816B1FFF72CFE01E0FFF7AA
:1053E0002BFDE06D20B1B4F860100122FDF715F936
:1053F000D8F81000A8672770BDE8F08120010020D0
:10540000080000208007002098A800088C000020D9
:105410002DE9F041044640691746884600281FBF21
:10542000606A0028E06900281ED04FF0050680471A
:10543000050019D0626A3846904758B160698047C4
:105440000021295441462846FBF71AF9002818BFC5
:1054500006260CD02A460AA10E4802F013FCA069C9
:1054600080473046BDE8F0810420BDE8F0810AA104
:105470002846FBF705F9002814BF04260526E9E7AE
:105480003E5B4C3130322D3E4D43555D3A25730D18
:105490000A00000080070020455252002DE9F74F16
:1054A0003C4F81460026D7E9015878781446B24629
:1054B000D0B1B878A8B9384801268169C9F8001078
:1054C0004069F968401E88420BD33A691144814211
:1054D00024BF0199012904D902264FF0010AC9F815
:1054E0000400F87870B106E0FAF7CAFE8346FAF7CE
:1054F000C4FE834506D103F00FFE054603F012FEFD
:105500004FEA8008B87838B1AC422ABF05EB0800F2
:105510002C46844288BF044605EB0800A04234D9DB
:10552000D7E90302011D02444FF4784C2368181F89
:1055300010F0010F24D0581E81429CBF9042102EC3
:105540001ED230F8023C30F8047C3CEA030B07BF63
:1055500007F47847B7F5704F03F47F43B3F58E4FE8
:105560000ED1019B9E420BD2022E06D1BAF1000F42
:1055700003D0D9F80430834202D049F82600761CC3
:1055800005EB0800241D8442D0D303B03046BDE8AB
:10559000F08F00000C010020780900202DE9F04F69
:1055A0000746FE480E4689B0D0E939A2D0E93781D6
:1055B000CDE90112D0E93C12D0F8EC90D0F8F80017
:1055C0000892CDE90610F648D0E9014B017869B19F
:1055D0004178002915D0F34BF3A2F6A1FD4802F063
:1055E00051FBFDA1FB4802F04DFBFEE7ED4BFBA29A
:1055F000F0A1F84802F046FBF7A1F64802F042FBA2
:10560000FEE7E74801214170F6A1F24802F03AFBBB
:10561000F1A1F04802F036FBF348E04D0090A0F114
:105620002003A0F14002EB48696802F02BFBEF4930
:10563000E84802F027FBDA49C7F38000C870D0B110
:1056400003F0D2FC00280CBFE9A003F0CDFC024619
:10565000E048A96A02F016FBDFA1DE4802F012FB67
:10566000FAF70BFE064603F057FD044603F05AFD19
:105670004FEA800B07E0D748E96A02F003FBD6A1A6
:10568000D44802F0FFFA06F120072046874203D3F0
:1056900000EB0B018F4202D9C14A012191703A46B9
:1056A000594600F061FBBE48D34C807800284FD1AA
:1056B000C848296B02F0E6FAC7A1C64802F0E2FA30
:1056C0003368236070686060B168A160F268E2606E
:1056D000D6F810C0C4F810C0D6F814C0C4F814C06E
:1056E000D6F818C0C4F818C0D6F81CC0C4F81CC03E
:1056F000DDF808C0CDE902A1CDE904C20199CDE9E8
:1057000000104246BDA1B34802F0BCFAB2A1B148B4
:1057100002F0B8FA0DF1080B0898E369079AA1693D
:105720008BE80F0061690698CDE900014A46B3A1F4
:10573000A848236902F0A6FAA7A1A64802F0A2FA97
:10574000B9A1A44802F09EFAA3A1A24802F09AFAD5
:10575000C54800682062C548007884F82400C44821
:105760000068A062C348007884F82C00C248006832
:105770002063C2480088A086C1480068C149A06370
:105780000988E163C049098810F0020F216407D03D
:105790009048696B02F076FA94498E4802F072FAEA
:1057A000A06B10F0804F00F0EB8094F824000028EC
:1057B00043D010F0010F07D08648A96B02F062FABF
:1057C0008A49844802F05EFA94F8240010F0020F2F
:1057D00007D08048E96B02F055FA84497D4802F011
:1057E00051FA94F8240010F0080F07D07948296C7A
:1057F00002F048FA7D49774802F044FA94F8240010
:1058000010F0100F07D07348696C02F03BFA77492B
:10581000704802F037FA94F8240010F0800F18BF97
:1058200010F0030F09D0A26A6A48D5F8901002F070
:1058300029FA6E49674802F025FA94F82C000028EE
:1058400050D010F0010F07D06248E96C02F01AFA4C
:105850006649604802F016FA94F82C0010F0020F26
:1058600007D05C48296D02F00DFA6049594802F0F2
:1058700009FA94F82C0010F0040F07D05548696D10
:1058800002F000FA5949534802F0FCF994F82C0050
:1058900010F0080F07D04F48A96D02F0F3F95349F3
:1058A0004C4802F0EFF994F82C0010F0100F07D0DC
:1058B0004848E96D02F0E6F94C49464802F0E2F941
:1058C00094F82C0010F0800F18BF10F0020F09D0D0
:1058D000226B4048D5F8941002F0D4F943493D4872
:1058E00002F0D0F9A08EE0B310F0010F07D03948D4
:1058F000696E02F0C7F93D49364802F0C3F994F8E1
:10590000340010F0020F07D03248A96E02F0BAF945
:105910003649304802F0B6F994F8340010F0040F1C
:1059200007D02C48E96E02F0ADF93049294802F061
:10593000A9F994F8340010F0080F07D02548296F12
:1059400002F0A0F92949234802F09CF9A08E10F436
:10595000807F09D01F48696F02F094F923491D48E0
:1059600000E00DE002F08EF9A08E10F4007F07D069
:105970001848A96F02F086F91C49164802F082F90E
:10598000A06B10F0004F1CBFE06B002805D010F09A
:10599000010F7BD00F48E96F79E0B6E034AB000827
:1059A0000C010020FAAB0008216F6E5F6661756C18
:1059B00074000000282573292068617320617373C7
:1059C000657274206661696C65642061742025735A
:1059D0002E000000800700200D0A0000696E697427
:1059E0005F6F6B0000000000C8080020545B0008D7
:1059F0004E4F5F4E414D4500780900202020257311
:105A00003A2025303878202025733A202530387800
:105A1000202025733A2025303878202025733A201D
:105A200025303878000000003D3D3D3D3D3D3D3D89
:105A30003D3D3D3D3D3D3D3D3D3D3D3D3D3D3D3D96
:105A40003D3D3D3D3D3D3D3D3D3D3D3D3D3D3D3D86
:105A50003D3D3D3D3D3D3D3D3D3D3D3D3D3D3D3D76
:105A60003D3D3D3D3D3D000024ED00E028ED00E0E2
:105A700034ED00E029ED00E038ED00E02AED00E033
:105A80002CED00E030ED00E03CED00E005E002F040
:105A9000F9F82149214802F0F5F894F83C0010F09B
:105AA000020F08D01D48D5F8801002F0EBF81A4913
:105AB0001A4802F0E7F894F83C0010F0040F08D000
:105AC0001648D5F8841002F0DDF81349134802F0A7
:105AD000D9F894F83C0010F0080F08D00F48D5F81A
