:020000040800F2
:10000000304F0020CD020008714D0008D7020008D3
:10001000414700086F1E0008ED5400080000000072
:100020000000000000000000000000003502000891
:10003000172000080000000079020008354E000873
:10004000E7020008E7020008E7020008E7020008EC
:10005000E7020008E702000819200008272000082E
:10006000E70200082D20000833200008C91F0008FF
:10007000E7020008E7020008D51F0008E11F00089A
:10008000E7020008E7020008E7020008E7020008AC
:10009000E7020008E7020008E7020008392000082C
:1000A000E7020008E54E0008E7020008E702000842
:1000B000E7020008F14E0008FD4E0008E7020008C4
:1000C000E7020008E7020008E7020008E70200086C
:1000D000E7020008CD540008E7020008E702000824
:1000E0001F200008E7020008E702000800F002F8FD
:1000F00000F090F80AA090E8000C82448344AAF132
:100100000107DA4501D100F085F8AFF2090EBAE82F
:100110000F0013F0010F18BFFB1A43F0010318473B
:10012000148D0000348D0000103A24BF78C878C1C7
:10013000FAD8520724BF30C830C144BF04680C60ED
:10014000704700000023002400250026103A28BF35
:1001500078C1FBD8520728BF30C148BF0B60704739
:100160006E2900F00383702900F04D84662908F0A1
:100170001F83652908F01C83672908F0198361290A
:1001800008F0188303681B0A28BF41F08001692921
:1001900000F0B082642900F0AD82752900F0AA82D7
:1001A0006F2900F0DA83782900F01984E92900F03A
:1001B0007583E42900F07283F52900F06F83EF293D
:1001C00000F0D783F82900F018840368DB0928BF02
:1001D00041F08001632901F01B81732901F0208126
:1001E000E32901F02B81F32901F0308100207047D1
:1001F0001FB501F07DF904000020002108F0E8F8A7
:10020000401C60600020002108F0CCF8E0601FBDB9
:1002100010B510BD01F03EF91146FFF7E9FF05F0FA
:10022000EDF901F01BFA03B4FFF7F2FF03BC01F094
:1002300023FA0000224B19680868B0E8F00F80F339
:100240000988BFF36F8F4FF0000080F311884EF0E4
:100250000D0E70470000000006480068006880F33B
:10026000088862B661B6BFF34F8FBFF36F8F00DFB0
:1002700000BF00BF08ED00E0EFF30980BFF36F8F10
:100280000F4B1A6820E9F00F106008B54FF05000CE
:1002900080F31188BFF34F8FBFF36F8F07F03EFBE2
:1002A0004FF0000080F31188BDE808401968086825
:1002B000B0E8F00F80F30988BFF36F8F704700BF7D
:1002C00094000020EFF30580704700000948804744
:1002D00009480047FEE7FEE7FEE7FEE7FEE7FEE728
:1002E000FEE7FEE7FEE7FEE704480549034A054B43
:1002F00070470000E14E0008ED0000083047002084
:10030000304F0020304700207CB51D4616460C00BB
:10031000009001D02044401E074B7B442A4669468A
:100320000190304600F03BFA05461CB100206946BA
:1003300000F048FA28467CBDB104000010B5431C0B
:1003400002E010F8011B71B18107FAD14FF00132C0
:1003500002C88C1A8C4314EAC211F9D0C01A0A06DA
:1003600003D0C01E10BDC01A10BD0A0401D0801EEB
:1003700010BD0902FCD0401E10BD40EA010370B55B
:100380009B072ED14FF00136042A2AD308C810C982
:100390009D1B9D43121F15EAC61517D0D8B2E1B2B6
:1003A000401A50EA056110D198B2A1B2401A50EA41
:1003B00005410AD123F07F4024F07F41401A50EAE2
:1003C000052102D1180EA0EB146070BDA342DBD052
:1003D00018BA21BA884201D9012070BD4FF0FF3010
:1003E00070BD0AB9002070BD10F8013B11F8014B37
:1003F00063B1A3420AD1521E08D010F8013B11F894
:10040000014B1BB1A34201D1521EEDD1181B70BD8F
:10041000032A40F2308010F0030C00F0158011F830
:10042000013BBCF1020F624498BF11F801CB00F808
:10043000013B38BF11F8013BA2F1040298BF00F85C
:1004400001CB38BF00F8013B11F0030300F0298015
:10045000083AC0F0088051F8043B083A51F804CB40
:10046000A0E80810F5E7121D5CBF51F8043B40F806
:10047000043BAFF30080D20724BF11F8013B11F811
:1004800001CB48BF11F8012B24BF00F8013B00F855
:1004900001CB48BF00F8012B704701B5FFF7B8FF4B
:1004A00001BD10B5203AC0F00B80B1E81850203AD9
:1004B000A0E81850B1E81850A0E81850BFF4F5AF04
:1004C0005FEA027C24BFB1E81850A0E8185044BF8E
:1004D00018C918C0BDE810405FEA827C24BF51F8FB
:1004E000043B40F8043B08BF7047D20728BF31F8EF
:1004F000023B48BF11F8012B28BF20F8023B48BF40
:1005000000F8012B704702F0FF0343EA032242EA9E
:10051000024200F002B84FF000020429C0F012803D
:1005200010F0030C00F01B80CCF1040CBCF1020FA6
:1005300018BF00F8012BA8BF20F8022BA1EB0C017B
:1005400000F00DB85FEAC17C24BF00F8012B00F871
:10055000012B48BF00F8012B70474FF0000200B597
:10056000134694469646203922BFA0E80C50A0E8D6
:100570000C50B1F12001BFF4F7AF090728BFA0E884
:100580000C5048BF0CC05DF804EB890028BF40F850
:10059000042B08BF704748BF20F8022B11F0804F92
:1005A00018BF00F8012B70474FF0013C50F8042BA6
:1005B00051F8043B9A4221D1A2EB0C03934313EA76
:1005C000CC1317D150F8042B51F8043B9A4215D1A3
:1005D000A2EB0C03934313EACC130BD150F8042B7A
:1005E00051F8043B9A4209D1A2EB0C03934313EA5E
:1005F000CC13DBD04FF00000704700BFD01A01BA17
:10060000B1FA81F101F0180122FA01F0CB40C1F1F9
:100610002001DBB2C0B2C01A2CFA01F3D11A914307
:1006200011EAC311E6D1704770477047704770B543
:10063000044685690068C10601D5302600E0202601
:10064000C00707D070BDD4E9012130469047206A29
:10065000401C20626D1EF6D570BD70B504468569DC
:100660000078C00707D170BDD4E901212020904750
:10067000206A401C20626D1EF6D570BD09684A05CF
:1006800001D540B27047C905FCD500B27047096872
:100690004A0501D5C0B27047C905FCD580B2704784
:1006A00070B50C460546012A05D02878800600D58D
:1006B000EA69002302E0012305E05B1C934202D2B9
:1006C000E05C0028F9D1A869E618C01AA861286A78
:1006D000184428622846FFF7AAFF04E0D5E9012163
:1006E00014F8010B9047B442F8D32846FFF7B5FF42
:1006F00070BD00002DE9F041064600241068752900
:10070000314616A510D0FFF7B9FF002802DA4042A3
:1007100013A507E031688A0701D512A502E0490751
:1007200004D511A5012401E0FFF7B1FF00210A2241
:1007300006F1240709E0B0FBF2FCB0FBF2F302FB88
:100740001C00303078541846491C0028F3D1234649
:100750002A463046BDE8F04100F069BA00000000CA
:100760002D0000002B00000020000000116802682E
:10077000006A530501D508700AE0D30501D5088049
:1007800006E0130603D5C217C1E9000200E00860C5
:100790000120704701694A1C02610878704700B562
:1007A0008FB0CDE901310021059105497944CDE9AA
:1007B00003101146684600F031F90FB000BD00008B
:1007C000E5FFFFFF0A6802F8010B0A607047D1E9F4
:1007D00000239A4202D2531C0B6010707047000035
:1007E0002DE9FF5F15468A460446DFF8AC80F844E1
:1007F0000027D8E900103E46CDE9001010E03AF895
:1008000016106A4602A800F025FE411C07D0217888
:10081000890603D5E269391891420DD80744761C40
:100820002078800602D5E069B84205DDAE42E6DBFD
:100830003AF816000028E2D1A069C01BA06120464A
:10084000FFF7F5FED8E90010CDE90010002017E011
:100850003AF818106A4602A800F0FCFDB0F1FF3F1C
:1008600081460BD000250DF1080B05E0D4E90121EC
:100870001BF8050090476D1C4D45F7D308F10100AA
:10088000B0428046E4DB206A384420622046FFF70D
:10089000E4FEBDE8FF9F0000228200002DE9F04148
:1008A0008046D21D22F007020025D2E90002F52978
:1008B00015A614D0011E72F1000106DA0023D0EB58
:1008C000030063EB020211A608E0D8F800108B07C2
:1008D00001D50FA602E0490701D50EA60125114654
:1008E000002408F1240704E000F05CF930323A55A6
:1008F000641C50EA0102F7D12B463246214640469D
:10090000BDE8F04100F093B9000000002D000000A8
:100910002B0000002000000030B4002100F124046E
:1009200008E002F00705D208303542EA4372DB08DE
:100930006554491C52EA0305F3D10468002310A250
:10094000250707D5A40600D421B1C46901230DA24F
:10095000641EC46130BC00F06AB910B5044621467B
:100960001068FFF794FE02462046BDE810400023C1
:10097000D2E7D21D22F00701D1E90023CCE7000025
:100980000000000030000000F0B40D4601880905A9
:1009900002D5214C7C4402E01F4C7C440E340021E3
:1009A00000F1240608E002F00F071209E75D42EAB1
:1009B00003721B097754491C52EA0307F3D10278EA
:1009C0000023120704D5702D06D009B1022311347B
:1009D0002246F0BC00F02BB901231034F8E770B5C3
:1009E00004460D4621461068FFF751FE024629468F
:1009F0002046BDE870400023C6E7D21D22F0070361
:100A0000D3E90023C0E70368126843F020030360C2
:100A10000823C3610023B7E7848000002DE9F05F5D
:100A2000894604464FF0000ADFF874B1FB44C0F871
:100A300020A02046E1688847002874D0252806D0E9
:100A4000D4E901219047206A401C2062F1E700268A
:100A50005F462046E16888472028054607DB312DA0
:100A600005D2781910F8200C08B10643F1E7B00759
:100A700001D526F00406C4F81CA00027C4F818A06D
:100A80002A2D09D0284604F08DFD38B304EB8708E1
:100A9000303DC8F8185019E059F8041B204604EB03
:100AA00087029161E1688847012F054618D1E06906
:100AB000002820DA26F020061DE0D8F8180000EB08
:100AC000800005EB40003038C8F818002046E16887
:100AD0008847054604F066FD0028EED1012F0AD0B4
:100AE0002E2D08D12046E16888477F1C0546022F3D
:100AF00046F02006C4DBA069002803DA404246F035
:100B00000106A061F00701D026F010066C2D0BD075
:100B1000682D09D04C2D39D06A2D35D0742D35D0A3
:100B20007A2D33D016E038E0E1682F46204688471A
:100B3000B842054609D16C2F26D04FF48060E16899
:100B4000064320468847054604E06C2F1AD04FF430
:100B5000807006430DB3A5F14100192802D8203555
:100B600046F400664A462946204626604E46FFF770
:100B7000F7FA80B101280BD0F61D26F0070000F12E
:100B8000080956E74020E4E78020D8E70020D6E7B0
:100B900006F104094DE7284652E7206ABDE8F09FB8
:100BA0001480000030B5B0F10A024FEA900E71F1E6
:100BB00000034EEA817EB0EB0E0061EB91014FEA3B
:100BC000101E4EEA017E10EB0E0041EB11114FEAB0
:100BD000102E4EEA016E10EB0E0041EB11214FEA90
:100BE000104E4EEA014E10EB0E0041EB1141401841
:100BF00041F100014FEAD00040EA41704FEAD101D3
:100C000010EB80054FEA810444EA907444EB010440
:100C10006D1944EB0404521BA3414FF0000348BF7D
:100C20000A3200D530BD401C41F1000130BD2DE934
:100C3000F0470D4699469246044600F124080168A3
:100C4000880604D5E06921F01001216000E0012050
:100C5000A84201DD471B00E00027A1697A1902EBD9
:100C60000900081AA0612078C00602D42046FFF7C8
:100C7000DEFC002608E0D4E901211AF806009047BE
:100C8000206A401C761C20624E45F4DB2078C006AA
:100C90000AD52046FFF7CBFC06E0D4E9012130203D
:100CA0009047206A401C2062381EA7F10107F4DC3F
:100CB00007E0D4E9012118F805009047206A401C9C
:100CC0002062281EA5F10105F3DC2046FFF7C5FCD4
:100CD0002078000602D50220BDE8F0870120FBE75E
:100CE00070472DE9FF4F0C461E464FF0FF378BB083
:100CF000D2E90001DDF860800A908A46C1F30A5506
:100D000005B93D46002108464FF00000BAF1000F3A
:100D100000F4400005DA00EB80004FF4400101EAE6
:100D200050004FEA9059B9F1010F00DDB9460A9819
:100D300050EA4A000ED044F61050A5F2FF35454364
:100D40002F14B8F1000F1ED07542291E1EDDC9F107
:100D500000021CE0B8F1010F4FF0000001D030217B
:100D600003E0F24305E02154401CB042FBDB304677
:100D70000022002121540B99C1F80880C1E900200C
:100D80000FB0BDE8F08FBD1B6D1CDEE74A4600DAF0
:100D9000694206A800F0F0FB06AB93E8070003AB3E
:100DA00083E8070050460A9900F06DFC8DE80700C3
:100DB000A0F500501F3800900398002D0ADD42F284
:100DC0001F014A460844002303A90390684600F027
:100DD000D6FE09E0A0F500504A461F38002303A9BB
:100DE0000390684600F0E0FE8DE807000004000C68
:100DF00003D04FF0FF30410800E01046B8F1000F7B
:100E000003D00022009215461EE0751E05D4FFF7A0
:100E1000C9FE303262556D1EF9D5B3460122084332
:100E200002D000227F1C04E02078302801D100226B
:100E30007F1E002A099784D01DE0112D07DAFFF7E5
:100E4000B1FE303262556D1C50EA0102F5D1084303
:100E500002D00098C8B10EE00021681E05E0235CB6
:100E6000625C63542254401E491C8142F7DBAB464E
:100E7000A81B401E0990002004F80B000B98099A4B
:100E8000C0F80880C0E9002B7AE711264FF000086F
:100E900057E72DE9F04F88460446D21D22F007019E
:100EA00091B0D1E90001CDE90A0104F057FB0246F7
:100EB0000B98C00F01D02D2007E02068810701D5D5
:100EC0002B2002E0202101EAC000032A099001D072
:100ED000072A05DB03464146204600F00DFB0BE1E7
:100EE0002078800601D5E06900E00620B8F1650FA2
:100EF000814606D0B8F1660F18D0B8F1670F70D1EF
:100F000031E00020B9F1110F009001DB112301E065
:100F100009F101030AAA01A90CA8FFF7E2FEDDE925
:100F20000C70002609F10105834647E001204B467D
:100F300000904FF000470AAA01A90CA8FFF7D1FEC4
:100F4000DDE90DB00C995D46002610B909F10100EC
:100F50000D18B9EB050003D4C0F1FF3609F1010506
:100F6000A5EB09002BE0B9F1010F01DA4FF00109FF
:100F70000020B9F1110F0090484601DD112300E077
:100F800003460AAA01A90CA8FFF7ABFEDDE90C7025
:100F90004D4600268346207800070AD4AB4500DA88
:100FA0005D4601A8012D04DD411911F8011C30290D
:100FB00007D04F4502DA17F1040F04DA0120824608
:100FC0000FE06D1EEEE7002F02DCED1B3E4403E058
:100FD000781CA84200DD7D1CB81B00F1010A4FF00F
:100FE00000472078000703D4AA4501DB4FF0FF3A01
:100FF0000021B7F1004F0DF143088DF8431024D0C4
:1010000002202B23002F01DA7F422D230A21021E0A
:10101000A0F1010000DC5FB197FBF1FC97FBF1F25E
:1010200001FB1C7C17460CF1300C08F801CDEEE7F3
:10103000A8F1010003702188090501D5452100E0D0
:101040006521A0F1010800F8011C09980FA9A1EB86
:101050000807FF1D00B10120411901EBEA70A169E9
:101060003844081A401EA0612078C00602D42046E9
:10107000FFF7DDFA099828B1D4E901219047206AE9
:10108000401C20622078C00622D52046FFF7CFFA08
:101090001EE0002E04DBB34502DD01A8805D00E008
:1010A0003020D4E901219047206A401C2062761C40
:1010B000AAF101005FEA000A0AD100F019FAC0683B
:1010C0000168405CD4E901219047206A401C2062FD
:1010D000281EA5F10105DCDC07E0D4E9012118F8A0
:1010E000010B9047206A401C2062381EA7F10107BF
:1010F000F3DC2046FFF7B1FA032011B041E600000F
:101100002DE9F04F04460D46D21D22F0070089B0AC
:10111000D0E900974846394604F020FA0246F80F15
:1011200001D02D2307E02068810701D52B2302E0A1
:10113000202101EAC0038DF820300BB1012000E02E
:101140000020032A824601D0072A04DB29462046D4
:1011500000F0D2F93FE12078800601D40D2500E0AF
:10116000E569C7F30A560D2D49DA00214FEA175BEE
:1011700008464FF00000002F00F4400007DA00EBB3
:1011800080004FF4400100EBD07001EA600081154F
:10119000012901DD4FF0FF3100224FEA850CBCF13F
:1011A000180F06D31346ACF118004FF08052C2401E
:1011B00003E04FF4801323FA0CF30CF10C0CBCF198
:1011C000200F04D3ACF1200C09FA0CF001E007FA6F
:1011D0000CF000294FF0004801DD18B90FE00ED1E6
:1011E00040450CD319EB02095F4121B9404502D1BA
:1011F0009F4329EA0209BBEB175F00D0761C2088C9
:10120000000502D57B48784402E07A4878441938D2
:1012100008AA302302F80A30037C0AF10101002EEB
:101220000AF1020A53546A4602DC4FF0300101E031
:101230004FF031014FF001088DF8001002D0A6F2F6
:10124000FF3603E059EA470100D06B4E002D02DC67
:101250002178090704D54FF002082E218DF80110DE
:10126000C44600210BE0C7F303433F01C35C491CA4
:101270006D1E02F80830052908F1010801DA002D79
:10128000F1DC00210CE000EB1973491C1B786D1E8A
:10129000082902F808304FEA091908F1010801DAB3
:1012A000002DF0DC21688B0602D516E0A8F10108BC
:1012B000E04505DD02EB080313F8013C302BF5D0C7
:1012C000B8F1000F09DD02EB080313F8013C2E2BE7
:1012D00003D1090701D4A8F10108002D05DD3E2145
:1012E00002F808106D1E08F10108407C002E02F87B
:1012F000080008F1010804DA2D20764202F80800FF
:1013000002E02B2002F808000A214FF47A7086428E
:1013100008F101080BDB96FBF0F3303302F80830DC
:1013200096FBF0F308F1010800FB136601E0642E60
:101330000CDB642096FBF0F3303302F8083096FBA8
:10134000F0F308F1010800FB136601E00A2E06DB4A
:1013500096FBF1F0303002F8080008F1010896FB26
:10136000F1F001FB1060303002F80800A16908F1CB
:10137000010808EB050202EB0A00081AA0612078B8
:10138000C00602D42046FFF752F9216A08AE01EBED
:101390000A00206204E0D4E9012116F8010B90470D
:1013A000BAF1010AF7D22078C00602D52046FFF72D
:1013B0003EF96E4609E016F8010B3E280FD0D4E93D
:1013C00001219047206A401C2062B8F10108F2D246
:1013D0002046FFF742F909B00320BDE8F08F206AEC
:1013E0002844206203E0D4E90121302090476D1E9B
:1013F000EBD3F8E75E78000002FCFFFF10B543690D
:1014000013B1AFF3008001E0FFF74AF9012010BDEE
:10141000127800F124010A7000224A700122EDE7DF
:1014200011684FF0FF32E9E710B5436913B1AFF32C
:10143000008001E0FFF7D4F9012010BD128800F10F
:10144000240182840022C2840122EDE711684FF05A
:10145000FF32E9E770B516460C46054600F040F845
:10146000036893F80101012806D0FF2C0FD8185DFE
:1014700068B101202C7070BDD3F8070132462146B7
:1014800003F2071303442846BDE8704018474FF0A5
:10149000FF3070BD754600F0EBF8AE4605006946BA
:1014A000534620F00700854618B020B5FEF71CFF14
:1014B000BDE820404FF000064FF000074FF0000855
:1014C0004FF0000B21F00701AC46ACE8C009ACE8D6
:1014D000C009ACE8C009ACE8C0098D4670470000FF
:1014E00010B500F005F8001D10BD00BFE56E00004E
:1014F00000487047EC4600202DE9F0411F460446A5
:1015000003260168072A01F4006004DB08B116A570
:1015100005E016A503E008B115A500E015A521F02A
:1015200010002060A069C01EA0610FB1401EA06124
:101530002046FFF77CF84FB1D4E9012138469047A7
:10154000206A401C2062C01C206206E0206AFAE784
:10155000D4E9012115F8010B9047761EF8D22046F8
:10156000FFF77BF8BDE8F0814E414E006E616E00E2
:10157000494E4600696E66002DE9F04781461646E1
:101580008AB0354878440DC88DE80D00324878445B
:10159000801C03AC0DC884E80D0041F69B30084464
:1015A000372190FBF1F290FBF1F5A5F1800501FBED
:1015B00012041B3C02D56442012000E00020DFF849
:1015C00098A080460027FA44AAF1BE0A0EE0E00780
:1015D0000AD03246684607EB470101230AEB810136
:1015E00000F0E2FA8DE8070064107F1C002CEED1B9
:1015F000194F7F44AE3F19E0E80715D007EB041000
:101600000DF1180A90E80E008AE80E00C068F0425A
:1016100001D1981908903246012306A903A800F0C9
:10162000C3FA03AB83E807006D10641C002DE3D1FF
:101630004FF0010332466946B8F1000F03A802D00B
:1016400000F09DFA01E000F0AFFAC9E90001C9F825
:1016500008200AB0BDE8F0877075000010B5044698
:10166000AFF300802046BDE81040FEF7DCBD00006F
:1016700000487047CC46002001491820ABBEFEE769
:101680002600020070475FEA400C08BF91F0000F8F
:101690004FEA8C234FEAC12243EA51514FEA1C50D2
:1016A00018BF00F5F0404FEA300018BF41F000418C
:1016B0005FEA6C5C00F02980BCF1FF3F08BF40F09E
:1016C00080407047130C06BF12044FF0100C4FF00F
:1016D000000C130E04BF12020CF1080C130F04BF10
:1016E00012010CF1040C930F04BF92000CF1020CD8
:1016F000D30F04BF52000CF1010C11464FF0000251
:10170000A0F11F00A0EB0C00704711F0004F08BFC4
:10171000704731F000413FF4D5AF0B0C06BF090410
:101720004FF0100C4FF0000C0B0E04BF09020CF12F
:10173000080C0B0F04BF09010CF1040C8B0F04BF44
:1017400089000CF1020CCB0F04BF49000CF1010C15
:10175000CCF12003A0EB0C0022FA03F302FA0CF206
:1017600041EA030100F10100704720F07F4C80EA5C
:10177000030023F07F47ACEB070303F57C5300F035
:10178000004003F1FF032DE980494FEA154B09B4EE
:101790004FEA144325EA0B4E24EA03480FF20426CD
:1017A00006EB132749083E785FEA320203FB06671F
:1017B000C7F5000707FB06F64FEA54374FEAD6464F
:1017C00006F1020607FB066CCCF1005C4FEA1C47F1
:1017D0002CEA074C07FB06F40CFB06F504EB154658
:1017E0004FEA961634BF00204FF000404FEAD13741
:1017F00006FB07FC4FEA1C4C0CFB0BF7D21B03FB50
:101800000CF761EB07010CFB0EF7B0EB074072EB36
:1018100017420CFB08F734BFA2EB0742B2EB0742BA
:1018200061EB17414FEA0C444FEA910706FB07FCB6
:101830004FEA1C4C0CFB0BF7B0EBC74072EB573276
:1018400003FB0CF734BFA2EBC742B2EBC74261EB1C
:1018500057310CFB0EF7B0EBC70072EB57720CFB65
:1018600008F734BFA2EBC702B2EBC70261EB5771B6
:10187000039F4FEA816141EA921104EBCC044FEAE5
:10188000D1374FEA826206FB07FC42EA90124FEA28
:1018900080604FEA1C4C0CFB0BF7D21B03FB0CF7D0
:1018A00061EB07010CFB0EF7B0EB074072EB174240
:1018B0000CFB08F734BFA2EB0742B2EB074261EB27
:1018C00017414FEA8C554FEA910704EB9C2406FB25
:1018D00007FC4FEA1C4C0CFB0BF7B0EBC74072EB5C
:1018E000573203FB0CF734BFA2EBC742B2EBC7423F
:1018F00061EB57310CFB0EF7B0EBC70072EB577280
:101900000CFB08F734BFA2EBC702B2EBC70261EBD6
:10191000577115EB4C254FEA816141EA92114FEA6C
:1019200082624FEAD13742EA901206FB07FC44F18B
:1019300000044FEA80604FEA1C4C0CFB0BF7D21BF3
:1019400003FB0CF761EB07010CFB0EF7B0EB074054
:1019500072EB17420CFB08F734BFA2EB0742B2EB65
:10196000074261EB174115EB1C154FEA813141EA43
:1019700092414FEA823242EA90424FEA80304FEA87
:101980000C7644F1000448EA03434EEA0B484FF05A
:10199000000EB2EB080C71EB030724BF6246394618
:1019A0004EEB0E0E4FF0000B0018524149414BEB2D
:1019B0000B0BB2EB080C71EB03077BF1000B24BFA0
:1019C000624639464EEB0E0E4FF0000B00185241A6
:1019D00049414BEB0B0BB2EB080C71EB03077BF1AE
:1019E000000B24BF624639464EEB0E0E51EA020749
:1019F00018BF46F0010616EB0E7655F1000254F1C1
:101A0000000103D5BDE88901BDE80088BDE8890172
:101A1000BDE80048B619524141EB0101A3F10103B1
:101A2000704780807F7E7D7C7B7A7978777676754B
:101A30007473727171706F6E6E6D6C6C6B6A6A69C3
:101A40006868676666656464636362616160605F5D
:101A50005F5E5E5D5D5C5C5B5B5A5A5959585857D6
:101A6000575656555555545453535252525151503E
:101A700050504F4F4F4E4E4D4D4D4C4C4C4B4B4B91
:101A80004A4A4A49494948484847474747464646D7
:101A90004545454444444443434343424242424112
:101AA0004141002B9C4630D477002BD01CB54FEA27
:101AB000370703B44FF010004FF01001BAF1000FD8
:101AC00006D0BCF1000FDCBF40F0080040F0080178
:101AD0004FF000000FBCBDE810400BF1010BBBF153
:101AE000010F08BF5FEA170722BF12F1010211F1CF
:101AF00001014FF0004143F1000300F0004043EAD0
:101B000000007047F9D35708D0E746EA064613F1BC
:101B1000400F4FEA16461FDD13F1200FDFBF1643BB
:101B20000A46002120335B42BED0C3F1200746EABB
:101B3000064602FA07F74FEA164646EA0706C3F1D9
:101B4000200722FA03F201FA07F721FA03F14FF016
:101B5000000342EA0702A7E746EA020646EA06460B
:101B60004FEA164646EA0106BCBF46EA0646360C70
:101B70004FF000034FF000024FF0000194E72DE911
:101B8000804C9A46934670B491E8380007C831EA11
:101B9000400C48BF34EA430C03D5FFF7E6FDFFF7DE
:101BA00080FFF0BCBDE8008C2DE9804C9A4693463E
:101BB00070B491E8380007C810F0804F08BF13F0E8
:101BC000804F03D100F005F8FFF76BFFF0BCBDE8D4
:101BD000008C20F07F4780EA030023F07F4C07EB66
:101BE0000C03A3F57C5300F00040A3F1FE0392F038
:101BF000000F00F0B38095F0000F00F077802DE922
:101C000001494FEA11404FEA144621EA004800FB1F
:101C100006FC24EA064708FB06F607FB08F800FB6B
:101C200007F718EB06484CEB164C4FEA124B18EB33
:101C300007484FEA15464CEB174022EA0B4E0BFBC8
:101C400006FC25EA06470EFB06F607FB0EFE0BFB1D
:101C500007F71EEB064E4CEB164C4FF000061EEB42
:101C6000074E4CEB174B18EB0B0840F1000018EB3C
:101C70000E0B58EB000840F100008F1A4FF00001E6
:101C80003CBFC943661B14BFB5EB040C00213CBF2D
:101C9000C943F61B4FEA17444EEA8E0E27EA044565
:101CA0004FEA1C4704FB07622CEA074C05FB07F7C9
:101CB0000CFB05F604FB0CFC16EB074642EB174247
:101CC00016EB0C4642EB1C421BEB060658EB0202DD
:101CD000414146EA9E0601D5BDE80189B619524147
:101CE00041EB0101A3F10103BDE801894FEA14456D
:101CF0004FEA114724EA054621EA074C05FB07F4A1
:101D000006FB07F70CFB06F105FB0CFC11EB07418A
:101D100044EB17444FEA124711EB0C4144EB1C44CF
:101D200022EA074C05FB07F206FB07F70CFB06F659
:101D300005FB0CFC16EB074642EB174216EB0C4674
:101D400042EB1C456A1854F1000148BF7047B619B0
:101D5000524141EB0101A3F10103704795F0000FDF
:101D600037D04FEA11424FEA144721EA024624EAEB
:101D7000074C02FB07F106FB07F70CFB06F402FB1E
:101D80000CFC14EB074441EB17414FEA154714EBE9
:101D90000C4441EB1C4125EA074C02FB07F506FB0E
:101DA00007F70CFB06F602FB0CFC16EB074645EBAF
:101DB000174516EB0C4645EB1C42121951F1000178
:101DC00048BF7047B619524141EB0101A3F101032D
:101DD00070474FEA14454FEA114724EA054621EAC5
:101DE000074C05FB07F106FB07F70CFB06F24FF06B
:101DF000000605FB0CFC12EB074241EB174112EB0E
:101E00000C4251EB1C4148BF7047921841EB010155
:101E1000A3F101037047000070B5044600688168B3
:101E2000C943C90717D1816821F00101816000F021
:101E30006BFD05460AE000BF00F066FD401B02286E
:101E400004D920688068C043C00706D02068806835
:101E5000C043C007F0D0002070BDA06A40F0100061
:101E6000A062E06A40F00100E062012070BDFEE780
:101E70002DE9F0410C00054668D0602004F0E2F83E
:101E8000286008B905F016FC606D04F0DBF8070067
:101E900038D0606C04F0D6F806003AD03846616D50
:101EA000FEF739FB3046616CFEF735FB04F0F2FBC0
:101EB00094F8282026A12B6804F07EFF20780128C2
:101EC00000D901202968087029686068486029687D
:101ED000206A08622968606A48622968A069886186
:101EE0002968E069C86129682248886029682069F2
:101EF000086129682048C860296820484861206D29
:101F000088B111E004F0C6FB1DA104F055FF38466E
:101F100005E004F0BFFB23A104F04EFF3046BDE80E
:101F2000F04105F0C7BB2765206C00B9266428681E
:101F30002C2204F134013430FEF7B3FAD4E90A124A
:101F40002868C0E90A122968206B0863BDE8F0819F
:101F5000406E6F74653A4D6F646275735B25645DA6
:101F60005F68616E646C6572203D20307825700D6D
:101F70000A000000277500081548000859470008A6
:101F8000406572726F723A7054786275662043725F
:101F9000656174696F6E206661696C6564210D0A04
:101FA00000000000406572726F723A70527862757C
:101FB00066204372656174696F6E206661696C6545
:101FC00064210D0A00000000014800F085BA0000FD
:101FD0004C070020014800F07FBA0000540900209F
:101FE000014800F079BA00001009002030B590F8DF
:101FF00040500124AC40C56B6C600468636043686A
:10200000102B036803D099600068C26030BD9A60ED
:102010000068C16030BD7047012000F06FBB4FF415
:10202000806000F06BBB022000F068BB082000F06D
:1020300065BB102000F062BB10B5202000F05EFBF5
:10204000402000F05BFB802000F058FBBDE8104012
:102050004FF4807000F052BB72B6FEE770B50446D4
:10206000B1F5614F01D9002070BD084606F0C0FAF5
:102070000146134806F0C2F9054606F081FA2082AF
:102080002846104906F0C8FA06460F4906F0B6F988
:1020900006F076FAA08430460C4906F0AFF906F057
:1020A0006FFAE08420852846094906F0B5FA094907
:1020B00006F0A4F906F064FA6085012070BD000006
:1020C000002474490000A04000005041000050422C
:1020D0000000A8410000D041002104E000F001020E
:1020E0001144C9B240080028F8D1022901D30120C7
:1020F000704700207047000030B590F82420012A76
:102100001ED0012280F824200A7A012A026853682E
:1021100018D023F040035360D1E900231A43036829
:102120005C680A4D2C4022435A600368CA685A62B0
:10213000026809699162002180F82410084630BDC8
:10214000022030BD43F04003E5E70000E0FD3FFF23
:10215000F8B50024009490F824202546012A12D0D6
:10216000012280F824204A681F23072A0DD206681E
:10217000776B521E02EB820293409F430B689340A1
:102180001F43776319E00220F8BD06680D2A0AD2C2
:10219000376BD21F02EB820293409F430B68934040
:1021A0001F43376309E0F76A0D3A02EB820293405E
:1021B0009F430B6893401F43F7620A680723066832
:1021C0000A2A0AD3F7680A3A02EB420293409F4375
:1021D0008B6893401F43F76008E0376902EB4202C7
:1021E00093409F438B6893401F4337610A68102ACE
:1021F00001D0112A20D1124B02689A4217D193685C
:102200001B0219D4936843F40003936009681029F2
:1022100012D10C490C4A0968B1FBF2F101EB8101C2
:10222000490000E0491E00910029FBD104E0816AC9
:1022300041F020018162012480F824502046F8BD3D
:10224000002401408400002040420F002DE9F041AD
:102250004FF0000704003D467ED0A06A002628B952
:10226000E66284F82460204600F07EF82046FFF7FE
:10227000D3FDA16AC90600D420B1A06A40F01000C5
:10228000A06269E0A16A21F4885141F00201A162D3
:102290006268E169237B0A4347EA43010A43A16874
:1022A0004FF48077B94209D0012907D05FF00001CF
:1022B00094F814C0BCF1010F02D00AE03946F7E7E8
:1022C000F3B1A36A43F02003A362E36A43F001037E
:1022D000E3622368D3F804C02CF4694C4CEA010C87
:1022E000C3F804C021688B68DFF870C003EA0C03F0
:1022F00013438B60A168B9420BD0012909D00CE0CF
:10230000DFF85CC0A3690CEB43330B4343F400617B
:10231000DFE7218A0D05A5F580152168CB6A23F436
:1023200070032B43CB62216889680E4B19409142A0
:1023300008D1E662A16A21F0020141F00101A16227
:10234000BDE8F081A06A20F0020040F01000A06219
:10235000E06A40F00100E0620120F1E7FDF7E1FFF3
:1023600000E0FFFFFE0E1FFF70B586B00026054699
:10237000009601960296039600681A4988422FD16A
:102380001949886940F400708861886900F4007018
:102390000490886940F0040088618869694600F00B
:1023A0000400049006200090032001900F4800F0E4
:1023B000B1F9104C0E48C4E900068020C4E902605F
:1023C00080002061800060612020A0610002E06147
:1023D000204600F02BF908B1FFF73EFE2C62656243
:1023E00006B070BD0024014000100240000801400A
:1023F000080002404C07002010B590F82110002280
:10240000022905D00421816380F82020012010BD1D
:1024100001680B6823F00E030B6001680B6823F062
:1024200001030B6090F84030C46B012101FA03F303
:10243000636080F8211080F82020104610BD000055
:1024400010B590F821100024022903D004218163E3
:1024500001243DE001680A6822F00E020A6001686A
:102460000A6822F001020A601A4A0168914201D109
:10247000012121E0174A1432914201D110211BE0C1
:10248000144A2832914201D1891515E0114A3C3293
:10249000914201D189140FE00E4A5032914202D18B
:1024A0004FF4803108E00B4A6432914202D14FF47C
:1024B000801101E04FF08071064A083A5160012115
:1024C00080F82110002180F82010416B01B188476D
:1024D000204610BD080002402DE9F05FC16B0C687A
:1024E00001680B68D0F840C0042202FA0CF2494D92
:1024F000DFF824A1494E4A4FDFF828B1DFF828E180
:1025000022422CD05A072AD50A68920603D40A68B8
:1025100022F004020A600168A94201D1042219E0F4
:10252000514501D1402215E0B14202D14FF4806201
:1025300010E0B94202D14FF480420BE0594502D17C
:102540004FF4802206E0714502D14FF4800201E091
:102550004FF080622F4908394A60C16A3BE04FF072
:10256000020808FA0CF818EA040F4FF000094FF0BF
:10257000010235D05FEA837832D50B689B0605D41B
:102580000B6823F00A030B6080F821200168A94240
:1025900001D1022219E0514501D1202215E0B142BA
:1025A00002D14FF4007210E0B94202D14FF4005250
:1025B0000BE0594502D14FF4003206E0714502D1DB
:1025C0004FF4001201E04FF00072124908394A60DE
:1025D00080F82090816A00291AD0BDE8F05F084792
:1025E000082505FA0CF5254212D01B0710D50B68FB
:1025F00023F00E030B6090F84010C36B02FA01F158
:102600005960826380F8212080F82090016BE2E716
:10261000BDE8F09F080002401C000240300002406C
:1026200044000240580002406C00024030B528B31C
:1026300008C8134914221944B1FBF2F18900C1639F
:1026400010498163022141771A6843F6F0718A4389
:10265000D0E900142143D0E902452C432143046909
:1026600021434469214384692143114319600021B6
:102670004163012242770177084630BD012030BD19
:10268000F8FFFDBF0000024070B5044690F820003E
:10269000002501280CD0012084F8200094F8216046
:1026A0000020012E06D084F820000225284670BDA7
:1026B000022070BD022684F82160A06320680668AD
:1026C00026F0010606602046FFF790FCE06A00282D
:1026D0002068016802D041F00E0106E021F00401FB
:1026E00001602068016841F00A010160206801680A
:1026F00041F001010160D9E770470000044910B5BD
:102700000A68024202D00860FFF7F6FF10BD000021
:10271000140401402DE9F84FDFF8B891002409F1C5
:10272000040A0AF1040B23460F270BF1040EC9E03B
:102730000125A5402A40AA427DD1674ED1F804C0A8
:10274000ACEB0608B44532D014DCBCF1030F3AD030
:1027500009DCBCF1000F2AD0BCF1010F1CD0BCF188
:10276000020F31D11DE0BCF1110F17D0BCF1120FD7
:102770002AD119E0B8F5881F19D006DCB8F5803FDA
:1027800015D0B8F5801F1FD111E0B8F5001F0ED08D
:10279000B8F5041F18D10AE0CB6815E0CB681B1D03
:1027A00012E0CB6808330FE0CB680C330CE08B6889
:1027B0002BB1012B4FF0080303D0456104E0042343
:1027C00002E0056100E00023FF2A01D8064601E08F
:1027D00000F104064FEA840501D9A5F12005D6F8D9
:1027E000008007FA05FC28EA0C0803FA05F548EA18
:1027F0000508C6F800804D68ED0062D5374DAE691A
:1028000046F00106AE61AD6924F0030605F001054E
:102810000095334D06EB050CDCF80850A607360F83
:1028200007FA06F825EA0805DFF8B880404503D125
:102830004FF0000817E044E0DFF8AC80404502D1DB
:102840004FF001080FE0DFF8A480404502D14FF0BF
:10285000020808E0DFF89880404502D14FF00308F5
:1028600001E04FF0040808FA06F848EA0508CCF839
:1028700008804D68D9F80060ED034D4601D5164338
:1028800000E096432E604D68DAF80060AD035546CF
:1028900001D5164300E096432E604D68DBF80060DA
:1028A000ED025D4601D5164300E096432E604D686B
:1028B000DEF80060AD02754601D5164300E0964390
:1028C0002E60641C0D682A46E5407FF431AFBDE8F8
:1028D000F88F0000000401400000111000100240B9
:1028E0000000014000080140000C014000100140C0
:1028F000001401408068084000D0012070470AB1F0
:10290000016170470904FBE70148806870470000D7
:102910008800002070B5040011D021684CF6CC402E
:102920000860216845F255500860D4E90001416013
:102930002168A0688860FFF7E7FF05460DE00120E9
:1029400070BD00BFFFF7E0FF401B272805D92068B6
:10295000C068800701D0032070BD2068C068800770
:10296000F0D121684AF6AA200860002070BD0068F6
:102970004AF6AA21016000207047000002488168E1
:10298000027811448160704788000020074810B524
:10299000016841F010010160032000F0B1F800204F
:1029A00000F006F800F04AF8002010BD00200240B8
:1029B00030B505461C4887B0816941F400618161EA
:1029C000806906A900F40060009001A800F0B6F943
:1029D00000F0E4F91549164AB0FBF1F11548491E1B
:1029E0000260416040F2E7320021C0E903218160CA
:1029F000816100F005FD040012D10E4800F06AFD6F
:102A000004000DD1192000F04EF8102D07D200223D
:102A10002946192000F054F80748056000E0012419
:102A200007B0204630BD00000010024040420F00B9
:102A3000002C0140980900208C0000200F4808B5A8
:102A4000816941F001018161816901F00101009119
:102A5000C16941F08051C161C069002200F080501D
:102A600000900F21901E00F02BF80548416821F0DE
:102A7000E06141F00071416008BD000000100240BB
:102A80000000014000280DDB00F01F0201219140F1
:102A90004009800000F1E020C0F88011BFF34F8FA3
:102AA000BFF36F8F7047002809DB00F01F02012180
:102AB00091404009800000F1E020C0F8001170470B
:102AC000F0B40E4B1B680C46C3F30223C3F1070599
:102AD000042D00D90425191D072901D2002300E087
:102AE000DB1E012606FA05F1491E214099409E4051
:102AF000761E16403143F0BC02F044BD0CED00E000
:102B0000064900F0070208684FF6FF03184040EA44
:102B10000220034A10430860704700000CED00E0FB
:102B20000000FA052DE9F84305460078354CC0074A
:102B300054D0E0690026C00008D4E06940F080501D
:102B4000E061E069012600F0805000902E480168A5
:102B5000C90512D40168804641F480710160FFF715
:102B6000D3FE074605E000BFFFF7CEFEC01B64287A
:102B700023D8D8F80000C005F6D5206A10F44070BC
:102B800021D0A98801F4407181421CD0206A1F49DC
:102B9000012220F440700A6000220A602062C0070F
:102BA00011D0FFF7B1FE074641F2883808E000BFB8
:102BB000FFF7AAFEC11B414502D90320BDE8F883F7
:102BC000206A8007F4D5206A696820F440700843C1
:102BD00020621EB1E06920F08050E0612878800713
:102BE00005D56068A96820F44040084360602878F3
:102BF000C00605D56068E96820F48000084360607D
:102C00000020DBE700100240007000404004424218
:102C10002DE9F0470F46050061D0434E306800F0C3
:102C20000700B84209D2306820F00700384330600E
:102C3000306800F00700B84251D128683B4C81074A
:102C400012D5400703D5606840F4E06060602878E2
:102C5000000703D5606840F4605060606068A96850
:102C600020F0F000084360602878C00728D068682A
:102C7000012810D02168022810D0890700292EDAF7
:102C8000616821F0030101436160FFF73DFE80466A
:102C900041F288390DE021688903EFE78901EDE70A
:102CA000FFF732FEA0EB0801494502D90320BDE839
:102CB000F0876068696800F00C00B0EB810FEFD11D
:102CC000306800F00700B8420BD9306820F00700E8
:102CD00038433060306800F00700B84201D001206E
:102CE000E5E72878400705D56068E96820F4E060EA
:102CF000084360602878000706D56068296920F4D9
:102D0000605040EAC100606000F058F86168084A0D
:102D1000C1F30311515CC8400649086006480068C9
:102D2000FFF746FE0020C2E70020024000100240EC
:102D3000FC890008840000208C0000200F22026023
:102D40000C4A536803F003034360536803F0F00335
:102D50008360536803F4E063C36052684FF4E06338
:102D600003EAD20202610448006800F0070008602C
:102D7000704700000010024000200240044805494E
:102D800000684968044AC1F30221515CC840704799
:102D900084000020001002400C8A00080448054905
:102DA00000684968044AC1F3C221515CC8407047B9
:102DB00084000020001002400C8A000812A185B097
:102DC0000FC98DE80F0014A0144A006804905168E0
:102DD000134801F00C03042B10D0082B0ED1C1F3C3
:102DE0008343C9031DF803000AD5516804AAC1F33F
:102DF0004041515C0A4A5043B0FBF1F005B07047C6
:102E000008494843FAE700000203040506070809D9
:102E10000A0B0C0D0E0F10100102000000100240F2
:102E200000127A0000093D002DE9F84F040070D02F
:102E30002078C04DC00749D06868C0F381000128E0
:102E400007D06868C0F38100022809D16868C00310
:102E500006D52868800339D560680028E7D035E0BA
:102E60006068B0F5803F0BD010B1B0F5A02F11D045
:102E7000286820F480302860286820F4802002E050
:102E8000286840F480302860606890B1FFF73CFD0E
:102E900006460AE0286840F480202860F0E700BF7A
:102EA000FFF732FD801B642873D828688003F7D5AC
:102EB0000CE0FFF729FD064605E000BFFFF724FD03
:102EC000801B6428F0D828688003F7D420789A4EB5
:102ED00080074FF001094FF0000839D5686810F0FD
:102EE0000C0F07D06868C0F38100022809D1686818
:102EF000C00306D42868800714D52069012808D1AA
:102F000010E02069B0B1C6F80090FFF7FDFC07465D
:102F100005E00AE1FFF7F8FCC01B0228C4D82868C6
:102F20008007F7D52868616920F0F80040EAC10001
:102F300028600DE0C6F80080FFF7E6FC074604E0D5
:102F4000FFF7E2FCC01B022823D828688007F7D4CB
:102F5000207800072CD57948A169D9B1C0F8009034
:102F6000FFF7D2FC074604E0FFF7CEFCC01B0228A7
:102F70000FD8686A8007F7D571484FF4FA51006896
:102F8000B0FBF1F0009000BF0098411E0091FAD212
:102F90000EE080E0C0F80080FFF7B6FC074604E0D2
:102FA000FFF7B2FCC01B022875D8686A8007F7D407
:102FB0002078400760D5E8690027C00008D4E86998
:102FC00040F08050E861E869012700F080500090EF
:102FD0005C480168C90513D40168834641F48071D7
:102FE0000160FFF791FC824606E000BFFFF78CFC12
:102FF000A0EB0A0064284ED8DBF80000C005F5D528
:10300000E06801280AD008B1052813D0286A20F00A
:1030100001002862286A20F0040002E0286A40F0DB
:1030200001002862E06841F2883B98B1FFF76CFC30
:1030300082460BE0286A40F004002862EEE700BFF9
:10304000FFF762FCA0EB0A0159455AD8286A8007AD
:10305000F6D50CE0FFF758FC824605E0FFF754FC7C
:10306000A0EB0A0159454CD8286A8007F6D41FB155
:10307000E86920F08050E861E06988B36968C1F3CD
:103080008101022944D00228C6F8608004D0FFF7ED
:103090003BFC044638E034E0FFF736FC074604E02A
:1030A000FFF732FCC01B02282BD828688001F7D418
:1030B000206AB0F5803F05D16868A16820F400302F
:1030C00008436860D4E908010843696821F4741171
:1030D00008436860C6F86090FFF716FC044606E0F7
:1030E00025E000BFFFF710FC001B022809D8286864
:1030F0008001F7D51BE000BFFFF706FC001B02288C
:1031000002D90320BDE8F88F28688001F4D40EE0CE
:103110000128F7D06868226A00F48031914204D116
:10312000616A00F47010884201D00120EAE70020B3
:10313000E8E70000001002400000424280044242E2
:10314000840000200070004070B5040009D0606A5F
:10315000002540B125616561A56294F8510040B138
:103160000CE0012070BD6068B0F5827FF4D0E561AD
:10317000F2E784F85050204600F040F8022084F82E
:1031800051002068016821F040010160A088218978
:1031900000F4827001F404410843A18901F4006144
:1031A0000843217C01F002010843217D01F0010167
:1031B0000843218B01F400710843217F01F038019D
:1031C000084394F8201001F080010843218D01F498
:1031D0000051084321680860A069042101EA1040F9
:1031E000216848602068C16921F40061C16165659A
:1031F000012084F85100002070BD000000B585B0AA
:1032000000210091019102910391006810498842C8
:103210001BD11048C16941F48041C161C16901F409
:1032200080410491816941F00801816180696946AA
:1032300000F0080004904FF430400090022001900C
:10324000032003900448FFF765FA05B000BD0000B5
:103250000038004000100240000C01402DE9F0470A
:103260001F4690460E4604001FD0A07E80BBE6B1EC
:10327000B8F1000F19D0FFF747FB054694F82C0072
:103280004FF00009A0B11E494FF48070086094F916
:103290001900FFF708FC84F82C90617F4846B8F1CC
:1032A000010F24D9E28BB15422E00120BDE8F08760
:1032B000FFF72AFBA84204D2FFF726FBE9430844A4
:1032C00002E0FFF721FB401BB84202D9012001E0D8
:1032D0000BE00020401E384207D1A4F81E9084F86D
:1032E0001D9086F800900320E0E70220DEE73170B1
:1032F0006077E28B424500D1E0830020D6E70000F2
:10330000140401402DE9F0411E461746884604008A
:103310000ED0B8F1000F0BD057B1FFF7F5FA2781A7
:103320000546C4F80C80607920B10220BDE8F08128
:103330000120FBE7012060712071206800270068F0
:1033400047622168208A0968C8622168208AC860AB
:10335000206800F0BFF86FEA050814E0FFF7D4FA20
:10336000A84203D2FFF7D0FA404402E0FFF7CCFABC
:10337000401BB04201D9012000E00020401E304235
:1033800001D10320D2E7A07C0028E7D0A774002059
:10339000CCE770477047000070B590F83C20012AD8
:1033A00026D0012480F83C40022280F83D200368AA
:1033B0005A689D6822F070060A6832435A600D4BC5
:1033C00002689A4208D0B2F1804F05D00A4B9A4267
:1033D00002D00A4B9A4204D1496825F08003194370
:1033E000916080F83D40002180F83C10084670BD97
:1033F000022070BD002C0140000400400008004085
:1034000010B5040003D094F83D0010B107E001208E
:1034100010BD002084F83C00204600F01FF8022078
:1034200084F83D00211D206801F06EFD012084F824
:10343000460084F83E0084F83F0084F8400084F899
:10344000410084F8420084F8430084F8440084F882
:10345000450084F83D00002010BD000008B501685B
:103460001948B1F1804F11D0184A914217D1C16962
:1034700041F00201C161C069002200F00200009029
:1034800004211D20FFF71CFB1D2019E0C16941F03C
:103490000101C161C06900F00100009008BD0C4A43
:1034A0009142FBD1C16941F00401C161C0690022B0
:1034B00000F00400009003211E20FFF701FB1E20F6
:1034C000BDE80840FFF7EFBA0010024000040040DA
:1034D0000008004090F83D10012901D001207047FC
:1034E000022180F83D100168CA6842F00102CA60FA
:1034F00000680B49884208D0B0F1804F05D00949D7
:10350000884202D00849884204D1816801F007014D
:10351000062903D0016841F00101016000207047D5
:10352000002C014000040040000800400168CA6807
:1035300022F00102CA6001680A6A41F211131A42BC
:1035400007D10A6A9B101A4203D10A6822F00102CD
:103550000A60012180F83D100020704770B50446D4
:1035600090F83C00012817D0012584F83C50022037
:1035700084F83D002068826822F0770222F47F42BE
:1035800082600868502830D00DDC20284DD005DC42
:1035900098B310283BD148E0022070BD302844D0B9
:1035A000402834D139E0602828D0702806D0B0F502
:1035B000805F2CD0B0F5005F29D10AE0CB68D1E95B
:1035C0000121206801F0E3FC2068816841F0770167
:1035D00009E0CB68D1E90121206801F0D8FC20681E
:1035E000816841F48041816011E0CA6849682068BF
:1035F00001F082FD5021206807E016E0CA684968A2
:10360000206801F08AFD6021206801F0CAFC84F87E
:103610003D50002084F83C0070BDCA6849682068AD
:1036200001F06AFD40212068EFE72268014610465C
:10363000EBE7704770B50446006801694FF000057C
:10364000C943890715D4C168C943890711D4E91E44
:10365000016101202077206880698007204602D020
:10366000FFF7E7FF04E000F0C9F8204600F058F942
:10367000257720680169C943490717D4C168C94340
:10368000490713D46FF004010161022020772068FC
:10369000806910F4407F204602D0FFF7CAFF04E0A3
:1036A00000F0ACF8204600F03BF92577206801696E
:1036B000C943090716D4C168C943090712D46FF07A
:1036C00008010161042020772068C0698007204636
:1036D00002D0FFF7AEFF04E000F090F8204600F0C3
:1036E0001FF9257720680169C943C90617D4C16845
:1036F000C943C90613D46FF0100101610820207777
:103700002068C06910F4407F204602D0FFF791FF87
:1037100004E000F073F8204600F002F925772068F5
:103720000169C943C90708D1C168C943C90704D1A0
:10373000891E0161204600F043F920680169C943F0
:10374000090609D4C168C943090605D46FF0800190
:1037500001612046FFF71DFE20680169C943490643
:1037600009D4C168C943490605D46FF0400101611D
:10377000204600F02BFA20680169C94389060BD462
:10378000C168C943890607D46FF020010161204652
:10379000BDE87040FFF7FEBD70BD000000B585B00C
:1037A000002100910191029103910068B0F1804FD6
:1037B0001BD10F48816941F0080181618069694628
:1037C00000F0080004904FF4006000900220019087
:1037D00003900848FEF79EFF0748416821F44071B6
:1037E00041F0E06141F40071416005B000BD0000AE
:1037F00000100240000C014000000140704770B50D
:10380000044690F83C000D4601280AD0012084F8B7
:103810003C0042B1042A18D0082A2AD00C2A4DD1E3
:1038200039E0022070BD206801F0C4FB2068816986
:1038300041F0080181612068816921F00401816102
:10384000206881692A69114311E0206801F0DAFBE0
:103850002068816941F4006181612068816921F4F7
:1038600080618161206881692A6941EA0221816160
:1038700024E0206801F0F2FB2068C16941F00801F2
:10388000C1612068C16921F00401C1612068C1697A
:103890002A69114311E0206801F00CFC2068C1691D
:1038A00041F40061C1612068C16921F48061C16196
:1038B0002068C1692A6941EA0221C161002084F8B7
:1038C0003C0070BD10B5040003D094F83D0010B169
:1038D00007E0012010BD002084F83C00204600F0E5
:1038E0001EF8022084F83D00211D206801F00CFB29
:1038F000012084F8460084F83E0084F83F0084F8F4
:10390000400084F8410084F8420084F8430084F8C1
:10391000440084F8450084F83D00002010BD704745
:103920007047000010B50446022249B104290ED0A8
:10393000082913D094F84100012816D0012010BDA9
:1039400094F83E000128F9D184F83E200FE094F865
:103950003F000128F2D184F83F2008E094F84000AD
:103960000128EBD184F8402001E084F841200122B5
:10397000206801F0FFFA0F492068884203D1426CA9
:1039800042F4004242642068884208D0B0F1804F7F
:1039900005D00949884202D00849884204D181688B
:1039A00001F00701062903D0016841F0010101601F
:1039B000002010BD002C0140000400400008004021
:1039C0002DE9F04701687B48794C814203D1BDE87D
:1039D000F047FEF7D3BF784A0127784800254FF01B
:1039E00002094FF4807A91424BD12179002917D0F6
:1039F00062794115012A15D0022A1AD0032A0FD064
:103A0000042A0DD10122FEF77AFFA5712089401EFC
:103A10000004000C208122D06771E068401CE06047
:103A2000BDE8F0870022FEF76AFF84F80590A571D3
:103A3000F6E7E268A3791278DA4002F00102FEF7B5
:103A40005EFFA079401CC0B2A0710828E8D394F8AA
:103A5000300008B1032000E004206071E0E76571E8
:103A6000257127762068FFF761FD206800684562B0
:103A70005349C1F800A094F91900FFF714F8A7748E
:103A8000CEE7504A9142CBD1217E0029C8D04E4E7C
:103A9000A17E96F80080012924D0022947D003296D
:103AA00077D00429BCD15146FEF724FF68F35F00AC
:103AB000C0B23070217F491CC9B2217703296AD373
:103AC000FEF70AFB58B1E08B401CE083A5766069E5
:103AD000FFF72CFD60690068456284F82C7025773B
:103AE00035709DE75146FEF705FF68F35F00C0B2F1
:103AF0003070217F491CC9B2217703294BD3FEF7CF
:103B0000EBFA20B10420A0763570257788E784F899
:103B10001A906169207F04EB40000968808CC862BC
:103B2000207F616904EB4000808CC860ECE751465F
:103B3000FEF7E0FE68F35F00C0B23070217F491CE1
:103B4000C9B22177032926D3FEF7C6FAE17E884061
:103B5000617F08436077E07E072808D3E57694F814
:103B6000300008B1032000E00420A07601E0401CF2
:103B7000E0766169207F04EB40000968808CC862B0
:103B8000207F616904EB4000808CC860A7E700E0FB
:103B900001E0A57644E704EB41006169808C096887
:103BA000C862207F616904EB4000808CC86037E701
:103BB00000010020002C01400004004000080140EA
:103BC00014040140000800400000002070477047C6
:103BD00010B504460068416994F83D20C1F3C01156
:103BE000212A0BD151B1416921F080014161606B03
:103BF00008B1FEF701FC204601F03DFB2068416959
:103C000094F83E20C1F38011222A0BD151B14169B1
:103C100021F040014161A06B08B1FEF7EDFB2046A9
:103C200001F011FB002010BD70470000F8B50268DC
:103C300004461068D168536910F00F0F4FF000056B
:103C400053D003F0010601F4907737435FD0C207E9
:103C500005D0CA0503D5226C42F001022264420756
:103C600005D5DA0703D0226C42F0020222648207F3
:103C700005D5DA0703D0226C42F004022264020761
:103C800007D501F02002324303D0226C42F0080233
:103C90002264226C002A34D0800604D5880602D51E
:103CA000204601F0F1FA20684069216CC0F38010D1
:103CB000090700D430B3204601F0C5FA20684169F5
:103CC00049061BD5416921F040014161A06BA8B1B3
:103CD00058494163A06BFEF7B3FB002811D0A06BDD
:103CE000416B01B0BDE8F040084783060FD58B0655
:103CF0000DD52046BDE8F84001F0C6BA2046FFF7D2
:103D000093FFF8BD2046FFF78FFF2564F8BD266BB3
:103D10002023012E52D1C60650D5CE064ED51068AE
:103D200050680090506940062AD5A16B0868406829
:103D30000004000CEAD0A68D8642E7D9E0858869A8
:103D4000202818D0D06820F48070D06020684169A5
:103D500021F0010141612068416921F04001416188
:103D600084F83E3025632068C16821F01001C160ED
:103D7000A06BFEF741FBA08DE18D401A81B219E0E6
:103D8000A08DE18D401A81B2E08D0028BED00029BF
:103D9000BCD0D06820F49070D0602068426922F0D6
:103DA0000102426184F83E3025632068C26822F037
:103DB0001002C2602046FFF70AFFF8BD05062BD5AA
:103DC0000D0629D594F83D002128F6D1A068B0F55C
:103DD000805F01D12069B0B1206A411C2162216855
:103DE00000784860E08C401E0004000CE084E4D1C0
:103DF0002068C16821F08001C1602068C16841F07D
:103E00004001C160F8BD206A0088C0F3080050601E
:103E1000206A801C2062E5E74006F3D54806F1D50C
:103E2000D168204621F04001D16084F83D3000F097
:103E300063F9F8BD4151000870B5040004D094F84E
:103E40003D00002510B106E0012070BD84F83C5013
:103E5000204600F023F8242084F83D002068C16843
:103E600021F40051C160204601F06AFA206801691E
:103E700021F4904101612068416921F02A014161EA
:103E80002068C16841F40051C1602564202084F895
:103E90003D0084F83E00002070BD00002DE9F04197
:103EA00086B00024064600940194029403940068AE
:103EB000324988425FD13248816941F48041816151
:103EC000816901F480410491816941F008018161B7
:103ED00080692C4D00F008000490402000900220E2
:103EE00001900320039069462846FEF713FC4FF02B
:103EF00080080120CDF80080CDE9014047466946A1
:103F00002846FEF707FC2048416841F0E06141F097
:103F1000040141601E4D1D48C5E90004C5E9024782
:103F20002C6187146C61C5E906472846FEF77EFBC5
:103F300008B1FEF791F8B5636E62154D134844352C
:103F4000143801C51020A5E81101114845F81049A1
:103F500044306C61C5E90647FEF768FB08B1FEF71F
:103F60007BF875630022052125206E62FEF7A8FD0F
:103F70002520FEF798FD06B0BDE8F081003801402D
:103F800000100240000C01400000014058000240B7
:103F90001009002090F83E30202B0ED159B152B1BB
:103FA00090F83C30012B08D0012380F83C300023EE
:103FB000036301F021BA0120704702207047704767
:103FC000704700002DE9F843044690F83D001F4675
:103FD00016460D4620284CD1C5B1BEB194F83C0020
:103FE000012846D0012084F83C004FF00008C4F8B6
:103FF0004080212084F83D00FEF786FCA68481469F
:10400000E684A068B0F5805F03D004E00120BDE83D
:10401000F883206928B12E465FF0000584F83C80C3
:104020000EE00026FAE78021204601F01DFAA0B933
:10403000AEB116F8010B21684860E08C401EE084A8
:10404000E08C4B464FF0000200970028EBD14FF078
:104050004001204601F008FA30B10320D7E735F8D7
:10406000020BC0F30800E6E7202084F83D000020A2
:10407000CDE70220CBE7000070B5044690F83D0084
:10408000202830D169B362B394F83C0001282AD0CB
:10409000012084F83C002162A284E284002525648A
:1040A000212084F83D00636B10489862636B1048D0
:1040B000D862636B0F481863606B134645632668CC
:1040C000606B321DFEF7E0FA21686FF04000086077
:1040D00084F83C502068416941F080014161002032
:1040E00070BD012070BD022070BD00000F5200089D
:1040F0003D52000851510008704770470348FEF7D1
:1041000036FC642001F0A4FAF8E7000090070020D4
:1041100070B58AB018216846FCF71FFA00241E48C3
:10412000069407941B490894016089158160012653
:1041300006730475022505614FF460214460C16176
:10414000FEF784F808B1FDF787FF1448CDE90005B4
:10415000039404948DF8084069460F48FDF7CCFF9E
:1041600008B1FDF779FF06200696CDE9076006A99C
:104170000948FDF7EDFF08B1FDF76EFF069506A9AA
:1041800005480795FDF7E4FF002801D0FDF764FF1F
:104190000AB070BD002401401C070020000280000E
:1041A000114808B5416941F00101416140690022AF
:1041B00000F00100009005210B20FEF781FC0B2090
:1041C000FEF771FC002205210E20FEF779FC0E207F
:1041D000FEF769FC002205210F20FEF771FCBDE807
:1041E00008400F20FEF75FBC0010024030B5A9B0B8
:1041F000314801F07DF900F03DF90025209520A817
:10420000219501F044FA2D4CA061229522A8239516
:1042100001F03DFAE0612495012124A8259501F0E3
:104220009DFA274D20620022D5E90001CDE9260143
:10423000012126A801F036FB0835606195E80F00E2
:104240001CAD85E80F0000211CA801F00DFA1C49E7
:1042500020611C2218316846FCF723F9164968468C
:1042600001F0F6FA164920601C22343107A8FCF749
:1042700018F91448016807A801F0EAFA10496060CB
:104280001C2250310EA8FCF70CF900210EA801F0F9
:10429000DFFA0B49A0601C226C3115A8FCF701F96C
:1042A000002115A801F0D4FAE0603221606901F024
:1042B00019FB29B030BD0000C00B00200400002015
:1042C000C4870008280000202DE9F04385B00026AF
:1042D00058480096019602960396816941F01001B4
:1042E0008161816901F010010491816941F020012F
:1042F0008161816901F020010491816941F004012B
:104300008161816901F004010491816941F0080132
:1043100081618069DFF8209100F00800049001229B
:104320004FF460614846FEF7EAFA4FF40050032567
:10433000CDE9000569464148FEF7ECF948F207006F
:10434000CDE9000569464846FEF7E4F93C4FF82000
:10435000CDE90007694602964846FEF7DBF940F2D0
:104360000340CDE90007DFF8DC80012469460294B0
:104370004046FEF7CFF944F23C30CDE900056946EE
:104380004046FEF7C7F92002CDE9000769460294CE
:104390004846FEF7BFF96002CDE900046946484689
:1043A000CDE90245FEF7B6F9A802CDE900040220E6
:1043B000CDE9024069464846FEF7ACF92003CDE955
:1043C0000006694602944846FEF7A4F9002205213A
:1043D0000620FEF775FB0620FEF765FB002205218F
:1043E0000720FEF76DFB0720FEF75DFB002205218D
:1043F0000920FEF765FB0920FEF755FB0022052189
:104400000A20FEF75DFB0A20FEF74DFB0022032188
:104410001720FEF755FB1720FEF745FB002205216C
:104420002820FEF74DFB2820FEF73DFB05B0BDE838
:10443000F08300000010024000080140001001401D
:1044400000002110000C0140094810B50749016027
:104450000421416040F2E2418160FEF75BFA0028EE
:1044600003D0BDE81040FDF7F7BD10BD003000409F
:104470009007002000B5A3B02C220A4918A8FCF729
:1044800010F8084960222C316846FCF70AF82C2203
:1044900018A90DA8FCF705F869460348FDF7E8FCE4
:1044A00023B000BD5C880008280000200F4810B52C
:1044B0000D4901604FF48271416000218160C1604B
:1044C0004FF480220161C0E90512C16101624162BD
:1044D00081620A21C162FEF737FE002803D0BDE8E1
:1044E0001040FDF7B9BD10BD003800409C0700200A
:1044F00010B54FF416510948FDF7B0FD07480021EB
:10450000074A80F8301081744171026080F82C10E5
:104510008176044941611721417610BD00010020D8
:104520003C0800208408002010B58EB000240794B9
:10453000089409940A940B941C2168460C94FCF787
:104540000CF820484FF08041016041F61F41C0E95E
:10455000011442F20F71C0E9031480218161FEF75A
:104560004FFF08B1FDF778FD4FF48050079007A981
:104570001448FEF7F3FF08B1FDF76EFD1148FFF791
:10458000A1F908B1FDF768FD0B940BA90D480C9437
:10459000FEF702FF08B1FDF75FFD6020009041F2D9
:1045A0008830CDE901040C22694606480494FFF7DF
:1045B00026F908B1FDF750FD0248FFF7EFF80EB0FD
:1045C00010BD0000F407002010B586B00024174885
:1045D0000094019402940394049413490594016097
:1045E0004721C0E901144FF6FF71C0E9031484614B
:1045F000FEF706FF08B1FDF72FFD4FF48050009045
:1046000069460A48FEF7AAFF08B1FDF725FD0494A4
:1046100004A906480594FEF7BFFE002801D0FDF767
:104620001BFD06B010BD0000000400403C08002047
:1046300010B586B0002417480094019402940394A6
:1046400004941349059401604721C0E901144FF611
:10465000FF71C0E903148461FEF7D2FE08B1FDF7D3
:10466000FBFC4FF48050009069460A48FEF776FF45
:1046700008B1FDF7F1FC049404A906480594FEF77F
:104680008BFE002801D0FDF7E7FC06B010BD00004E
:10469000000800408408002010B50E4C0C480C2186
:1046A00020604FF4E13060600020A060E060C4E969
:1046B0000401A061E0612046FFF7BEFB08B1FDF7F1
:1046C000CBFC2068C16841F01001C16010BD000042
:1046D00000380140CC0800200546002DFDD01748C9
:1046E00015F13404066A16D02068A0B1616891B152
:1046F000E16881B10068C16841F01001C160208AA1
:10470000E16882B22068FFF745FC00206061D4E9CF
:104710000301FBF700FF06B1A6624FF0FF3421460C
:10472000E86D01F063F82146E86D01F05FF80028BC
:10473000F9D1284600F022FBF5E700000400002034
:10474000FEE770477047000002484FF0FF310068F5
:1047500000F0CEBF200000202DE9F0471E46DDE925
:10476000085992460F46040033D0A06900B1804733
:104770004FF000087FB3012F2ED0022F2ED0032F31
:104780002CD0002086421ED281451CD8402202EB4C
:104790004603C02206F1200102EB4602BAF1000FE7
:1047A0001ED077B3012F30D0206B022F30D01044B1
:1047B000294640B139B1B9F1000204D0FBF76DFED2
:1047C00008B14FF00108E06900B180474046BDE8FC
:1047D000F0870120FBE7FFE72020D3E78020D1E727
:1047E000284637B1012F07D0216B022F07D0114483
:1047F000DFE7216B3144DCE7226B1144D9E7194430
:10480000D7E7FFE7206B3044D2E7206B0844CFE7BF
:104810001844CDE72DE9F0410446806C00250128BD
:1048200003D1206C00780D280CD0204600F020F930
:10483000070026D001F02EFF29A1A26C02F0BCFADD
:10484000002610E001F026FF2AA102F0B5FA616A05
:104850002AE000BF01F01EFF216C8A5D2DA102F04D
:10486000ABFA761CF6B2A06CB042F3D801F012FF9E
:104870002AA102F0A1FA226A0AB3394620469047DB
:1048800021E0284890E84600C368206C4078112851
:1048900019D2DFE800F018090911110D15181818C0
:1048A00018181818180D150049B1204688470AE055
:1048B0002AB12046904706E00EB12046B04702E0FC
:1048C0000BB12046984762681AB1206C41782046A7
:1048D0009047D4E91001FBF71EFEA564BDE8F08106
:1048E0006D6F646275735F72785F6275665B256475
:1048F0005D3A00000D0A40737563636573733A2077
:1049000065786974206D6F64627573206D6F64657E
:104910002E00000025303258200000000D0A0D0A3C
:10492000000000004C8800082DE9FC410446006CA2
:10493000808840BAC5B2680700D0012000EBD507D7
:10494000284601F07FFB06004BD02946FBF7E3FD2C
:10495000D4E91401FBF7DFFD0020A065216C206D78
:1049600009880180A06D226DC11C801CA1651754AF
:10497000206C4178012901D0012100E00021CDE91E
:1049800000654088D4F814C043BA00222046E047AE
:10499000002120E0002015E0D4F858C0236DB25C5F
:1049A00012F0010213F80CE002FA00F202D04EEA13
:1049B000020E01E02EEA020E401CC0B203F80CE029
:1049C000082803D200EBC102AA42E5D3A06D401C27
:1049D000491CC9B2A065B942DCD322690021204636
:1049E00090473046BDE8FC4102F064BE2DE9FC4131
:1049F0000446006C808840BA4006050E284601F047
:104A000021FB06002FD02946FBF785FDD4E91401D0
:104A1000FBF781FD0020A065216C206D09880180D5
:104A2000A06D801CA065216D0D54A06D401CA0657B
:104A3000206C4178032900D00221CDE9006540882F
:104A4000676943BA00222046B847A16D206D2A4607
:104A500008443146FBF7DCFCA06D00212844A0652A
:104A60002269204690473046BDE8FC4102F022BE54
:104A7000F8B504460078012806D901F00BFE24A100
:104A800002F09AF90120F8BDA06C022802D3616CF3
:104A9000884207D901F0FEFD2BA1A26C02F08CF92F
:104AA0000220F8BD236C94F828501978A94209D047
:104AB00001F0F0FD216C2A460B782FA102F07CF961
:104AC0000320F8BD801E81B24FF6FF72184600F039
:104AD00070FDA26C216C1144020A31F8021C42EAFA
:104AE000002549BAA8B2814210D001F0D3FD064694
:104AF000A06C0090216CAAB208442E4930F8020C38
:104B000043BA304602F058F90420F8BD0020F8BD41
:104B1000406572726F723A50726F746F636F6C207F
:104B2000737461636B2074797065206572726F7243
:104B30002C4D757374204D61737465722F536C61C5
:104B400076652E0D0A000000406572726F723A5051
:104B5000726F746F636F6C206672616D65206C6537
:104B60006E677468206572726F722C6375723A207A
:104B700025642E0D0A000000406572726F723A5073
:104B8000726F746F636F6C20737461636B20616408
:104B90006472657373206572726F722C74617267D0
:104BA00065743A2025642C6375723A2025642E0DB5
:104BB0000A000000308B000838B5040028D0606B74
:104BC000002825D091B9B4F858004FF6FF7281B291
:104BD000206D00F0EEFCADF80000A16D206D0844E2
:104BE000BDF800100180A06D801CA06594F84C00F9
:104BF00078B101280CD1B4F85800216D82B2606BF5
:104C0000FFF73AFA606B00680168C9434906FBD4B4
:104C100038BDB4F85800216D82B2606B01B04FF41A
:104C20008073BDE83040FFF7CDB90000014800684F
:104C300000F036BD200000202DE9FC410446006C48
:104C400041788088052940BA04D0C6B200200721E7
:104C5000256D19E0B0F57F4F08D000208DF80000D9
:104C60000126A06C6D463746A06512E00120F5E7ED
:104C7000226C01EBD003D25C00F00703DA4002F0B3
:104C800001022A54401CC0B2B042F1D306200027D2
:104C9000A06501F0FFFC2A78334611A102F08CF8E0
:104CA0004DB1CDE90056206C012265694088002194
:104CB00043BA2046A847D4E91401FBF72CFCA26DA7
:104CC000216C206DFBF7A4FB2078012806D1226916
:104CD00002B039462046BDE8F0411047BDE8FC81EE
:104CE0007064617461203D202523582C206C656E12
:104CF0003D2025642E0D0A007CB50446006C00257D
:104D000041884BBA4178032914D0062907D01029CD
:104D10000BD0226AC2B105212046904714E002213F
:104D2000A26C0125001DA26506E081790622C01D46
:104D3000A26501E08178C01C30B1CDE900010122FB
:104D4000666903212046B047207801280FD1D4E9B5
:104D50001401FBF7E0FBA26D216C206DFBF758FB03
:104D6000226902B029462046BDE8704010477CBD4C
:104D7000FEE7322000F06CFCFBE7000070B5044653
:104D8000806C05282CD3216CC01C0978A06501F02B
:104D90008005D4E91401FBF7BEFB4DB1216C087806
:104DA00000F07F000870216D401C8870216D4870F4
:104DB000206DA26CC01C216CFBF72AFB094E4FF43E
:104DC000805529463046FDF795FD28B120462269D9
:104DD000BDE8704001211047012000F039FCF0E7E8
:104DE00070BD00000008014004461D20FDF74AFE8A
:104DF0001E20FDF747FE1720FDF744FE0022062186
:104E00001D20FDF75DFE002207211E20FDF758FE44
:104E1000002207211720FDF753FE1D20FDF743FE5A
:104E20001E20FDF740FE1720FDF73DFE204602F054
:104E30002FFAFBE710B5502080F31188BFF34F8F96
:104E4000BFF36F8F03F0D0F818B104494FF08050D2
:104E50000860002080F3118810BD000004ED00E020
:104E600030B593B028216846FBF777FB14210AA8D8
:104E7000FBF773FB00250F95092001211095009089
:104E8000119512954FF4803004910691CDE90105FA
:104E90000224CDE907404FF4E01009906846FDF781
:104EA000C3FF08B172B6FEE70AA90F2081E83100FE
:104EB0004FF48060CDE90D0502210AA8FDF7A8FE98
:104EC00008B172B6FEE74FF4004011900F940FA89E
:104ED000FDF728FE002801D072B6FEE713B030BD02
:104EE000704700000148FEF7A5BB000098090020AC
:104EF0000148FEF79FBB00003C0800200148FEF778
:104F000099BB000084080020F0B50268164B174CCE
:104F1000174D4FF08047984205D0B84203D0A042C9
:104F200001D0A84203D122F070064A683243984269
:104F300005D0B84203D0A04201D0A84203D122F448
:104F40004074CA6822434C6922F080022243026006
:104F50008A68C2620A688262984201D10969016363
:104F600001214161F0BD0000002C0140000400401F
:104F70000008004010B501F01F030121046A9940A8
:104F80008C430462016A9A401143016210BD10B55E
:104F9000846842EA032224F47F440A432243826065
:104FA00010BD826822F070020A4342F0070181605E
:104FB0007047000030B5026A22F001020262026A04
:104FC0004368846924F073050C682C4322F00205C1
:104FD0008A682A430A4DA8420BD122F00805CA6804
:104FE00023F440732A434D6922F004021D438B6968
:104FF0002B434360846149684163026230BD000015
:10500000002C014030B5026A22F010020262026AEE
:10501000436884690D6824F4E64444EA05248D68F5
:1050200022F0200242EA05120B4DA8420ED1CD68B3
:1050300022F0800242EA05124D6923F4406343EAFC
:1050400085038D6922F0400243EA85034360846151
:1050500049688163026230BD002C014030B5026AAC
:1050600022F480720262036A4268C46923F4007306
:1050700024F073050C682C438D6843EA05230C4D1E
:10508000A8420ED1CD6823F4006343EA05234D699D
:1050900022F4405242EA05128D6923F4806342EA09
:1050A00005124260C4614968C163036230BD0000FB
:1050B000002C014030B5026A22F480520262046A78
:1050C0004268C3690D6823F4E64343EA05238D680B
:1050D00024F4005444EA0534064DA84204D14D6935
:1050E00022F4804242EA85124260C3614968016449
:1050F000046230BD002C014010B5036A046A24F03C
:1051000001040462846924F0F00444EA021423F0E8
:105110000A020A438461026210BD10B5036A23F0DB
:10512000100303628369046A23F4704343EA023282
:1051300024F0A00343EA01118261016210BD7047AF
:1051400010B5406A0021C185C184FEF76DFD10BD18
:1051500070B5446A2068406994F83D10C0F3C010EF
:105160000025212904D118B1E584204600F083F8F8
:105170002068406994F83E10C0F38010222904D1C1
:1051800018B1E585204600F05EF8206C40F0100074
:1051900020642046FEF748FD70BD10B50146406A08
:1051A0000968096889061BD40021C1850168CA689D
:1051B00022F48072CA6001684A6922F001024A61E1
:1051C00001684A6922F040024A61202180F83E10BD
:1051D000016B012904D10168CA6822F01002CA607B
:1051E000016B012902D0FEF7EAFE10BD818DFEF7AA
:1051F000EEFC10BD10B5406A016B012902D0FEF72C
:10520000DFFE10BD818D4908FEF7E1FC10BD10B531
:105210000146406A0968096889060CD40021C184E6
:1052200001684A6922F080024A610068C16841F061
:105230004001C16010BDFEF75FFF10BD10B5406AB0
:10524000FEF75BFF10BD0168CA6822F49072CA6065
:1052500001684A6922F001024A61016B012904D107
:105260000168CA6822F01002CA60202180F83E104E
:105270000021016370470168CA6822F0C002CA6059
:10528000202180F83D10704708B590F83E10222983
:1052900001D0022008BD82684FF480539A4201D1A8
:1052A000016921B1816A9A421BD04AB10AE00268C1
:1052B000816A5268C2F308020A80816A891C08E088
:1052C000026972B10268526802F07F020A70816A54
:1052D000491C8162C18D491E0904090CC18503D096
:1052E00019E002685268F1E70168CA6822F02002FA
:1052F000CA600168CA6822F48072CA6001684A699B
:1053000022F001024A61202180F83E10016B012940
:1053100003D0FEF754FE002008BD002101630168A0
:10532000CA6822F01002CA6001680A68D20602D573
:105330000A6849680091818DFEF749FCEBE700009F
:1053400070B5044600680169E26821F440511143D8
:1053500001612169A0680843616908432168CA683E
:1053600041F20C639A430243CA6020684169A26912
:1053700021F44071114341611E492068884202D1E5
:10538000FDF70CFD01E0FDF7F9FC00EBC00101EBBE
:105390000012606864218000B2FBF0F3B3FBF1F30C
:1053A0006FF018067343B2FBF0F5B2FBF0F605EBB5
:1053B0008305322303EB0515B5FBF1F5B6FBF1F6DA
:1053C00005F0F00505EB0615B2FBF0F6B2FBF0F0C8
:1053D000B0FBF1F06FF01802504306EB800003EBD6
:1053E0000010B0FBF1F0216800F00F002844886045
:1053F00070BD00000038014038B58162828500250B
:10540000134604460564222084F83E00A26B13482C
:105410009062A26B1248D062A26B12481063A06B1C
:105420000A4645632168A06B091DFDF72DF9206828
:1054300001684168009184F83C50C16841F4807172
:10544000C1602068416941F0010141612068416902
:1054500041F040014161002038BD00009B5100082F
:10546000F5510008515100082DE9F04198461746C2
:105470000E460446069D1DE0681C1BD02DB1FDF7AD
:1054800043FAA0EB0800A84214D92068C16821F4AF
:10549000D071C1602068416921F001014161202083
:1054A00084F83D0084F83E00002084F83C0003208E
:1054B000BDE8F0812068006836EA000004D00020D2
:1054C000B842D9D00020F3E70120F9E7054810B52C
:1054D000006810B1343002F026F8BDE810400248F0
:1054E000FEF7A4BB28000020CC080020FEE7000047
:1054F00005498166054941660549C1660549016757
:105500008022054901F01CBA3D5500081D550008D0
:105510007975000891750008340C002010B50C4610
:105520000A4601464FF6FF730348FDF797FE08B1A0
:10553000002010BD204610BD0001002010B50C4613
:105540000A4601464FF6FF730348FDF7DBFE00B144
:105550000024204610BD000000010020490050EA50
:10556000C12018BF04204A0D18BF40F0010040F2CE
:10557000FF72B2EB515F08BF40F00200012808BF84
:10558000052070470907090E002804DB00F1E02020
:1055900080F80014704700F00F0000F1E02080F860
:1055A000141D704730380A2801D2012070470020AE
:1055B000704770B50300104603D000244AF201057D
:1055C00011E0002070BD13F8012B50400022C607E7
:1055D00002D085EA500000E04008521C92B2082A2E
:1055E000F5D3641CA4B28C42EDD370BDEFF30580FB
:1055F000002800D00120704770470000FDF7C6F971
:10560000FFF72EFCFEF760FEFEF7CAFDFEF780FDF9
:10561000FEF74CFFFEF788FFFFF73EF8FEF7D4FFDA
:10562000FFF706F8FEF710FFFEF762FF0C210448B3
:10563000FEF778F9FEF7DAFD00F011F8FEE700005A
:10564000F407002001460020842900D0C81C7047C0
:1056500010B500B9012002F095F8002010BD10B57A
:1056600002F01AF9002010BD38B5D0E90112046823
:105670003AB1C3682BB100200090204602F0D1F966
:1056800038BD2046BDE83840002202F0AFB941687D
:105690004FF0010009B102F09CB902F08FB900008F
:1056A00038B5002405460094FFF7A0FF90B1694685
:1056B000284602F0ACFA012801D0FF2038BD00983E
:1056C00088B10A494FF080500860BFF34F8FBFF395
:1056D0006F8F08E000231A461946284602F0E8F9C1
:1056E000012800D0FF24204638BD000004ED00E072
:1056F00038B505004FF0000000900FD00024481C82
:105700000ED001B10C46FFF771FFB8B16A46002117
:10571000284602F01FFB012816D104E0802038BD86
:105720004FF0FF34EFE7009880B109494FF0805007
:105730000860BFF34F8FBFF36F8F07E02146284605
:1057400002F03AFB012801D0FF2038BD002038BD0F
:1057500004ED00E0812070478120704738B5436830
:105760004BB1012909D103200022009011460120EC
:1057700002F057F938BD012901D0002038BD0322BD
:105780000021012002F032F9040004D000231A465F
:10579000194602F08DF9204638BD000038B50024C6
:1057A00005460094FFF722FF90B16946284602F0B3
:1057B0002EFA012801D0FF2038BD009888B10A498F
:1057C0004FF080500860BFF34F8FBFF36F8F08E03A
:1057D00000231A461946284602F06AF9012800D02B
:1057E000FF24204638BD000004ED00E038B5050078
:1057F0004FF0000000900FD00024481C0ED001B1E3
:105800000C46FFF7F3FEB8B16A460021284602F0C5
:10581000A1FA012816D104E0802038BD4FF0FF34F2
:10582000EFE7009880B109494FF080500860BFF35E
:105830004F8FBFF36F8F07E02146284602F0BCFA76
:10584000012801D0FF2038BD002038BD04ED00E064
:105850007FB50D4604464169B0F9080081B1A169E0
:1058600071B1FFF7EFFED4E905128DE80700D4E926
:1058700000102B46226902F088FB039004B070BD33
:10588000FFF7E0FE03A9CDE90001208A2B4682B292
:10589000D4E9001002F04CFB012801D00020EDE714
:1058A0000398EBE71CB511C86CB1CDE900040129E0
:1058B00007D0002013460246012109A002F016FD80
:1058C0001CBD0120F6E70090012907D000201346F7
:1058D0000246012102A002F0EFFC1CBD0120F6E708
:1058E000000000002DE9FC41002507462E460195E9
:1058F0000C0000D10124FFF779FE009690B101ABB6
:1059000022460921384602F029FD012812D10198CA
:1059100088B10A494FF080500860BFF34F8FBFF342
:105920006F8F08E0002322460421384602F016FD5E
:10593000012800D0FF252846BDE8FC8104ED00E0E9
:105940002DE9F041184C0F46054666692068001D98
:1059500001F028FE38B9206890F82C10012088400A
:10596000A1698143A161681C07D137B12168BDE8F5
:10597000F0410E48091D01F079BE20683544B5425A
:105980004560216805D2A068BDE8F041091D01F01D
:1059900055BE6068091D01F051FE206B854200D2A2
:1059A0002563BDE8F081000094000020D00D0020A8
:1059B0002DE9F041054601F065FE2E4C2069401CA2
:1059C000206120682C4F10B1E06940B32DE02560C4
:1059D0002069012829D1002606EB860007EB80000C
:1059E00001F01EFE761C072EF6D323488C3001F002
:1059F00017FE2148A03001F013FE1F48B43001F01B
:105A00000FFE1D48C83001F00BFE1B48DC3001F0D2
:105A100007FE19488C3060601430A06005E02068F3
:105A2000E96AC06A884200D82560E06A401CE062EA
:105A3000E96A0120A26988401043A06101EB81005E
:105A400007EB8000291D01F011FE01F029FEE0693D
:105A500000280CD02068E96AC06A884207D207494A
:105A60004FF080500860BFF34F8FBFF36F8FBDE8DA
:105A7000F081000094000020F40C002004ED00E010
:105A800038B501F0FFFD104CA068C8B90F4801F00F
:105A9000C7FD0E48143001F0C3FD0C4820601430DF
:105AA00060600A4B00202833009003F148020C216B
:105AB0000A2001F0B6FFA06010B105A101F02CFE94
:105AC000BDE8384001F0ECBDD0000020E40D00201E
:105AD000546D72510000000030B4026C0B46002A75
