:020000040806EC
:1000000038410424E5040608D1AE0608B59B06086D
:10001000A1AE060805260608CFF406080000000079
:100020000000000000000000000000002504060899
:10003000ED36060800000000810406088DBF0608A2
:10004000FF040608FF040608FF040608FF0406086C
:10005000693C0608FF040608553B0608913B060864
:10006000973B06089D3B0608A33B06087D32060821
:100070008932060895320608A1320608AD32060814
:10008000B9320608C5320608FF040608FF04060850
:10009000FF040608FF040608FF040608A93B06083B
:1000A000FF040608FF040608FF040608FF0406080C
:1000B000FF040608FF040608FF040608FF040608FC
:1000C000FF040608FF040608FF040608FF040608EC
:1000D000FF04060865D6060881D606089DD60608E0
:1000E0005B3B0608FF04060800000000FF0406084A
:1000F000FF040608FF040608FF040608D1320608BC
:10010000FF040608FF040608FF040608FF040608AB
:1001100061C7060881C70608FF040608FF04060831
:10012000DD320608E9320608FF040608FF04060867
:10013000FF040608FF040608FF040608FF0406087B
:1001400000000000000000000000000000000000AF
:10015000FF040608FF040608FF040608FF0406085B
:10016000FF040608FF040608FF040608FF0406084B
:10017000FF040608FF040608FF040608000000004C
:10018000FF040608FF040608FF040608FF0406082B
:10019000FF040608FF040608FF040608FF0406081B
:1001A000FF040608FF040608FF040608FF0406080B
:1001B000FF040608FF040608FF040608FF040608FB
:1001C000FF040608FF040608FF040608FF040608EB
:1001D000FF0406087DAF0608FF040608FF040608B2
:1001E000FF040608FF040608FF040608FF040608CB
:1001F000FF040608FF040608FF040608FF040608BB
:10020000FF040608FF040608FF040608FF040608AA
:10021000FF040608FF0406087DC10608FF0406085F
:10022000FF040608FF040608FF040608000000009B
:10023000FF040608FF04060800000000FF0406088B
:10024000FF040608FF040608FF040608FF0406086A
:10025000FF040608FF040608FF040608FF0406085A
:10026000FF040608FF040608FF040608FF0406084A
:10027000FF040608FF040608FF040608000000004B
:10028000FF040608FF040608FF040608000000003B
:1002900000000000FF04060800F002F800F0B2F8C9
:1002A0000AA090E8000C82448344AAF10107DA45D1
:1002B00001D100F0A7F8AFF2090EBAE80F0013F071
:1002C000010F18BFFB1A43F00103184738760100ED
:1002D000587601000A444FF0000C10F8013B13F06F
:1002E000070408BF10F8014B1D1108BF10F8015B8F
:1002F000641E05D010F8016B641E01F8016BF9D182
:1003000013F0080F1EBF10F8014BAD1C0C1B09D1D8
:100310006D1E58BF01F801CBFAD505E014F8016B4A
:1003200001F8016B6D1EF9D59142D6D370470000DC
:100330000023002400250026103A28BF78C1FBD8EE
:10034000520728BF30C148BF0B6070476E2900F0CC
:100350005185702900F05782662916F0E2836529DD
:1003600016F0DF83672916F0DC83612916F0DB8342
:1003700003681B0A28BF41F08001692900F0C88189
:10038000642900F0C581752900F0C2816F2900F051
:100390003E86782900F02382E92900F0D985E429F6
:1003A00000F0D685F52900F0D385EF2900F03B86D3
:1003B000F82900F022820368DB0928BF41F08001A0
:1003C000632900F05A85732900F05F85E32901F065
:1003D0005582F32901F05A82002070471FB516F0AC
:1003E0009BFB01F0EBFA04000020002116F068FBF3
:1003F000401C60600020002116F078FBE0601FBD0B
:1004000010B510BD01F0B5FA1146FFF7E7FF10F087
:1004100093F801F097FB03B4FFF7F2FF03BC01F080
:100420009BFB00002C4B19680868B0E8F04F80F384
:100430000988BFF36F8F4FF0000080F31188704779
:100440000000000008480068006880F308884FF04A
:10045000000080F3148862B661B6BFF34F8FBFF31C
:100460006F8F00DF00BF00BF08ED00E0DFF80C0079
:10047000016841F470010160704700BF88ED00E041
:10048000EFF30980BFF36F8F134B1A681EF0100F44
:1004900008BF20ED108A20E9F04F106009B44FF03A
:1004A000500080F31188BFF34F8FBFF36F8F15F0AB
:1004B00013F84FF0000080F3118809BC1968086830
:1004C000B0E8F04F1EF0100F08BFB0EC108A80F3B8
:1004D0000988BFF36F8F7047D4080024EFF30580BD
:1004E000704700000948804709480047FEE7FEE7DB
:1004F000FEE7FEE7FEE7FEE7FEE7FEE7FEE7FEE7D4
:1005000004480549034A054B704700006DC00608C2
:10051000990206083839042438410424383904245F
:1005200053EA020C00F069802DE9F04B4FF0000611
:10053000002B1FBFB3FA83F503FA05F424FA05F67E
:100540005E4012BF1643B2FA82F502FA05F4C5F115
:1005500020051EBF22FA05FC44EA0C04203556EAA9
:10056000044C4FEA144418BF641C4FF000084FF0CD
:100570000009904271EB030C39D3002919BFB1FA7D
:1005800081F701FA07F6B0FA80F700FA07F6C7F12B
:1005900020071EBF20FA07FC46EA0C062037B6FBF0
:1005A000F4FCA7EB0507103F07F01F0BCBF120066B
:1005B0000CFA0BFB2CFA06F644BFB3460026202F9C
:1005C000A4BF5E464FF0000B5BEA060C08BF4FF07D
:1005D000010B19EB0B09ABFB027C48EB0608C01BB7
:1005E00006FB02CC0BFB03CC71EB0C01C1E70B4605
:1005F000024641464846BDE8F08B13B54FF0000077
:100600004FF00001AFF30080BDE81C4070470000D0
:100610007CB51D4616460C00009001D02044401EBB
:10062000074B7B442A4669460190304600F0FBFBAD
:1006300005461CB10020694600F008FC28467CBD38
:10064000310800000FB41CB5084B06AA7B4469466C
:100650000090059800F0E7FB04460020694600F092
:10066000F5FB20461CBC5DF814FB0000FD070000F4
:1006700070B5044685690068C10601D5302600E0E2
:100680002026C00707D070BDD4E90121304690472D
:10069000206A401C20626D1EF6D570BD70B5044600
:1006A00085690078C00707D170BDD4E901212020F9
:1006B0009047206A401C20626D1EF6D570BD70B553
:1006C0000C460546012A05D02878800600D5EA693F
:1006D000002302E0012305E05B1C934202D2E05CB0
:1006E0000028F9D1A869E618C01AA861286A184438
:1006F00028622846FFF7BCFF04E0D5E9012114F881
:10070000010B9047B442F8D32846FFF7C7FF70BDEE
:100710002DE9F0410646002410687529314616A5DA
:1007200010D000F0FCFA002802DA404213A507E0DE
:1007300031688A0701D512A502E0490704D511A541
:10074000012401E000F0F4FA00210A2206F1240756
:1007500009E0B0FBF2FCB0FBF2F302FB1C0030300E
:1007600078541846491C0028F3D123462A463046BF
:10077000BDE8F04100F0E5BA000000002D000000E7
:100780002B00000020000000F0B40D460188090590
:1007900002D5214C7C4402E01F4C7C440E340021E5
:1007A00000F1240608E002F00F071209E75D42EAB3
:1007B00003721B097754491C52EA0307F3D10278EC
:1007C0000023120704D5702D06D009B1022311347D
:1007D0002246F0BC00F0B5BA01231034F8E770B53A
:1007E00004460D462146106800F0A2FA024629464A
:1007F0002046BDE870400023C6E7D21D22F0070363
:10080000D3E90023C0E70368126843F020030360C4
:100810000823C3610023B7E7746801002DE9F05F86
:10082000894604464FF0000ADFF874B1FB44C0F873
:1008300020A02046E1688847002874D0252806D0EB
:10084000D4E901219047206A401C2062F1E700268C
:100850005F462046E16888472028054607DB312DA2
:1008600005D2781910F8200C08B10643F1E7B0075B
:1008700001D526F00406C4F81CA00027C4F818A06F
:100880002A2D09D028460FF029FD38B304EB87083C
:10089000303DC8F8185019E059F8041B204604EB05
:1008A00087029161E1688847012F054618D1E06908
:1008B000002820DA26F020061DE0D8F8180000EB0A
:1008C000800005EB40003038C8F818002046E16889
:1008D000884705460FF002FD0028EED1012F0AD00F
:1008E0002E2D08D12046E16888477F1C0546022F3F
:1008F00046F02006C4DBA069002803DA404246F037
:100900000106A061F00701D026F010066C2D0BD077
:10091000682D09D04C2D39D06A2D35D0742D35D0A5
:100920007A2D33D016E038E0E1682F46204688471C
:10093000B842054609D16C2F26D04FF48060E1689B
:10094000064320468847054604E06C2F1AD04FF432
:10095000807006430DB3A5F14100192802D8203557
:1009600046F400664A462946204626604E46FFF772
:10097000EDFC80B101280BD0F61D26F0070000F138
:10098000080956E74020E4E78020D8E70020D6E7B2
:1009900006F104094DE7284652E7206ABDE8F09FBA
:1009A0000468010070B5064600F0AAF9046805461F
:1009B00030460A22002100F041FB2C6070BD30B5AA
:1009C00005460B462A4613F8014B12F8010B08B1F5
:1009D000A042F8D01CB1002802D06D1CF1E72846D7
:1009E00030BD40EA0103024630B59B0710D14FF0FD
:1009F000013400E008C208C91D1B9D4315EAC41F4D
:100A0000F8D013F0FF0102F8011B0DD01B0AF8E724
:100A100011F8013B002B02F8013B05D011F8013B16
:100A2000002B02F8013BF3D130BD10B5431C02E0AE
:100A300010F8011B71B18107FAD14FF0013202C8E1
:100A40008C1A8C4314EAC211F9D0C01A0A0603D0DA
:100A5000C01E10BDC01A10BD0A0401D0801E10BDFA
:100A60000902FCD0401E10BD40EA010370B59B078F
:100A70002ED14FF00136042A2AD308C810C99D1B75
:100A80009D43121F15EAC61517D0D8B2E1B2401A1D
:100A900050EA056110D198B2A1B2401A50EA05415E
:100AA0000AD123F07F4024F07F41401A50EA05210B
:100AB00002D1180EA0EB146070BDA342DBD018BAAF
:100AC00021BA884201D9012070BD4FF0FF3070BDBE
:100AD0000AB9002070BD10F8013B11F8014B63B159
:100AE000A3420AD1521E08D010F8013B11F8014B65
:100AF0001BB1A34201D1521EEDD1181B70BD032AB8
:100B000040F2308010F0030C00F0158011F8013B2A
:100B1000BCF1020F624498BF11F801CB00F8013B11
:100B200038BF11F8013BA2F1040298BF00F801CBD5
:100B300038BF00F8013B11F0030300F02580083AAC
:100B4000C0F0088051F8043B083A51F804CBA0E803
:100B50000810F5E7121D5CBF51F8043B40F8043B58
:100B6000AFF30080D20724BF11F8013B11F801CB8D
:100B700048BF11F8012B24BF00F8013B00F801CB5E
:100B800048BF00F8012B704710B5203AC0F00B8029
:100B9000B1E81850203AA0E81850B1E81850A0E881
:100BA0001850BFF4F5AF5FEA027C24BFB1E81850DB
:100BB000A0E8185044BF18C918C0BDE810405FEA4B
:100BC000827C24BF51F8043B40F8043B08BF7047C7
:100BD000D20728BF31F8023B48BF11F8012B28BFCC
:100BE00020F8023B48BF00F8012B704702F0FF03DA
:100BF00043EA032242EA024200F002B84FF0000248
:100C00000429C0F0128010F0030C00F01B80CCF11E
:100C1000040CBCF1020F18BF00F8012BA8BF20F88C
:100C2000022BA1EB0C0100F00DB85FEAC17C24BFE0
:100C300000F8012B00F8012B48BF00F8012B70478A
:100C40004FF0000200B5134694469646203922BF65
:100C5000A0E80C50A0E80C50B1F12001BFF4F7AFB0
:100C6000090728BFA0E80C5048BF0CC05DF804EB92
:100C7000890028BF40F8042B08BF704748BF20F800
:100C8000022B11F0804F18BF00F8012B70470000B5
:100C90004FF0013C50F8042B51F8043B9A4215D117
:100CA000A2EB0C03934313EACC130BD150F8042BA3
:100CB00051F8043B9A4209D1A2EB0C03934313EA87
:100CC000CC13E7D04FF00000704700BFD01A01BA34
:100CD000B1FA81F101F0180122FA01F0CB40C1F123
:100CE0002001DBB2C0B2C01A2CFA01F3D11A914331
:100CF00011EAC311E6D17047704770477047000092
:100D000000487047D438042410B5FFF7F9FF006895
:100D100010BD10B50446FFF7F3FF046010BD09686D
:100D20004A0501D540B27047C905FCD500B27047ED
:100D300009684A0501D5C0B27047C905FCD580B223
:100D400070472DE9F0470D4699469246044600F15A
:100D500024080168880604D5E06921F010012160AB
:100D600000E00120A84201DD471B00E00027A16947
:100D70007A1902EB0900081AA0612078C00602D493
:100D80002046FFF775FC002608E0D4E901211AF897
:100D900006009047206A401C761C20624E45F4DB1A
:100DA0002078C0060AD52046FFF762FC06E0D4E9A9
:100DB000012130209047206A401C2062381EA7F194
:100DC0000107F4DC07E0D4E9012118F80500904799
:100DD000206A401C2062281EA5F10105F3DC204694
:100DE000FFF75CFC2078000602D50220BDE8F08702
:100DF0000120FBE711680268006A530501D50870FD
:100E00000AE0D30501D5088006E0130603D5C21712
:100E1000C1E9000200E008600120704701694A1C36
:100E200002610878704700B58FB0CDE9013100212B
:100E3000059105497944CDE9031011466846FFF74D
:100E4000EDFC0FB000BD0000E5FFFFFF0A6802F8EF
:100E5000010B0A607047D1E900239A4202D2531C69
:100E60000B601070704710B5436913B1AFF3008089
:100E700001E0FFF724FC012010BD127800F12401ED
:100E80000A7000224A700122EDE711684FF0FF322C
:100E9000E9E700002DE9FF5F15468A460446DFF8C2
:100EA000AC80F8440027D8E900103E46CDE9001098
:100EB00010E03AF816106A4602A800F03AFD411C0C
:100EC00007D02178890603D5E269391891420DD8F7
:100ED0000744761C2078800602D5E069B84205DD1B
:100EE000AE42E6DB3AF816000028E2D1A069C01B4A
:100EF000A0612046FFF7BCFBD8E90010CDE9001047
:100F0000002017E03AF818106A4602A800F011FD18
:100F1000B0F1FF3F81460BD000250DF1080B05E035
:100F2000D4E901211BF8050090476D1C4D45F7D30E
:100F300008F10100B0428046E4DB206A38442062B8
:100F40002046FFF7ABFBBDE8FF9F00001A630100DE
:100F50002DE9F0418046D21D22F007020025D2E99A
:100F60000002F52915A614D0011E72F1000106DA5F
:100F70000023D0EB030063EB020211A608E0D8F8CF
:100F800000108B0701D50FA602E0490701D50EA678
:100F900001251146002408F1240704E000F092F82E
:100FA00030323A55641C50EA0102F7D12B463246E2
:100FB00021464046BDE8F041FFF7C3BE00000000F7
:100FC0002D0000002B0000002000000030B40021A4
:100FD00000F1240408E002F00705D208303542EAA7
:100FE0004372DB086554491C52EA0305F3D10468D7
:100FF000002310A2250707D5A40600D421B1C46997
:1010000001230DA2641EC46130BCFFF79ABE10B567
:10101000044621461068FFF78BFE02462046BDE8D5
:1010200010400023D2E7D21D22F00701D1E90023AE
:10103000CCE7000000000000300000002DE9F04780
:1010400091460F4680460446002614F8015B2DB1F8
:1010500000F030F80068405DC007F6D12B2D02D0BB
:101060002D2D18D0641E4A463946204600F012FC49
:1010700027B13968A14201D1C7F800804FF00204BE
:1010800071050BD54042002803DDFFF739FE0460EF
:10109000A007BDE8F08746F48066E4E70028F8DAA8
:1010A000FFF72EFE04606FF00040F2E70048704743
:1010B000D438042410B500F081FC001D10BD00BF21
:1010C000015A010030B5B0F10A024FEA900E71F1F9
:1010D00000034EEA817EB0EB0E0061EB91014FEA16
:1010E000101E4EEA017E10EB0E0041EB11114FEA8B
:1010F000102E4EEA016E10EB0E0041EB11214FEA6B
:10110000104E4EEA014E10EB0E0041EB114140181B
:1011100041F100014FEAD00040EA41704FEAD101AD
:1011200010EB80054FEA810444EA907444EB01041B
:101130006D1944EB0404521BA3414FF0000348BF58
:101140000A3200D530BD401C41F1000130BD70476E
:101150002DE9FF4F0C461E464FF0FF378BB0D2E90A
:101160000001DDF860800A908A46C1F30A5505B98E
:101170003D46002108464FF00000BAF1000F00F490
:10118000400005DA00EB80004FF4400101EA500016
:101190004FEA9059B9F1010F00DDB9460A9850EABB
:1011A0004A000ED044F61050A5F2FF3545432F14E7
:1011B000B8F1000F1ED07542291E1EDDC9F10002D4
:1011C0001CE0B8F1010F4FF0000001D0302103E026
:1011D000F24305E02154401CB042FBDB30460022C4
:1011E000002121540B99C1F80880C1E900200FB0FB
:1011F000BDE8F08FBD1B6D1CDEE74A4600DA694290
:1012000006A800F02DFC06AB93E8070003AB83E8CB
:10121000070050460A9900F0A6FC8DE80700A0F5EB
:1012200000501F3800900398002D0ADD42F21F0184
:101230004A460844002303A90390684600F00FFFC4
:1012400009E0A0F500504A461F38002303A9039087
:10125000684600F019FF8DE807000004000C03D079
:101260004FF0FF30410800E01046B8F1000F03D006
:101270000022009215461EE0751E05D4FFF722FFDE
:10128000303262556D1EF9D5B3460122084302D0B3
:1012900000227F1C04E02078302801D100227F1E2C
:1012A000002A099784D01DE0112D07DAFFF70AFF05
:1012B000303262556D1C50EA0102F5D1084302D06C
:1012C0000098C8B10EE00021681E05E0235C625C56
:1012D00063542254401E491C8142F7DBAB46A81BD5
:1012E000401E0990002004F80B000B98099AC0F8E2
:1012F0000880C0E9002B7AE711264FF0000857E775
:101300002DE9F04F88460446D21D22F0070191B026
:10131000D1E90001CDE90A010EF09CF902460B98D3
:10132000C00F01D02D2007E02068810701D52B20B8
:1013300002E0202101EAC000032A099001D0072A17
:1013400005DB03464146204600F03CFB0BE12078DC
:10135000800601D5E06900E00620B8F1650F8146FE
:1013600006D0B8F1660F18D0B8F1670F70D131E030
:101370000020B9F1110F009001DB112301E009F108
:1013800001030AAA01A90CA8FFF7E2FEDDE90C702F
:10139000002609F10105834647E001204B460090F5
:1013A0004FF000470AAA01A90CA8FFF7D1FEDDE91A
:1013B0000DB00C995D46002610B909F101000D1819
:1013C000B9EB050003D4C0F1FF3609F10105A5EB27
:1013D00009002BE0B9F1010F01DA4FF001090020FB
:1013E000B9F1110F0090484601DD112300E00346DA
:1013F0000AAA01A90CA8FFF7ABFEDDE90C704D4667
:1014000000268346207800070AD4AB4500DA5D4603
:1014100001A8012D04DD411911F8011C302907D064
:101420004F4502DA17F1040F04DA012082460FE07B
:101430006D1EEEE7002F02DCED1B3E4403E0781C3E
:10144000A84200DD7D1CB81B00F1010A4FF00047E7
:101450002078000703D4AA4501DB4FF0FF3A0021B2
:10146000B7F1004F0DF143088DF8431024D002204E
:101470002B23002F01DA7F422D230A21021EA0F127
:10148000010000DC5FB197FBF1FC97FBF1F201FB7F
:101490001C7C17460CF1300C08F801CDEEE7A8F1E2
:1014A000010003702188090501D5452100E065216F
:1014B000A0F1010800F8011C09980FA9A1EB080789
:1014C000FF1D00B10120411901EBEA70A169384408
:1014D000081A401EA0612078C00602D42046FFF7FB
:1014E000C7F8099828B1D4E901219047206A401C27
:1014F00020622078C00622D52046FFF7B9F81EE00A
:10150000002E04DBB34502DD01A8805D00E0302041
:10151000D4E901219047206A401C2062761CAAF180
:1015200001005FEA000A0AD100F048FAC0680168C9
:10153000405CD4E901219047206A401C2062281EAB
:10154000A5F10105DCDC07E0D4E9012118F8010B65
:101550009047206A401C2062381EA7F10107F3DC87
:101560002046FFF79BF8032011B041E62DE9F04F2C
:1015700004460D46D21D22F0070089B0D0E900973D
:10158000484639460EF066F80246F80F01D02D2382
:1015900007E02068810701D52B2302E0202101EA22
:1015A000C0038DF820300BB1012000E00020032A99
:1015B000824601D0072A04DB2946204600F002FAC1
:1015C0003FE12078800601D40D2500E0E569C7F3EE
:1015D0000A560D2D49DA00214FEA175B08464FF0F5
:1015E0000000002F00F4400007DA00EB80004FF409
:1015F000400100EBD07001EA60008115012901DD96
:101600004FF0FF3100224FEA850CBCF1180F06D3D2
:101610001346ACF118004FF08052C24003E04FF483
:10162000801323FA0CF30CF10C0CBCF1200F04D343
:10163000ACF1200C09FA0CF001E007FA0CF00029DB
:101640004FF0004801DD18B90FE00ED140450CD332
:1016500019EB02095F4121B9404502D19F4329EAB4
:101660000209BBEB175F00D0761C2088000502D56D
:101670007B48784402E07A487844193808AA302335
:1016800002F80A30037C0AF10101002E0AF1020A75
:1016900053546A4602DC4FF0300101E04FF0310153
:1016A0004FF001088DF8001002D0A6F2FF3603E0DB
:1016B00059EA470100D06B4E002D02DC2178090762
:1016C00004D54FF002082E218DF80110C4460021E8
:1016D0000BE0C7F303433F01C35C491C6D1E02F8D6
:1016E0000830052908F1010801DA002DF1DC00219C
:1016F0000CE000EB1973491C1B786D1E082902F8D9
:1017000008304FEA091908F1010801DA002DF0DC70
:1017100021688B0602D516E0A8F10108E04505DD39
:1017200002EB080313F8013C302BF5D0B8F1000FA1
:1017300009DD02EB080313F8013C2E2B03D1090746
:1017400001D4A8F10108002D05DD3E2102F80810A2
:101750006D1E08F10108407C002E02F8080008F117
:10176000010804DA2D20764202F8080002E02B205E
:1017700002F808000A214FF47A70864208F1010845
:101780000BDB96FBF0F3303302F8083096FBF0F3F6
:1017900008F1010800FB136601E0642E0CDB6420F5
:1017A00096FBF0F3303302F8083096FBF0F308F1C3
:1017B000010800FB136601E00A2E06DB96FBF1F040
:1017C000303002F8080008F1010896FBF1F001FB47
:1017D0001060303002F80800A16908F1010808EB38
:1017E000050202EB0A00081AA0612078C00602D4A4
:1017F0002046FEF73DFF216A08AE01EB0A00206299
:1018000004E0D4E9012116F8010B9047BAF1010A6E
:10181000F7D22078C00602D52046FEF729FF6E4693
:1018200009E016F8010B3E280FD0D4E901219047BA
:10183000206A401C2062B8F10108F2D22046FEF76F
:101840002DFF09B00320BDE8F08F206A28442062F4
:1018500003E0D4E90121302090476D1EEBD3F8E777
:101860006D5B010002FCFFFF10B5436913B1AFF3DC
:10187000008001E0FFF70EFB012010BD128800F18F
:10188000240182840022C2840122EDE711684FF016
:10189000FF32E9E72DE9F05F824615468B460027C7
:1018A0000AF10104B9460078302801D09DB113E057
:1018B00014F8010B0127782803D0582801D045B12E
:1018C0000AE00DB1102D07D1002714F8010B1025E7
:1018D00002E0082500E00A250026B0460EE005FBE0
:1018E000080005FB06F101271FFA80F801EB1046FE
:1018F000B6F5803F00D3B94614F8010B294600F035
:10190000A1F80028EBDABBF1000F05D00FB1641E7F
:1019100000E05446CBF80040B9F1000F06D0FFF7C5
:10192000EFF902210160C81EBDE8F09F48EA0640B9
:10193000FAE770B516460C460546FFF7BBFB036891
:1019400093F80101012806D0FF2C0FD8185D68B16B
:1019500001202C7070BDD3F807013246214603F2F6
:10196000071303442846BDE8704018474FF0FF3086
:1019700070BD7546FFF79AFBAE46050069465346B3
:1019800020F00700854618B020B5FEF7B9FDBDE888
:1019900020404FF000064FF000074FF000084FF0D6
:1019A000000B21F00701AC46ACE8C009ACE8C00967
:1019B000ACE8C009ACE8C0098D46704700487047E4
:1019C000F43804242DE9F0411F460446032601683B
:1019D000072A01F4006004DB08B116A505E016A58E
:1019E00003E008B115A500E015A521F01000206066
:1019F000A069C01EA0610FB1401EA0612046FEF785
:101A000037FE4FB1D4E9012138469047206A401C87
:101A10002062C01C206206E0206AFAE7D4E90121B6
:101A200015F8010B9047761EF8D22046FEF736FED9
:101A3000BDE8F0814E414E006E616E00494E460099
:101A4000696E66003A2800D2303820F02002412A20
:101A500001D3A2F13700884201D34FF0FF30704725
:101A60002DE9F047814616468AB0354878440DC8BE
:101A70008DE80D0032487844801C03AC0DC884E822
:101A80000D0041F69B300844372190FBF1F290FBAA
:101A9000F1F5A5F1800501FB12041B3C02D564425F
:101AA000012000E00020DFF898A080460027FA44DB
:101AB000AAF1BE0A0EE0E0070AD03246684607EBFC
:101AC000470101230AEB810100F0DEFA8DE80700EF
:101AD00064107F1C002CEED1194F7F44AE3F19E0FB
:101AE000E80715D007EB04100DF1180A90E80E0076
:101AF0008AE80E00C068F04201D198190890324679
:101B0000012306A903A800F0BFFA03AB83E807008E
:101B10006D10641C002DE3D14FF00103324669467D
:101B2000B8F1000F03A802D000F099FA01E000F02C
:101B3000ABFAC9E90001C9F808200AB0BDE8F0878E
:101B40000458010010B50446AFF300802046BDE8FC
:101B50001040FEF760BC000001491820ABBEFEE754
:101B60002600020070475FEA400C08BF91F0000FAA
:101B70004FEA8C234FEAC12243EA51514FEA1C50ED
:101B800018BF00F5F0404FEA300018BF41F00041A7
:101B90005FEA6C5C00F02980BCF1FF3F08BF40F0B9
:101BA00080407047130C06BF12044FF0100C4FF02A
:101BB000000C130E04BF12020CF1080C130F04BF2B
:101BC00012010CF1040C930F04BF92000CF1020CF3
:101BD000D30F04BF52000CF1010C11464FF000026C
:101BE000A0F11F00A0EB0C00704711F0004F08BFE0
:101BF000704731F000413FF4D5AF0B0C06BF09042C
:101C00004FF0100C4FF0000C0B0E04BF09020CF14A
:101C1000080C0B0F04BF09010CF1040C8B0F04BF5F
:101C200089000CF1020CCB0F04BF49000CF1010C30
:101C3000CCF12003A0EB0C0022FA03F302FA0CF221
:101C400041EA030100F10100704720F07F4C80EA77
:101C5000030023F07F47ACEB070303F57C5300F050
:101C6000004003F1FF032DE980494FEA154B09B409
:101C70004FEA144325EA0B4E24EA03480FF20426E8
:101C800006EB132749083E785FEA320203FB06673A
:101C9000C7F5000707FB06F64FEA54374FEAD6466A
:101CA00006F1020607FB066CCCF1005C4FEA1C470C
:101CB0002CEA074C07FB06F40CFB06F504EB154673
:101CC0004FEA961634BF00204FF000404FEAD1375C
:101CD00006FB07FC4FEA1C4C0CFB0BF7D21B03FB6B
:101CE0000CF761EB07010CFB0EF7B0EB074072EB52
:101CF00017420CFB08F734BFA2EB0742B2EB0742D6
:101D000061EB17414FEA0C444FEA910706FB07FCD1
:101D10004FEA1C4C0CFB0BF7B0EBC74072EB573291
:101D200003FB0CF734BFA2EBC742B2EBC74261EB37
:101D300057310CFB0EF7B0EBC70072EB57720CFB80
:101D400008F734BFA2EBC702B2EBC70261EB5771D1
:101D5000039F4FEA816141EA921104EBCC044FEA00
:101D6000D1374FEA826206FB07FC42EA90124FEA43
:101D700080604FEA1C4C0CFB0BF7D21B03FB0CF7EB
:101D800061EB07010CFB0EF7B0EB074072EB17425B
:101D90000CFB08F734BFA2EB0742B2EB074261EB42
:101DA00017414FEA8C554FEA910704EB9C2406FB40
:101DB00007FC4FEA1C4C0CFB0BF7B0EBC74072EB77
:101DC000573203FB0CF734BFA2EBC742B2EBC7425A
:101DD00061EB57310CFB0EF7B0EBC70072EB57729B
:101DE0000CFB08F734BFA2EBC702B2EBC70261EBF2
:101DF000577115EB4C254FEA816141EA92114FEA88
:101E000082624FEAD13742EA901206FB07FC44F1A6
:101E100000044FEA80604FEA1C4C0CFB0BF7D21B0E
:101E200003FB0CF761EB07010CFB0EF7B0EB07406F
:101E300072EB17420CFB08F734BFA2EB0742B2EB80
:101E4000074261EB174115EB1C154FEA813141EA5E
:101E500092414FEA823242EA90424FEA80304FEAA2
:101E60000C7644F1000448EA03434EEA0B484FF075
:101E7000000EB2EB080C71EB030724BF6246394633
:101E80004EEB0E0E4FF0000B0018524149414BEB48
:101E90000B0BB2EB080C71EB03077BF1000B24BFBB
:101EA000624639464EEB0E0E4FF0000B00185241C1
:101EB00049414BEB0B0BB2EB080C71EB03077BF1C9
:101EC000000B24BF624639464EEB0E0E51EA020764
:101ED00018BF46F0010616EB0E7655F1000254F1DC
:101EE000000103D5BDE88901BDE80088BDE889018E
:101EF000BDE80048B619524141EB0101A3F10103CD
:101F0000704780807F7E7D7C7B7A79787776767566
:101F10007473727171706F6E6E6D6C6C6B6A6A69DE
:101F20006868676666656464636362616160605F78
:101F30005F5E5E5D5D5C5C5B5B5A5A5959585857F1
:101F40005756565555555454535352525251515059
:101F500050504F4F4F4E4E4D4D4D4C4C4C4B4B4BAC
:101F60004A4A4A49494948484847474747464646F2
:101F7000454545444444444343434342424242412D
:101F80004141002B9C4630D477002BD01CB54FEA42
:101F9000370703B44FF010004FF01001BAF1000FF3
:101FA00006D0BCF1000FDCBF40F0080040F0080193
:101FB0004FF000000FBCBDE810400BF1010BBBF16E
:101FC000010F08BF5FEA170722BF12F1010211F1EA
:101FD00001014FF0004143F1000300F0004043EAEB
:101FE00000007047F9D35708D0E746EA064613F1D8
:101FF000400F4FEA16461FDD13F1200FDFBF1643D7
:102000000A46002120335B42BED0C3F1200746EAD6
:10201000064602FA07F74FEA164646EA0706C3F1F4
:10202000200722FA03F201FA07F721FA03F14FF031
:10203000000342EA0702A7E746EA020646EA064626
:102040004FEA164646EA0106BCBF46EA0646360C8B
:102050004FF000034FF000024FF0000194E72DE92C
:10206000804C9A46934670B491E8380007C831EA2C
:10207000400C48BF34EA430C03D5FFF7E6FDFFF7F9
:1020800080FFF0BCBDE8008C2DE9804C9A46934659
:1020900070B491E8380007C810F0804F08BF13F003
:1020A000804F03D100F005F8FFF76BFFF0BCBDE8EF
:1020B000008C20F07F4780EA030023F07F4C07EB81
:1020C0000C03A3F57C5300F00040A3F1FE0392F053
:1020D000000F00F0B38095F0000F00F077802DE93D
:1020E00001494FEA11404FEA144621EA004800FB3B
:1020F00006FC24EA064708FB06F607FB08F800FB87
:1021000007F718EB06484CEB164C4FEA124B18EB4E
:1021100007484FEA15464CEB174022EA0B4E0BFBE3
:1021200006FC25EA06470EFB06F607FB0EFE0BFB38
:1021300007F71EEB064E4CEB164C4FF000061EEB5D
:10214000074E4CEB174B18EB0B0840F1000018EB57
:102150000E0B58EB000840F100008F1A4FF0000101
:102160003CBFC943661B14BFB5EB040C00213CBF48
:10217000C943F61B4FEA17444EEA8E0E27EA044580
:102180004FEA1C4704FB07622CEA074C05FB07F7E4
:102190000CFB05F604FB0CFC16EB074642EB174262
:1021A00016EB0C4642EB1C421BEB060658EB0202F8
:1021B000414146EA9E0601D5BDE80189B619524162
:1021C00041EB0101A3F10103BDE801894FEA144588
:1021D0004FEA114724EA054621EA074C05FB07F4BC
:1021E00006FB07F70CFB06F105FB0CFC11EB0741A6
:1021F00044EB17444FEA124711EB0C4144EB1C44EB
:1022000022EA074C05FB07F206FB07F70CFB06F674
:1022100005FB0CFC16EB074642EB174216EB0C468F
:1022200042EB1C456A1854F1000148BF7047B619CB
:10223000524141EB0101A3F10103704795F0000FFA
:1022400037D04FEA11424FEA144721EA024624EA06
:10225000074C02FB07F106FB07F70CFB06F402FB39
:102260000CFC14EB074441EB17414FEA154714EB04
:102270000C4441EB1C4125EA074C02FB07F506FB29
:1022800007F70CFB06F602FB0CFC16EB074645EBCA
:10229000174516EB0C4645EB1C42121951F1000193
:1022A00048BF7047B619524141EB0101A3F1010348
:1022B00070474FEA14454FEA114724EA054621EAE0
:1022C000074C05FB07F106FB07F70CFB06F24FF086
:1022D000000605FB0CFC12EB074241EB174112EB29
:1022E0000C4251EB1C4148BF7047921841EB010171
:1022F000A3F101037047000010B50FF0DFFB07F0FA
:102300000BFE0B4C206858B115480AA111F080FC57
:102310002068816A88472068016B2046884703E06F
:102320000F4810A111F074FCBDE810400FF0BEBBC7
:10233000D006002440537563636573733A4174207B
:102340006F626A65637420616C6C6F636174696F3E
:102350006E207375636365656465642E0D0A000005
:10236000140D0024404572726F723A4174206F62FE
:102370006A65637420616C6C6F636174696F6E2051
:102380006661696C6564210D0A0000002DE9F84F53
:1023900006000D464FF000084FF0010A346A18BFDE
:1023A000002D69D0002C18BF4FF0000B64D02046E0
:1023B0000EF034F92868FEF738FB82B22B89F069F9
:1023C000296807F044FB03F0E3FC0746D4F800015A
:1023D000002808BF6FEA07091DD100BF03F0D8FC31
:1023E000B84207D203F0D4FCB1684844098981425D
:1023F00008D20CE003F0CCFC0146B068C91B008990
:10240000884204D3D4F800010028E7D003E0D4F8D0
:10241000000100281AD004F800B069682046FEF7D1
:10242000CEFA30B1204816A12A68234611F0F0FBFD
:1024300022E0686808F10101009001F0FF081A48E5
:102440001AA12A68234611F0E3FB08E008F1010015
:10245000224600F0FF08144821A111F0D9FBB8F181
:10246000030F06D3104828A14FF0000A11F0D0FB4B
:1024700002E0BAF1000F9AD15046BDE8F88F000093
:10248000436F6D6D616E643A257373656E7420736E
:1024900075636365737366756C6C792C52656369DB
:1024A00076653A2573000000140D002453656E64B0
:1024B0003A2573526573706F6E736520696E73741D
:1024C00072756374696F6E3A257320616E6420259E
:1024D00073206D69736D617463682E0D0A000000CE
:1024E0004174206D6F64756C6520646F6573206E38
:1024F0006F7420726573706F6E6421646174613AE9
:1025000025732E0D0A000000404572726F723A5218
:10251000657472616E736D697373696F6E2065782F
:10252000636565647320746865206D6178696D7595
:102530006D206E756D626572206F662074696D65C1
:1025400073210D0A00000000002808BF704770B515
:1025500085680446002D1ABFE069002870BD207907
:1025600000EB400005EB8000A84298BF70BD2946F3
:102570002046E26A9047A1680028207907D000EB46
:1025800040000C3501EB8000A842F0D870BD00EB94
:1025900040006FF00B0202EB80000D18144804A1FC
:1025A00011F036FBE26A29462046BDE8704010472C
:1025B000404572726F723A4D6F64756C6520636F3F
:1025C0006E66696775726174696F6E206661696CA9
:1025D00065642E4D6F64756C652069732072657338
:1025E00074617274696E672E2E2E0D0A0000000051
:1025F000140D002400291ABF086800287047898834
:1026000003F0BABBFEE700002D4D82B004464FF048
:10261000FF31286E0FF0E2F9DFF8A8A00027DFF8FD
:10262000A8804FF0020BDFF8A490294E4FF0FF3145
:10263000286E0FF0D3F90028F8D1002CF6D09AF8C4
:10264000000010F0100F09D02B4822A112F078FAE8
:1026500060691021D0F800210DF04EFE84F810B012
:1026600000976069D0F80011012904BF00780D2897
:1026700006D0D8F800004FF06401026B9047D5E710
:102680001E491D4811F0C4FAD9F8000010B10269C2
:1026900011219047306845F6A5210090B1EB104F0D
:1026A0000CBF17481748009012F08AFB04226946B5
:1026B000304601F05FFB12F0A3FB10F08FF8B5E796
:1026C000D806002440030024440400240800002409
:1026D00000001C08344720726563656976656420D4
:1026E00061207061636B6574206F66206461746142
:1026F000202E0D0A00000000140D002440AF060833
:1027000034125AA53412A55A002070470020704791
:1027100010B5084C002204F20C41A1F58060C4E918
:10272000001005480BF0B3F9034861680BF0A2F9FB
:10273000002010BD6029002484240024064A054896
:1027400010B5096891600068002818BF0FF01CF9E7
:10275000002010BD4007002460290024002070479D
:102760002DE9F04F054608788846B7B0696BD5E982
:102770000B7B01EB0011686C0A78017AA2F5845298
:10278000002902F0FF0A08BF552004D0C079491E75
:1027900041EA0020000100213291C4B2894602A81A
:1027A000339134913591C021FEF74AFA98F8001020
:1027B0005246686B00EB0110BEA10368C64811F0D9
:1027C00027FA5146384601F041FC5FEA000818D06C
:1027D000B8F806201AB1C048C0A111F019FAB8F82B
:1027E00006006A46010A41EA0020ADF80000D5F86B
:1027F00008C0022341F290012846E047E9693220EF
:102800008847002F1EBFB8890028BAF1100F24BFD7
:1028100037B0BDE8F08FB8F1000F0ED0402C08BFE4
:10282000E024302C4FF6FF7A02AF4DD013DCBCB160
:10283000102C27D0202C36D075E0B4A140F2B22263
:10284000B7A0BAA3CDE90001BB49A34811F0E0F954
:1028500037B0BDE8F08FE02C18BFF02C63D144E016
:10286000B8F8060042F250023B460AEA0011DBF8D3
:10287000180052F800C04FF01002E047814641F2C4
:102880000E0650E0B8F8060042F260023B460AEA43
:102890000011DBF8180052F800C01022E047814612
:1028A0004FF481563FE0B8F806004FF401523B4622
:1028B0000AEAC001DBF8180052F800C00822E0471D
:1028C000814641F205062EE0B8F8060042F23002D9
:1028D0003B460AEAC001DBF8180052F800C00822A3
:1028E000E047814641F2060632E0B8F806004FF4B0
:1028F000015140223B460AEA8016DBF8180051F8E5
:1029000000C03146E047DBF8180042F230020421F3
:1029100001EB560107F1400352F800C02022E047C6
:10292000814641F2D006552C32D0002C08BF06213A
:102930000FD0102C08BF07210BD0202C08BF04217A
:1029400007D0302C04D0F02C94BF0F21082100E0D8
:1029500005212A6928469047E96932208847002CDA
:1029600008BF06220FD0102C08BF07220BD0202C46
:1029700008BF042207D0302C08BF052203D0F02C5A
:102980008CBF08220F22234653486CA111F040F956
:10299000B9F1010F06D0504870A111F039F937B0E4
:1029A000BDE8F08F302C0AD02FDC002C14BF102C87
:1029B00000246BD0202C1CBF37B0BDE8F08F791EEF
:1029C00000200422BDF8C8304C7800F1010C04F05E
:1029D000010484402343ADF8C83011F8024F521E61
:1029E00004F0010412F0FF0204FA0CFC00F10200F2
:1029F00043EA0C03ADF8C830E4D198B2022332AAFE
:102A00000AEA0020ADF8C8004CE0E02C13BFF02C1F
:102A100000200DF1C80837B018BFBDE8F08F00BF27
:102A200007EB00134FF0000208EB40014FF00804E1
:102A3000A3F1010302F10109B1F800C0A4F10104FE
:102A400093F801A014F0FF040AF0010A0AFA02FA4E
:102A50004CEA0A0CA1F800C013F802AF02F102021E
:102A60000AF0010A0AFA09F94CEA090CA1F800C0B7
:102A7000E0D11FFA8CF2401C130AC0B2082843EAC6
:102A800002220A80CCD3102342460BE0042200210C
:102A900007EB840001F09CF8601CC4B2082CF5D34D
:102AA000202302AAD5F808C031462846E04737B0AF
:102AB000BDE8F08F636172645F73697465203D20C7
:102AC00025642C20636172645F61646472203D2020
:102AD000307825782E0D0A00140D002454686520E6
:102AE0006E756D626572206F6620626F61726473CD
:102AF000206F662063757272656E742074797065DC
:102B00002069733A25642E0D0A0000002E2E5C44C5
:102B100077696E5C5372635C6477696E2E63000044
:102B200032313A32393A3131000000004D617220C1
:102B300033302032303233008C72070870616765A1
:102B4000203D2025642C20636172645F636F64659F
:102B5000203D20307825782E0D0A00004572726FD6
:102B6000723A204D6F646275732072656769737481
:102B700065722072656164206661696C6564210D0F
:102B80000A0000002DED0A8B00219EB0DFEDFE9AB9
:102B9000F0EE00BAB6EE00CAB0EE08BAB1EE009A96
:102BA00000F1100B044600F10C098DF8181000F12B
:102BB0001C0A8DF808109FEDF58A0025F44E0E953D
:102BC00042F250010F950E221095A846119523460A
:102BD00012951395149515953068806951F800C0C9
:102BE0000021E047D8B100200790304642F2300182
:102BF000022207AB0068806951F800C02121E0473C
:102C0000C8B15445254616AF04F11C0680F0458135
:102C1000281BB8F1000FC0F3870044D11BE0DD484A
:102C2000007810F0010F00F0DD82E448DAA110F026
:102C3000EFFF00F0D7BAD748007810F0010F00F08E
:102C4000BC829DF81D30DEA19DF81C20DB4810F0F1
:102C5000DFFF00F0B2BA052825D000F00101491EBF
:102C6000014220D195ED000AB5EEC00AF1EE10FA4E
:102C70009CBF00EB400000F1020814D910EE101ABE
:102C8000B1F1814FBCBF00EB400000F103080ADB4B
:102C900010EE101AD64A8A42BABF00EB400000F18B
:102CA00004084FF000084D4511D2D5ED000AD6EDCD
:102CB000001A96ED010A30EEC91A083671EEC00A04
:102CC00021EE081A01EE200A85ED000ADCE05D45E0
:102CD0000ED1D5ED000A94ED070AD4ED088A30EE46
:102CE000C91A70EE680A21EE080A40EE208AC7E091
:102CF0004D457DD195ED001AD4ED0D0A94ED0E0AE7
:102D000031EE491A70EEC00A21EE081A01EE200ACF
:102D1000F0EE000A0CF016FFD5ED000A94ED201A33
:102D2000D4ED0D1A70EEC92AD4ED0E0A21EE2B2A2D
:102D3000F0EE40AA22EE881A71EEE01ABFEE000A09
:102D400041EE210A52EE20AAF1EEEA8A0CF0AEFC26
:102D5000B0EE40AA94ED200AF0EE000A0CF0F2FE6C
:102D60002AEE000AF4EE688AF1EE10FA20EE0CAAC0
:102D700005D0B0EE6A0A0DF011FAF0EE408AD5EDFA
:102D8000001A94ED0D1AD4ED0E0A71EEC91A94EDE5
:102D9000200A31EE601A61EE881A41EE810A70EE67
:102DA000600A00EEE8AAF0EE000A0CF0CBFEF0EEAE
:102DB000408A95ED000A94ED0D1AD4ED200A70EECC
:102DC000491A94ED0E0A61EE881A31EE401A01EEAE
:102DD000810A30EEC01A81EE200A0CF0F9FC08EEF0
:102DE000C0AAD4ED210ABFEE000A6AEE208A00E0F4
:102DF00038E00CF05BFCD4ED1F0A20EE201A94EDB5
:102E0000200AC1EE0B0A60EE80AAF0EE080A0CF070
:102E100099FEB0EE40AA94ED200AF0EE000A0CF004
:102E200091FEB0EE401A95ED000AD4ED0D0A21EEA8
:102E30000B2A70EE491A94ED0E0A21EE881A70EEF4
:102E4000C00A01EE200AD4ED200A12EE00AA30EEEC
:102E5000C00AF0EE080A0CF075FE3AEE000A4AEEDF
:102E6000808A0DE095ED000A94ED0F1AD4ED108ADA
:102E700070EE490A31EE680A60EE880A40EE808AF8
:102E8000C5ED008AB0EE680A89FE800AA5EC010A49
:102E90005545A7EC010AFFF4BBAE3D4F42F2580185
:102EA0000E2223463868806951F800C04FF48071C3
:102EB000E047C4F88C809DF81C0000281DBFD4EDAD
:102EC000048A0020C4F88C00D4ED008A9DF81D000F
:102ED00000281DBF94ED02AA0020C4F88C0094EDD8
:102EE00001AA002343480A2216A9C06B12F0DEFC97
:102EF000012808D02748007810F0010F03D02F4890
:102F00003DA110F085FE00260DF1380835463868E1
:102F100042F23C0102AA80690B58294698479DF865
:102F2000081008EB0502002806EB01001171C6B27B
:102F300078D0681CC5B20C2DE9D3386842F22C0158
:102F400006AA80690B5820219847D8B19DF818002F
:102F5000012868D094ED1D0AB4EEE80AF1EE10FAEB
:102F60000BDA94ED030AD4ED1E0AB4EEE00AF1EE9A
:102F700010FA02D9D4F88C0028B100200E900F90DE
:102F8000109051E062E07BE0000000000000803D16
:102F900044040024400300244661696C6564207485
:102FA0006F207265616420696E7075742072656748
:102FB0006973746572210D0A00000000140D00246D
:102FC000656E61626C655F736174655B305D203D49
:102FD00020307825642C656E61626C655F73617466
:102FE000655B315D203D20307825640D0A000000CE
:102FF0000000A841D80600244572726F723A20463C
:1030000061696C656420746F2073656E64207573EC
:10301000657220706172616D6574657273210D0A4D
:103020000000000006E01EE0119012901390149032
:103030001590C2E06E48007810F0010F47D0734839
:1030400000226CA1334610F0E3FDB6E0684800783A
:1030500010F0010F3BD09DF8183000226B486CA196
:1030600010F0D6FDA9E06248007810F0010F03D0FF
:1030700066486DA110F0CCFD0020C4F88C00B1E0D2
:103080009EB394ED160AB4EECA0AF1EE10FA3CBFF4
:1030900001208DF83B0094ED130AB4EEE80AF1EE3E
:1030A00010FA03D86F49012008700DE094ED140A5E
:1030B000B4EEE80AF1EE10FA03DB6A49002008706A
:1030C00006E06848007818B101208DF8380074E0F7
:1030D00094ED150AB4EECA0AF1EE10FA06D80120F2
:1030E0008DF839008DF83B0011E019E094ED160AD7
:1030F000B4EECA0AF1EE10FA09DB94ED120AB4EE4E
:10310000E80AF1EE10FA3CBF01208DF8380055486E
:10311000417800291CBF002141708178E9B344E067
:103120005048017800291CBF0021017094ED170A56
:10313000B4EECA0AF1EE10FA09D294ED180AB4EE10
:10314000E80AF1EE10FAC4BF01218DF8381094EDB1
:10315000190AB4EECA0AF1EE10FA9CBF01214170BF
:103160000BD994ED1A0AB4EECA0AF1EE10FAA4BF14
:103170000021417006DA417821B101218DF83B1020
:103180008DF83C1094ED1B0AB4EEE80AF1EE10FA4B
:103190009CBF012181700DD900E00EE094ED1C0A66
:1031A000B4EEE80AF1EE10FA02DB0021817004E0CF
:1031B000807810B101208DF83A002B4842F2380196
:1031C00020220EAB0068806951F800C00021E04762
:1031D00040B90748007810F0010F03D00B4823A135
:1031E00010F016FD4FF448700EF076FBE5E4000099
:1031F000400300240D0A626974780976616C0D0A37
:103200002564092523780D0A00000000140D002410
:103210000D0A6D6F64656C0976616C0D0A25640991
:103220002523780D0A000000404E6F74653A204D4A
:10323000616E75616C206D6F64652073746172746A
:1032400075702C206175746F6D61746963206D6198
:103250006E6167656D656E74206661696C75726517
:10326000210D0A00DE0600244404002477726974EC
:1032700065206661696C6564210D0A00014801F0F2
:1032800009BA000058220024014801F003BA0000E6
:10329000881F0024014801F0FDB9000048230024E4
:1032A000014801F0F7B90000C0230024014801F0F3
:1032B000F1B9000000200024014801F0EBB9000042
:1032C000D0220024014801F0E5B900007820002454
:1032D000014801F0DFB90000F0200024014801F0AE
:1032E000D9B9000068210024014801F0D3B90000D9
:1032F000E0210024244A016891421CBF234A9142E4
:103300002CD0234A91421CBF224A914226D0224A05
:1033100091421CBF214A914220D0214A91421CBFB8
:10332000204A91421AD0204A91421CBF1F4A914222
:1033300014D01F4A91421CBF1E4A91420ED01E4A11
:1033400091421CBF1D4A914208D01D4A91421FBFA5
:103350001C4A914221F0FF01816512D11A4ACBB279
:10336000A3F110036FF30901A2FB03324FEA12121B
:10337000032A02F00703154AD25CC26588BF091D03
:103380008165084670470000100002402800024096
:103390004000024058000240700002408800024095
:1033A000A0000240B800024010040240280402407D
:1033B0004004024058040240700402408804024065
:1033C000A0040240B8040240ABAAAAAACC6F070826
:1033D00010B5044600680068C16911F0100F08BFFD
:1033E00010BD10210162002C1FBFA068002860687A
:1033F000002808BF10BD206805F040FD20690028A6
:1034000030D061681D4A096891421CBF1C4A914234
:1034100023D01C4A91421CBF1B4A91421DD01B4A1B
:1034200091421CBF1A4A914217D01A4A91421CBFBE
:10343000194A914211D0194A91421CBF184A91422F
:103440000BD0184A91421CBF174A914205D0174A27
:1034500091421EBF164A9142164A4968227BA2EB4E
:10346000010101606069002818BF0EF08DFA227B0F
:10347000A1682068BDE8104006F02ABA100002409A
:103480002800024040000240580002407000024004
:1034900088000240A0000240B80002401004024030
:1034A00028040240400402405804024070040240D4
:1034B00088040240A00402402DE9F04F734ED0F87A
:1034C00000C0734FDFF8CC81B445DFF8CC91DFF852
:1034D000CCA1846DDFF8C8B1724D18BFBC454DD08A
:1034E000C44518BFCC4549D0D44518BFDC4545D0AC
:1034F000DFF8B4E1F44518BFAC453FD0DFF8ACE1EC
:10350000F4451CBFDFF8A8E1F44537D0DFF8A4E1AB
:10351000F4451CBFDFF8A0E1F4452FD0DFF89CE1B3
:10352000F4451CBFDFF898E1F44527D0DFF894E1BB
:10353000F4451CBFDFF890E1F4451FD0DFF88CE1C3
:10354000F4451CBFDFF888E1F44517D0DFF884E1CB
:10355000F4451CBFDFF880E1F4450FD0DFF87CE1D3
:10356000F4451CBFDFF878E1F44507D0DFF874E1DB
:10357000F4451CBFDFF870E1F4450CD1D0E919CE59
:10358000CCF804E0D0F86CC0BCF1000F1CBFD0E94F
:103590001CCECCF804E0D0F800C0B44518BFBC4540
:1035A00024D0C44518BFCC4520D0D44518BFDC4535
:1035B0001CD03D4EB44518BFAC4517D03B4DAC4573
:1035C0001CBF3B4DAC4511D03A4DAC451CBF3A4DEC
:1035D000AC450BD0394DAC451CBF394DAC4505D081
:1035E000384DAC451CBF384DAC4524D190F85C50EB
:1035F0004FF03F0C05F01F050CFA05FCC4F808C09D
:10360000D0F800C0DCF8004024F48024CCF800405E
:10361000D0F800C0CCF804308368402B05D1036893
:103620009A600068C160BDE8F08F03689960006827
:10363000C260BDE8F08F254DAC451CBF244DAC45A4
:1036400012D0244DAC451CBF234DAC450CD0234DAE
:10365000AC451CBF224DAC4506D0224DAC451EBF2B
:10366000214DAC45BDE8F08F90F85C504FF0010C57
:1036700005F01F050CFA05FCC4F804C0D0F800C022
:10368000CCF804308368402BCFD1C8E7100002404B
:1036900028000240400002405800024070000240F2
:1036A00088000240B8000240A0000240100402401E
:1036B00028040240400402405804024070040240C2
:1036C00088040240A0040240B80402400854025892
:1036D0001C5402583054025844540258585402584A
:1036E0006C54025880540258945402587047000099
:1036F00030B50446154601294FF0000083B0616BD8
:103700003CD0042202EB051211444FF4807391ED7A
:10371000000A24A18DED000AB7EEC01A01900290B4
:10372000ADF80430284853EC112B10F071FA042244
:103730006846002100F04CFA606B0423D4F808C0FE
:103740006A4600EB0510008881B22046E047E16937
:103750003220884722691E2120469047E1693220A5
:10376000884700980623CDF8060001AAD4F808C0BF
:1037700041F2D6012046E04703B030BD082202EBFB
:103780000512114491ED000A10A18DED000AB7EE6B
:10379000C00A019002900C4853EC102B10F038FA3C
:1037A000C5E700004572726F723A2041626F76651C
:1037B000207570706572206C696D697420252E33D8
:1037C000662E0D0A00000000140D00244572726F71
:1037D000723A2042656C6F77206C6F776572206C4F
:1037E000696D697420252E33662E0D0A00000000D5
:1037F000F0B50446406C0E4683B0817902293CBF87
:10380000B0F8070040BA06D3D0F80710807A09BA9A
:1038100021F0FF01084300EE100AF2EE040A43A172
:10382000B8EEC01A81EE200A8DED010AB7EEC00A8B
:103830003078A56A0090444805F11C0753EC102B22
:1038400010F0E6F930780823616B0422DDED010AFF
:1038500003EB00130B4493ED000AB4EEE00AF1EE23
:1038600010FA24D802EB00130B4493ED001AF4EE87
:10387000C10AF1EE10FA1AD8002F1CBF218F88421E
:103880003CBF07EB8000C0ED000A0422002101A824
:1038900000F09EF930780423616B01AAD4F808C0C7
:1038A00001EB0010008881B22046E04716E0B4EE3C
:1038B000E00AF1EE10FAC8BF012305DC02EB0012AA
:1038C0001144022391ED000A07EB8000194680EDB8
:1038D000000AD4F818C020463278E0471B4842F26C
:1038E00068013A2205F11C030068806951F800C0A4
:1038F0001021E04718B9144815A110F089F911F00A
:103900005FFA4FF484714FF6FF7205F11C0000F06E
:10391000B3FBC5F824014FF48672184805F11C0169
:1039200000F028FA11F06CFA03B0F0BD6461746124
:10393000203D20252E33662C202A70736974652063
:103940003D2025642E0D0A00140D0024440400249B
:10395000506172616D65746572207772697465205B
:10396000746F20686F6C6420726567697374657228
:10397000206661696C6564210D0A000000001E0864
:1039800010A230B484B0D2E90045D2F808C00B0AC6
:10399000CDF808C000228DF808308DF80910CDE967
:1039A0000045C284016A009A0A60019A4A60BDF823
:1039B00008200A81C18C0A31C184416804B030BC3E
:1039C000084700005AA5098200845A01000000003F
:1039D000F8B50446406C002601785A2904BF4178A6
:1039E000A52938D1E26C81884DBA1168052938BF04
:1039F000F8BD491F4FF6FF7289B2C01C00F03CFBB6
:103A0000E36C020A616C42EA002080B21B68194430
:103A100031F8021C49BA81421DD18DF80060228F15
:103A2000002A88BF616B16D99DF8000001EB0013D6
:103A30001B68AB4209D1C2B20C2000EB02100A583D
:103A40004AB169462046904705E0401CC0B28DF857
:103A500000008242E8D8E06C0168606CFDF7CEF8A7
:103A6000E06C0660F8BD00000EA34DF8044D83B075
:103A7000D3E900C30C0A0021CDE900C38DF804404E
:103A80008DF80520C184016A009A0A60BDF80420FF
:103A90008A80C18C891DC184416803B05DF8044BE4
:103AA000084700005AA506830000000038B5C18C05
:103AB0000446006A4FF6FF72C91E89B2C01C00F0AE
:103AC000DBFAADF80000E28C206ABDF8001010446B
:103AD0000180E08C801C82B2E284216AE06B06F0F7
:103AE00019F8E06B0068C16911F0400FFBD038BDD8
:103AF000F0B516A61D461346044683B0D6E9002647
:103B00004FEA112C681D0027CDE900268DF804C06E
:103B10002A468DF802008DF80510E784206A009986
:103B20000160BDF804108180E08C801D80B2E084CB
:103B3000216A08441946FCF7E2FFE08C2844E0843F
:103B4000616803B02046BDE8F04008475AA50082EE
:103B500000000000012001F0DFBF4FF4806010B5CD
:103B600001F0DAFF4FF4006001F0D6FF4FF480500F
:103B700001F0D2FF4FF4005001F0CEFF4FF480402F
:103B800001F0CAFFBDE810404FF4004001F0C4BF8F
:103B9000022001F0C1BF042001F0BEBF082001F0E7
:103BA000BBBF102001F0B8BF202010B501F0B4FF5A
:103BB000402001F0B1FF802001F0AEFF4FF4807093
:103BC00001F0AAFFBDE810404FF4007001F0A4BF5F
:103BD0008B18A3F1010370B4520803F0FF0C19BF56
:103BE0000144002370BC7047ACEB03040D78521EF7
:103BF00003F10103065D01F8016B0555F4D170BCBA
:103C0000704772B6FEE70000164B4FF0840C11F0BF
:103C1000010F4CEA00204DF8044D0DD0D3F80CC034
:103C20002CF4E66CC3F80CC0D3F80CC04CEA020CC0
:103C30004CEA000CC3F80CC011F0020F04BF5DF891
:103C4000044B7047D3F80C1121F4E661C3F80C1152
:103C5000D3F80C1111430843C3F80C015DF8044B71
:103C6000704700000020005201F0B0BD0A448A42B3
:103C700006D900BF50F8013B01F8013B8A42F9D850
:103C8000012070472DE9F04704250F46064602F053
:103C90007FF8022F804608BF304DDFF8C490314CCA
:103CA00015EA090A07D0D4F8100125EA000030F01F
:103CB000004004D017E0206935EA000013D1B6F1C6
:103CC000FF3F06D002F064F8A0EB0800B04229D80C
:103CD00046B3BAF1000F28D0D4F8100125EA00004D
:103CE00030F00040EBD0012F07BF1F4821691F486B
:103CF000D4F8101101EA000018BF40F0004030F085
:103D0000004117D01A498A6910EA090F42EA0002F5
:103D10008A610EBF606120F00040C4F814010120E8
:103D2000BDE8F0870320BDE8F087206935EA000090
:103D3000C5D0D8E7012F4FF4803009D0D4F8101146
:103D400011F4803F18BFC4F814010020BDE8F087CB
:103D5000216911F4803F18BF6061F6E7040000801C
:103D6000F0FF10E0002000520000EE170000EE9778
:103D7000983600242DE9F04300240546A0F10060A8
:103D80001746B0F5003F0E4687B05ED3A5F100613F
:103D9000A1F50031B1F5003F27D3A1F50031B1F510
:103DA000003F2BD3A1F50031B1F5003F2FD3A1F592
:103DB0000031B1F5003F33D3A1F50031B1F5003F3B
:103DC00037D3A1F50031B1F5003F3BD3A1F5003168
:103DD000B1F5003F38D3A5F10161B1F5003F34D30F
:103DE000A1F50031B1F5003F01D201242DE0A5F18C
:103DF0000061A1F5A011B1F5003F01D2022424E039
:103E0000A5F10061A1F5B011B1F5003F01D2032485
:103E10001BE0A5F10061A1F5C011B1F5003F01D291
:103E2000042412E0A5F10061A1F5D011B1F5003F25
:103E300001D2052409E0A5F10061A1F5E011B1F579
:103E4000003F01D2062400E007244FF00008B0F53F
:103E5000001FCDF8008006D8002F18BF002E02D01A
:103E600015F01F0F04D007B04FF00000BDE8F0833D
:103E700072B601F0F5FD234A20204FF00109CDF87C
:103E8000048003944FF48E01CDE904905161B5F1A3
:103E9000016F4FF002040ED201A86946CDF80890D8
:103EA00001F09AFB08BBCDE9019401A8694601F035
:103EB00093FBD0B905E001A86946029401F08CFBA0
:103EC00098B93446EE19AE4214D90120224629464B
:103ED00001F064FD10B14AF25A5005E029682068EB
:103EE000814203D045F6A520009003E02034203520
:103EF000AE42EAD801F036FD62B6009807B0BDE8E0
:103F0000F0830000002000522DE9F001D1E90832D1
:103F1000D1F81CC00C68F4B104684CEA030324F423
:103F2000F84422431A430260D1E9012CD1E9034548
:103F30004B6942EA0C0C42682C4389694CEA040C38
:103F40004CEA030319436FF30E0211434160BDE8CD
:103F5000F001002070470C1DD1E9056194E8B00123
:103F60002C4347EA08052C4334430C43016844EAD8
:103F70000C0C4CEA03031A436FF30E01114301606A
:103F8000E5E700002DE9F00FB1F814C0002A2D4C30
:103F90004FF07F46CB6804EB0C526FF0FF046FF0DC
:103FA0000F0C4FEA042527D087681B03A3F5805325
:103FB00027F470471A4327F470073A438260D1E927
:103FC00000278B680CEB071C571E0A8A097E04EB3E
:103FD0000323C46847EA0C0C05EB02424CEA0303D6
:103FE0001A4306EB0161114304F070431943C160A9
:103FF000BDE8F00F00207047D1E90087D1F80890A4
:10400000DFF844A0B1F810B00CEB071C097EA8F152
:10401000010704EB092447EA0C0C0AEB03334CEAD2
:10402000040C4CEA030C836805EB0B444CEA040CCB
:1040300006EB01614CEA0202114303F0704319439D
:104040008160D5E70000F0FF00F0FFFF8289806803
:1040500000EBC202824206D903788B4208BF704748
:1040600008308242F8D8002070470068002808BF56
:10407000704710F0DBBE00000029034610464FF0E9
:10408000000C30B48EBF4AF2010430BC704700BF50
:1040900013F8015B0422684010F0010F14BF84EA9A
:1040A0005000400810F0010F14BF84EA500040088F
:1040B000521EF1D10CF101021FFA82FC8C45E7D3AC
:1040C00030BC70472DE9F05F044601F061FE002C22
:1040D000834604BF0120BDE8F09F94F83500022814
:1040E00007D080216165002084F834000120BDE8FC
:1040F000F09FB4492068B44DB44E8842B44FDFF805
:10410000D482DFF8D49218BFA84225D0B04218BF9D
:10411000B84221D0404518BF48451DD0AF4A904213
:104120001CBFAF4A904217D0AE4A90421CBFAE4A65
:10413000904211D0AD4A90421CBFAD4A90420BD084
:10414000AC4A90421CBFAC4A904205D0AB4A904268
:104150001CBFAB4A904209D1026822F01E020260E5
:104160002068426922F08002426103E0026822F086
:104170000E020260D4F800A08A45504618BFA8423B
:104180003DD0B04218BFB84239D0404518BF48456D
:1041900035D0924A90421CBF914A90422FD0914A0A
:1041A00090421CBF904A904229D0904A90421CBF36
:1041B0008F4A904223D08F4A90421CBF8E4A904231
:1041C0001DD08E4A90421CBF8D4A904217D08D4A16
:1041D00090421CBF8C4A904211D08C4A90421CBF26
:1041E0008B4A90420BD08B4A90421CBF8A4A904225
:1041F00005D08A4A90421CBF894A924504D1206E5C
:10420000026822F4807202606E492068884218BFFA
:10421000A8421FD0B04218BFB8421BD0404518BFBB
:10422000484517D06D4988421CBF6D49884211D05E
:104230006C4988421CBF6C4988420BD06B4988424C
:104240001CBF6B49884205D06A4988421EBF6A4933
:1042500088426A49016821F001010160DAF8000032
:1042600010F0010F16D000BF01F092FDA0EB0B0083
:1042700005280AD9202262650321002084F8351020
:1042800084F834000120BDE8F09FDAF8000010F057
:10429000010FE9D14B4901222068884218BFA8428A
:1042A00025D0B04218BFB84221D0404518BF48457C
:1042B0001DD04A4B98421CBF494B984217D0494BDE
:1042C00098421CBF484B984211D0484B98421CBFA3
:1042D000474B98420BD0474B98421CBF464B9842E5
:1042E00005D0464B98421CBF454B98420AD194F8E2
:1042F0005C304FF03F0CA06D03F01F030CFA03F38A
:10430000836007E094F85C30A06D03F01F0302FAAD
:1043100003F343602068884218BFA8423DD0B042F2
:1043200018BFB84239D0404518BF484535D02B4951
:1043300088421CBF2A4988422FD02A4988421CBF84
:104340002949884229D0294988421CBF28498842E6
:1043500023D0284988421CBF274988421DD02749BD
:1043600088421CBF2649884217D0264988421CBF74
:104370002549884211D0254988421CBF24498842DA
:104380000BD0244988421CBF2349884205D02349C9
:1043900088421CBF224988420BD1D4E919014160EF
:1043A000E06E30B1016821F480710160D4E91C0134
:1043B00041604FF0000084F8352084F83400BDE8F7
:1043C000F09F000010000240280002404000024020
:1043D000580002407000024088000240A0000240E5
:1043E000B800024010040240280402404004024089
:1043F000580402407004024088040240A0040240B5
:10440000B8040240085402581C5402583054025850
:1044100044540258585402586C540258805402585C
:1044200094540258002804BF0120704790F83510BA
:10443000022903D080214165012070472DE9F05FFA
:10444000DFF8ECB101687B4A7B4B5945DFF8ECC1E2
:104450007B4C7C4D7C4E7D4FDFF8F481DFF8F4918E
:10446000DFF8F4A118BF914225D0994218BF6145E9
:1044700021D0A14218BFA9421DD0B1421CBFDFF814
:10448000DCE1714517D0DFF8D8E1714518BFB942BA
:1044900011D0DFF8D0E171451CBFDFF8CCE17145E8
:1044A00009D0DFF8C8E1714518BF414503D049453F
:1044B00018BF514524D14FF0040E80F835E059451E
:1044C00018BF914217D0994218BF614513D0A1423D
:1044D00018BFA9420FD0B1421CBF604881420AD028
:1044E0005F48814218BFB94205D05E4881421EBF75
:1044F0005D4881425D48086820F00100086094E052
:10450000D1F800E0DFF828B12EF00E0EC1F800E07F
:104510000168594518BF91421CD0994218BF6145A6
:1045200018D0A14218BFA94214D0B1421CBFDFF875
:104530002CB159450ED0DFF828B1594518BFB94202
:1045400008D0DFF820B159451EBFDFF81CB159452E
:10455000DFF818B1D1F800B02BF0010BC1F800B0B2
:10456000DFF8CCE04FF0010B0168714518BF9142B4
:1045700038D0994218BF614534D0A14218BFA94232
:1045800030D0B1421CBF354A91422BD0344A9142BF
:1045900018BFB94226D0334A91421CBF324A9142D9
:1045A00020D0324A914218BF41451BD0494518BF1F
:1045B000514517D02E4A91421CBF2E4A914211D02C
:1045C0002D4A91421CBF2D4A91420BD02C4A914258
:1045D0001CBF2C4A914205D02B4A91421CBF2B4A4A
:1045E000914218D1016E0A6822F480720A6090F834
:1045F0005C20816D02F01F020BFA02F24A60D0E9E2
:1046000019124A60C16E31B10A6822F480720A60E0
:10461000D0E91C124A604FF00002016D80F835B0FD
:10462000002980F8342018BF88470020BDE8F09F9B
:1046300010000240280002404000024058000240A2
:104640007000024088000240A0000240280402409E
:1046500088040240A0040240B8040240B8000240AE
:10466000100402404004024058040240700402401A
:10467000085402581C5402583054025844540258EA
:10468000585402586C54025880540258945402589A
:10469000406D70472DE9F84F0446DFF80084002094
:1046A000DFF8009400904FF41652FD48A56DFE4EC1
:1046B000FE4F01682068B1FBF2FBD5F800A0404531
:1046C00029681CBFF74A90422BD0B04218BFB842AD
:1046D00027D0F74A90421CBFF64A904221D0F64AB2
:1046E00090421CBFF54A90421BD0F54A90421CBF35
:1046F000F44A904215D0F44A90421CBFF34A9042CB
:104700000FD0F34B98421CBFDFF8C8C3604508D0F8
:10471000DFF8C4E370451CBFDFF8C0E3704540F02C
:10472000308294F85C204FF0080102F01F0201FA79
:1047300002F212EA0A0F41D0404518BF48452AD07C
:10474000B04218BFB84226D0D94A90421CBFD94ABD
:10475000904220D0D84A90421CBFD84A90421AD0EA
:10476000D74A90421CBFD74A904214D0D64A9042B2
:104770001CBFD64A90420ED0D54A90421CBFD54AA3
:10478000904208D0D44A90421FBFD44A9042026857
:1047900002F0080202D1026802F0040272B102685B
:1047A00022F00402026094F85C0000F01F0001FA9D
:1047B00000F0A860606D40F00100606594F85C0056
:1047C00000F01F014FF0010000FA01F111EA0A0F99
:1047D00036D02068404518BF484528D0B04218BFA1
:1047E000B84224D0B24A90421CBFB24A90421ED076
:1047F000B14A90421CBFB14A904218D0B04A904290
:104800001CBFB04A904212D0AF4A90421CBFAF4A80
:1048100090420CD0AE4A90421CBFAE4A904206D0A5
:10482000AD4A90421EBFAD4A9042006808D140692F
:1048300010F0800F04D0A960606D40F00200606548
:1048400094F85C0000F01F014FF0040000FA01F141
:1048500011EA0A0F36D02068404518BF484528D0D5
:10486000B04218BFB84224D0914A90421CBF914A2E
:1048700090421ED0904A90421CBF904A904218D05D
:104880008F4A90421CBF8F4A904212D08E4A90426B
:104890001CBF8E4A90420CD08D4A90421CBF8D4A5C
:1048A000904206D08C4A90421EBF8C4A90420068CB
:1048B00008D1006810F0020F04D0A960606D40F0CC
:1048C0000400606594F85C104FF0100001F01F01C7
:1048D00000FA01F111EA0A0F4FD02068404518BFD5
:1048E00048452AD0B04218BFB84226D0704A9042FC
:1048F0001CBF704A904220D06F4A90421CBF6F4A42
:1049000090421AD06E4A90421CBF6E4A904214D018
:104910006D4A90421CBF6D4A90420ED06C4A904244
:104920001CBF6C4A904208D06B4A90421FBF6B4A32
:104930009042006800F0040002D1006800F0080016
:10494000D8B1A9602068016811F4802F09D00068EF
:1049500010F4002F02D0A16C79B10CE0216C51B998
:104960000BE0016811F4807F03D1016821F0080198
:104970000160216C09B12046884794F85C10202022
:1049800001F01F0100FA01F111EA0A0F6ED0206850
:10499000404518BF48452AD0B04218BFB84226D07B
:1049A000434A90421CBF434A904220D0424A904220
:1049B0001CBF424A90421AD0414A90421CBF414A11
:1049C000904214D0404A90421CBF404A90420ED0C0
:1049D0003F4A90421CBF3F4A904208D03E4A904214
:1049E0001FBF3E4A9042006800F0020002D10068FA
:1049F00000F01000D0B3A96094F8350004282068B6
:104A0000016809D011F4802F34D0006810F4002F11
:104A10002DD0E16B51B33DE021F01601016020681B
:104A2000416921F080014161206C002804BFA06C25
:104A3000002804D02068016821F00801016094F882
:104A40005C304FF03F024FF001004FF0000103F0E7
:104A50001F0302FA03F2AA6084F8350084F83410C8
:104A6000216D002940F08C81BDE8F88F14E0616C65
:104A700081B911E0016811F4807F09D10368012137
:104A8000002223F01003036084F8351084F83420EA
:104A9000E16B09B120468847606D21E010000240BB
:104AA000CC08002428000240400002405800024088
:104AB0007000024088000240A0000240B80002409E
:104AC00010040240280402404004024058040240FE
:104AD0007004024088040240A0040240B80402406E
:104AE000002808BFBDE8F88F606D10F0010F43D0BB
:104AF0002068042184F83510404518BF484521D06E
:104B0000B04218BFB8421DD0A04988421CBFA0497E
:104B1000884217D09F4988421CBF9F49884211D0C4
:104B20009E4988421CBF9E4988420BD09D498842BD
:104B30001CBF9D49884205D09C4988421EBF9C49A4
:104B400088429C49016821F00101016020680099B8
:104B500001F101010091594503D8016811F0010FDD
:104B6000F5D1006810F0010F14BF0320012084F874
:104B70003500002084F83400E16C00293FD1BDE805
:104B8000F88FDFF8349248451CBFDFF83092484573
:104B900018D0DFF82C9248451CBFDFF82892484512
:104BA00010D0DFF8249248451CBFDFF8209248451A
:104BB00008D0DFF81C9248451EBFDFF81892484520
:104BC000BDE8F88F94F85CA04FF0040BD0F800908B
:104BD0000AF01F0A0BFA0AFB1BEA010F18BF19F0B3
:104BE000040F4BD019F4004FC5F804B00DD019F4E0
:104BF000803F05D0216C002908BFBDE8F88FBFE0D9
:104C0000A16C002976D1BDE8F88F19F0200F31D1C1
:104C1000206840451CBF7049884227D0B04218BF69
:104C2000B84223D0594988421CBF594988421DD0F7
:104C3000584988421CBF5849884217D05749884272
:104C40001CBF5749884211D05649884218BF90422C
:104C50000CD0984218BF604508D0564988421FBF03
:104C60005E498842016821F0040102D1016821F007
:104C700008010160216CE9BBBDE8F88F4FF0020B21
:104C80000BFA0AFB1BEA010F18BF19F0020F54D0F0
:104C900019F4004FC5F804B00CD019F4803F05D0CA
:104CA000E16B002908BFBDE8F88F69E0616C09BBC2
:104CB000BDE8F88F19F0200F3BD1206840451CBF9C
:104CC0004549884229D0B04218BFB84225D02F4963
:104CD00088421CBF2E4988421FD02E4988421CBFE3
:104CE0002D49884219D02D4988421CBF2C49884241
:104CF00013D000E044E02B49884218BF90420CD00A
:104D0000984218BF604508D02A4988421FBF3349DE
:104D10008842016821F00A0102D1016821F01401E2
:104D200001604FF001014FF0000084F8351084F865
:104D30003400E16B21BBBDE8F88F4FF0080202FAA6
:104D40000AF20A4214BF19F0080FBDE8F88F016893
:104D500021F00E01016094F85C104FF0010001F0A9
:104D60001F0100FA01F24FF000016A60606584F8EB
:104D7000350084F83410E16C002908BFBDE8F88FD5
:104D8000204601B0BDE8F04F084700007000024027
:104D900088000240A0000240B80002401004024017
:104DA00028040240400402405804024070040240BB
:104DB00088040240A0040240085402581C540258BF
:104DC0003054025844540258585402586C540258F3
:104DD000805402589454025828000240B8040240FB
:104DE0002DE9F84F044600F0D3FF002C834600F075
:104DF0004982FE494FF0010620684FF00005FC4F44
:104E0000DFF8F0838842DFF8F093DFF8F0A31CBFEF
:104E1000FB4988422AD0FB4988421CBFFA49884294
:104E200024D0FA4988421CBFF94988421ED0F9496A
:104E300088421CBFF849884218D0F84988421CBFF4
:104E4000F749884212D0F74988421CBFF649884288
:104E50000CD0F64988421CBFF549884206D0F54976
:104E600088421CBFF449884240F0D980DF494FF0A6
:104E7000020284F83520884284F834501CBFE0498F
:104E8000884223D0DF4988421CBFDF4988421DD0B9
:104E9000DE4988421CBFDE49884217D0DD4988427E
:104EA0001CBFDD49884211D0DC4988421CBFDC4967
:104EB00088420BD0DB4988421CBFDB49884205D0C1
:104EC000DA4988421EBFDA498842DA49016821F08E
:104ED000010101602068006810F0010F13D000BFCD
:104EE00000F056FFA0EB0B00052807D920216165D3
:104EF000032084F835000120BDE8F88F20680068A1
:104F000010F0010FECD1D4E9021C2068D4E9042E82
:104F1000009041EA0C01D4E9063CD4F820B042EA02
:104F20000E0200680A43C5491A43D4F824E042EA55
:104F30000C02084042EA0B01BEF1040F41EA0000F6
:104F400003D1D4E90B1211430843BD4909686FF33B
:104F50000F01B1F1005F11D36168A1F12902052AA7
:104F600084BFA1F13F02032A06D9A1F14702012A19
:104F700084BF4F39032901D840F48010009908609C
:104F8000D4F800C0616ADCF81400042920F007009E
:104F900041EA000236D1D4E90A100A4318B3A369E2
:104FA00053B1B3F5005F14D000291CBF01290229B9
:104FB00021D003291CD025E019B1012905D00229EF
:104FC00020D110F0807F1DD015E0B0F1C07F19D145
:104FD00011E081B1012907D002290CD0032908BFB3
:104FE000B0F1C07F07D00DE010F0807F03D109E061
:104FF00010F0807F06D04FF04000606584F8356087
:1050000000F040B9CCF814202046FEF773F994F86C
:105010005C203F2102F01F029140816051E08949EC
:10502000884218BFB8420FD0404518BF48450BD042
:1050300050451CBF8449884206D0844988421CBF21
:105040008349884240F016814FF0020184F8351000
:1050500084F834500168A2686FF310110091402A5F
:1050600008BF102204D0802A0CBF4FF480420022D7
:10507000D4E903CED4E9053142EADC02D4E907CB16
:1050800042EADE0E734A4EEAD30E734B4EEAD1016A
:1050900041EADC0141EA1B1C00994CEA0101016074
:1050A00020681044A3FB001000098000E065204642
:1050B000FEF720F994F85C1001F01F0106FA01F1E7
:1050C00041604A49206888421CBF4D4988423DD012
:1050D0004C4988421CBF4C49884237D04B498842D2
:1050E0001CBF4B49884231D04A4988421CBF4A49BB
:1050F00088422BD0494988421CBF4949884225D063
:10510000484988421CBF484988421FD047498842C5
:105110001CBF4749884219D0464988421CBF4649AE
:10512000884213D04749884218BFB8420ED0404544
:1051300018BF48450AD050451CBF4349884205D096
:10514000424988421CBF424988424DD13D4A904263
:1051500018BFB8420ED0404518BF48450AD0504548
:105160001CBF3949884205D0384988421CBF38499C
:1051700088423AD1384BC0B2A0F108003749A3FBAE
:105180000030374B63664FEA101000F01F0301EB4D
:10519000800006FA03F1A1662066A068802808BF97
:1051A00065602079216E0860D4E91901416060686A
:1051B000411E07297DD8C1B24B1E072B7AD8206823
:1051C000904218BFB8420ED0404518BF48450AD09B
:1051D00050451CBF1C4A904205D01C4A90421CBF3F
:1051E0001B4A90426FD13DE07FE04FE0100002404B
:1051F0001C5402583054025844540258585402580F
:105200002800024040000240580002407000024066
:1052100088000240A0000240B80002401004024092
:105220002804024040040240580402407004024036
:1052300088040240A0040240B80402403F8010FEEF
:105240000010005C085402586C54025880540258F4
:1052500094540258F8ABFDA7CDCCCCCC00580258E2
:10526000805802582548244A02EB8101C4E91B10EA
:105270002FE000BF4FF040014FF00300616584F85C
:10528000350000BF4FF00100BDE8F88F1C49C3B2E4
:10529000A3F1100C1B4BA1FB0CC11844A8284FEA2A
:1052A000111098BF0830184900F01F0301EB80006F
:1052B00002E017E010E006E0144906FA03F3A366E3
:1052C000C4E9180169E71348114A02EB8101C4E9F6
:1052D0001B1006FA03F06067E06E0560D4E91C015C
:1052E000416002E0E56625676567656584F83560BD
:1052F0000020BDE8F88F0000FC58025840590258C1
:10530000ABAAAAAAF0FBFDBF000802408008024039
:10531000FC080240400902402DE9F84F04008E4687
:105320004FF00000009004BF0120BDE8F88F94F812
:105330003400012804BF0220BDE8F88F94F835C07E
:105340000120002184F83400BCF1010F08D0C00214
:1053500060650120009084F834100098BDE8F88F53
:10536000DFF8ECC10225206884F835506045794D9E
:105370006165794E794FDFF8E881DFF8E891DFF871
:10538000E8A1DFF8E8B118BFA8421DD0B04218BFAD
:10539000B84219D0404518BF484515D0504518BFF0
:1053A000584511D0724988421CBF724988420BD0BF
:1053B000714988421CBF7149884205D070498842B2
:1053C0001EBF704988427049016821F001010160E7
:1053D00071462046FEF770F85D492068884218BF84
:1053E000A84223D0B04218BFB8421FD0404518BFD2
:1053F00048451BD0504518BF584517D05C4A9042CD
:105400001CBF5C4A904211D05B4A90421CBF5B4A71
:1054100090420BD05A4A90421CBF5A4A904205D043
:10542000594A90421CBF594A90420CD1026822F05E
:105430001E0242F016020260206C88B120680268E9
:1054400042F008020BE0026822F00E0242F00A026B
:105450000260206C20B12068026842F00402026001
:105460002068884218BFA8423BD0B04218BFB8425B
:1054700037D0404518BF484533D0504518BF584530
:105480002FD03B4A90421CBF3A4A904229D03A4A18
:1054900090421CBF394A904223D0394A90421CBFE7
:1054A000384A90421DD0384A90421CBF374A904239
:1054B00017D0374A90421CBF364A904211D0364A24
:1054C00090421CBF354A90420BD0354A90421CBFD7
:1054D000344A904205D0344A90421CBF334A90422D
:1054E0000ED1206E026812F4803F03D0026842F4AD
:1054F00080720260E06E18B1026842F4807202604D
:105500002068884218BFA8421DD0B04218BFB842D8
:1055100019D0404518BF484515D0504518BF5845CB
:1055200011D0134988421CBF124988420BD012493E
:1055300088421CBF1149884205D0114988421EBFCC
:10554000104988421049016841F00101016004E7F7
:105550001000024028000240400002405800024073
:105560007000024088000240A0000240B8000240E3
:105570001004024028040240400402405804024043
:105580007004024088040240A0040240B8040240B3
:10559000085402581C5402583054025844540258BB
:1055A000585402586C54025880540258945402586B
:1055B00070B5044600F0ECFBB4F1FF3F054602D0A5
:1055C00004480078044400F0E3FB401BA042FAD3F7
:1055D00070BD0000C00800242DE9F05FDFF8E08115
:1055E00004460027894698F81400012804BF0220C9
:1055F000BDE8F09F4FF0000B012088F81400C8F8B8
:1056000018B0207910F0010F07D001214CF2503072
:10561000FEF738FB002818BF0127207910F0020F91
:1056200008D002214CF25030FEF72CFB002818BFA6
:10563000012756D1002F54D12068624D012851D046
:10564000781EC9F80000D4E902603044B04288BF37
:105650004FF0840A45D96068216910F0010F09D024
:10566000EB684AEA062223F4E663EB60EB680B433F
:105670001A43EA6010F0020F0DD0D5F80C214AEA67
:10568000062022F4E662C5F80C21D5F80C2111435E
:105690000843C5F80C01207910F0010F0BD001214F
:1056A0004CF25030FEF7EEFA0746E86820F44170FD
:1056B00020F48060E860207910F0020F0DD0022104
:1056C0004CF25030FEF7DEFA0746D5F80C0120F414
:1056D000417020F48060C5F80C01002F63D0C9F838
:1056E000006067E06168032220698A4344D011F0BA
:1056F000010F0AD0EA6822F03002EA60EA68024349
:10570000EA60EA6842F08802EA6011F0020F10D005
:10571000D5F80C1121F03001C5F80C11D5F80C1199
:105720000843C5F80C01D5F80C0140F08800C5F815
:105730000C01207910F0010F0BD001214CF25030F8
:10574000FEF7A0FA002818BF0127E86820F008003B
:10575000E860207910F0020F2CD002214CF250307A
:10576000FEF790FA002818BF0127D5F80C0120F0A9
:105770000800C5F80C011DE0E96821F03001E9607E
:10578000D5F80C1121F03001C5F80C11E96801437E
:10579000E960D5F80C110843C5F80C01A86940F080
:1057A0001000A861C5E7D4E90210761C0844B04295
:1057B0003FF651AF384688F814B0BDE8F09F0000BE
:1057C0009836002400200052704700002DE9F04177
:1057D000624D4FF480384FF0FF3728690026604C47
:1057E00010F4803F16D02078012874D02078022849
:1057F00008BF01206DD007286CD0032808BF20699E
:1058000067D004281CBF0528062803D084F8006050
:10581000C5F81480D5F8100110F4803F16D0207818
:1058200004287BD02078052808BF02206DD00728E7
:105830006CD0062808BF206967D001281CBF022849
:10584000032803D084F80060C5F81481286910F497
:10585000DC0011D0A1690143A161686120780128B1
:1058600004BFE068E76004D0022816BF07280120C3
:105870002069267000F090F8D5F8100110F4DC00D3
:1058800014D0A26940F000411143A161C5F8140190
:105890002078042804BFE068E76004D0052816BF1C
:1058A000072802202069267000F076F8207800286A
:1058B00018BFBDE8F081E86820F4DE00E860D5F8A4
:1058C0000C0120F4DE00C5F80C012675BDE8F0815E
:1058D00001E020E01BE06068401E6060606868B125
:1058E000E068FFF771FFC5F81480E068401CE060D5
:1058F000E068A2680121FEF787F98BE7E760267070
:10590000E068FFF761FF83E708E024E01FE0012083
:10591000FFF75AFF7AE7FFF757FF77E76068401E07
:105920006060606868B1E068FFF74EFFC5F81481F9
:10593000E068401CE060E068A2680221FEF764F9BC
:1059400084E7E7602670E068FFF73EFF7CE702200F
:10595000FFF73AFF76E7FFF737FF73E700200052C3
:10596000983600240B48C16841F00101C160C1684C
:1059700011F0010F0CD0D0F80C1141F00101C0F86A
:105980000C11D0F80C0110F0010F1CBF0020704763
:105990000120704700200052704700002DE9F047B9
:1059A0002D4E88469146307D012804BF0220BDE877
:1059B000F0870120A1F10062B2F5801F307538BF79
:1059C000012508D3A8F10160B0F5801F32BF022580
:1059D0000120BDE8F0870027B76129464CF250301E
:1059E000FEF750F910B13775BDE8F0871B4C012D5B
:1059F00014BFD4F80C01E06840F0020014BFC4F8F2
:105A00000C01E060BFF36F8FBFF34F8FD9F8002018
:105A100007210120C8F8002009F1040308F104025D
:105A200053F804CB401C884242F804CBF8DDBFF3A6
:105A30006F8FBFF34F8F29464CF25030FEF722F99B
:105A4000012D0CBFE168D4F80C1121F002010CBF4C
:105A5000E160C4F80C11C6E798360024002000521B
:105A60000F48104A1049C36813F0010F05D0426077
:105A70004160C36813F0010F0DD1D0F80C3113F061
:105A8000010F0AD0C0F80421C0F80411D0F80C01AD
:105A900010F0010F01D00120704700207047000076
:105AA0000020005223016745AB89EFCD10B582B0CD
:105AB0004FF0B0420021ADF800000191D2F88810FB
:105AC0000904090C06D00843ADF800004FF6FF7139
:105AD000C2F888100F48806B002804BF02B010BDC8
