:020000040800F2
:10000000881F0020410100088732000809260008E7
:1000100000000000000000000000000000000000E0
:10002000000000000000000000000000B5320008E1
:100030000000000000000000FF000008ED32000892
:10004000530100080000000053010008530100089C
:10005000530100085301000853010008790C0008FF
:100060000000000053010008FD0B0008150C0008FB
:1000700053010008993300085301000800000000F4
:1000800053010008A933000800000000893300086C
:1000900053010008530100085301000853010008F0
:1000A000530100085301000853010008C93A000831
:1000B000E93A00080348854600F0DEFB00480047A7
:1000C000EB4A0008881F0020084B19680868203098
:1000D00080F30988022080F31488BFF36F8F3FBC40
:1000E000AE4608BC04BC62B61847000054010020AC
:1000F000EFF3108072B6704780F310887047EFF30B
:1001000009800E4B1A6820381060F0C044464D46F6
:1001100056465F46F0C008B572B606F04BFC62B6B4
:100120000CBC116808681030F0C8A046A946B24659
:10013000BB4680F309882038F0C8184754010020D6
:100140000448804704480047FEE7FEE7FEE7FEE775
:10015000FEE7FEE785330008B500000830B50B4622
:10016000014600202022012409E00D46D5409D4291
:1001700005D31D469540491B254695404019154617
:10018000521E002DF1DC30BD70B50024254600283C
:1001900001DA01244042002901DA01254942FFF732
:1001A000DDFFAC4200D04042002C00D0494270BD7F
:1001B000F0B51FB40646002082B0054640240191E8
:1001C00000901BE0019922460F46304600F020F8CF
:1001D000049A059B801A994110D31046194622466D
:1001E00000F032F9361A8F41019722460120002192
:1001F000009F00F029F938184D4100902046641EF8
:100200000028DFDC019B00982946324607B0F0BD8C
:1002100010B5202A04DB0846203AD040002110BD4A
:100220000B46D340D0402024A21A914008431946DF
:1002300010BD10B503461C460C43A40703D009E0CB
:1002400010C9121F10C3042AFAD203E00C781C70E4
:10025000491C5B1C521EF9D210BDD2B201E00270E3
:10026000401C491EFBD270470022F6E710B513462A
:100270000A4604461946FFF7F0FF204610BD421E0D
:100280005378521C002BFBD10B781370491C521C65
:10029000002BF9D1704730B505462A460B46107839
:1002A0001C78521C5B1C002801D0A042F7D0002C07
:1002B00003D0002802D06D1CEFE7284630BD421C59
:1002C0000178401C0029FBD1801A704710B500222C
:1002D00000E0521C835C8C5CA34201D1002BF8D15E
:1002E000D8B2E1B2401A10BD30B505460020034631
:1002F00000E05B1C934205D2EC5CC85C201A01D183
:10030000002CF6D130BD024670B54A40D30FDB0752
:1003100040002DD04A002AD0010E140E0002120215
:100320000919400A520A8418E50104465443000A98
:10033000120A2E045043A4194219200CC543AA18CE
:10034000120C0125AD03521C521912047F392404EA
:1003500000D0521C104301D44000491EC2B20C060A
:10036000C0092018401C4008802A02D003E0002069
:1003700070BD40084000002900DA0020184370BD1D
:1003800070B502464A40D50F40004A00ED074008CC
:100390005208002814D0002A12D0C40DD30D4102F7
:1003A0000120C0055202490A520AE41A091812181B
:1003B0007D34914201D3641C00E04900002C01DA35
:1003C000002070BD0023914201D3891A03434008E5
:1003D00049000028F7D100290AD0914202D1012119
:1003E000C90705E0914201D2012101E00121C94381
:1003F000E005C018401900F037F870BDC217C10FF2
:10040000504010B54018CA079623002100F034F878
:1004100010BD10B500229623114600F02DF810BD36
:10042000410040020122400AD205090E80187F29AE
:1004300001DA00207047962903DC9622511AC84041
:10044000704796398840704710B5202A04DB014672
:10045000203A9140002010BD914020239C1A034671
:10046000E3401943904010BD002904DA401C4900C4
:1004700001D140084000704770B40024050C05D13C
:100480001024000402D1002921D01124050E01D12D
:1004900000020834050F01D10001241D850F01D190
:1004A0008000A41C002801DB4000641C002908D047
:1004B00020252E1B0D46F540A14000D001212943E7
:1004C000084301061B1B000ADB1D02D5002070BC7F
:1004D0007047DB05181880180029F8DA401C49001D
:1004E000F5D170BC4008400070470000F0B50746E9
:1004F0000846584087B0C00F049048000E46590087
:1005000040084908BC1A884105D2384631461E4683
:1005100017460B4602465800400810434CD0300D99
:10052000039040055900400D490D0590401A029076
:10053000402872DA18030121000B090508430190D5
:1005400004980092002805D0019952420020884169
:1005500000920190029840210A1A01990098FFF731
:1005600073FF05460C466B4607CB00F097F9C019A0
:100570007141039A0E0D0023D71756401A467A4050
:10058000164344D0049A002A2DD0029A012A039AD5
:1005900015DC1205C01A914101263605001C714177
:1005A000D20F059ED2070093019202962A46234657
:1005B00000F094F907B0F0BD38463146FAE7160569
:1005C000224A0F46B218C01AB74101210905001C82
:1005D0004F4100187F41114618187941E20F10432E
:1005E0006D19644113E0E2076D0815436408C20702
:1005F0001443039A01261205C01A91413605001CC6
:100600007141CE07400830434908C01851412A467D
:10061000234600F056F9CDE7FFE704980122400099
:10062000C117121A00238B4104983146C417381A97
:10063000A141EEE730B40124E407634030BC55E744
:1006400030B40124E407614030BC4FE70000E0FF14
:10065000F0B51FB488B00B99099800244840099957
:10066000C00F490049080991C0070B990090490043
:1006700049080B9109990898A64608431CD00B9984
:100680000A98084318D0099801244000420D4800F8
:10069000410D099824050003000B204309900B9895
:1006A0000003000B20430B9050181C4940180022F7
:1006B00001901446104605E0002001460DB0F0BD43
:1006C000032801DA034600E003239C46C11A0AAE60
:1006D0000AE05F0008ADED5B4F00F75B7D4300274C
:1006E000AA187C41491C5B1E6145F2DD410004AB48
:1006F0005A522104120C0A43240C401C0828DFDB48
:10070000019802900099704601910090059B049A0F
:100710000799069800F0E2F8D0E700000DFCFFFF13
:10072000F0B50C465C4085B0E40FE40703944C0040
:10073000002664085900944649080246029622435E
:1007400021D062460A431ED06200570D4A000E03B4
:100750002303550D012402462C492405781B1B0B4D
:10076000360B401823432643614600901C46501A1E
:10077000B44103D30098401C009002E09218009806
:100780005B41002803DA0020014605B0F0BD0020DF
:10079000012109050746864611E064461D46141BE3
:1007A000B54106D36546521BB341744607430C431B
:1007B000A646CD0740084908284392185B410546E4
:1007C0000D43EAD11046184313D0604619465040F5
:1007D0007140084306D06046101AB34106D2012288
:1007E000002306E000220123DB0702E00122D243BE
:1007F0005310009874460105381C6141029C039D0A
:100800000019694100F05DF8BFE70000FD0300003A
:100810004A0009030123090B1B0519430A4B10B5B4
:10082000520D9A4202DA0020014610BD064B3433C5
:100830009A4203DC9A1AFFF7EBFC10BD034BD21867
:10084000FFF702FE10BD0000FF030000CDFBFFFF1D
:1008500010B5002904DB0124E40740428C41214605
:10086000002B04DB1C460123DB075242A3419942C3
:1008700000D1904210BD0000064C0125064E05E057
:10088000E36807CC2B430C3C98471034B442F7D3B1
:10089000FFF714FC408100086081000810B5202A91
:1008A00006DBCB170846203A1041C1170B4306E080
:1008B0000B461341D0402024A21A91400843194608
:1008C00010BD10B5002B08DA0024401C61419218BD
:1008D0005B411A4301D14008400010BDF0B51FB480
:1008E00082B005460C0003D0084603F047F902E049
:1008F00003F044F920300246009021462846FFF7D5
:10090000A3FD049B059A04460F4618431143084370
:1009100014D0184610431BD0009840210A1A1846DC
:100920000599FFF775FC05460E46009A059904984F
:10093000FFF78AFD084305D0012004E02046394630
:1009400007B0F0BD0020C11705430E432C433743C9
:1009500000990E986305401A7905E40A00220C43B9
:10096000FD0A0A3002D500200146E9E70105101909
:1009700069410C9C0D9D00196941FFF7A2FFDFE75B
:1009800070B58C180578401C6B075B0F01D103789C
:10099000401C2A1106D10278401C03E006780E7034
:1009A000401C491C5B1EF9D12B0705D40023521EA5
:1009B0000DD40B70491CFAE70378401CCB1A921C2B
:1009C00003E01D780D70491C5B1C521EF9D5A14235
:1009D000D8D3002070BD70B50D46064600F054F91E
:1009E00000280BD1142004F0CDFB040007D005F043
:1009F000CEFE21463046256005F0E4FE70BD05F0D0
:100A000007FF70BD0C4D040009D00C482146383159
:100A1000C06904F00BF82946206E04F043F929461A
:100A2000206E04F03FF90028F9D1002CF7D0E168DE
:100A300020468847F3E70000FFFFFFFF1800002073
:100A400070B504460D46682004F09CFB2060002829
:100A50005FD0002D5DD02F49C16121682E4808620A
:100A600021682E48886121682D48486121682D48F9
:100A7000486221682C48886221682C48C86214208A
:100A800004F080FB21680028886002D005F074FE25
:100A900001E005F0BDFE142004F074FB216800287D
:100AA000C86002D005F068FE01E005F0B1FE2168E3
:100AB0000020887421682C224874216808742068FA
:100AC000294630313030FFF7B4FB286D04F05AFB73
:100AD00021680028C86403D0296DFFF7C5FB01E039
:100AE00005F096FE286C04F04DFB21680028C863D1
:100AF000216803D0296CFFF7B7FB02E0C86C05F052
:100B000087FE20682B6EEA6D0366C2652168686EF9
:100B1000486670BD9D27000897280008190D000839
:100B2000B93200087D28000869260008252600083B
:100B3000F8B50C00054645D0642004F023FB28607E
:100B4000002801D105F064FEA06D04F01BFB070036
:100B500036D0A06C04F016FB060031D03846A16DEB
:100B6000FFF782FB3046A16CFFF77EFB207801285F
:100B700000D90120296808702968606848602968E0
:100B8000206A08622968606A48622968A0698861E9
:100B90002968E069C8612968154888602968206962
:100BA00008612820015D28682030017229681148F9
:100BB000C860296810484861606D002803D003E0D0
:100BC00005F026FEF8BD6765606C002800D16664FC
:100BD000286821462C2238313830FFF72AFB286854
:100BE000236BE26A0363C2622968606B4863F8BDE5
:100BF000096600082D2F0008A52E000810B503482F
:100C000000F0FDF8024800F0FAF810BDE005002001
:100C10009C05002010B5034800F0F1F8024800F0F0
:100C2000EEF810BD680600202406002010B504462A
:100C30000068054940181421FFF790FA80002064ED
:100C40000248E06310BD0000F8FFFDBF0000024055
:100C500030B5056C0124AC40C56B6C600468636002
:100C60004368102B036803D099600068C26030BDF0
:100C70009A600068C16030BD10B50120C00300F06B
:100C80008FF910BD72B6FEE7C06802E08A4204D058
:100C900040680268531CF9D10020704770B50446C3
:100CA000E1200002814201D9002070BD0846FFF713
:100CB000B0FB01461248FFF763FB0546FFF7B0FBA8
:100CC000208228460F49FFF71EFB06460E49FFF714
:100CD00057FBFFF7A5FBA08430460C49FFF750FBFC
:100CE000FFF79EFBE084208528460949FFF70BFBB0
:100CF0000849FFF745FBFFF793FB6085012070BDB6
:100D0000002474490000A0400000504100005042FF
:100D10000000A8410000D04110B5012109200903BD
:100D2000C00600F01BFA002800D0012010BD0028EA
:100D30000ED0081E0CD00068002808D048680A466B
:100D4000406808324860904201D14068486070476E
:100D500000207047002104E0C207D20F5118C9B229
:100D600040080028F8D1022901D301207047002053
:100D7000704730B5014620314B780022022B04D059
:100D8000042383630A70012030BD03681C680E25AC
:100D9000AC431C6003681C68640864001C60012389
:100DA000056C1C46C06BAC4044604B700A70002060
:100DB00030BD70B50024014620314A78022A03D0A4
:100DC00004218163012416E0026813680E25AB43F9
:100DD0001360026813685B085B0013600122056CF6
:100DE0001346AB40C56B6B604A7000220A70416BC2
:100DF000002900D08847204670BD806B7047F0B452
:100E0000C16B0D6801680C680422066C1346B34080
:100E10002B420DD063070BD50B689B0602D40B68E1
:100E200093430B60016C8A40C16B4A60C16A19E050
:100E30000227B74002462F4001232032002F15D051
:100E4000A70713D50C68A40604D40C680A25AC4384
:100E50000C605370036C02219940C36B59600021F0
:100E60001170816A002916D0F0BC08470827B740E6
:100E70002F4210D024070ED50C680E25AC430C6011
:100E8000046C1946A140C46B6160836353700021F8
:100E90001170016BE6E7F0BC7047000070B504000C
:100EA00021D0022120462030054641702268116879
:100EB0000E48A3680140606826691843E36833431D
:100EC000184363691843A3691843E3691843084347
:100ED00010602046FFF7AAFE0021A1630120687080
:100EE0002970084670BD012070BD00000FC0FFFFD3
:100EF000F8B504468C46203001780025012909D038
:100F00000126067041780027012905D007700225C7
:100F10002846F8BD0220F8BD02214170A763206871
:100F2000016849084900016061462046FFF790FECC
:100F3000E06A00282068016802D00E22114306E012
:100F40000A22114301602068016804229143016074
:100F50002068016831430160DAE7000010B5012123
:100F60000E4CC903884217D1A07E002814D101205D
:100F70002076A0761920205600F0BEF96169002085
:100F8000096848626169A08C0968C8626169A08CBF
:100F9000C860606900F0D4FD10BD0000640200204C
:100FA00010B504494A69024202D04861FFF7D6FFF2
:100FB00010BD000000040140F8B500230324012502
:100FC000BAE02E469E40B44632407CD00E79B60739
:100FD000B60F012E01D0022E17D186682746B646DD
:100FE0005E00B74000967646BE43B646CF68009E88
:100FF000B74076463743876046686746BE430F79F9
:10100000FF06FF0F9F40374347600E79F643B60750
:101010000ED0C6682746B4465E00B646B740664660
:10102000BE43B4468F687646B74066463743C760CE
:101030000E79B607B60F022E14D1DE08B6003618A8
:101040000096366A5F07B446FE0E0F27B646B740D5
:101050006646BE43B4460F697646B7406646374398
:10106000009E376206682746B4465E00B646B74023
:101070006646BE430F79B446BF07BF0F7646B740FA
:101080006646374307604E68B603B60F53D02D4F00
:10109000BE692E43BE61BE699F08F607F60F2A4E51
:1010A000BF00BE190096B6680F27B4469E07360FDC
:1010B000B646B7406646BE430927FF06B446B84267
:1010C00002D1002710E036E0204FB84201D10127BD
:1010D0000AE01F4FB84201D1022705E01D4FB84278
:1010E00001D1032700E005277646B740664637431F
:1010F000009EB760184EB6684F689643FF0200D551
:101100001643154FBE60FE684F689643BF0200D578
:101110001643114FFE607E684F689643BF0300D5AB
:1011200016430D4F7E603E684F689643FF0300D51F
:101130001643094A16605B1C0A681646DE4000D05A
:101140003FE7F8BD001002400000014000040048E5
:1011500000080048000C00480004014000690840F5
:1011600000D001207047002A01D081617047816260
:10117000704700000148806870470000440100206B
:1011800070B504000FD02168154808602168154823
:10119000086003CC41602068083C21688860FFF744
:1011A000E9FF05460CE0012070BDFFF7E3FF401B9F
:1011B000272805D92068C068400701D0032070BDEA
:1011C0002068C0684007F0D120680269E1688A425F
:1011D00001D0016101E004490160002070BD000000
:1011E000CCCC000055550000AAAA000000680249B6
:1011F0000160002070470000AAAA00000248816830
:1012000002788918816070474401002010B50648B3
:101210000168102211430160032000F007F800F07C
:1012200053F8002010BD00000020024030B50546F4
:101230001F4887B08269C1140A43826180690840EF
:10124000009005A901A800F06FF90498002815D0B6
:1012500000F086F940001749FEF780FF411E17484D
:10126000154A0260164AC260416000210161816036
:10127000816100F012FC040003D015E000F070F969
:10128000E9E70E4800F05CFC04000DD10D2000F0F1
:1012900043F8042D07D2002229460D2000F048F81B
:1012A0000848056000E00124204607B030BD00007A
:1012B0000010024040420F00002C0140AC0600200C
:1012C000E70300004801002008B50A4881690122AF
:1012D00011438161816911400091C26901040A438F
:1012E000C261C0690022084003210090481F00F03D
:1012F0001FF808BD00100240002809DBC106C90E16
:101300000120884003490860BFF34F8FBFF36F8F00
:101310007047000080E100E0002805DBC106C90E2F
:1013200001208840014908607047000000E100E0AA
:1013300010B502F05FFC10BDF8B505460068354CED
:10134000C00352D5E0690026C00007D4E16920043B
:101350000143E161E1690140012600912E480168E5
:10136000C90510D40168821511430160FFF702FF1F
:10137000074604E0FFF7FEFEC01B642824D8264879
:101380000068C005F6D5206A03273F02384020D008
:101390006968394081421CD0206A226AB843012121
:1013A00009040A432262226A8A4322622062C00739
:1013B0000FD0FFF7DFFE009008E0FFF7DBFE00999B
:1013C000411A1648814201D90320F8BD206A8007DE
:1013D000F3D5206A6968B84308432062002E04D020
:1013E000E169012000078143E1612878C00705D049
:1013F000206BA96880088000084320632878800655
:1014000005D5206B10218843E9680843206300203C
:10141000F8BD00000010024000700040881300007A
:10142000F8B50F46060059D03A4D2868C007C00FDE
:10143000B84209D22868400840003843286028682C
:10144000C007C00FB84249D13068334C81070CD572
:10145000400704D56068072109020843606060689E
:10146000F0218843B168084360603078C00726D017
:10147000706801280ED0216802280ED08907002943
:101480002CDA61688908890001436160FFF772FE08
:1014900000900DE021688903F1E78901EFE7FFF78C
:1014A00069FE0099411A1D48814201D90320F8BD07
:1014B00060680C210840716889008842EFD1286873
:1014C000C007C00FB8420BD9286840084000384315
:1014D00028602868C007C00FB84201D00120F8BDBD
:1014E0003078400706D56068072109028843F16813
:1014F0000843606000F044F86168094A0906090F72
:10150000515CC840074908600320FFF78FFE0020A8
:10151000F8BD0000002002400010024088130000C7
:10152000177700085001002010B5072202600A4A10
:1015300053689B079B0F43605368F02423408360EC
:10154000526807231B021A40C26004480068C007A3
:10155000C00F086010BD00000010024000200240D3
:101560000448054900684968044A4905490F515C27
:10157000C840704750010020001002402777000843
:1015800010B5104A51680C200B4603400E48042B3E
:1015900017D0082B15D18B020C4C1B0FE45CD26AC0
:1015A0000A4B1207120F10339A5CC90305D50023AA
:1015B0001946FEF7FDFD214601E02046044902F0F0
:1015C000F4FA10BD0010024000127A00F77600080D
:1015D00000093D00FEB5040070D02078DC4DC00746
:1015E0004AD068680007800F012807D068680007A4
:1015F000800F022809D16868C00306D528688003D7
:101600003AD560680028E7D036E06168012914D037
:1016100001208004002901D0052914D02A68012165
:1016200009048A432A602968814329606068002888
:1016300016D0FFF79FFD06460EE028680121090439
:1016400008432860F2E7296801432960F5E7FFF7BE
:1016500091FD801B64286ED828688003F7D50BE0C5
:10166000FFF788FD064604E0FFF784FD801B642831
:10167000F1D828688003F7D4207801268007002855
:101680003CDA68680007800F07D068680007800FA1
:10169000022809D16868C00306D42868800716D5D7
:1016A000E06801280AD112E0E0680028286816D016
:1016B00030432860FFF75EFD074605E043E1FFF792
:1016C00059FDC01B0228C6D828688007F7D52868AE
:1016D000F82188432169C900084328600EE04008CA
:1016E00040002860FFF746FD074604E0FFF742FD93
:1016F000C01B0228AFD828688007F7D420780007DD
:1017000022D5E0690028686A0ED030436862FFF78E
:1017100031FD074604E0FFF72DFDC01B02289AD8D3
:10172000686A8007F7D50FE0400840006862FFF75D
:1017300021FD074605E09DE0FFF71CFDC01B0228C8
:1017400089D8686A8007F7D42078042740070028E2
:1017500060DA00200190E869C00008D4E969B806A1
:101760000143E961E9690140012000910190794854
:101770000168C90511D40168821511430160FFF7A2
:10178000F9FC009005E0FFF7F5FC0099401A642889
:1017900070D870480068C005F5D5A06801280AD047
:1017A000002801D0052810D0286A4008400028628F
:1017B000286AB84301E0286A30432862A0680028FC
:1017C00012D0FFF7D7FC00900AE0286A384328625D
:1017D000F1E7FFF7CFFC0099411A5F48814249D8F1
:1017E000286A8007F5D50DE0FFF7C4FC009006E0FD
:1017F000FFF7C0FC0099411A574881423AD8286A3D
:101800008007F5D40198002804D0E9690120000779
:101810008143E9612078C00635D5606901280CD084
:10182000401D686B23D038436863686B40084000F4
:101830006863FFF79FFC064622E0686B38436863E5
:10184000686B30436863FFF795FC064604E0FFF7DA
:1018500091FC801B02285BD8686B8007F7D5686B0A
:10186000F8218843A169C900084368630BE0B843C5
:101870006863F4E74CE0FFF77DFC801B022847D843
:10188000686B8007F7D4206A00285ED06968090772
:10189000890F022942D0012636060228286805D081
:1018A000B0432860FFF766FC044633E0B04328608D
:1018B000FFF760FC074604E0FFF75CFCC01B022852
:1018C00026D828688001F7D4E86AE16A0009000197
:1018D0000843E862616AA06A084369683D2212040D
:1018E000914308436860286830432860FFF742FC52
:1018F000044604E0FFF73EFC001B022808D82868D5
:101900008001F7D521E0FFF735FC001B022801D943
:101910000320FEBD28688001F5D416E00128F8D028
:101920006868E96A01221204636A02409A420AD195
:101930000907E26A090F914205D10F218904084085
:10194000A16A884201D00120FEBD0020FEBD00003A
:10195000001002400070004088130000FFB50446EC
:10196000807E81B01F460E4600283CD1002E1DD03F
:10197000039800281AD0FFF7FDFB054620462030CB
:101980000090007B002814D001201C49C00348614E
:1019900019202056FFF7C0FC009900200873039916
:1019A0000129617F21D9E28BB1541FE0012005B0EC
:1019B000F0BDFFF7DFFBA84204D2FFF7DBFB401BC3
:1019C000401E02E0FFF7D6FB401BB84201D90120C0
:1019D00000E00020401E384205D10020E0836077FF
:1019E00030700320E3E70220E1E731706077E28B9B
:1019F00003998A4200D1E0830020D8E70004014027
:101A0000FFB581B0044602981E46174600280DD047
:101A1000002F0BD0FFF7AEFB054627810298E06050
:101A20006079002804D0022005B0F0BD0120FBE75A
:101A300001206071207120680027006847622168DA
:101A4000208A0968C8622168208AC860206800F07E
:101A500077F81AE005F0CCFA022800D062B6FFF75A
:101A600089FBA84204D2FFF785FB401B401E02E021
:101A7000FFF780FB401BB04201D9012000E00020AD
:101A8000401E304201D10320CEE7A07C0028E1D0E7
:101A9000A7740020C8E77047704770B5040005D0F0
:101AA00025462035687F002802D006E0012070BD61
:101AB00000202877204600F015F802206877211DC5
:101AC000206801F079FC01204034A071A877E87704
:101AD00020706070A070E0702071607168770020E5
:101AE00070BD000008B5134A0168134891420DD13A
:101AF000C26910210A43C261C069002208400090F7
:101B000003211120FFF714FC11200FE00B4A914232
:101B10000ED1C26989150A43C261C069002208401A
:101B2000009003211320FFF703FC1320FFF7F4FBC1
:101B300008BD0000001000400010024000200040DE
:101B4000014620314A7F012A01D00120704702223C
:101B50004A770268D36801210B43D3600068094AC1
:101B6000904205D0084A904202D0084A904204D1DF
:101B700082685207520F062A02D002680A430260A6
:101B800000207047002C014000040040004001404C
:101B90000168CA6852085200CA6001680A6A084BA4
:101BA0001A4207D10A6A9B101A4203D10A685208E6
:101BB00052000A6001212030417700207047000068
:101BC00011110000704770B50446006801690025D6
:101BD000C9438907002915DBC168C943890711D4A6
:101BE000E91E016101202077206880698007204676
:101BF00002D0FFF7E7FF04E000F096F8204600F07F
:101C000094F8257720680169C943490717D4C1684A
:101C1000C943490713D40421C94301610220207735
:101C2000206880698005800F204602D0FFF7CAFF38
:101C300004E000F079F8204600F077F82577206876
:101C40000169C943090716D4C168C943090712D4F9
:101C50000821C9430161042020772068C0698007FA
:101C6000204602D0FFF7AEFF04E000F05DF820460A
:101C700000F05BF8257720680169C943C90617D4CD
:101C8000C168C943C90613D41021C94301610820A2
:101C900020772068C0698005800F204602D0FFF7BA
:101CA00091FF04E000F040F8204600F03EF8257770
:101CB00020680169C943C90708D1C168C943C90778
:101CC00004D1891E0161204600F030F820680169C6
:101CD000C943090609D4C168C943090605D480214E
:101CE000C94301612046FFF7D6FE20680169C94358
:101CF000490609D4C168C943490605D44021C943EE
:101D00000161204600F018F920680169C94389067D
:101D100009D4C168C943890605D42021C94301619A
:101D20002046FFF7B9FE70BD70477047F8B50168EF
:101D30007C487B4C814202D1FFF760FAF8BD784FB6
:101D4000794A7A482037002591424AD121790029E1
:101D5000F4D0627901218903012A15D0022A1AD010
:101D6000032AEBD0042AE9D10122FFF7FCF9A5717F
:101D70002089401E0004000C208122D001206071C7
:101D8000E068401CE060F8BD0022FFF7ECF902209B
:101D90006071A571F8BDE268A3791278DA40D207C4
:101DA000D20FFFF7E0F9A079401CC0B2A07108285B
:101DB000F0D3387C002801D0032000E004206071BB
:101DC000F8BD65712571012626762068FFF7E0FED3
:101DD00020680068456219202056FFF79DFAA67416
:101DE000F8BD534A9142FBD1217E0029F8D0A27E52
:101DF0000121C9034F4E012A27D0022A4DD0032AC0
:101E00007FD0042AECD1FFF7A9F93178C007C00FC1
:101E100049000843C0B23070217F491CC9B2217704
:101E2000032970D3FEF796FF00280BD0E08B401CEF
:101E3000E083A5766069FFF7ABFE606900684562E4
:101E40000120387325773570F8BDFFF787F93178B1
:101E5000C007C00F49000843C0B23070217F491C41
:101E6000C9B2217703294ED3FEF774FF002804D0AE
:101E70000420A07635702577F8BD0220A076207F5B
:101E80006169400000190968808CC862207F61691F
:101E900040000019808CC860ECE7FFF75FF93178EB
:101EA000C007C00F49000843C0B23070217F491CF1
:101EB000C9B22177032926D3FEF74CFFE17E884083
:101EC000617F08436077E07E072808D3E576387C99
:101ED000002801D0032000E00420A07601E0401C8F
:101EE000E076207F6169400000190968808CC86233
:101EF000207F616940000019808CC860A2E700E083
:101F000001E0A576F8BD4800616900190968808C78
:101F1000C862207F616940000019808CC860F8BDEC
:101F200064020020002C0140001000400004004822
:101F3000002000401400002070477047F8B50446A8
:101F4000C06F254680352E6821688A6810271206E2
:101F5000002A1BDA212819D1EFF31080012282F325
:101F600010888A6880239A438A6080F31088206FE3
:101F7000002808D0FEF7FDFE002804D0206FFEF7F1
:101F80003CFF202824D0204601F05AFC21688868B4
:101F900040061BD5222E19D1EFF31080012282F3C7
:101FA00010888A6840239A438A6080F31088606FA3
:101FB000002808D0FEF7DDFE002804D0606FFEF791
:101FC0001CFF202804D0204601F00AFC0020F8BDA8
:101FD0006F600320F8BD7047F8B502680446D06909
:101FE000116893689E4D06462E4025468035002E8A
:101FF00071D09C4FDE07F60F0F4037437ED0C707E6
:1020000006D0CF0504D5012717626A683A436A6093
:10201000820708D5DA0706D0276802223A626A6882
:1020200004273A436A60420708D5DA0706D02368D6
:1020300004221A626A6802231A436A60020709D5F9
:1020400020220A40324305D0236808221A626B68B6
:1020500013436B60020509D54A0107D501222368A5
:10206000D2021A626B68202213436B606A68002AEE
:1020700039D0800606D5880604D5A16E002901D086
:1020800020468847686821688968490602D4282163
:1020900008422DD0204601F0A3FB21688868400645
:1020A00022D5EFF31080012282F310888A68402342
:1020B0009A438A6080F31088606F002814D06A49C0
:1020C0004163606FFEF775FE00280CD0606F416BB6
:1020D00008E000E012E0830610D58B060ED5A16E55
:1020E000A3E020468847F8BD2046FFF774FFF8BDFF
:1020F0002046FFF770FF00206860F8BD236E012BBB
:102100007ED1C3067CD5CB067AD510231362226814
:102110009068264640064036002848DA616F086815
:1021200040680004000CE8D0378B8742E5D9708303
:102130008869202834D0EFF31080012181F31088C2
:1021400011681F01B943116080F31088EFF310800C
:10215000012181F3108821688A68520852008A6040
:1021600080F31088EFF31080012181F3108821683B
:102170008A684027BA438A6080F31088202028604C
:1021800000202066EFF31080012181F31088216880
:102190000A689A430A6080F31088606FFEF7E9FDD1
:1021A00002206066308B718B401A81B234E0308B34
:1021B000718B401A81B2708B00289ED000299CD070
:1021C000EFF31080012686F310881668FF27213769
:1021D000BE43166080F31088EFF31080012282F373
:1021E00010882268966876087600966080F31088DA
:1021F0002020286000202066A066EFF3108000E019
:102200000EE0012282F31088226815689D43156054
:1022100080F31088022060662046FFF78EFEF8BD2E
:10222000030606D50B0604D5E16E002900D058E759
:10223000F8BD4006FCD54806FAD52046EFF31081DC
:10224000012383F31088146840239C43146081F3B6
:1022500010882021C1670021C16600F0D3F9F8BDC4
:102260000F080000200100047536000810B50400B6
:1022700003D0E06F002802D007E0012010BD00214C
:1022800078200155204600F027F82420E0672068D8
:102290000168490849000160204601F0E1FA01287F
:1022A000ECD0606A002802D0204601F01BF92068BB
:1022B00041680122D202914341602068816808226E
:1022C000914381602068016801221143016020462A
:1022D00001F06EF910BD0000F0B587B0044614217E
:1022E0006846FDF7C1FF4F4E23684F480222032185
:1022F00000258027B34244D1866953031E4386617B
:1023000086691E400596466953041E43466140692E
:1023100018400590C0206B4625C322C36946434838
:10232000FEF74AFE4248434E21C63560B560F5606F
:102330003561776075613F48083EFEF7AFFD0028C4
:1023400001D0FEF79FFC666774623A4E3848443607
:10235000143830601020311DA1C135617561B5613F
:102360003046F561FEF79AFD002801D0FEF78AFCA1
:102370002667002203211B207462FEF7D9FF1B2071
:102380004CE02D4EB3424BD1C66901235B041E4382
:10239000C661C6691E40059646691E43466140698E
:1023A0000391184005900C206B4625C30120049032
:1023B00009206946C006FEF7FFFD1D481D4E283066
:1023C000883621C63560B560F56035613046776086
:1023D00075610838083EFEF761FD002801D0FEF760
:1023E00051FC66677462134E1148CC36143030606D
:1023F0001020311DA1C135617561B5613046F561AF
:10240000FEF74CFD002801D0FEF73CFC26670022B9
:1024100003211C207462FEF78BFF1C20FEF77CFF5B
:1024200007B0F0BD00380140001002400004004831
:10243000300002409C0500200044004070B580231D
:102440001B58202B01D0022070BD00290BD0002A80
:1024500009D0012483682403A34206D10369002B19
:1024600003D1CB0701D0012070BD002303660468AF
:1024700063681B020BD5EFF31083012585F31088E9
:1024800025680126B6063543256083F3108801F0E0
:102490007FFA70BD70477047FFB50446C06F83B0C8
:1024A00017460D46202802D0022007B0F0BD002DAF
:1024B0000BD0002F09D00120A1680003814206D172
:1024C0002069002803D1E80701D00120EDE70021B1
:1024D000842001512120E067FEF74CFE264640365D
:1024E0000190378277820120A1680003814202D1E6
:1024F0002069002802D02F46002511E000270FE0B8
:1025000000228021204601F099FA002815D1002FE1
:1025100017D02168387808857F1C708A401E708229
:10252000708A019B002806980090E9D10022402182
:10253000204601F083FA00280AD02020E06703201B
:10254000B3E728882168C005C00D0885AD1CE4E705
:102550002020E0670020A8E770B50446C06F20285F
:1025600001D0022070BD00290BD0002A09D0012320
:10257000A0681B03984206D12069002803D1C80730
:1025800001D0012070BD20464030E16402824282C9
:1025900000202546803568602121E167216F0029F0
:1025A00018D0154B8B62236F1449D962236F1449DD
:1025B0001963216F134648632668E16C324628325E
:1025C000206FFEF795FC002804D0102068602020C2
:1025D000E067D6E7216840200862EFF31080012110
:1025E00081F3108821688A6880231A438A6080F307
:1025F0001088002070BD00008D370008D737000814
:102600008936000870477047FEE700007D20C00053
:1026100002F08CFA0248FEF7E9FD00F011FFF7E73F
:10262000EC030020FEB50400606E0E46056B18D06A
:10263000002E16D008220B4901920091217C002225
:10264000CB0047690121B84700280AD0A36A0822B5
:10265000044930469847002803D0002D01D00020BF
:102660002870FEBD0C00002070B504460020002C30
:102670000FD000290DD0002A0BD0002307E0E55C25
:10268000CE5CB54201D0CD5401205B1CDBB293423D
:10269000F5D370BD00280DD0817C00290AD1017CC2
:1026A000491CC9B20174102901D1012282740907A1
:1026B000090F01747047002801D0102901D90420A6
:1026C0007047042901D8002070470C2901D8012047
:1026D000704702207047000070B50446456E007CCC
:1026E0002AA3401CC2B20BCB86B003AE0BC6684611
:1026F0000021C2730172002D0AD011462046FFF757
:10270000DAFF0821030001F068FA0306081B1F0026
:10271000002006B070BD022213E0012102A8521F62
:1027200093B20191009000226E6911462846B0478D
:102730000028EED0052168460174017AC17403E0D7
:1027400003226846027401750B20606503A8124AD3
:102750000621033002F0A4F9014668460180C17BDE
:10276000802001436846C1730178417541788175C5
:1027700003A9626DE06CFDF75CFD606D636A82B277
:102780002046E16C98470120C3E7000000010100EA
:102790000500000000000000FFFF0000F0B5C36B63
:1027A000044685B018780090401E666EC5B2002CB5
:1027B00060D0002E5ED0102D5CD2606C0027052802
:1027C0004CD9801E81B22C4A184602F069F9626C1D
:1027D000E16B89181E394A7F0B7F1102020A000241
:1027E0001943024349BA90B2814237D12946A068C1
:1027F000FEF7F1F82946E06800F046FD2846716BC7
:102800007C300A5C012A03D001220A54306B077025
:1028100027712046FFF73EFF022060702046009996
:10282000FFF749FF002819D1E16B4207C978520F21
:10283000D140CA07D20F02A90A54401CC0B20828CE
:10284000F2D3E26A204690470821EB0002A80191EA
:1028500000900122756911463046A8476078022829
:1028600001D003206070002C04D0616CE06BFDF798
:10287000FBFC676405B0F0BDFFFF000010B504006D
:1028800008D0206BFFF768FE206B0068C169C94360
:102890004906FBD410BDF8B50400666E53D0002E77
:1028A00051D0A06800284ED0E06800284BD0217C91
:1028B000102948D262780025130001F08EF905072F
:1028C000450750504400012002F030F9A16920462C
:1028D00088470028F7D0E57001206070A07C0028B0
:1028E0001ED0607C401CC0B26074A1680968884238
:1028F0000ED965742046E168FEF719FA050007D085
:102900002968A068FEF767F82968E06800F0BCFC59
:102910002046A168FEF70BFA002801D00078207449
:102920002546E06D4035002803D0298C0122FEF7B2
:102930001AFC2046FFF7D0FEE06D002803D0298C5A
:102940000022FEF710FCF8BDE078401CC0B2E07039
:10295000A1788842F7D3E57004206070F8BD0A467C
:102960002032D7B2FEF737F8A07C002803D0217CB4
:10297000A06800F089FC706B5C37C15D002902D053
:10298000C555306B05702079401CC0B220710228FB
:1029900011D92571207C401CC1B22046FFF78BFE67
:1029A000002806D1207C716BC0005C3008180560DF
:1029B0004560306B05702046FFF76CFE6570F8BD12
:1029C00004000AD00F4821463031006A02F02EF888
:1029D0000021C943A06D02F065F9C821A06D02F085
:1029E00061F9002806D1002C04D020780028F4D109
:1029F000E16903E020780028EFD1216A204688476A
:102A0000EBE700001800002008B50C4841690122DE
:102A100011434161406903211040009000220A20C7
:102A2000FEF786FC0A20FEF777FC002203210B202C
:102A3000FEF77EFC0B20FEF76FFC08BD0010024085
:102A400030B5A5B0002500956846019502F07BF8E9
:102A5000254C6061029502A8039502F074F8A0610C
:102A60000495012104A8059502F0D6F8E0610695C9
:102A7000012106A8079502F0CFF820621B4800F05C
:102A80005BF900F033F900F01BF91C22184908A883
:102A9000FDF7CFFB154908A802F036F9144960602C
:102AA0001C221C310FA8FDF7C4FB124801680FA8B7
:102AB00002F02AF90E49A0601C22383116A8FDF751
:102AC000B8FB0D48016816A802F01EF90849E0603D
:102AD0001C2254311DA8FDF7ACFB04491DA802F0CF
:102AE00013F9206125B030BD18000020B407002084
:102AF000D07300080400002008000020F0B587B063
:102B000014216846FDF7B0FB584842690121C90409
:102B10000A43426142690A4005924269C9000A4378
:102B2000426142690A400592426949110A43426181
:102B300042690A400592426949000A43426140697C
:102B40004B4E0840CF100590012239463046FEF723
:102B50000AFB09200122F91CC006FEF704FB012232
:102B600044494548FEF7FFFA002220214248FEF77B
:102B7000FAFA0320400300250124009069460195DC
:102B800002943046FEF718FA0194694630460097E1
:102B900003950294FEF710FA032609200194694672
:102BA000C006009603950294FEF706FAFF20000186
:102BB00000900920694601960295C006FEF7FCF9CF
:102BC0002E4800906946019502942B48FEF7F4F9CF
:102BD0002B48009001946946039502942648FEF71D
:102BE000EBF9284800906946019602952248FEF7C5
:102BF000E3F9A003009001946946039602941E48ED
:102C0000FEF7DAF92120000401906946009702944A
:102C10001948FEF7D1F92003009009206946019573
:102C20000294C006FEF7C8F9C020009069460196DC
:102C300002951548FEF7C0F9092002956946C006BD
:102C4000009703950194FEF7B7F920206A4671C2F8
:102C500069460948FEF7B0F9002203210720FEF774
:102C600067FB0720FEF758FB07B0F0BD00100240DD
:102C700000080048084C000000040048071300004A
:102C8000080C0000102000000014004810B509488E
:102C900007490160042141600749C160074981601B
:102CA000FEF76EFA002801D0FDF7ECFF10BD000022
:102CB00000300040EC030020FF0F0000E2040000A1
:102CC00000B59BB0682206496846FDF7B2FA054890
:102CD0006946006819900448FDF7B2FE1BB000BDBC
:102CE00068730008040000200800002000B5A5B0AB
:102CF0002C220F4919A8FDF79CFA0D4964222C31AA
:102D00006846FDF796FA2C2219A90EA8FDF791FA4C
:102D100001F0AEFE08A908720007000F087301F069
:102D2000A7FE69460348FDF703FF25B000BD00007C
:102D3000C47200080400002010B5064981660649E7
:102D400041660649C166064901672022054902F02D
:102D5000AFFE10BD2D3B0008093B00085D66000872
:102D6000756600082808002010B54B21C9010948E4
:102D7000FDF794FF074A0021203206481174817440
:102D80004171054B0360117381760449416107214C
:102D9000417610BD64020020FC03002044040020A2
:102DA00010B50A48084901602F2141600021816067
:102DB000074A0161C2608161FEF76FFE002801D001
:102DC000FDF760FF10BD000000200040440400201B
:102DD000FFFF000010B50948074901602F2141603D
:102DE0000021074A8160C2608161FEF756FE00281B
:102DF00001D0FDF747FF10BD00100040FC0300208C
:102E0000FFFF000010B50C480A490160E1214902AA
:102E1000416000218160C16001618161C1610C225A
:102E2000016242614162FFF721FA002801D0FDF7FB
:102E300029FF10BD003801408C04002010B50C485B
:102E40000A490160E1214902416000218160C160BD
:102E500001618161C1610C22016242614162FFF73F
:102E600005FA002801D0FDF70DFF10BD0044004019
:102E700014050020006B002807D0022903D0042984
:102E800001D0112901D10121017070477047000064
:102E900010B503480021C943006801F087FE10BD4A
:102EA00030000020FFB581B00A9C1D460F46060089
:102EB0002CD0B069002800D0804700200090002F5F
:102EC00026D0012F24D0854219D20B99814216D8E1
:102ED000294603985C3100281CD0706B002F22D04B
:102EE0004018214600280AD0002908D00B9A002A51
:102EF00005D0FDF79EF9002801D001200090F0696F
:102F0000002800D08047009805B0F0BD0120FBE705
:102F10005C20D8E72046002F02D0726B5118E1E701
:102F2000716B4919DEE74019DBE70000FEB5044686
:102F3000C06C0125012803D1616C09780D2904D0EA
:102F40002178012903D9294627E0616A50E0022847
:102F500002D3A16C884201D902211EE02646636C8F
:102F60002036317B1A788A4201D0032115E0801E79
:102F700081B2384A184601F093FDE26C616C891801
:102F80001E394A7F0B7F1102020A000219430243D5
:102F900049BA90B2814206D00421226A002A30D078
:102FA000204690472DE02C4A207806CA01920091D5
:102FB00000280CD10221684689000A1805E0011D8D
:102FC00088C80838076008300B608242F7D8606C08
:102FD000019A4078009905280FD004DC012807D019
:102FE00002280ED104E00F2807D0112809D116E0DD
:102FF000002906D02046884703E0002A01D0204659
:1030000090476268002A03D0606C41782046904760
:10301000A16C606CFDF728F90020E064FEBDA16D95
:10302000606DFDF721F90020E065616C606D0A7844
:10303000027049784170E06D616D801C421CE26550
:103040000D54E06D317A431C626DE365115400212B
:103050002269A5E7FFFF0000BC720008FEB5416CC5
:103060000446487909790002084340BAC5B2E80825
:10307000690700D0012140180290284602F082F82A
:1030800006005AD02946FDF7EFF8A16D606DFDF7F7
:10309000EBF80020E065616C606D0A780270497899
:1030A0004170E06D0299C31C626D801CE365115490
:1030B000606C4178012901D0012100E000210096D7
:1030C0000195C27883781002184343BA67690022D9
:1030D0002046B847002129E00020CA0094461CE0A1
:1030E000B25CD207D20F08D0676DE36DBE46FF5CBD
:1030F00082403A437746FA540BE0636D0093E76DE4
:10310000BE46DB5D17461A468740BA43009B7746AA
:10311000DA55401CC0B2082803D262461218AA42EF
:10312000DED3E06D401C491CC9B2E06502988142C3
:10313000D2D32269002120469047304603F068FB35
:10314000FEBD000038B5040040D0A06B00283DD083
:10315000002914D1E06D1E4A81B2606D01F0A0FC1F
:10316000014668460180E16D606D4118684600784F
:103170000870684640784870E06D801CE065154D29
:10318000012220212846FDF7EEFF5020005D002897
:1031900002D0012815D108E0E06DFF2382B201338F
:1031A000616DA06BFFF778F90BE0E06D616D82B2A5
:1031B000A06BFFF7D1F9A06B0068C169C94349064C
:1031C000FBD4002220212846FDF7CDFF38BD0000AA
:1031D000FFFF00000004004810B50248006801F03D
:1031E000BFFC10BD300000207CB50446406C427925
:1031F0004178037910021843052940BA03D0C3B2BD
:103200000020626D1AE0FF210902884201D10120ED
:1032100000E00020694608700123E06C6A461D4604
:10322000E06510E0C108656CC91D695C45076D0F5C
:10323000E940C907C90F1154401CC0B29842F1D3EC
:1032400006200025E065002A0CD000920193616CF5
:103250000122C87889780002084343BA66690021D0
:103260002046B047A16D606DFCF7FEFFE26D616C1A
:10327000606DFCF7DEFF2078012803D12269294622
:10328000204690477CBDFEE770B50268002A0FD04B
:10329000FDF7FAFC04000BD02068401C08D0204643
:1032A00003F0F2F90546204603F0B2FA284670BD55
:1032B000002070BD7047000010B5074C00220821A7
:1032C0002046FDF750FF054801F030FC012208219F
:1032D0002046FDF748FF10BD00040048AC0D00007B
:1032E0000446204603F086F8FBE7000010B5FCF723
:1032F000FFFE044603F08CFE002803D001200349A2
:10330000000748602046FCF7F7FE10BD00ED00E026
:1033100070B594B030216846FCF7A6FF0024012563
:103320000F9409200E9400901394280409900C9493
:103330000D941094000111941294019502260A90A4
:10334000089607950B946846FEF744F9002801D0CB
:1033500072B6FEE707200C900E9401210D960F9493
:103360000CA8FEF75DF8002801D072B6FEE710A8A1
:1033700010951294FDF7E0FF002801D072B6FEE729
:1033800014B070BD7047000010B50248FEF71BFC7A
:1033900010BD00004404002010B50248FEF713FCE5
:1033A00010BD0000AC06002010B50248FEF70BFC73
:1033B00010BD0000FC030020F0B502681A4B1B4C46
:1033C000984201D0A04203D17025AA434D682A43F8
:1033D000174D184E184F98420AD0A04208D0174CEB
:1033E000A04205D0A84203D0B04201D0B84205D1D6
:1033F0001446032212029443CA6822438024A24343
:103400004C69224302608A68C2620A6882629842FA
:1034100005D0A84203D0B04201D0B84201D1096919
:10342000016301214161F0BD002C01400004004016
:10343000004001400044014000480140002000409D
:1034400070B5254801680A6B002A30D0234C1278E9
:103450002378D809C001002A01D0022204E0627852
:10346000D20701D05A06520E104345066D0E0023B6
:1034700080222070002D04D0012D1AD0022D21D1E0
:103480001DE0164D01236370243D2E78002E03D0DD
:103490000A206080237015E02B70104320702031CB
:1034A000087B002803D014214843C83070BDC820D1
:1034B00070BD1043C821C0096180C00101E0637084
:1034C0001043207020780121C209C9030448FDF788
:1034D0004AFE608870BD0000040000203C0000200F
:1034E0000008004810B5818CC90707D001684A68F8
:1034F00001235B049A43836A1A434A60818C8907DB
:1035000007D501684A6801231B049A43C36A1A431A
:103510004A60818C490707D501684A6801239B04EA
:103520009A43036B1A434A60818C090707D50168E7
:103530004A680123DB039A43436B1A434A60818C38
:10354000C90607D50268916801231B039943836B61
:1035500019439160818C890607D501688A68012327
:103560005B039A43C36B1A438A60818C490612D568
:1035700003685A6801210905046C8A4322435A6092
:10358000026C8A4207D10268516803235B059943A4
:10359000436C19435160818C090607D501684A685C
:1035A0000123DB04806C9A4302434A6010BD000093
:1035B000FEB507460025803704467D60FDF7DAFD3D
:1035C000019020680068264600076036002819DA56
:1035D000274800900121002249052046019B00F068
:1035E0002DFA00280ED0EFF31080012181F310880E
:1035F00021680A6880239A430A6080F3108820209B
:10360000E06729E020680068400728D51848009046
:103610000121002289052046019B00F00FFA0028B5
:103620001DD0EFF31080012181F3108821680A6812
:10363000FF2321339A430A6080F31088EFF3108050
:10364000012181F3108821688A68520852008A603B
:1036500080F310882020386035760320FEBD2020BE
:10366000E06738602566656635760020FEBD00009F
:10367000FFFFFF0110B5406A0022014640314A8336
:103680004A82FEF7A8FC10BDF8B5446AE06F2546F3
:1036900080352E682168896800270906002906DA26
:1036A000212804D152200753204600F0C9F8206891
:1036B0008068400606D5222E04D15A2007532046A2
:1036C00000F08EF868681021084368602046FEF715
:1036D00082FCF8BD70B501468969406A0022202944
:1036E00038D05A210A52EFF31081012383F3108856
:1036F00003681C68FF250135AC431C6081F310880A
:10370000EFF31081012383F3108803689C68640839
:1037100064009C6081F31088EFF31081012383F330
:10372000108803689C684025AC439C6081F3108836
:10373000202380210B50016E01290BD1EFF3108162
:10374000012383F3108803681C681025AC431C60B8
:1037500081F310884266016E012902D0FEF79AFEBD
:1037600070BD5821095AFEF7E8FB70BD10B5406ADC
:1037700001214166016E012902D0FEF78CFE10BDC9
:103780005821095A4908FEF7D8FB10BD10B501466B
:103790008969406A20291BD0002252210A52EFF386
:1037A0001081012282F31088026893688024A34369
:1037B000936081F31088EFF31081012282F3108867
:1037C0000068026840231A43026081F3108810BD2C
:1037D000FEF718FF10BD10B5406AFEF714FF10BDCC
:1037E00010B5EFF31081012282F31088026813688C
:1037F000FF242134A343136081F31088EFF3108179
:10380000012282F31088026893685B085B00936072
:1038100081F31088016E01290BD1EFF31081012291
:1038200082F31088026813681024A343136081F3A5
:103830001088202280210A5000210166816610BD77
:1038400010B5EFF31081012282F31088026813682B
:10385000C024A343136081F310882021C16710BDE9
:1038600070B5044680682169E269084361690025F2
:1038700011432268084311683F4B1940014311600E
:1038800021684868032212039043E26810434860AD
:10389000A169206A084321688A680B231B029A43A6
:1038A00002438A6035492068884210D13448006B51
:1038B0008007800F0ED0012805D0022805D00328EC
:1038C0000AD1022109E0042107E0082105E02D4981
:1038D000884201D1002100E010210120E369C003EA
:1038E000294A2A4E834222D1002906D0022907D034
:1038F000042907D0082935D108E0FDF731FE03E09F
:10390000104603E0FDF73CFE002830D0616840001F
:103910004A088018FCF722FC01461039B14221D830
:103920001A49491C01400007400F08431DE00029C7
:1039300006D0022907D0042907D0082912D108E0AF
:10394000FDF70EFE03E0104603E0FDF719FE002828
:103950000DD061684A081018FCF700FC01461039C8
:10396000B14201D9012502E080B22168C86000207F
:10397000A066E066284670BDF369FFFF003801408D
:10398000001002400044004000127A00EFFF0000E7
:1039900070B50446416540300283002025468035DD
:1039A000686022212960616F002919D0204B8B6249
:1039B000636F2049D962636F1F491963616F1346B2
:1039C0004863666D216832462431606FFDF790FAD6
:1039D000002805D01020686020202860012070BDDC
:1039E000206900280CD0EFF31080012181F31088AA
:1039F00021680A68FF2301331A430A6080F31088A4
:103A0000EFF31080012181F31088226893680B4343
:103A1000936080F31088EFF3108081F310882168A1
:103A20008A6840231A438A6080F31088002070BDA2
:103A3000D53600086D37000889360008FFB5064600
:103A400081B080360546044660350A9F2EE0781C1A
:103A50002CD0FDF78FFB0499401AB84214D8002FE0
:103A600012D020680168490720D5C169C9430907F8
:103A70000CD4082707622046FFF7B2FE77600020CB
:103A80002876012005B0F0BD0320FBE7C069C043E4
:103A900000050BD401202168C00208622046FFF710
:103AA0009FFE2020706000202876EDE72068C16925
:103AB0000298884305D0002103988142C7D0002096
:103AC000E0E70121F8E7000010B50548006800288C
:103AD00002D0383002F098FD0248FEF77DFA10BDA2
:103AE000040000208C04002010B505480068002860
:103AF00002D0303002F088FD0248FEF76DFA10BDAA
:103B0000080000201405002010B50C460A460146A6
:103B1000044B0548FDF722FF002800D00024204672
:103B200010BD0000FFFF00006402002010B50C462D
:103B30000A460146044B0548FDF762FF002800D005
:103B40000024204610BD0000FFFF0000640200209A
:103B50007CB51546024600201C4600290BD0491EA4
:103B600000920191044B6A462146284600F02EF946
:103B7000009A002111707CBD054500082021020C2F
:103B800001D010211046020A01D01046083902095E
:103B900001D01046091F820801D01046891E420834
:103BA00001D0881E7047081A7047F8B5040C8BB214
:103BB000264682B25E430D0C1046370C584336043D
:103BC00080190021794116466E43370C360480195E
:103BD000794126466E438919F8BD30B47446641E97
:103BE0002578641CAB4200D21D46635D5B00E31880
:103BF00030BC18478307FF22DB0E9A408907090E65
:103C00009940002808DB830809489B001B181868A6
:103C100090430843186070470007000F0838830876
:103C200004489B001B18D86990430843D86170472B
:103C300000E400E000ED00E002E008C8121F08C147
:103C4000002AFAD170477047002001E001C1121F1D
:103C5000002AFBD170470000F0B51FB486B0099868
:103C6000089A030D0021024314D05148514A1818F4
:103C7000504305141198012810981AD0281A401C96
:103C800000264D4F4D49009601910490002812DA0C
:103C9000444211E01198012449A3012801D1109850
:103CA000C1430698119A84600360C26041600BB002
:103CB000F0BD4042E4E70446210500203F4A001CD5
:103CC00051410391029012E0E00707D032463B4693
:103CD00001990098FCF7BCFC0191009032463B46EC
:103CE00010461946FCF7B4FC06460F466410002C3B
:103CF000EAD10498039B0028029A0999089806DAE9
:103D0000FCF7A6FC019B009AFCF7A2FC05E0FCF77F
:103D100007FD019B009AFCF703FD04460E460022B6
:103D2000284BFCF795FD03D80020C043014607E06F
:103D30000022254B20463146FCF7D8FBFCF768FDF6
:103D4000102409E0002C0ADB0A220023FCF730FAD9
:103D5000079B30321A55641E02460A43F2D11122E3
:103D6000641C079B121B1C19119B012B03D0012300
:103D700008430ED10AE0084304D01120109000201F
:103D8000119077E71098151A6D1E0BE0109882427B
:103D900002DD00236D1C03E0824201DA00236D1E68
:103DA000002BEED0069811998260C16030C07EE78A
:103DB00001FCFFFF104D0000000014400000F03F28
:103DC000300000000000F0430000E03FFFB597B076
:103DD0000646002518E2252877D100242746FD490C
:103DE000049400E00443761C32780120203A90408D
:103DF0000842F7D130782A280ED0022230780146C6
:103E00003039092916D804990A2359433039401802
:103E10001443761C0490F1E7189802C80491189096
:103E2000002904DA012040030443484204900220A0
:103E30000443761C30782E2814D104200443707873
:103E4000761C2A2809D11898761C80C8189009E099
:103E50000A214F43303FC719761C3078014630396C
:103E60000929F5D930786C2810D006DC4C281AD0F6
:103E700068280ED06A2817D104E0742813D07A2855
:103E800012D110E00120400504430CE00121090596
:103E900001E0032109050C437178814203D101201F
:103EA00000052418761C761C3078119066280BD0FB
:103EB00013DC58287DD009DC00287BD04528F6D0BB
:103EC0004628F4D047281AD1A5E118E0632835D058
:103ED000642870D0652812D19DE170286CD008DC70
:103EE0006728F1D069287BD06E280DD06F2806D1C5
:103EF000BAE073282ED0752871D0782859D01A9A34
:103F0000199990476D1C7EE16002400F022809D08C
:103F100003280DD00428189801680DD00D60001DED
:103F2000189070E11898EA1701680D604A60F6E78A
:103F3000189801680D80F2E70D70F0E718986A464E
:103F400001781172001D18900020507202A8009094
:103F5000012005E0189802C8189000200091C04385
:103F600061070DD5002101E00199491C0191B94279
:103F700012DA8142F8DB009A515C0029F4D10BE09F
:103F8000002101E00199491C01918142FADB019A6B
:103F90000099895C0029F5D1019904981A9B471A68
:103FA00021463846199A00F097FA019940194518A8
:103FB0000BE04FE02CE113E04EE000980099007810
:103FC000491C00911A9A199990470198401E019036
:103FD000401CF2D1214638461A9B199A10E137E06D
:103FE0000A200021009001916002410F022907D0B0
:103FF000189A01CA1892C2179446032908D00AE0F9
:104000001898C01DC108C90005C91891944607E059
:1040100000B2C2179446042902D140B2C1178C469F
:1040200000226146944506DA0A4600214042914149
:104030008C462D2102E0210504D52B216A461173FF
:10404000012103E0E10701D02021F7E7029155E0CB
:104050000A200AE0102008E010200090002104202F
:1040600004430191082703E00820002101910090FA
:104070006002410F022907D0189A01CA1892002243
:104080009446032908D008E01898C01DC108C9004B
:1040900005C91891944603E080B2042900D1C0B24A
:1040A00000210291210729D51199702906D0009A83
:1040B0001021019B4A401A4305D00EE040216A4678
:1040C0001173012108E06146014306D030216A46A0
:1040D00011731199517302210291009A0821019BD9
:1040E0004A401A430AD16146014301D1610705D50F
:1040F00030216A46117301217F1E029111995829BE
:1041000004D035A10E910DA90D910DE037A1F9E76D
:104110006146019B009AFCF74BF80E9B8C469B5C1A
:104120000D9A521E0D92137061460143F0D10D9805
:1041300005A9081A20300190600703D5012000046A
:10414000844300E001270198874201DD381A00E02E
:104150000020019900904118029809180498401A0B
:104160000490E00306D421461A9B199A049800F0A3
:10417000B3F94519002706E003A81A9AC05D1999FA
:1041800090476D1C7F1C02988742F5DBE0030CD53D
:1041900021461A9B199A049800F09EF9451904E0EB
:1041A0001A9A3020199990476D1C0099481E00906A
:1041B0000029F5DC08E00D980D990078491C0D9157
:1041C0001A9A199990476D1C0199481E019000296F
:1041D000F1DC63E109280100303132333435363700
:1041E0003839616263646566000000003031323343
:1041F00034353637383941424344454600000000E3
:1042000000F05AF94519761C3078002800D0E2E514
:1042100028461BB0F0BD600700D406271898C01DC3
:10422000C108C90048680A680831C30FDB07189144
:10423000190001D09CA108E0210501D59BA104E053
:10424000E10701D09AA100E09AA1430011985B0810
:10425000109165280CD006DC452809D046281DD0D1
:10426000472841D141E0662818D067283CD13CE07E
:104270000021112F01DB112000E0781C019100903A
:1042800008A911A8FFF7E8FC139905910021119ADC
:1042900015927F1C12980197009150E00120C007F1
:1042A00003900120019008A9009711A8FFF7D4FC02
:1042B000139A149905920022119B0092129815935B
:1042C000059A0192002901D0104602E0791C40189D
:1042D0000190381A01D5019804E04042401E009038
:1042E000781C0190C01B029043E0012F00DA0127E7
:1042F0000021112F01DD112000E0384601910090CE
:1043000008A911A8FFF7A8FC13990591119A00219B
:10431000129815920091019721070CD40599B94282
:1043200001DB019900E00191012904DD159A491E84
:10433000515C302906D0B84201DA011D05DA0121AD
:10434000029115E00199491EEDE7002805DC00996E
:10435000411800910199091A03E0019A411C914208
:1043600000DD01910099401A401C02900120C00715
:104370000390200706D402990198814202DB0020B5
:10438000C043029000206946C87707AF0121039817
:104390000337C907884224D0022011902B201290A5
:1043A000039800280CDA404203902D20129007E079
:1043B0000A210398FBF7D2FE30317F1E039039703B
:1043C0001199481E11900029F2DC03980028EFD1C2
:1043D000791E129808703078202108404530BF1EA1
:1043E000387006A8C01BC01D0390109800780028E4
:1043F00000D00120019941180298C01709180398AC
:1044000009180498401A401E0490E00306D421467F
:104410001A9B199A049800F05FF8451910980078D3
:10442000002803D01A9A199990476D1CE00324D5EF
:1044300021461A9B199A049800F04EF845191CE081
:104440000098002807DB00990598884203DD15983D
:10445000405C199901E0199930201A9A9047009808
:104460006D1C401C00900298401E0290002804D150
:104470001A9A2E20199990476D1C0199481E019097
:104480000029DDDC05E038781A9A7F1C19999047DD
:104490006D1C0399481E03900029F4DC21461A9BE9
:1044A000199A0498ACE600002D0000002B000000D3
:1044B0002000000000000000F8B5044600251E465C
:1044C0001746880404D405E039462020B0476D1C07
:1044D000641EF9D52846F8BDFFB50446002581B015
:1044E0001E46C80301D5302700E02027880404D5E4
:1044F00005E038460399B0476D1C641EF9D528467F
:1045000005B0F0BD4A68002A06D00A68531C0B604B
:1045100010704868401E486070470000F0B589B0D0
:1045200004007AD02068002877D0A168002974D0D0
:1045300000216A4611760F4605902269002A68D04C
:10454000012106A8904700285FD008255BE0A288DB
:104550002946059800F05EF90646A089A84206D9CA
:10456000A068A900425831A1324801F0D7FC32A11D
:104570003048726801F0D2FC7068002836D0FBF732
:104580009EFE801C00F0FEFD0090002817D0706891
:10459000FBF795FE421C71680098FBF74AFE092D57
:1045A00003D92AA10098FBF76AFE206A002806D0EA
:1045B0000098FBF784FE81B2226A00989047009829
:1045C00002F026F9082D16D00A2D14D020A17D2244
:1045D000D200204600F0E6F90646A068B100415836
:1045E000144801F0FDFF062E19D106E0A06801274E
:1045F0008030016816E0B168E9E7162D0FD06D1C18
:10460000EDB2172D01D2002FA1D06846007E1B28E5
:1046100093D1A069002800D0804709B0F0BDA06800
:104620000127C16F034801F0DBFFEEE70D0A257398
:1046300000000000B40700203E5B4D43552D3E4C6A
:104640003130325D3A25730D0A0000000D0A00007A
:104650004F4B0000F7B582B0050065D0082402E09A
:104660000C2C00D11624AA882146039800F0D2F819
:104670000646082C1FD00A2C1DD02CA00090002E1E
:1046800038D07068FBF71BFE801C00F07BFD070034
:104690002DD07068FBF713FE421C38467168FBF79B
:1046A000C8FD092C03D922A13846FBF7E8FD0B2CE5
:1046B00003D03E4602E0B068E0E7049EA889A0422D
:1046C00006D9A868A10042581AA11C4801F026FC8E
:1046D00032461BA1194801F021FC286A002806D0A7
:1046E0003046FBF7ECFD81B22A6A304690473846E7
:1046F00002F08EF87D22D2002846009900F052F98F
:104700000646A868B10041580C4801F069FF062E22
:1047100001D1162C04D1A868C16F084801F060FFD0
:10472000641CE4B20D2C9BD305B0F0BD4F4B0000D0
:104730000D0A00000D0A257300000000B4070020D8
:104740003E5B4D43552D3E4C3130325D3A25730D65
:104750000A000000F8B505004ED0286800284BD0AC
:10476000A868002848D00027684607703C464020CB
:1047700000F008FD06003CD02A69002A39D001214A
:10478000684690470028F7D068460078082824D06B
:104790000D280DD01B282CD03055641CA4B2402C01
:1047A00000D3002415480121826E68469047E3E754
:1047B00037550024324612A1104801F0AFFBA8691A
:1047C000002800D0804712A13046FBF758FD024672
:1047D00028462968FFF73EFFCEE7002C06D00121CE
:1047E000064800F023FE641EA0B200E0002084B260
:1047F000C2E7304602F00CF8F8BD0000B407002014
:104800000D0A496E7075743A25730D0A0000000098
:104810000D0A000010B5002308E01C01045D8C4265
:1048200002D11901081810BD5B1C9BB29342F4D34E
:10483000002010BD10B508480468216C606C8842E7
:1048400006D906A10D4801F069FB206C401E60648A
:10485000002C00D1002010BD0800002040657272BD
:104860006F723A207265637620627566206F766596
:1048700072666C6F772E0D0A00000000B4070020EE
:1048800004480068002802D0C06B002800D1002036
:10489000704700000800002070B50C4964280D68BE
:1048A00001D2642407E06421FBF758FC044602E0CF
:1048B000642000F03BF9686C002801D0012070BD35
:1048C0002046641EA4B20028F2D170BD080000206A
:1048D00010B506480468002C07D0E06B002804D00F
:1048E000216CFBF7C1FC0020606410BD08000020B3
:1048F00030B4044606480068002806D0002904D0D9
:104900000A462146436A30BC184730BC7047000055
:1049100008000020F8B5064600F078FF05461C4860
:104920001C4F0468002C01D0012E04D91A48B96824
:1049300001F056FEF8BDB0003958174801F050FE9E
:1049400014481649843087600160696E0161012056
:10495000207000276F66E06D002804D06021095B9D
:104960000022FCF700FC0E48002E02D0FFF7F2FEFA
:1049700001E0FFF7D3FDE06D002804D06021095B62
:104980000122FCF7F0FB0648006968662770F8BD55
:104990000800002040000020B407002040740008F8
:1049A000C4000020F7B504464069174600281AD015
:1049B000606A002817D0E069002814D005268047D7
:1049C000050010D0616A38468847002816D0606913
:1049D00080470021295428460199FBF75CFC0028F8
:1049E00003D006260AE00420FEBD09A12846FBF7F5
:1049F00052FC002801D0042600E005262A4605A125
:104A0000094801F08BFAA06980473046FEBD0000DE
:104A1000455252003E5B4C3130322D3E4D43555D88
:104A20003A25730D0A000000B407002070B50C0091
:104A3000054619D02068002816D06168002913D0D7
:104A4000E168002910D0006801681022114301605C
:104A5000208AE16882B22068FDF7F0FC00206061E6
:104A60002169E068FBF700FC002D00D0A56270BD55
:104A70000948016989058A0F084909694904890FAC
:104A800089001143026900695207520E0A43C004AB
:104A9000C00FC001104370470004004800080048E0
:104AA00070B50300104602D000240B4D11E0002029
:104AB00070BD1A78504000225B1CC60702D0400827
:104AC000684000E04008521C92B2082AF5D3641CEA
:104AD000A4B28C42EDD370BD01A00000EFF30580BD
:104AE000002800D0012070477047FCF78FFBFEF7CD
:104AF0000FFCFEF703F8FDF787FFFEF783F9FEF7DB
:104B00009DF9FEF767F9FEF74BF9FEF7BFF8FEF7E0
:104B100079F9FEF729F9FDF793FF00F00FF8FEE7AA
:104B200001460020842900D0C81C704710B5002819
:104B300000D1012001F09AFE002010BD10B501F057
:104B400005FF002010BD10B54168002903D00120E9
:104B500001F0B1FF10BD012001F0A2FF10BD000067
:104B600038B5002405460094FFF7B8FF00280FD0A1
:104B70006946284602F0ACF8012801D0FF2038BD74
:104B8000009800280DD0012007490007486008E080
:104B900000231A461946284602F00EF8012800D0D4
:104BA000FF24204638BD000000ED00E038B5054682
:104BB00000200090002D11D00024481C10D00029A6
:104BC00000D00C46FFF78AFF002814D06A46002167
:104BD000284602F0B7F8012813D104E0802038BD40
:104BE0000024E443EEE7009800280CD00120074998
:104BF0000007486007E02146284602F0DFF8012858
:104C000001D0FF2038BD002038BD000000ED00E0DD
:104C1000812070478120704738B54368002B09D048
:104C2000012909D10320002200901146012001F042
:104C30006DFF38BD012901D0002038BD03220021BD
:104C4000012001F045FF040004D000231A46194654
:104C500001F0B2FF204638BD38B500240546009467
:104C6000FFF73CFF00280FD06946284602F030F8D5
:104C7000012801D0FF2038BD009800280DD0012068
:104C800007490007486008E000231A4619462846ED
:104C900001F092FF012800D0FF24204638BD00001B
:104CA00000ED00E038B5054600200090002D11D041
:104CB0000024481C10D0002900D00C46FFF70EFF3E
:104CC000002814D06A460021284602F03BF801284B
:104CD00013D104E0802038BD0024E443EEE70098BF
:104CE00000280CD0012007490007486007E0214652
:104CF000284602F063F8012801D0FF2038BD0020CB
:104D000038BD000000ED00E07FB50D460446416966
:104D10000820205E002911D0A16900290ED0FFF7DC
:104D2000FFFE6B46A269616907C32B4622692168B1
:104D3000606802F03AF9039004B070BDFFF7F0FE2E
:104D400003A901910090208A2B4682B221686068F5
:104D500002F002F9012801D00020EDE70398EBE70B
:104D6000F8B5134C0F46666905462068001D01F032
:104D70008BFC681C07D1002F05D021680D48091D48
:104D800001F020FDF8BD2068751945602168B54225
:104D900004D2A068091D01F0FDFCF8BD6068091D82
:104DA00001F0F8FC206B8542F7D22563F8BD0000C6
:104DB0005401002024090020F8B5054601F00EFD3D
:104DC000294C2069401C20612068284F002803D00E
:104DD000E069002827D02CE025602069012828D12F
:104DE000002614207043C01901F0C6FC761C072E63
:104DF000F7D31E488C3001F0BFFC1C48A03001F0F6
:104E0000BBFC1A48B43001F0B7FC1848C83001F0B8
:104E1000B3FC1648DC3001F0AFFC14488C30606005
:104E20001430A06005E02068E96AC06A884200D8B2
:104E30002560E06A401CE062E86AA169884200D906
:104E4000A06114214843C019291D01F0BBFC01F0E9
:104E5000D1FCE069002806D02068E96AC06A88426F
:104E600001D201F0F7FCF8BD5401002048080020F1
:104E700010B5026C0C46002A0CD0C1688B18C360B8
:104E800041688B4201D2194601E00168C1602046A9
:104E9000FBF7CFF910BDF8B5856B17460446002621
:104EA000026C002A11D0002F19D0E068FBF7C1F97D
:104EB000E168206C091AE1602268914202D26168BF
:104EC000081AE060022F17D019E02068002816D1D8
:104ED000606802F0FBF80646002060600FE0A06802
:104EE000FBF7A7F9216CA0684018A06061688842B0
:104EF00005D32068A06002E0002D00D06D1E6D1C5F
:104F0000A5633046F8BD10B504464030007C00284B
:104F100005D0012806D0022807D072B6FEE7206B24
:104F200001F076FC204601F073FC10BD0F480E49DD
:104F3000420705D0C01DC0080C4AC000821A891A59
:104F40000B4A0023411809C20839C908C900183A98
:104F500011604B600B600B1A0AC093600120C00700
:104F60005360D060704700005014000038090020E2
:104F7000A00100200F4E104C3746C83F11E001F051
:104F80002DFCF068C568281D01F07EFB2069401EDD
:104F90002061E068401EE06001F02CFC2846FFF72D
:104FA000B2FFE0680028EAD138680128F9D901F099
:104FB00051FCF6E7100900205401002010B500282C
:104FC00007D00021416001600B460A46C16001F034
:104FD000F3FD10BD10B503460298002906D002600B
:104FE000C3630164012101F0B1FD10BD0060F7E76A
:104FF000FFB581B003980C9C87000E460A9DA52240
:105000003946206BFBF729F9206B3F1FC019C708F1
:10501000FF00780701D072B6FEE7039860640020B5
:105020002218315C20321175315C002902D0401CFD
:105030001028F5D3002043210855072D00D306255D
:10504000E562A564E064201D01F0A1FB2046183054
:1050500001F09DFB24610720401B6462A06138467B
:10506000049A019900F0FAF820600B98002800D00B
:10507000046005B0F0BD000030B5114900E01146F4
:105080000A688242FBD34B685C18844203D14068B3
:1050900018184860084643681C18944209D1084C07
:1050A000103C2468A24209D052689A1842600A68EB
:1050B00012680260814200D0086030BD0460F9E7E8
:1050C000A001002010B5044601F088FBA06B002869
:1050D00004D0002401F08EFB204610BD0124F9E726
:1050E000064841680968002905D04168C968C9684F
:1050F0004968016370470021C943FAE75401002061
:1051000003480068401C72B600D0FEE7FEE70000CE
:10511000A8010020F8B5044601F060FB25464035A3
:105120000526AE57274624370BE0606A00280AD0D0
:10513000384602F03BF8002801D001F0B7FB761E9C
:1051400076B2002EF1DC0027FF436F7101F052FBB5
:1051500001F044FB0426AE572046103000900BE0CF
:10516000206900280AD0009802F020F8002801D019
:1051700001F09CFB761E76B2002EF1DC2F7101F05F
:1051800039FBF8BDF8B50546002701F00BFC2C4EA5
:105190003068002801D1FFF7C9FEF068054212D13E
:1051A000002D10D00835680708D06807400F082187
:1051B000081A4519680701D072B6FEE7002D02D023
:1051C0007068854202D902F023F830E01C481030A4
:1051D00001460C6801E020460C466168A94202D2F3
:1051E00021680029F7D131688C42ECD0076821682A
:1051F000016060680837411B102908D9601942070F
:1052000001D072B6FEE741606560FFF735FF616867
:105210007068401A7060B268904200D2B060F06866
:105220000143002003C401F0F3FF002F01D101F07E
:1052300049FA780701D072B6FEE73846F8BD00009B
:105240009001002004490868002803D00868C26C57
:10525000521CC264086870475401002010B5012434
:10526000031F24061C601B1F1960191F024B0B60D3
:10527000143940380A6010BD0151000800F0C6FA28
:1052800006A100F04BFE72B6BFF34F8F0A490948E2
:10529000C860BFF34F8F00BFFDE7000073746172F9
:1052A00074207265626F6F742C20776169742E2E82
:1052B0002E0D0A000400FA0500ED00E010B50121F2
:1052C00000F04AF810BD0A78002A08D04B781B0776
:1052D0001B0F082B03D003681B781A4208D06030DC
:1052E0000078C00702D14878C00601D50020704779
:1052F0000020C0437047000010B500F087FA002876
:1053000003D00249896B01F06BF910BDEC0000205D
:10531000F8B505468089E989401A04B2202606E0DE
:1053200068460670AA6E01219047641E24B2002CC4
:10533000F6DC297B284600F079F8F8BD10B500F0BE
:1053400065FA002801D000F087FC10BD10B50021DF
:10535000C94300F001F810BDF8B50446481C04D05C
:105360000022E389002B02D003E00122F9E70129A2
:1053700016D0A089834201D14D1C11D00025834253
:1053800001D1012901D0104612E05B1E401EE381CD
:1053900080B2A08121690D540121204600F046F819
:1053A000F8BD2369461E5918435C401C8B5500B25A
:1053B000A389E1895B1A8342F3DCA0890826401E99
:1053C000A081002A07D1E089401EE081684606706E
:1053D000A26E01219047A189206945540E25655F81
:1053E00009E020696946405D0870A26E01216846A7
:1053F00090476D1C2DB2A089A842F2DC202069469E
:105400000870A26E012168469047A089E189401A80
:10541000401C05B206E068460670A26E0121904766
:105420006D1E2DB2002DF6DCF8BD000070B50C46E7
:10543000054603E004A1284601F0D2F82146641E87
:10544000E4B20029F6D170BD0820080010B5002193
:10545000C94300F0BAFA10BD10B5044600F006F8D2
:105460000121204601F04EF810BD0000F8B50446B9
:105470008089002822D02169002625460E546035F7
:1054800028781B4FC0071FD0204600F0E2FA2046C4
:1054900000F004FDE681A681E08E00280ED015A163
:1054A000204601F09DF800232046A26D616900F0BE
:1054B000BBFD010003D0204600F076FDF8BD20467C
:1054C000B96901F08DF8F8BD206881682069FAF7A4
:1054D000FDFE002806D0796B204601F081F8A681F8
:1054E000E681F8BD28780121084328703968F3E780
:1054F000EC0000200D0A00007FB50C46054600F0C8
:1055000085F9060013D0022D11DB616800F0B9F8AF
:105510000B4B06CB5B680393019200910290231D15
:105520006A1E6946304600F0F7F804B070BD0548C1
:10553000416D304601F054F80020C043F5E700000B
:10554000CC760008EC000020411C0A7800205C2A80
:1055500001D01046704749786E290FD004DC3029FD
:10556000F8D0622904D105E0722905D0742907D04A
:1055700008467047082070470D2070470A20704782
:1055800009207047F8B58446002300780A260122D6
:105590001C461D462D2807D00021604608180778B4
:1055A0000021302F04D01AE00022D2430121F4E779
:1055B0004178782907D0582905D0622905D0422999
:1055C00003D002210BE0032109E0012107E0077865
:1055D0002E2F04D14778002F01D0042110E0077846
:1055E000401C002FF3D1012908D0022903D0032940
:1055F00006D1102603E00826012301E0022602233B
:105600006344501C02D000201B181EE00120FBE761
:105610002E2805D00746303F092F03D8F8B20FE0F7
:10562000012511E00746613F052F01D8573804E0F6
:105630000746413F052F02D83738C0B200E00020AE
:10564000744304190A2045435B1C18780028DFD1F5
:10565000042913D1002D11D01046FAF7CFFE0646CB
:105660002846FAF7D6FE05462046FAF7D2FE294626
:10567000FAF786FE3146FAF746FEF8BD204650435B
:10568000F8BDF8B504460878272809D02D2803D09E
:105690000246303A092A0AD80846FFF773FFF8BDD8
:1056A0004A78002AF4D00846FFF74EFFF8BD0026DE
:1056B000242807D00028F9D000270D460C462228C0
:1056C00011D01BE04A78002AF6D000232046491C5E
:1056D000A26D00F0A9FC010003D0204600F0ACF858
:1056E000F8BD3046F8BD6C1C254607E05C280BD0A1
:1056F00022280FD0E8557F1CBFB2641C20780028F8
:10570000F4D1EE552846F8BD601EFFF71DFFE855A1
:10571000641CF0E7EE55EEE7FFB58BB00C4615467E
:10572000202103A8FAF7A0FDA0786E1E0007000F45
:10573000B04201DD054600E06D1E00270BE0B90018
:105740000E980091081841680B98FFF79AFF00998E
:1057500003AA50507F1CB742F1DB2B00FEF73DFA45
:105760000805090D12171C232C35A06880470FB0BF
:10577000F0BDA16803988847F9E7A26804990398E7
:105780009047F4E703AB07CBA3689847EFE703AD77
:105790000FCDA468A047EAE70798009003AD0FCDAE
:1057A000A468A047E3E7089907980191009003AD2A
:1057B0000FCDA468A047DAE707AB07CB6B4607C35A
:1057C00003AD0FCDA468A047D1E70020C043CEE7CA
:1057D000C068704700B500210B4B30225A54491C59
:1057E000C9B20929FAD341780907090F012903D958
:1057F000072901D9082901D8406800BD406802493D
:1058000000F02CFE004800BD0807002009490020D8
:1058100082008A58002A06D060321278920702D598
:10582000800008587047401C00B20528F0DB0020BB
:1058300070470000F406002010B54A7800201207D7
:10584000120F921E1300FEF7C8F90604070B0E0E86
:1058500010068868006810BD89680020085E10BDC9
:105860008868007810BD886810BD88684168002984
:1058700002D00068884710BD002010BDF3B583B08A
:105880000446049800287DD0E16E204688472068B1
:105890008068002814D0FAF712FD002810D0FBF71A
:1058A00069FC00280CD0FBF765FC6168401A3C4994
:1058B000884205D9204660300178490849000170C6
:1058C000A06B182500270104090E03D00025FF272F
:1058D000FF430AE00102090E02D00825314F04E01F
:1058E000000E02D01025FF273F06A06D0190002674
:1058F00020464030029038E00198310108180090AD
:1059000040780007000F09282CD120460099FFF7A6
:10591000DAFC002826D10098A16B406802463A4084
:105920008A421FD1FF231A46AA401040049AAA4077
:10593000904217D111430020A1630490002D06D09E
:1059400000982946406808398B4018420AD10198CE
:10595000310108188168002901D0204688470020BD
:10596000A0630EE0761C029836B2808BB042C3DC96
:105970000498002805D00020A0632046049900F078
:1059800083FA00E009E0FBF7F5FB002802D0FBF703
:10599000F1FB6060216F2046884705B0F0BD000034
:1059A000E09304000000FFFF10B50C460346FFF72C
:1059B0002DFF002805D0012B04D002DD616800F026
:1059C00077FD10BD00F040F910BD70B5044600260B
:1059D00040340546002913DD1423E35E581EA082DF
:1059E000218A608A814201D90A4600E00246524279
:1059F00093420FDC814200D908464042A08209E070
:105A0000002906DAA08A401C00B2A082002801DD2D
:105A1000A68270BD2846FFF77BFC1420205E00287C
:105A200014D0618A08180521401DFAF7ADFB8800E3
:105A30004019C16B286900F027FCA8810028E8D034
:105A4000E8812846296900F0CBFD70BDAE81EE816A
:105A500070BD70B50446002640340546A682208AF3
:105A600000280BD0608A2969002800D10520800019
:105A70004019806BFAF72AFC002817D0608A296940
:105A800080004019C06B00F0FFFB002802D0608A44
:105A9000401C6082208A401C80B22082052801D9E7
:105AA00005202082608A052800D3668270BD000030
:105AB00070B500258581C581044605600E466030BD
:105AC0000178012319430170062110462661FAF777
:105AD00045FB2146A08640318D820D824D820020FB
