:020000040800F2
:10000000484E00200D030008C144000817030008F3
:10001000A1440008D1220008094A0008000000009D
:100020000000000000000000000000007502000851
:100030009F24000800000000B902000811450008D4
:1000400027030008270300082703000827030008E8
:100050002703000827030008A1240008270300083D
:1000600027030008A7240008AD2400084524000841
:1000700051240008270300085D24000869240008B3
:1000800027030008270300082703000827030008A8
:10009000270300082703000827030008B3240008EB
:1000A00027030008C14500082703000827030008AC
:1000B0002703000827030008270300082703000878
:1000C0002703000827030008270300082703000868
:1000D000270300089949000827030008FD49000884
:1000E00027030008270300082703000800F002F890
:1000F00000F0B0F80AA090E8000C82448344AAF112
:100100000107DA4501D100F0A5F8AFF2090EBAE80F
:100110000F0013F0010F18BFFB1A43F0010318473B
:10012000F89C0000189D00000A444FF0000C10F8E5
:10013000013B13F0070408BF10F8014B1D1108BF65
:1001400010F8015B641E05D010F8016B641E01F805
:10015000016BF9D113F0080F1EBF10F8014BAD1C55
:100160000C1B09D16D1E58BF01F801CBFAD505E073
:1001700014F8016B01F8016B6D1EF9D59142D6D3CD
:10018000704700000023002400250026103A28BFF5
:1001900078C1FBD8520728BF30C148BF0B607047F9
:1001A0006E2900F02F83702900F07984662908F009
:1001B0007785652908F07485672908F071856129BC
:1001C00008F0708503681B0A28BF41F08001692987
:1001D00000F0DC82642900F0D982752900F0D68213
:1001E0006F2900F00684782900F04584E92900F0A1
:1001F000A183E42900F09E83F52900F09B83EF2979
:1002000000F00384F82900F044840368DB0928BF68
:1002100041F08001632901F08B81732901F0908105
:10022000E32901F09B81F32901F0A08100207047B0
:100230001FB501F033FA04000020002108F026F970
:10024000401C60600020002108F036F9E0601FBD0E
:1002500010B510BD01F0FDF91146FFF7E9FF04F0FC
:10026000ABFC01F0DFFA03B4FFF7F2FF03BC01F0CF
:10027000E3FA0000224B19680868B0E8F00F80F339
:100280000988BFF36F8F4FF0000080F311884EF0A4
:100290000D0E70470000000006480068006880F3FB
:1002A000088862B661B6BFF34F8FBFF36F8F00DF70
:1002B00000BF00BF08ED00E0EFF30980BFF36F8FD0
:1002C0000F4B1A6820E9F00F106008B54FF050008E
:1002D00080F31188BFF34F8FBFF36F8F07F092FB4E
:1002E0004FF0000080F31188BDE8084019680868E5
:1002F000B0E8F00F80F30988BFF36F8F704700BF3D
:1003000088010020EFF3058070470000094880470E
:1003100009480047FEE7FEE7FEE7FEE7FEE7FEE7E7
:10032000FEE7FEE7FEE7FEE704480549034A054B02
:1003300070470000BD450008ED0000084846002059
:10034000484E0020484600207CB51D4616460C004D
:10035000009001D02044401E074B7B442A4669464A
:100360000190304600F067FA05461CB1002069464E
:1003700000F074FA28467CBD0905000070B50646F9
:1003800000F09EF90468054630460A22002100F07C
:1003900055FC2C6070BD30B505460B462A4613F857
:1003A000014B12F8010B08B1A042F8D01CB1002893
:1003B00002D06D1CF1E7284630BD10B5431C02E0A9
:1003C00010F8011B71B18107FAD14FF0013202C858
:1003D0008C1A8C4314EAC211F9D0C01A0A0603D051
:1003E000C01E10BDC01A10BD0A0401D0801E10BD71
:1003F0000902FCD0401E10BD40EA010370B59B0706
:100400002ED14FF00136042A2AD308C810C99D1BEB
:100410009D43121F15EAC61517D0D8B2E1B2401A93
:1004200050EA056110D198B2A1B2401A50EA0541D4
:100430000AD123F07F4024F07F41401A50EA052181
:1004400002D1180EA0EB146070BDA342DBD018BA25
:1004500021BA884201D9012070BD4FF0FF3070BD34
:100460000AB9002070BD10F8013B11F8014B63B1CF
:10047000A3420AD1521E08D010F8013B11F8014BDB
:100480001BB1A34201D1521EEDD1181B70BD421EFB
:1004900012F8013F002BFBD111F8013B002B02F8B1
:1004A000013BF9D17047032A40F2308010F0030C71
:1004B00000F0158011F8013BBCF1020F624498BFB7
:1004C00011F801CB00F8013B38BF11F8013BA2F154
:1004D000040298BF00F801CB38BF00F8013B11F0CF
:1004E000030300F02580083AC0F0088051F8043B6F
:1004F000083A51F804CBA0E80810F5E7121D5CBFDC
:1005000051F8043B40F8043BAFF30080D20724BF0E
:1005100011F8013B11F801CB48BF11F8012B24BFA2
:1005200000F8013B00F801CB48BF00F8012B7047F1
:1005300010B5203AC0F00B80B1E81850203AA0E87E
:100540001850B1E81850A0E81850BFF4F5AF5FEAB2
:10055000027C24BFB1E81850A0E8185044BF18C965
:1005600018C0BDE810405FEA827C24BF51F8043B0C
:1005700040F8043B08BF7047D20728BF31F8023B60
:1005800048BF11F8012B28BF20F8023B48BF00F8F4
:10059000012B704702F0FF0343EA032242EA0242C2
:1005A00000F002B84FF000020429C0F0128010F0F1
:1005B000030C00F01B80CCF1040CBCF1020F18BF3F
:1005C00000F8012BA8BF20F8022BA1EB0C0100F0D2
:1005D0000DB85FEAC17C24BF00F8012B00F8012BA5
:1005E00048BF00F8012B70474FF0000200B51346DA
:1005F00094469646203922BFA0E80C50A0E80C5043
:10060000B1F12001BFF4F7AF090728BFA0E80C50F3
:1006100048BF0CC05DF804EB890028BF40F8042BEC
:1006200008BF704748BF20F8022B11F0804F18BF59
:1006300000F8012B704700004FF0013C50F8042BEC
:1006400051F8043B9A4221D1A2EB0C03934313EAE5
:10065000CC1317D150F8042B51F8043B9A4215D112
:10066000A2EB0C03934313EACC130BD150F8042BE9
:1006700051F8043B9A4209D1A2EB0C03934313EACD
:10068000CC13DBD04FF00000704700BFD01A01BA86
:10069000B1FA81F101F0180122FA01F0CB40C1F169
:1006A0002001DBB2C0B2C01A2CFA01F3D11A914377
:1006B00011EAC311E6D170477047704770470000D8
:1006C00000487047E445002070B50446856900681D
:1006D000C10601D5302600E02026C00707D070BD36
:1006E000D4E9012130469047206A401C20626D1EEB
:1006F000F6D570BD70B5044685690078C00707D18E
:1007000070BDD4E9012120209047206A401C20625E
:100710006D1EF6D570BD09684A0501D540B2704717
:10072000C905FCD500B2704709684A0501D5C0B2B9
:100730007047C905FCD580B2704770B50C460546B8
:10074000012A05D02878800600D5EA69002302E056
:10075000012305E05B1C934202D2E05C0028F9D142
:10076000A869E618C01AA861286A184428622846B1
:10077000FFF7AAFF04E0D5E9012114F8010B904727
:10078000B442F8D32846FFF7B5FF70BD2DE9F0411C
:100790000646002410687529314616A510D0FFF7CB
:1007A000BAFF002802DA404213A507E031688A0741
:1007B00001D512A502E0490704D511A5012401E0E5
:1007C000FFF7B2FF00210A2206F1240709E0B0FB7F
:1007D000F2FCB0FBF2F302FB1C00303078541846F8
:1007E000491C0028F3D123462A463046BDE8F04193
:1007F00000F0ADBA000000002D0000002B0000004A
:100800002000000011680268006A530501D50870D5
:100810000AE0D30501D5088006E0130603D5C21708
:10082000C1E9000200E008600120704701694A1C2C
:1008300002610878704700B58FB0CDE90131002121
:10084000059105497944CDE903101146684600F049
:1008500031F90FB000BD0000E5FFFFFF0A6802F8A4
:10086000010B0A607047D1E900239A4202D2531C5F
:100870000B601070704700002DE9FF5F15468A4637
:100880000446DFF8AC80F8440027D8E900103E4663
:10089000CDE9001010E03AF816106A4602A800F000
:1008A000B8FE411C07D02178890603D5E2693918C2
:1008B00091420DD80744761C2078800602D5E06965
:1008C000B84205DDAE42E6DB3AF816000028E2D178
:1008D000A069C01BA0612046FFF7F6FED8E9001012
:1008E000CDE90010002017E03AF818106A4602A877
:1008F00000F08FFEB0F1FF3F81460BD000250DF1D7
:10090000080B05E0D4E901211BF8050090476D1C98
:100910004D45F7D308F10100B0428046E4DB206A80
:10092000384420622046FFF7E5FEBDE8FF9F000047
:10093000968A00002DE9F0418046D21D22F0070280
:100940000025D2E90002F52915A614D0011E72F186
:10095000000106DA0023D0EB030063EB020211A6CC
:1009600008E0D8F800108B0701D50FA602E0490770
:1009700001D50EA601251146002408F1240704E044
:1009800000F0A0F930323A55641C50EA0102F7D168
:100990002B46324621464046BDE8F04100F0D7B92B
:1009A000000000002D0000002B00000020000000CF
:1009B00030B4002100F1240408E002F00705D20859
:1009C000303542EA4372DB086554491C52EA03059C
:1009D000F3D10468002310A2250707D5A40600D48C
:1009E00021B1C46901230DA2641EC46130BC00F0B2
:1009F000AEB910B5044621461068FFF795FE0246D1
:100A00002046BDE810400023D2E7D21D22F00701A6
:100A1000D1E90023CCE70000000000003000000016
:100A2000F0B40D460188090502D5214C7C4402E052
:100A30001F4C7C440E34002100F1240608E002F033
:100A40000F071209E75D42EA03721B097754491C3C
:100A500052EA0307F3D102780023120704D5702D60
:100A600006D009B1022311342246F0BC00F06FB960
:100A700001231034F8E770B504460D46214610688E
:100A8000FFF752FE024629462046BDE8704000238B
:100A9000C6E7D21D22F00703D3E90023C0E70368AD
:100AA000126843F0200303600823C3610023B7E703
:100AB000F88800002DE9F05F894604464FF0000AEF
:100AC000DFF874B1FB44C0F820A02046E1688847F5
:100AD000002874D0252806D0D4E901219047206A47
:100AE000401C2062F1E700265F462046E168884707
:100AF0002028054607DB312D05D2781910F8200C87
:100B000008B10643F1E7B00701D526F00406C4F8A2
:100B10001CA00027C4F818A02A2D09D0284604F0EC
:100B20003DF838B304EB8708303DC8F8185019E099
:100B300059F8041B204604EB87029161E16888475D
:100B4000012F054618D1E069002820DA26F020069A
:100B50001DE0D8F8180000EB800005EB40003038AD
:100B6000C8F818002046E1688847054604F016F8E2
:100B70000028EED1012F0AD02E2D08D12046E168A1
:100B800088477F1C0546022F46F02006C4DBA0697B
:100B9000002803DA404246F00106A061F00701D0C8
:100BA00026F010066C2D0BD0682D09D04C2D39D0B5
:100BB0006A2D35D0742D35D07A2D33D016E038E03B
:100BC000E1682F4620468847B842054609D16C2F78
:100BD00026D04FF48060E1680643204688470546EA
:100BE00004E06C2F1AD04FF4807006430DB3A5F1CA
:100BF0004100192802D8203546F400664A462946A5
:100C0000204626604E46FFF7CBFA80B101280BD074
:100C1000F61D26F0070000F1080956E74020E4E73A
:100C20008020D8E70020D6E706F104094DE72846E2
:100C300052E7206ABDE8F09F888800002DE9F04760
:100C400091460F4680460446002614F8015B2DB1FC
:100C500000F030F80068405DC007F6D12B2D02D0BF
:100C60002D2D18D0641E4A463946204600F082FCDD
:100C700027B13968A14201D1C7F800804FF00204C2
:100C800071050BD54042002803DDFFF719FD046014
:100C9000A007BDE8F08746F48066E4E70028F8DAAC
:100CA000FFF70EFD04606FF00040F2E70048704768
:100CB000E445002010B500F0F1FC001D10BD00BFA0
:100CC000CD77000030B5B0F10A024FEA900E71F115
:100CD00000034EEA817EB0EB0E0061EB91014FEA1A
:100CE000101E4EEA017E10EB0E0041EB11114FEA8F
:100CF000102E4EEA016E10EB0E0041EB11214FEA6F
:100D0000104E4EEA014E10EB0E0041EB114140181F
:100D100041F100014FEAD00040EA41704FEAD101B1
:100D200010EB80054FEA810444EA907444EB01041F
:100D30006D1944EB0404521BA3414FF0000348BF5C
:100D40000A3200D530BD401C41F1000130BD2DE913
:100D5000F0470D4699469246044600F12408016882
:100D6000880604D5E06921F01001216000E001202F
:100D7000A84201DD471B00E00027A1697A1902EBB8
:100D80000900081AA0612078C00602D42046FFF7A7
:100D90009BFC002608E0D4E901211AF806009047E0
:100DA000206A401C761C20624E45F4DB2078C00689
:100DB0000AD52046FFF788FC06E0D4E9012130205F
:100DC0009047206A401C2062381EA7F10107F4DC1E
:100DD00007E0D4E9012118F805009047206A401C7B
:100DE0002062281EA5F10105F3DC2046FFF782FCF6
:100DF0002078000602D50220BDE8F0870120FBE73D
:100E000070472DE9FF4F0C461E464FF0FF378BB061
:100E1000D2E90001DDF860800A908A46C1F30A55E4
:100E200005B93D46002108464FF00000BAF1000F19
:100E300000F4400005DA00EB80004FF4400101EAC5
:100E400050004FEA9059B9F1010F00DDB9460A98F8
:100E500050EA4A000ED044F61050A5F2FF35454343
:100E60002F14B8F1000F1ED07542291E1EDDC9F1E6
:100E700000021CE0B8F1010F4FF0000001D030215A
:100E800003E0F24305E02154401CB042FBDB304656
:100E90000022002121540B99C1F80880C1E90020EB
:100EA0000FB0BDE8F08FBD1B6D1CDEE74A4600DACF
:100EB000694206A800F044FC06AB93E8070003ABC8
:100EC00083E8070050460A9900F0BDFC8DE8070052
:100ED000A0F500501F3800900398002D0ADD42F263
:100EE0001F014A460844002303A90390684600F006
:100EF00026FF09E0A0F500504A461F38002303A949
:100F00000390684600F030FF8DE807000004000CF5
:100F100003D04FF0FF30410800E01046B8F1000F59
:100F200003D00022009215461EE0751E05D4FFF77F
:100F3000C9FE303262556D1EF9D5B3460122084311
:100F400002D000227F1C04E02078302801D100224A
:100F50007F1E002A099784D01DE0112D07DAFFF7C4
:100F6000B1FE303262556D1C50EA0102F5D10843E2
:100F700002D00098C8B10EE00021681E05E0235C95
:100F8000625C63542254401E491C8142F7DBAB462D
:100F9000A81B401E0990002004F80B000B98099A2A
:100FA000C0F80880C0E9002B7AE711264FF000084E
:100FB00057E72DE9F04F88460446D21D22F007017D
:100FC00091B0D1E90001CDE90A0103F0C3FD024669
:100FD0000B98C00F01D02D2007E02068810701D5B4
:100FE0002B2002E0202101EAC000032A099001D051
:100FF000072A05DB03464146204600F053FB0BE180
:101000002078800601D5E06900E00620B8F1650F80
:10101000814606D0B8F1660F18D0B8F1670F70D1CD
:1010200031E00020B9F1110F009001DB112301E044
:1010300009F101030AAA01A90CA8FFF7E2FEDDE904
:101040000C70002609F10105834647E001204B465C
:1010500000904FF000470AAA01A90CA8FFF7D1FEA3
:10106000DDE90DB00C995D46002610B909F10100CB
:101070000D18B9EB050003D4C0F1FF3609F10105E5
:10108000A5EB09002BE0B9F1010F01DA4FF00109DE
:101090000020B9F1110F0090484601DD112300E056
:1010A00003460AAA01A90CA8FFF7ABFEDDE90C7004
:1010B0004D4600268346207800070AD4AB4500DA67
:1010C0005D4601A8012D04DD411911F8011C3029EC
:1010D00007D04F4502DA17F1040F04DA01208246E7
:1010E0000FE06D1EEEE7002F02DCED1B3E4403E037
:1010F000781CA84200DD7D1CB81B00F1010A4FF0EE
:1011000000472078000703D4AA4501DB4FF0FF3ADF
:101110000021B7F1004F0DF143088DF8431024D0A2
:1011200002202B23002F01DA7F422D230A21021EE9
:10113000A0F1010000DC5FB197FBF1FC97FBF1F23D
:1011400001FB1C7C17460CF1300C08F801CDEEE7D2
:10115000A8F1010003702188090501D5452100E0AF
:101160006521A0F1010800F8011C09980FA9A1EB65
:101170000807FF1D00B10120411901EBEA70A169C8
:101180003844081A401EA0612078C00602D42046C8
:10119000FFF79AFA099828B1D4E901219047206A0B
:1011A000401C20622078C00622D52046FFF78CFA2A
:1011B0001EE0002E04DBB34502DD01A8805D00E0E7
:1011C0003020D4E901219047206A401C2062761C1F
:1011D000AAF101005FEA000A0AD100F05FFAC068D4
:1011E0000168405CD4E901219047206A401C2062DC
:1011F000281EA5F10105DCDC07E0D4E9012118F87F
:10120000010B9047206A401C2062381EA7F101079D
:10121000F3DC2046FFF76EFA032011B041E6000030
:101220002DE9F04F04460D46D21D22F0070089B08B
:10123000D0E900974846394603F08CFC0246F80F87
:1012400001D02D2307E02068810701D52B2302E080
:10125000202101EAC0038DF820300BB1012000E00D
:101260000020032A824601D0072A04DB29462046B3
:1012700000F018FA3FE12078800601D40D2500E047
:10128000E569C7F30A560D2D49DA00214FEA175BCD
:1012900008464FF00000002F00F4400007DA00EB92
:1012A00080004FF4400100EBD07001EA600081152E
:1012B000012901DD4FF0FF3100224FEA850CBCF11E
:1012C000180F06D31346ACF118004FF08052C240FD
:1012D00003E04FF4801323FA0CF30CF10C0CBCF177
:1012E000200F04D3ACF1200C09FA0CF001E007FA4E
:1012F0000CF000294FF0004801DD18B90FE00ED1C5
:1013000040450CD319EB02095F4121B9404502D198
:101310009F4329EA0209BBEB175F00D0761C2088A7
:10132000000502D57B48784402E07A4878441938B1
:1013300008AA302302F80A30037C0AF10101002ECA
:101340000AF1020A53546A4602DC4FF0300101E010
:101350004FF031014FF001088DF8001002D0A6F2D5
:10136000FF3603E059EA470100D06B4E002D02DC46
:101370002178090704D54FF002082E218DF80110BD
:10138000C44600210BE0C7F303433F01C35C491C83
:101390006D1E02F80830052908F1010801DA002D58
:1013A000F1DC00210CE000EB1973491C1B786D1E69
:1013B000082902F808304FEA091908F1010801DA92
:1013C000002DF0DC21688B0602D516E0A8F101089B
:1013D000E04505DD02EB080313F8013C302BF5D0A6
:1013E000B8F1000F09DD02EB080313F8013C2E2BC6
:1013F00003D1090701D4A8F10108002D05DD3E2124
:1014000002F808106D1E08F10108407C002E02F859
:10141000080008F1010804DA2D20764202F80800DD
:1014200002E02B2002F808000A214FF47A7086426D
:1014300008F101080BDB96FBF0F3303302F80830BB
:1014400096FBF0F308F1010800FB136601E0642E3F
:101450000CDB642096FBF0F3303302F8083096FB87
:10146000F0F308F1010800FB136601E00A2E06DB29
:1014700096FBF1F0303002F8080008F1010896FB05
:10148000F1F001FB1060303002F80800A16908F1AA
:10149000010808EB050202EB0A00081AA061207897
:1014A000C00602D42046FFF70FF9216A08AE01EB0F
:1014B0000A00206204E0D4E9012116F8010B9047EC
:1014C000BAF1010AF7D22078C00602D52046FFF70C
:1014D000FBF86E4609E016F8010B3E280FD0D4E960
:1014E00001219047206A401C2062B8F10108F2D225
:1014F0002046FFF7FFF809B00320BDE8F08F206A0F
:101500002844206203E0D4E90121302090476D1E79
:10151000EBD3F8E74A80000002FCFFFF10B54369F7
:1015200013B1AFF3008001E0FFF707F9012010BD10
:10153000127800F124010A7000224A700122EDE7BE
:1015400011684FF0FF32E9E710B5436913B1AFF30B
:10155000008001E0FFF790F9012010BD128800F132
:10156000240182840022C2840122EDE711684FF039
:10157000FF32E9E72DE9F05F824615468B460027EA
:101580000AF10104B9460078302801D09DB113E07A
:1015900014F8010B0127782803D0582801D045B151
:1015A0000AE00DB1102D07D1002714F8010B10250A
:1015B00002E0082500E00A250026B0460EE005FB03
:1015C000080005FB06F101271FFA80F801EB104621
:1015D000B6F5803F00D3B94614F8010B294600F058
:1015E000A1F80028EBDABBF1000F05D00FB1641EA3
:1015F00000E05446CBF80040B9F1000F06D0FFF7E9
:101600005FF802210160C81EBDE8F09F48EA06406D
:10161000FAE770B516460C460546FFF74BFB036824
:1016200093F80101012806D0FF2C0FD8185D68B18E
:1016300001202C7070BDD3F807013246214603F219
:10164000071303442846BDE8704018474FF0FF30A9
:1016500070BD7546FFF72AFBAE4605006946534646
:1016600020F00700854618B020B5FEF75DFEBDE806
:1016700020404FF000064FF000074FF000084FF0F9
:10168000000B21F00701AC46ACE8C009ACE8C0098A
:10169000ACE8C009ACE8C0098D4670470048704707
:1016A000044600202DE9F0411F4604460326016848
:1016B000072A01F4006004DB08B116A505E016A5B1
:1016C00003E008B115A500E015A521F01000206089
:1016D000A069C01EA0610FB1401EA0612046FEF7A8
:1016E000F3FF4FB1D4E9012138469047206A401CEE
:1016F0002062C01C206206E0206AFAE7D4E90121DA
:1017000015F8010B9047761EF8D22046FEF7F2FF3F
:10171000BDE8F0814E414E006E616E00494E4600BC
:10172000696E66003A2800D2303820F02002412A43
:1017300001D3A2F13700884201D34FF0FF30704748
:101740002DE9F047814616468AB0354878440DC8E1
:101750008DE80D0032487844801C03AC0DC884E845
:101760000D0041F69B300844372190FBF1F290FBCD
:10177000F1F5A5F1800501FB12041B3C02D5644282
:10178000012000E00020DFF898A080460027FA44FE
:10179000AAF1BE0A0EE0E0070AD03246684607EB1F
:1017A000470101230AEB810100F0DEFA8DE8070012
:1017B00064107F1C002CEED1194F7F44AE3F19E01E
:1017C000E80715D007EB04100DF1180A90E80E0099
:1017D0008AE80E00C068F04201D19819089032469C
:1017E000012306A903A800F0BFFA03AB83E80700B2
:1017F0006D10641C002DE3D14FF0010332466946A1
:10180000B8F1000F03A802D000F099FA01E000F04F
:10181000ABFAC9E90001C9F808200AB0BDE8F087B1
:10182000B47C000010B50446AFF300802046BDE84C
:101830001040FEF718BD000001491820ABBEFEE7BE
:101840002600020070475FEA400C08BF91F0000FCD
:101850004FEA8C234FEAC12243EA51514FEA1C5010
:1018600018BF00F5F0404FEA300018BF41F00041CA
:101870005FEA6C5C00F02980BCF1FF3F08BF40F0DC
:1018800080407047130C06BF12044FF0100C4FF04D
:10189000000C130E04BF12020CF1080C130F04BF4E
:1018A00012010CF1040C930F04BF92000CF1020C16
:1018B000D30F04BF52000CF1010C11464FF000028F
:1018C000A0F11F00A0EB0C00704711F0004F08BF03
:1018D000704731F000413FF4D5AF0B0C06BF09044F
:1018E0004FF0100C4FF0000C0B0E04BF09020CF16E
:1018F000080C0B0F04BF09010CF1040C8B0F04BF83
:1019000089000CF1020CCB0F04BF49000CF1010C53
:10191000CCF12003A0EB0C0022FA03F302FA0CF244
:1019200041EA030100F10100704720F07F4C80EA9A
:10193000030023F07F47ACEB070303F57C5300F073
:10194000004003F1FF032DE980494FEA154B09B42C
:101950004FEA144325EA0B4E24EA03480FF204260B
:1019600006EB132749083E785FEA320203FB06675D
:10197000C7F5000707FB06F64FEA54374FEAD6468D
:1019800006F1020607FB066CCCF1005C4FEA1C472F
:101990002CEA074C07FB06F40CFB06F504EB154696
:1019A0004FEA961634BF00204FF000404FEAD1377F
:1019B00006FB07FC4FEA1C4C0CFB0BF7D21B03FB8E
:1019C0000CF761EB07010CFB0EF7B0EB074072EB75
:1019D00017420CFB08F734BFA2EB0742B2EB0742F9
:1019E00061EB17414FEA0C444FEA910706FB07FCF5
:1019F0004FEA1C4C0CFB0BF7B0EBC74072EB5732B5
:101A000003FB0CF734BFA2EBC742B2EBC74261EB5A
:101A100057310CFB0EF7B0EBC70072EB57720CFBA3
:101A200008F734BFA2EBC702B2EBC70261EB5771F4
:101A3000039F4FEA816141EA921104EBCC044FEA23
:101A4000D1374FEA826206FB07FC42EA90124FEA66
:101A500080604FEA1C4C0CFB0BF7D21B03FB0CF70E
:101A600061EB07010CFB0EF7B0EB074072EB17427E
:101A70000CFB08F734BFA2EB0742B2EB074261EB65
:101A800017414FEA8C554FEA910704EB9C2406FB63
:101A900007FC4FEA1C4C0CFB0BF7B0EBC74072EB9A
:101AA000573203FB0CF734BFA2EBC742B2EBC7427D
:101AB00061EB57310CFB0EF7B0EBC70072EB5772BE
:101AC0000CFB08F734BFA2EBC702B2EBC70261EB15
:101AD000577115EB4C254FEA816141EA92114FEAAB
:101AE00082624FEAD13742EA901206FB07FC44F1CA
:101AF00000044FEA80604FEA1C4C0CFB0BF7D21B32
:101B000003FB0CF761EB07010CFB0EF7B0EB074092
:101B100072EB17420CFB08F734BFA2EB0742B2EBA3
:101B2000074261EB174115EB1C154FEA813141EA81
:101B300092414FEA823242EA90424FEA80304FEAC5
:101B40000C7644F1000448EA03434EEA0B484FF098
:101B5000000EB2EB080C71EB030724BF6246394656
:101B60004EEB0E0E4FF0000B0018524149414BEB6B
:101B70000B0BB2EB080C71EB03077BF1000B24BFDE
:101B8000624639464EEB0E0E4FF0000B00185241E4
:101B900049414BEB0B0BB2EB080C71EB03077BF1EC
:101BA000000B24BF624639464EEB0E0E51EA020787
:101BB00018BF46F0010616EB0E7655F1000254F1FF
:101BC000000103D5BDE88901BDE80088BDE88901B1
:101BD000BDE80048B619524141EB0101A3F10103F0
:101BE000704780807F7E7D7C7B7A7978777676758A
:101BF0007473727171706F6E6E6D6C6C6B6A6A6902
:101C00006868676666656464636362616160605F9B
:101C10005F5E5E5D5D5C5C5B5B5A5A595958585714
:101C2000575656555555545453535252525151507C
:101C300050504F4F4F4E4E4D4D4D4C4C4C4B4B4BCF
:101C40004A4A4A4949494848484747474746464615
:101C50004545454444444443434343424242424150
:101C60004141002B9C4630D477002BD01CB54FEA65
:101C7000370703B44FF010004FF01001BAF1000F16
:101C800006D0BCF1000FDCBF40F0080040F00801B6
:101C90004FF000000FBCBDE810400BF1010BBBF191
:101CA000010F08BF5FEA170722BF12F1010211F10D
:101CB00001014FF0004143F1000300F0004043EA0E
:101CC00000007047F9D35708D0E746EA064613F1FB
:101CD000400F4FEA16461FDD13F1200FDFBF1643FA
:101CE0000A46002120335B42BED0C3F1200746EAFA
:101CF000064602FA07F74FEA164646EA0706C3F118
:101D0000200722FA03F201FA07F721FA03F14FF054
:101D1000000342EA0702A7E746EA020646EA064649
:101D20004FEA164646EA0106BCBF46EA0646360CAE
:101D30004FF000034FF000024FF0000194E72DE94F
:101D4000804C9A46934670B491E8380007C831EA4F
:101D5000400C48BF34EA430C03D5FFF7E6FDFFF71C
:101D600080FFF0BCBDE8008C2DE9804C9A4693467C
:101D700070B491E8380007C810F0804F08BF13F026
:101D8000804F03D100F005F8FFF76BFFF0BCBDE812
:101D9000008C20F07F4780EA030023F07F4C07EBA4
:101DA0000C03A3F57C5300F00040A3F1FE0392F076
:101DB000000F00F0B38095F0000F00F077802DE960
:101DC00001494FEA11404FEA144621EA004800FB5E
:101DD00006FC24EA064708FB06F607FB08F800FBAA
:101DE00007F718EB06484CEB164C4FEA124B18EB72
:101DF00007484FEA15464CEB174022EA0B4E0BFB07
:101E000006FC25EA06470EFB06F607FB0EFE0BFB5B
:101E100007F71EEB064E4CEB164C4FF000061EEB80
:101E2000074E4CEB174B18EB0B0840F1000018EB7A
:101E30000E0B58EB000840F100008F1A4FF0000124
:101E40003CBFC943661B14BFB5EB040C00213CBF6B
:101E5000C943F61B4FEA17444EEA8E0E27EA0445A3
:101E60004FEA1C4704FB07622CEA074C05FB07F707
:101E70000CFB05F604FB0CFC16EB074642EB174285
:101E800016EB0C4642EB1C421BEB060658EB02021B
:101E9000414146EA9E0601D5BDE80189B619524185
:101EA00041EB0101A3F10103BDE801894FEA1445AB
:101EB0004FEA114724EA054621EA074C05FB07F4DF
:101EC00006FB07F70CFB06F105FB0CFC11EB0741C9
:101ED00044EB17444FEA124711EB0C4144EB1C440E
:101EE00022EA074C05FB07F206FB07F70CFB06F698
:101EF00005FB0CFC16EB074642EB174216EB0C46B3
:101F000042EB1C456A1854F1000148BF7047B619EE
:101F1000524141EB0101A3F10103704795F0000F1D
:101F200037D04FEA11424FEA144721EA024624EA29
:101F3000074C02FB07F106FB07F70CFB06F402FB5C
:101F40000CFC14EB074441EB17414FEA154714EB27
:101F50000C4441EB1C4125EA074C02FB07F506FB4C
:101F600007F70CFB06F602FB0CFC16EB074645EBED
:101F7000174516EB0C4645EB1C42121951F10001B6
:101F800048BF7047B619524141EB0101A3F101036B
:101F900070474FEA14454FEA114724EA054621EA03
:101FA000074C05FB07F106FB07F70CFB06F24FF0A9
:101FB000000605FB0CFC12EB074241EB174112EB4C
:101FC0000C4251EB1C4148BF7047921841EB010194
:101FD000A3F101037047000070B5044600688168F2
:101FE000C943C90717D1816821F00101816000F060
:101FF00091FF05460AE000BF00F08CFF401B02285D
:1020000004D920688068C043C00706D02068806873
:10201000C043C007F0D0002070BDA06A40F010009F
:10202000A062E06A40F00100E062012070BD10B5DE
:102030000146406A826A12F0500F05D0006A026BB6
:10204000BDE8104008461047816A41F40071816282
:1020500001688968C1F3424107290CD1017B51B95C
:10206000816A21F480718162816AC90403D4816A22
:1020700041F00101816200F047FB10BD10B5406ADC
:10208000816A41F040018162C16A41F00401C1628C
:1020900000F03CFB10BD10B5406A00F036FB10BDEF
:1020A000F8B500260446009600688168C943C90750
:1020B0002DD0816841F00101816016481649006801
:1020C000B0FBF1F000E0401E00900028FBD100F0D2
:1020D00021FF054616E000BF00F01CFF401B022850
:1020E00010D920688068C043C0070BD0A06A40F0B8
:1020F0001000A062E06A40F00100E06284F8246011
:102100000120F8BD20688068C043C007E4D10020EA
:10211000F8BD00007801002040420F002DE9FF5F6C
:102120000F4682460299384308430399364E0843C6
:1021300003D008244FF47A7B09E0F16F04B05046D5
:10214000BDE8F05F05F078BA0C2C00D116241722F8
:102150002146029800F01CFA0546082C1FD00A2CD4
:102160001DD02AA08146A5B36868FEF726F9801C19
:1021700003F0F0FF5FEA000828D06868FEF71DF959
:10218000421C40466968FEF78EF9092C03D920A14C
:102190004046FEF77CF90B2C03D0404602E0A868CD
:1021A000E0E7039856F8242005461AA1504604F0AB
:1021B000DBFE2A4619A1504604F0D6FE2846FEF75B
:1021C000FCF802467B6B294638469847404605F0A6
:1021D000E5FA5B464A465046796902F055FC0546E9
:1021E000504656F8251005F027FA062D01D1162C79
:1021F00003D15046F16F05F01FFA641CE4B20D2CB8
:10220000A2D3BDE8FF9F0000980000204F4B0000C4
:102210000D0A00000D0A2573000000003E5B4D43CF
:10222000552D3E4C3130325D3A25730D0A000000C9
:1022300070B504F007FB08490C4D084A0C680121F1
:10224000297007A32146FFF769FF00202870606905
:10225000BDE8704002F000BD9000002068900008CA
:1022600041542B43483F0D0A000000009400002019
:102270002DE9F843044604F0E5FA064612484FF00B
:1022800000088DF8008005681048012C05D9816888
:10229000304605F0D1F9BDE8F88350F824103046F7
:1022A00005F0CAF9094F01203F1F694638703046D2
:1022B00014B100F00DF901E000F00CF8686902F0CB
:1022C000CBFC87F80080E6E7900000209800002013
:1022D000FEE700002DE9F35F3B488A46DFF8ECB0EB
:1022E00000273B4ED0F8008061E000980121426E4B
:1022F0005046904700285AD0082456E0172221461D
:10230000584600F045F9054656F8242031A10098BA
:1023100004F02AFE31A16A68009804F025FE68687E
:10232000B0B3FEF74AF8801C03F014FF5FEA00091F
:1023300016D06868FEF741F8421C48466968FEF707
:10234000B2F8092C03D92AA14846FEF7A0F848465E
:10235000FEF733F80246D8F83430404649469847ED
:10236000484605F01BFA082C17D00A2C15D021A2DC
:102370004FF47A73D8F81410009802F085FB0546E4
:10238000009856F8251005F057F9062D15D106E0EE
:10239000FFE70127D6F8801011E0AA68E8E7162CBD
:1023A0000BD0641CE4B2172C01D2002FA6D09AF8EF
:1023B00000001B2899D1BDE8FC9FF16F0127009810
:1023C00005F03AF9F3E7000090000020689000085B
:1023D000980000200D0A2573000000003E5B4D436D
:1023E000552D3E4C3130325D3A25730D0A00000008
:1023F0000D0A00004F4B000070B50546002604682A
:1024000013E0A06810B1401EA0600BE00520A060A2
:10241000A188206800F06CFD20B928890121B14015
:1024200008432881761CF6B20C34002D09D02868A8
:10243000002806D0A98801EB410100EB8100A042F1
:10244000DFD870BD014800F02FBB00000808002055
:10245000014800F029BB0000C0090020014800F03D
:1024600023BB00007C090020014800F01DBB0000D8
:102470003809002030B590F840500124AC40C56BBD
:102480006C60046863604368102B036803D0996034
:102490000068C26030BD9A600068C16030BD70479E
:1024A000012000F029BC082000F026BC102000F01C
:1024B00023BC10B5202000F01FFC402000F01CFCC5
:1024C000BDE81040802000F017BC72B6FEE70000A7
:1024D0002DE9F04706460F46402003F03BFE05007D
:1024E00045D04021FEF75EF82248DFF88C90D0F806
:1024F00000802AE0726E0121384690470028F9D00A
:102500003878082823D00D280AD01B282AD028552F
:10251000641CB26E04F03F04012138469047E9E79D
:10252000002028552A4615A1304604F01DFDD8F894
:10253000140002F091FB15A12846FDF7A8FF034601
:102540004A4641463046FFF7E9FD0024D2E734B160
:102550000121304603F072FF641EE0B200E000206B
:10256000C4B2C7E72846BDE8F04705F017B9BDE893
:10257000F087000090000020689000080D0A496E66
:102580007075743A25730D0A000000000D0A0000F2
:1025900010B500230AE000BF00EB031424788C423E
:1025A00002D100EB031010BD5B1C9BB29342F3D32E
:1025B000002010BD30B590F82420012A1ED0012241
:1025C00080F824200A7A012A0268536818D023F080
:1025D00040035360D1E900231A4303685C680A4D45
:1025E0002C4022435A600368CA685A62026809692B
:1025F0009162002180F82410084630BD022030BDD1
:1026000043F04003E5E70000E0FD3FFFF8B500249C
:10261000009490F824202546012A12D0012280F847
:1026200024204A681F23072A0DD20668776B521EA2
:1026300002EB820293409F430B6893401F437763F2
:1026400019E00220F8BD06680D2A0AD2376BD21FA6
:1026500002EB820293409F430B6893401F43376312
:1026600009E0F76A0D3A02EB820293409F430B6840
:1026700093401F43F7620A68072306680A2A0AD3B1
:10268000F7680A3A02EB420293409F438B689340FB
:102690001F43F76008E0376902EB420293409F4313
:1026A0008B6893401F4337610A68102A01D0112AB2
:1026B00020D1124B02689A4217D193681B0219D499
:1026C000936843F4000393600968102912D10C4900
:1026D0000C4A0968B1FBF2F101EB8101490000E00D
:1026E000491E00910029FBD104E0816A41F02001DC
:1026F0008162012480F824502046F8BD0024014066
:102700007801002040420F0070477047704700007A
:102710002DE9F0414FF0000704003D467ED0A06A4D
:10272000002628B9E66284F82460204600F07EF88E
:102730002046FFF751FCA16AC90600D420B1A06A67
:1027400040F01000A06269E0A16A21F4885141F0D4
:102750000201A1626268E169237B0A4347EA4301FF
:102760000A43A1684FF48077B94209D0012907D004
:102770005FF0000194F814C0BCF1010F02D00AE030
:102780003946F7E7F3B1A36A43F02003A362E36A93
:1027900043F00103E3622368D3F804C02CF4694CCE
:1027A0004CEA010CC3F804C021688B68DFF870C0E4
:1027B00003EA0C0313438B60A168B9420BD00129D3
:1027C00009D00CE0DFF85CC0A3690CEB43330B438A
:1027D00043F40061DFE7218A0D05A5F58015216826
:1027E000CB6A23F470032B43CB62216889680E4BBC
:1027F0001940914208D1E662A16A21F0020141F03C
:102800000101A162BDE8F081A06A20F0020040F061
:102810001000A062E06A40F00100E0620120F1E7F0
:10282000FDF7E1FF00E0FFFFFE0E1FFF70B586B071
:1028300000260546009601960296039600681A49FE
:1028400088422FD11949886940F4007088618869ED
:1028500000F400700490886940F004008861886981
:10286000694600F0040004900620009003200190C7
:102870000F4800F04DFA104C0E48C4E900068020C5
:10288000C4E9026080002061800060612020A061B6
:102890000002E061204600F0B1F908B1FFF715FE33
:1028A0002C62656206B070BD002401400010024039
:1028B0000008014008000240080800202DE9F04708
:1028C000894604463B4900683B4F0E1D90468842AE
:1028D00001D0B84207D1306810F4702F03D0012521
:1028E0002846BDE8F08794F8240001280CD0012088
:1028F00084F824002046FFF7D3FB05004FF00000CA
:1029000004D084F82400EBE70220EAE7A16A40F64D
:102910000162914341F48071A1622168B94218D1EA
:10292000326812F4702F14D0A16A41F48011A162B0
:102930003168490505D5A16A21F4005141F480515F
:10294000A162A16AC9040AD5E16A21F00601E16227
:1029500006E0A26A22F48012A2624968E9E7E06216
:1029600084F82400216A15488862216A1448C862E4
:10297000216A1448086321686FF00200086020682B
:10298000816841F480718160216843464A464C3138
:10299000206A00F061F920688168C1F3424107298B
:1029A000816803D041F48011816099E741F4A0016E
:1029B000FAE7000000240140002801402F20000811
:1029C000972000087D20000810B590F82110002203
:1029D000022905D00421816380F82020012010BD48
:1029E00001680B6823F00E030B6001680B6823F08D
:1029F00001030B6090F84030C46B012101FA03F32E
:102A0000636080F8211080F82020104610BD00007F
:102A100010B590F821100024022903D0042181630D
:102A200001243DE001680A6822F00E020A60016894
:102A30000A6822F001020A601A4A0168914201D133
:102A4000012121E0174A1432914201D110211BE0EB
:102A5000144A2832914201D1891515E0114A3C32BD
:102A6000914201D189140FE00E4A5032914202D1B5
:102A70004FF4803108E00B4A6432914202D14FF4A6
:102A8000801101E04FF08071064A083A516001213F
:102A900080F82110002180F82010416B01B1884797
:102AA000204610BD080002402DE9F05FC16B0C68A4
:102AB00001680B68D0F840C0042202FA0CF2494DBC
:102AC000DFF824A1494E4A4FDFF828B1DFF828E1AA
:102AD00022422CD05A072AD50A68920603D40A68E3
:102AE00022F004020A600168A94201D1042219E01F
:102AF000514501D1402215E0B14202D14FF480622C
:102B000010E0B94202D14FF480420BE0594502D1A6
:102B10004FF4802206E0714502D14FF4800201E0BB
:102B20004FF080622F4908394A60C16A3BE04FF09C
:102B3000020808FA0CF818EA040F4FF000094FF0E9
:102B4000010235D05FEA837832D50B689B0605D445
:102B50000B6823F00A030B6080F821200168A9426A
:102B600001D1022219E0514501D1202215E0B142E4
:102B700002D14FF4007210E0B94202D14FF400527A
:102B80000BE0594502D14FF4003206E0714502D105
:102B90004FF4001201E04FF00072124908394A6008
:102BA00080F82090816A00291AD0BDE8F05F0847BC
:102BB000082505FA0CF5254212D01B0710D50B6825
:102BC00023F00E030B6090F84010C36B02FA01F182
:102BD0005960826380F8212080F82090016BE2E741
:102BE000BDE8F09F080002401C0002403000024097
:102BF00044000240580002406C00024030B528B347
:102C000008C8134914221944B1FBF2F18900C163C9
:102C100010498163022141771A6843F6F0718A43B3
:102C2000D0E900142143D0E902452C432143046933
:102C300021434469214384692143114319600021E0
:102C40004163012242770177084630BD012030BD43
:102C5000F8FFFDBF0000024070B5044690F8200068
:102C6000002501280CD0012084F8200094F8216070
:102C70000020012E06D084F820000225284670BDD1
:102C8000022070BD022684F82160A06320680668D7
:102C900026F0010606602046FFF7ECFBE06A0028FC
:102CA0002068016802D041F00E0106E021F0040125
:102CB00001602068016841F00A0101602068016834
:102CC00041F001010160D9E730B50A4A05241168D5
:102CD00004E08B88834200D18C600C311368002B98
:102CE00006D0958805EB450503EB85038B42F0D8AC
:102CF00030BD000048000020044910B50A680242B7
:102D000002D00860FFF7E0FF10BD0000140401408E
:102D10002DE9F84FDFF8B891002409F1040A0AF10F
:102D2000040B23460F270BF1040EC9E00125A54033
:102D30002A40AA427DD1674ED1F804C0ACEB060808
:102D4000B44532D014DCBCF1030F3AD009DCBCF13D
:102D5000000F2AD0BCF1010F1CD0BCF1020F31D101
:102D60001DE0BCF1110F17D0BCF1120F2AD119E0F0
:102D7000B8F5881F19D006DCB8F5803F15D0B8F536
:102D8000801F1FD111E0B8F5001F0ED0B8F5041F49
:102D900018D10AE0CB6815E0CB681B1D12E0CB68A8
:102DA00008330FE0CB680C330CE08B682BB1012BA0
:102DB0004FF0080303D0456104E0042302E00561FD
:102DC00000E00023FF2A01D8064601E000F10406D6
:102DD0004FEA840501D9A5F12005D6F8008007FA4D
:102DE00005FC28EA0C0803FA05F548EA0508C6F8C8
:102DF00000804D68ED0062D5374DAE6946F00106A2
:102E0000AE61AD6924F0030605F001050095334D70
:102E100006EB050CDCF80850A607360F07FA06F893
:102E200025EA0805DFF8B880404503D14FF00008D7
:102E300017E044E0DFF8AC80404502D14FF00108D4
:102E40000FE0DFF8A480404502D14FF0020808E00F
:102E5000DFF89880404502D14FF0030801E04FF0C1
:102E6000040808FA06F848EA0508CCF808804D6816
:102E7000D9F80060ED034D4601D5164300E09643B6
:102E80002E604D68DAF80060AD03554601D5164353
:102E900000E096432E604D68DBF80060ED025D4671
:102EA00001D5164300E096432E604D68DEF80060C1
:102EB000AD02754601D5164300E096432E60641CB2
:102EC0000D682A46E5407FF431AFBDE8F88F000079
:102ED00000040140000011100010024000000140F9
:102EE00000080140000C01400010014000140140A6
:102EF0008068084000D001207047C26821EA0203C0
:102F00000A4043EA0241016170470AB1016170471A
:102F10000904FBE701488068704700007C0100203D
:102F200070B5040011D021684CF6CC4008602168CF
:102F300045F255500860D4E9000141602168A0685D
:102F40008860FFF7E7FF05460DE0012070BD00BF78
:102F5000FFF7E0FF401B272805D92068C0688007DD
:102F600001D0032070BD2068C0688007F0D12168BF
:102F70004AF6AA200860002070BD00684AF6AA211F
:102F8000016000207047000004480168044A12787C
:102F9000114401600348FFF72FBA000084010020AC
:102FA0007C01002048000020074810B5016841F06E
:102FB00010010160032000F0A1F8052000F006F8E0
:102FC00000F04AF8002010BD0020024030B5054650
:102FD0001C4887B0816941F400618161806906A95C
:102FE00000F40060009001A800F0A6F900F0D4F908
:102FF0001549164AB0FBF1F11548491E02604160BF
:1030000040F2E7320021C0E903218160816100F0D4
:1030100025FC040012D10E4800F04EFC04000DD136
:10302000192000F03DF8102D07D200222946192062
:1030300000F044F80748056000E0012407B020468E
:1030400030BD00000010024040420F00002C014043
:10305000040A0020800100200F4808B5816941F072
:1030600001018161816901F001010091C16941F0B3
:103070008051C161C069002200F0805000900F2192
:10308000901E00F01BF80548416821F0E06141F016
:103090000071416008BD00000010024000000140C6
:1030A000002809DB00F01F02012191404009800047
:1030B00000F1E020C0F8001170470000F0B40E4BA2
:1030C0001B680C46C3F30223C3F10705042D00D986
:1030D0000425191D072901D2002300E0DB1E01266B
:1030E00006FA05F1491E214099409E40761E164081
:1030F0003143F0BC01F042BD0CED00E0064900F0A8
:10310000070208684FF6FF03184040EA0220034A0E
:1031100010430860704700000CED00E00000FA0565
:103120002DE9F84305460078354CC00754D0E069D6
:103130000026C00008D4E06940F08050E061E069FA
:10314000012600F0805000902E480168C90512D475
:103150000168804641F480710160FFF7DBFE07469D
:1031600005E000BFFFF7D6FEC01B642823D8D8F8BF
:103170000000C005F6D5206A10F4407021D0A9885F
:1031800001F4407181421CD0206A1F49012220F4C1
:1031900040700A6000220A602062C00711D0FFF769
:1031A000B9FE074641F2883808E000BFFFF7B2FEDB
:1031B000C11B414502D90320BDE8F883206A80077E
:1031C000F4D5206A696820F44070084320621EB17B
:1031D000E06920F08050E0612878800705D56068BC
:1031E000A96820F44040084360602878C00605D5EF
:1031F0006068E96820F48000084360600020DBE735
:103200000010024000700040400442422DE9F047A7
:103210000F46050061D0434E306800F00700B84209
:1032200009D2306820F0070038433060306800F081
:103230000700B84251D128683B4C810712D540079E
:1032400003D5606840F4E06060602878000703D52B
:10325000606840F4605060606068A96820F0F00029
:10326000084360602878C00728D06868012810D01B
:103270002168022810D0890700292EDA616821F020
:10328000030101436160FFF745FE804641F2883942
:103290000DE021688903EFE78901EDE7FFF73AFECA
:1032A000A0EB0801494502D90320BDE8F08760681A
:1032B000696800F00C00B0EB810FEFD1306800F0CE
:1032C0000700B8420BD9306820F00700384330605F
:1032D000306800F00700B84201D00120E5E7287807
:1032E000400705D56068E96820F4E0600843606045
:1032F0002878000706D56068296920F4605040EA04
:10330000C100606000F058F86168084AC1F3031119
:10331000515CC8400649086006480068FFF756FE41
:103320000020C2E70020024000100240089300087D
:1033300078010020800100200F2202600C4A5368AF
:1033400003F003034360536803F0F00383605368A2
:1033500003F4E063C36052684FF4E06303EAD2020F
:1033600002610448006800F0070008607047000030
:1033700000100240002002400448054900684968E6
:10338000044AC1F30221515CC84070477801002013
:103390000010024018930008044805490068496875
:1033A000044AC1F3C221515CC84070477801002033
:1033B000001002401893000812A185B00FC98DE8D3
:1033C0000F0014A0144A006804905168134801F0DB
:1033D0000C03042B10D0082B0ED1C1F38343C90377
:1033E0001DF803000AD5516804AAC1F34041515C9D
:1033F0000A4A5043B0FBF1F005B070470849484312
:10340000FAE7000002030405060708090A0B0C0D81
:103410000E0F1010010200000010024000127A008E
:1034200000093D002DE9F84F040070D02078C04D10
:10343000C00749D06868C0F38100012807D06868D8
:10344000C0F38100022809D16868C00306D5286846
:10345000800339D560680028E7D035E06068B0F5B2
:10346000803F0BD010B1B0F5A02F11D0286820F408
:1034700080302860286820F4802002E0286840F42A
:1034800080302860606890B1FFF744FD06460AE08E
:10349000286840F480202860F0E700BFFFF73AFD7D
:1034A000801B642873D828688003F7D50CE0FFF7E9
:1034B00031FD064605E000BFFFF72CFD801B6428A8
:1034C000F0D828688003F7D420789A4E80074FF010
:1034D00001094FF0000839D5686810F00C0F07D0CB
:1034E0006868C0F38100022809D16868C00306D467
:1034F0002868800714D52069012808D110E02069C8
:10350000B0B1C6F80090FFF705FD074605E00AE1F7
:10351000FFF700FDC01B0228C4D828688007F7D534
:103520002868616920F0F80040EAC10028600DE0D9
:10353000C6F80080FFF7EEFC074604E0FFF7EAFC60
:10354000C01B022823D828688007F7D420780007FA
:103550002CD57948A169D9B1C0F80090FFF7DAFC01
:10356000074604E0FFF7D6FCC01B02280FD8686AA4
:103570008007F7D571484FF4FA510068B0FBF1F0BD
:10358000009000BF0098411E0091FAD20EE080E04A
:10359000C0F80080FFF7BEFC074604E0FFF7BAFC66
:1035A000C01B022875D8686A8007F7D420784007C6
:1035B00060D5E8690027C00008D4E86940F0805071
:1035C000E861E869012700F0805000905C480168DC
:1035D000C90513D40168834641F480710160FFF787
:1035E00099FC824606E000BFFFF794FCA0EB0A00BE
:1035F00064284ED8DBF80000C005F5D5E068012846
:103600000AD008B1052813D0286A20F001002862EA
:10361000286A20F0040002E0286A40F001002862D5
:10362000E06841F2883B98B1FFF774FC82460BE0FA
:10363000286A40F004002862EEE700BFFFF76AFC4A
:10364000A0EB0A0159455AD8286A8007F6D50CE044
:10365000FFF760FC824605E0FFF75CFCA0EB0A0187
:1036600059454CD8286A8007F6D41FB1E86920F084
:103670008050E861E06988B36968C1F3810102297B
:1036800044D00228C6F8608004D0FFF743FC04460B
:1036900038E034E0FFF73EFC074604E0FFF73AFC71
:1036A000C01B02282BD828688001F7D4206AB0F507
:1036B000803F05D16868A16820F400300843686045
:1036C000D4E908010843696821F47411084368606B
:1036D000C6F86090FFF71EFC044606E025E000BF38
:1036E000FFF718FC001B022809D828688001F7D5CD
:1036F0001BE000BFFFF70EFC001B022802D90320CD
:10370000BDE8F88F28688001F4D40EE00128F7D0D6
:103710006868226A00F48031914204D1616A00F441
:103720007010884201D00120EAE70020E8E700009D
:103730000010024000004242800442427801002012
:103740000070004070B5040009D0606A002540B1E7
:1037500025616561A56294F8510040B10CE001203B
:1037600070BD6068B0F5827FF4D0E561F2E784F85F
:103770005050204600F040F8022084F851002068A4
:10378000016821F040010160A088218900F4827065
:1037900001F404410843A18901F400610843217C3C
:1037A00001F002010843217D01F001010843218B52
:1037B00001F400710843217F01F03801084394F8B7
:1037C000201001F080010843218D01F400510843CD
:1037D00021680860A069042101EA1040216848605E
:1037E0002068C16921F40061C1616565012084F828
:1037F0005100002070BD000000B585B0002100918F
:103800000191029103910068104988421BD1104830
:10381000C16941F48041C161C16901F480410491F1
:10382000816941F0080181618069694600F0080002
:1038300004904FF430400090022001900320039048
:103840000448FFF765FA05B000BD000000380040ED
:1038500000100240000C01407047704710B5040092
:1038600003D094F83D0010B107E0012010BD002006
:1038700084F83C00204600F01EF8022084F83D0049
:10388000211D206800F0A2FE012084F8460084F883
:103890003E0084F83F0084F8400084F8410084F83A
:1038A000420084F8430084F8440084F8450084F81A
:1038B0003D00002010BD704790F83D10012901D057
:1038C00001207047022180F83D100168CA6842F06B
:1038D0000102CA6000680B49884208D0B0F1804FED
:1038E00005D00949884202D00849884204D181683C
:1038F00001F00701062903D0016841F001010160D0
:1039000000207047002C01400004004000080040E7
:10391000704770B50446006801694FF00005C9435F
:10392000890715D4C168C943890711D4E91E01610B
:1039300001202077206880698007204602D0FFF7A9
:10394000E7FF04E000F098F8204600F096F82577AD
:1039500020680169C943490717D4C168C9434907A9
:1039600013D46FF004010161022020772068806980
:1039700010F4407F204602D0FFF7CAFF04E000F0B9
:103980007BF8204600F079F8257720680169C94363
:10399000090716D4C168C943090712D46FF008019A
:1039A0000161042020772068C0698007204602D08A
:1039B000FFF7AEFF04E000F05FF8204600F05DF88E
:1039C000257720680169C943C90617D4C168C9436E
:1039D000C90613D46FF01001016108202077206818
:1039E000C06910F4407F204602D0FFF791FF04E049
:1039F00000F042F8204600F040F825772068016981
:103A0000C943C90708D1C168C943C90704D1891E80
:103A10000161204600F032F820680169C9430906B7
:103A200009D4C168C943090605D46FF0800101615A
:103A30002046FFF711FF20680169C943490609D4F0
:103A4000C168C943490605D46FF0400101612046B1
:103A500000F01EF820680169C94389060BD4C168CB
:103A6000C943890607D46FF0200101612046BDE8F3
:103A70007040FFF7F2BE70BD7047704700680349A1
:103A8000884201D1FFF780BA70470000002C014046
:103A90007047704710B504460068416994F83D20AE
:103AA000C1F3C011212A0BD151B1416921F080012C
:103AB0004161606B08B1FEF787FF204600F058FEB9
:103AC0002068416994F83E20C1F38011222A0BD16D
:103AD00051B1416921F040014161A06B08B1FEF78D
:103AE00073FF204600F02CFE002010BD7047000040
:103AF000F8B5026804461068D168536910F00F0FDA
:103B00004FF0000553D003F0010601F490773743DE
:103B10005FD0C20705D0CA0503D5226C42F001026E
:103B20002264420705D5DA0703D0226C42F0020274
:103B30002264820705D5DA0703D0226C42F0040222
:103B40002264020707D501F02002324303D0226C21
:103B500042F008022264226C002A34D0800604D588
:103B6000880602D5204600F00CFE20684069216CD2
:103B7000C0F38010090700D430B3204600F0E0FD08
:103B80002068416949061BD5416921F04001416126
:103B9000A06BA8B158494163A06BFEF739FF00281C
:103BA00011D0A06B416B01B0BDE8F040084783061F
:103BB0000FD58B060DD52046BDE8F84000F0E1BDDD
:103BC0002046FFF793FFF8BD2046FFF78FFF2564DF
:103BD000F8BD266B2023012E52D1C60650D5CE0645
:103BE0004ED5106850680090506940062AD5A16BE8
:103BF000086840680004000CEAD0A68D8642E7D928
:103C0000E0858869202818D0D06820F48070D060C2
:103C10002068416921F0010141612068416921F07A
:103C20004001416184F83E3025632068C16821F07D
:103C30001001C160A06BFEF7C7FEA08DE18D401A98
:103C400081B219E0A08DE18D401A81B2E08D00288B
:103C5000BED00029BCD0D06820F49070D06020681D
:103C6000426922F00102426184F83E3025632068F7
:103C7000C26822F01002C2602046FFF70AFFF8BDBA
:103C800005062BD50D0629D594F83D002128F6D13F
:103C9000A068B0F5805F01D12069B0B1206A411CF5
:103CA0002162216800784860E08C401E0004000C0E
:103CB000E084E4D12068C16821F08001C1602068FF
:103CC000C16841F04001C160F8BD206A0088C0F3BE
:103CD00008005060206A801C2062E5E74006F3D5AA
:103CE0004806F1D5D168204621F04001D16084F822
:103CF0003D3000F07BF9F8BD3B46000870B504008C
:103D000004D094F83D00002510B106E0012070BDFC
:103D100084F83C50204600F023F8242084F83D002D
:103D20002068C16821F40051C160204600F084FD84
:103D30002068016921F4904101612068416921F006
:103D40002A0141612068C16841F40051C1602564C5
:103D5000202084F83D0084F83E00002070BD000063
:103D60002DE9F04385B0002400940194029403945B
:103D70000646DFF850C10368534802210322534D21
:103D800080274FF01009634555D1836943F4804380
:103D90008361836903F480430493836943F00803D8
:103DA00083618069039200F0080004904020CDE90F
:103DB000000169462846FEF7ABFF01200097CDE9D8
:103DC000014069462846FEF7A3FF4148416841F09B
:103DD000E06141F0040141603F4D3E484FF480589E
:103DE000C5E90004C5E902472C616C61C5E90648D4
:103DF0002846FEF703FF08B1FEF767FBB5636E6266
:103E0000354D344844351438C5E902472C616C619E
:103E1000C5E90009C5E906482846FEF7EFFE08B1E6
:103E2000FEF753FB75630022052125206E62FFF724
:103E300045F9252041E0DFF8A4C063453FD1C369BF
:103E400043F48023C361C36903F48023049383692B
:103E500043F0080383618069039200F00800049036
:103E60004FF48060CDE9000169462846FEF750FF17
:103E70004FF40060CDE90004694628460294FEF73D
:103E800047FF154D134888353C38C5E902472C617A
:103E90006C61C5E900094FF40050C5E906402846A9
:103EA000FEF7ACFE08B1FEF710FB7563002205219A
:103EB00027206E62FFF702F92720FFF7F1F805B01F
:103EC000BDE8F0830038014000100240000C0140C2
:103ED000000001405800024038090020004800401E
:103EE00090F83E30202B0ED159B152B190F83C30B1
:103EF000012B08D0012380F83C300023036300F03D
:103F0000F7BC012070470220704790F83E30202B0C
:103F10000ED159B152B190F83C30012B08D0012399
:103F200080F83C300023036300F01ABD0120704785
:103F30000220704710B50068074988420AD1074837
:103F4000006801F0C7FCBDE81040012204490548A3
:103F5000FFF7DBBF10BD0000004800407C000020E0
:103F600074010020F40800207047000070B504467A
:103F700090F83D00202830D169B362B394F83C003A
:103F800001282AD0012084F83C002162A284E28426
:103F900000252564212084F83D00636B1048986259
:103FA000636B1048D862636B0F481863606B1346ED
:103FB00045632668606B321DFEF74EFE21686FF088
:103FC0004000086084F83C502068416941F080015D
:103FD0004161002070BD012070BD022070BD000055
:103FE00009470008374700084B46000870477047EC
:103FF000064C4FF47A750648FEF7BFFF02212046B3
:10400000FEF77BFF284601F01BFCF4E7000C0140A3
:104010004C0800201CB50021054800910191006862
:104020006B4608228069D0F86842A0471CBD00009A
:104030009000002070B505460024094E0BE028785A
:104040002146E04000F0010230688069D0F8443237
:104050009847641CE4B2002D01D0062CEFD370BD4C
:104060009000002070B58AB018216846FCF7BCFAB1
:1040700000241E48069407941B4908940160891582
:104080008160012606730475022505614FF46021E5
:104090004460C161FEF73CFB08B1FEF716FA144814
:1040A000CDE90005039404948DF8084069460F4853
:1040B000FEF780FA08B1FEF708FA06200696CDE969
:1040C000076006A90948FEF7A1FA08B1FEF7FDF955
:1040D000069506A905480795FEF798FA002801D02D
:1040E000FEF7F3F90AB070BD00240140D8070020A4
:1040F00000028000154808B5416941F001014161A5
:104100004069002200F00100009005210B20FEF71D
:10411000D5FF0B20FEF7C4FF002205210C20FEF77F
:10412000CDFF0C20FEF7BCFF002205210E20FEF77C
:10413000C5FF0E20FEF7B4FF002205210F20FEF779
:10414000BDFFBDE808400F20FEF7AABF00100240E7
:1041500030B5A9B00025209520A8219501F08FFB4E
:104160002B4C0121A061229522A8239501F093FBFD
:10417000E0612495012124A8259501F08CFB254DB3
:1041800020620022D5E90001CDE92601012126A8FF
:1041900001F024FC0835606195E80F001CAD85E84E
:1041A0000F0000211CA801F057FB1A4920611C22B6
:1041B00018316846FCF7BCF91749684601F0E4FB82
:1041C000144920601C22343107A8FCF7B1F9002102
:1041D00007A801F0D9FB0F4960601C2250310EA8DE
:1041E000FCF7A6F90D490EA801F0CEFB0949A06025
:1041F0001C226C3115A8FCF79BF9002115A801F0D1
:10420000C3FBE0603221606901F008FC29B030BDD9
:104210005C000020E08D0008EC0A0020480000202F
:104220002DE9F04786B0002551480095019502958B
:104230000395816941F010018161816901F01001EC
:104240000491816941F020018161816901F02001BF
:104250000491816941F004018161816901F00401E7
:104260000491816941F0080181618069DFF804915E
:1042700000F008000490012244F202014846FEF7D3
:1042800044FEDFF8F4A04FF4406801224146504656
:10429000FEF73BFE4FF400500326CDE900066946C9
:1042A0003648FEF735FD48F20730CDE9000669468D
:1042B0005046FEF72DFD324FF820CDE90007694644
:1042C00002955046FEF724FD0124CDE900476946DA
:1042D00048460294FEF71CFD0227CDE90074CDE9A3
:1042E000025769464846FEF713FD4FF44F70CDE97B
:1042F000000669464846FEF70BFDA0038DE87100F5
:1043000069464846FEF704FDCDE90084CDE9024741
:1043100069465046FEF7FCFC2003CDE900056946DE
:1043200002945046FEF7F4FC002205210620FEF719
:10433000C5FE0620FEF7B4FE002205210920FEF787
:10434000BDFE0920FEF7ACFE002205210A20FEF783
:10435000B5FE0A20FEF7A4FE002205211720FEF775
:10436000ADFE1720FEF79CFE06B0BDE8F08700000A
:1043700000100240000C0140000801400010014004
:1043800000002110094810B507490160042141606F
:1043900040F2E2418160FEF7C3FD002803D0BDE892
:1043A0001040FEF792B810BD003000404C080020CD
:1043B0000F4810B50D4901604FF482714160002132
:1043C0008160C1604FF480220161C0E90512C161C2
:1043D0000162416281620A21C162FFF7B3F90028DC
:1043E00003D0BDE81040FEF770B810BD00380040A3
:1043F000580800200C4810B50A4901604FF4E1311B
:104400004160002181600C22C160C0E90412816119
:10441000C161FFF773FC002803D0BDE81040FEF730
:1044200054B810BD00380140B00800200C4810B549
:104430000A4901604FF4E1314160002181600C22A2
:10444000C160C0E904128161C161FFF757FC002817
:1044500003D0BDE81040FEF738B810BD004800405A
:10446000F40800200B4C4FF0FF363146E06901F0B4
:1044700059FA094F094D3146E06901F053FA002815
:10448000F9D138780028F6D128686421C26A9047AB
:10449000F1E700005C000020940000209000002064
:1044A000FEE7000001B5012060F307014FF4E1329F
:1044B000024B684600F0ECFB08BD0000795A00088A
:1044C000FEE700000849094A04460969002600F190
:1044D0000805D1602846FFF7ADFD2681FFF79AFD5C
:1044E000322001F0ADF9F5E75C0000204800002023
:1044F0000446FDF79DFE012203490448FFF705FD30
:10450000204602F09DFFFBE774010020F408002024
:1045100010B5502080F31188BFF34F8FBFF36F8F1A
:1045200003F0D6FD18B104494FF080500860002018
:1045300080F3118810BD000004ED00E030B593B0A9
:1045400028216846FCF750F814210AA8FCF74CF81B
:1045500000250F95092001211095009011951295C5
:104560004FF4803004910691CDE901050224CDE994
:1045700007404FF4E01009906846FEF753FF08B17A
:1045800072B6FEE70AA90F2081E831004FF480607F
:10459000CDE90D0502210AA8FEF738FE08B172B672
:1045A000FEE74FF4004011900F940FA8FEF7B8FDFE
:1045B000002801D072B6FEE713B030BD704700008E
:1045C0000148FFF7A6B90000040A0020F0B5026810
:1045D000164B174C174D4FF08047984205D0B84204
:1045E00003D0A04201D0A84203D122F070064A684D
:1045F0003243984205D0B84203D0A04201D0A8422D
:1046000003D122F44074CA6822434C6922F080022C
:10461000224302608A68C2620A688262984201D1BB
:104620000969016301214161F0BD0000002C0140D6
:104630000004004000080040704710B5406A0021A7
:10464000C185C184FFF752FA10BD70B5446A206875
:10465000406994F83D10C0F3C0100025212904D111
:1046600018B1E584204600F083F82068406994F88A
:104670003E10C0F38010222904D118B1E5852046F0
:1046800000F05EF8206C40F0100020642046FFF738
:104690002DFA70BD10B50146406A0968096889069F
:1046A0001BD40021C1850168CA6822F48072CA60E7
:1046B00001684A6922F001024A6101684A6922F0F0
:1046C00040024A61202180F83E10016B012904D18B
:1046D0000168CA6822F01002CA60016B012902D089
:1046E000FFF728FC10BD818DFFF7D3F910BD10B581
:1046F000406A016B012902D0FFF736FC10BD818DA5
:104700004908FFF7C6F910BD10B50146406A0968AF
:10471000096889060CD40021C18401684A6922F025
:1047200080024A610068C16841F04001C16010BD6B
:10473000FFF75CFC10BD10B5406AFFF758FC10BDD8
:104740000168CA6822F49072CA6001684A6922F05E
:1047500001024A61016B012904D10168CA6822F093
:104760001002CA60202180F83E10002101637047CA
:104770000168CA6822F0C002CA60202180F83D109A
:10478000704708B590F83E10222901D0022008BDDC
:1047900082684FF480539A4201D1016921B1816A44
:1047A0009A421BD04AB10AE00268816A5268C2F399
:1047B00008020A80816A891C08E0026972B10268F5
:1047C000526802F07F020A70816A491C8162C18DC1
:1047D000491E0904090CC18503D019E0026852681A
:1047E000F1E70168CA6822F02002CA600168CA685D
:1047F00022F48072CA6001684A6922F001024A61AB
:10480000202180F83E10016B012903D0FFF792FBB5
:10481000002008BD002101630168CA6822F010026F
:10482000CA6001680A68D20602D50A684968009120
:10483000818DFFF72EF9EBE770B50446006801693A
:10484000E26821F44051114301612169A0680843E5
:10485000616908432168CA6841F20C639A430243C4
:10486000CA6020684169A26921F440711143416125
:104870001E492068884202D1FEF78EFD01E0FEF756
:104880007BFD00EBC00101EB001260686421800039
:10489000B2FBF0F3B3FBF1F36FF018067343B2FB16
:1048A000F0F5B2FBF0F605EB8305322303EB0515BB
:1048B000B5FBF1F5B6FBF1F605F0F00505EB0615D5
:1048C000B2FBF0F6B2FBF0F0B0FBF1F06FF01802C3
:1048D000504306EB800003EB0010B0FBF1F02168C1
:1048E00000F00F002844886070BD000000380140CF
:1048F00038B581628285002513460446056422206E
:1049000084F83E00A26B13489062A26B1248D062FA
:10491000A26B12481063A06B0A4645632168A06B26
:10492000091DFEF799F9206801684168009184F833
:104930003C50C16841F48071C1602068416941F018
:10494000010141612068416941F04001416100205D
:1049500038BD000095460008EF4600084B460008A9
:1049600081628285C28500210164222280F83E2076
:1049700080F83C100168CA6842F48072CA6001681D
:104980004A6942F001024A610068C16841F02001B1
:10499000C16000207047000038B514480068016805
:1049A000C943C9061CD401684068114C00902068B6
:1049B000B0B10E48FFF76EF80E48006840682168F5
:1049C000C0F1FD004969C1F800010B48006808B159
:1049D00000F080FF2068FD2241690448FFF780FA5B
:1049E000BDE838400148FFF783B80000B008002058
:1049F0009000002038090020780000200148FFF7CF
:104A000077B80000F4080020FEE700000549816641
:104A1000054941660549C166054901678022054986
:104A200002F066B8654A0008394A00086176000855
:104A300079760008600B002070B5044607480D46E3
:104A40004FF0FF31006800F06DFF08B1002070BD2D
:104A5000034800782070284670BD00007C000020CC
:104A60007401002010B50C460A4601460548FFF7C0
:104A70007DFA044800680168C9434906FBD4204612
:104A800010BD0000F40800202DE9F041052617466E
:104A90000C468046322B01D2322506E03220B3FB91
:104AA000F0F502E0322000F0CBFED4F8000150B166
:104AB000D4F800110020605439462046FBF76BFC07
:104AC00028B106260BE06D1EADB2EBD21EE012A19E
:104AD0002046FBF760FC08B1042600E005261148DB
:104AE0000EA105686CB12046FBF755FC48B1A01D2E
:104AF000FBF744FCC2B22A70A31D0BA10F4802F0C1
:104B000033FA22460EA1404602F02EFA204600F06B
:104B1000A3F83046BDE8F081455252002B43483A95
:104B200000000000900000200D0A736C617665099A
:104B3000706275660D0A256409257300EC0A002071
:104B40003E5B4C3130322D3E4D43555D3A25730D61
:104B50000A000000490050EAC12018BF04204A0D95
:104B600018BF40F0010040F2FF72B2EB515F08BF86
:104B700040F00200012808BF052070470907090E10
:104B8000002804DB00F1E02080F80014704700F0FA
:104B90000F0000F1E02080F8141D704730380A281B
:104BA00001D20120704700207047EFF305800028F4
:104BB00000D0012070470000FEF7F6F9FFF7BEFCB9
:104BC000FFF72EFBFFF796FAFFF74CFAFFF7F0FB23
:104BD000FFF710FCFFF7D6FBFFF728FC1548FFF79F
:104BE00015FF1548FFF75EFC134C2068B8B1144858
:104BF00012490268116011490268103111600068A1
:104C0000C16841F01001C1602068FD2241690C4873
:104C1000FFF766F9216800204969C1F800011022F8
:104C200008490948FDF74AFEFFF792FA00F00FFE27
:104C3000FEE70000EC0A002090000020DFFFFFEFFD
:104C4000B008002098070020D80700200146002067
:104C5000842900D0C81C70470021C0F80011FD2134
:104C6000FBF7C2BC70B5094DFF231A4605F58076E7
:104C700006E000BF10F8014B54402A5D5A40335DF6
:104C8000491EF7D242EA032070BD0000688E00087A
:104C90002DE9F04104460E4615461F46582001F006
:104CA00059FA2168002808606CD0C761216836482D
:104CB0000968086221683548096848622068006808
:104CC0000670284603F0CBFD0D46064632462B46BD
:104CD00000202F4903F00EFC03F064FD21683246EA
:104CE0002B460968C86000202A4903F003FC03F042
:104CF00059FD2168096888602168002009680874E6
:104D00002168254809688862216824480968C862C2
:104D100021682348096808632168224809684863B4
:104D20002168214809688863216820480968C863A8
:104D300021681F480968086421681E48096848649A
:104D400021681D480968886421681C480968C8648E
:104D500021681B480968086521681A480968486580
:104D600020680068183000F05DF840B120680068E5
:104D7000143000F029F810B10120BDE8F08120685E
:104D800002F00CFD0020F8E721500008A5500008B3
:104D9000389C6C4176B080417B5A00089D5A0008CF
:104DA0008B5A0008A1540008A75000083D52000883
:104DB000F35200089F5300084B5400087754000832
:104DC00055510008CD51000810B504464FF48270CB
:104DD00001F0C0F920601CB1FFF73EFF012010BDBB
:104DE000204602F0DBFC002010BD2DE9F04100263A
:104DF00004460F460E60D4E98101354688420DD243
:104E00000C2001F0A7F948B1056045608560386065
:104E1000D4F80402401C0126C4F804023046BDE860
:104E2000F08100002DE9F84F834600254FF41B70F8
:104E300001F090F9040071D03B48C4F80C023B48E3
:104E4000C4F814023A48C4F81C023A48C4F82402D0
:104E50003948C4F810023948C4F818023848C4F870
:104E600020023848C4F828023748C4F82C023748D2
:104E7000C4F830023648C4F834023648C4F8380260
:104E80003548C4F83C023548C4F840023448C4F8F8
:104E900044023448C4F848023348C4F84C0233484A
:104EA000C4F850023248C4F854023248C4F85802D8
:104EB0003148C4F85C023148C4F860023048C4F894
:104EC00064023048C4F8680284202146C4F808020D
:104ED0000846FFF78AFF050020D0DFF8ACA0D4F821
:104EE00000800027002604EBC71969462046FFF71B
:104EF0007CFF050012D05AF8270081190098016044
:104F000009EB8601761C48600098C8F808008046C6
:104F1000202EEAD37F1C042FE4D301252846CBF8AA
:104F20000040BDE8F88F0000BD540008FD540008A3
:104F300025560008415600088B560008EB5600081D
:104F4000DF5700081558000827550008415500088C
:104F5000135700081D570008A1550008C155000847
:104F600073570008855700080356000813560008B9
:104F7000BD570008CD5700087F5500088F55000821
:104F8000515700086157000880000020F0B5044622
:104F90000020154E034600BF56F823508D420BD813
:104FA00005F120078F4207D904EBC3104D1B00EB1E
:104FB00085004068106001205B1C042BECD30028A6
:104FC00007D123680BE01C688C4203D14FF001002D
:104FD0001360F0BD03D94FF000011160F0BD9B6874
:104FE000002BF0D1F0BD00008000002030B5026839
:104FF0000B68906801E00246806838B104681D685B
:10500000AC42F8D3AC4207D1002030BD93600968B0
:1050100000208860012030BD986008689060F9E742
:1050200070B545690446D5F80011032902D2022162
:10503000626A21E02846891EFFF714FE207829784D
:10504000401E814202D00421626A14E0687805287B
:105050001DD008DC012812D0022812D0032812D05B
:10506000042806D111E0062813D00F2813D01028E9
:1050700013D0626A05212046BDE870401047A16B3D
:105080000CE0E16B0AE0216C08E0616C06E0A16CC9
:1050900004E0E16C02E0216D00E0616D2046BDE8B6
:1050A0007040084770472DE9F0478046D8E90574FD
:1050B000788846BAB88845BA284601F04BF8814648
:1050C0002946FBF76FFAD4F830C24B462A463146E0
:1050D0002046E04768074FEAD50000D0401CC4B224
:1050E000601D01F037F80646611DFBF75BFA387862
:1050F000307078787070B470002112E0002072185F
:105100000AE019F80330D77803F0010383401F4306
:10511000401CD770082803D200EBC103AB42F0D388
:10512000491CA142EAD3E11C3046FFF79BFD31192F
:10513000C870000A0871D8F834304046621D314604
:105140009847484602F02AFB3046BDE8F04702F097
:1051500025BB00002DE9F04706460024D6E905509E
:105160008146688890FA90F8A88847BA0FE000BF97
:1051700005EBD40004F00701C079D9F83432C840F7
:1051800000F0010208EB040148469847641CBC4249
:10519000EED3082000F0DEFF0446002020606060AF
:1051A00028682060A888A08006212046FFF75AFDC5
:1051B000A071000AE071736B0822214630469847BF
:1051C0002046BDE8F04702F0E9BA00002DE9F047BB
:1051D00006460024D6E905508146688890FA90F882
:1051E000A88847BA0CE000BF05EB4400D9F8643248
:1051F000B0F8070008EB040142BA48469847641C1F
:10520000BC42F1D3082000F0A5FF04460020206036
:10521000606028682060A888A08006212046FFF7EB
:1052200021FDA071000AE071736B0822214630460F
:1052300098472046BDE8F04702F0B0BA2DE9F047A4
:105240008046D8E90574788846BAB88845BA2846B1
:1052500000F080FF81462946FBF7A4F9D4F840C24C
:105260004B462A4631462046E04768074FEAD500BC
:1052700000D0401CC6B206F10800824600F06AFF6A
:1052800004465146FBF78EF90120A0706070387813
:10529000E070787820716671002112E000206218B9
:1052A0000AE019F80330977903F0010383401F43A4
:1052B000401C9771082803D200EBC103AB42F0D326
:1052C000491CB142EAD3F11CE01CFFF7CBFCA11949
:1052D00052468871000AC871D8F8343040462146D9
:1052E0009847484602F05AFA2046BDE8F04702F0D7
:1052F00055BA2DE9F05F0646D6E90575788890FA2B
:1053000090FBB88844BA60008246D04600F022FF85
:1053100081464146FBF746F9D5F860C24B46224626
:1053200059462846E047012C03D92146484600F05B
:105330009DF9052000EB4400804600F00BFF054678
:105340004146FBF72FF9387828707878687085F82F
:1053500002A0002009E039F810100A0A05EB40010C
:10536000CA7019F810200A71401CA042F3D3032020
:1053700000EB44012846FFF775FC05EB440142466B
:10538000C870000A0871736B294630469847484632
:1053900002F004FA2846BDE8F05F02F0FFB92DE9FB
:1053A000F05F0646D6E90575788890FA90FBB888D4
:1053B00044BA60008246D04600F0CCFE81464146A9
:1053C000FBF7F0F8D5F850C24B462246594628461E
:1053D000E047012C03D92146484600F047F9052053
:1053E00000EB4400804600F0B5FE05464146FBF761
:1053F000D9F8387828707878687085F802A000208D
:1054000009E039F810100A0A05EB4001CA7019F8D2
:1054100010200A71401CA042F3D3032000EB44018A
:105420002846FFF71FFC05EB44014246C870000AFE
:105430000871736B294630469847484602F0AEF92A
:105440002846BDE8F05F02F0A9B970B54469054689
:1054500080696188A288D4F8006149BA52BA02B161
:105460000122D0F8343298473246214628466B6BE9
:10547000BDE87040184770B5446905468069618889
:10548000A288D0F86432D4F8006149BA52BA984779
:105490003246214628466B6BBDE870401847000035
:1054A00010B592B20448FEF761FD03480068016838
:1054B000C9434906FBD410BDB0080020F8B5064624
:1054C00014460D46084603F0CAF96FF0030203F0D4
:1054D0001DFC03F097F9014605F00F056A463046BA
:1054E000FFF754FD012803D0002020700120F8BDF3
:1054F00000984068E84000F00100F6E72DE9F0412F
:10550000804600201F4615460E46044607E03A46F0
:105510007F1CD8F80C32311940469847641CAC42C5
:10552000F5D3BDE8F08138B51446D0F81C326A4690
:10553000491C9847BDF8001001F00101217038BDE9
:105540002DE9F84300251E461746884681462C461D
:1055500010E000BF08EB0401D9F81C3248466A4647
:10556000491C98470543BDF80000641C00F0010089
:1055700006F8010BBC42EDD32846BDE8F88330B4F1
:1055800049F641442144D0F81C3230BC184730B4AD
:10559000D0F8244249F641452944A44630BC60472E
:1055A00038B5144642F21175D0F81C326A462944C7
:1055B0009847BDF8001001F00101217038BD0000CE
:1055C0002DE9F84F00251E461746894682462C468F
:1055D00042F2117810E000BF09EB0401DAF81C3246
:1055E000414450466A4698470543BDF80000641C94
:1055F00000F0010006F8010BBC42EDD32846BDE8DF
:10560000F88F30B447F231542144D0F81C3230BC0A
:10561000184730B4D0F8244247F231552944A44603
:1056200030BC604738B514466A46FFF7AFFC012826
:1056300003D000202080012038BD00988088F9E741
:105640002DE9F041804600201F4615460E460446CF
:1056500007E03A46BF1CD8F81C323119404698473B
:10566000641CAC42F5D3BDE8F081000000EB4101C1
:1056700008E000BF30F8022B30F8023B20F8043C71
:1056800020F8022C8142F5D87047F8B50746144639
:105690000E46084603F0E3F86FF0030203F036FB12
:1056A00003F0B0F80546014606F00F066A46384694
:1056B000FFF76CFC04B10124012810D0694638467C
:1056C000FFF793FB012809D10098B44005604168B9
:1056D0002143416069463846FFF788FCF8BD0099D0
:1056E000B4404A6822434A60F8BD2DE9F041804643
:1056F00000201E4615460F46044606E0D8F8103234
:10570000325D391940469847641CAC42F6D3BDE877
:10571000F081D0F82032491C184700002DE9F047ED
:1057200000251E461746884681462C460BE000BFE2
:1057300008EB0401D9F8203216F8012B4846491C21
:1057400098470543641CBC42F2D32846BDE8F08765
:1057500030B449F641442144D0F8203230BC1847D7
:1057600030B4D0F8284249F641452944A44630BC1B
:10577000604730B442F211742144D0F8203230BC7A
:10578000184700002DE9F04700251E4617468946B8
:1057900082462C4642F211780BE000BF09EB04016F
:1057A000DAF8203216F8012B414450469847054359
:1057B000641CBC42F2D32846BDE8F08730B447F2FF
:1057C00031542144D0F8203230BC184730B4D0F8DE
:1057D000284247F231552944A44630BC6047F8B509
:1057E00014460D4606466A46FFF7D0FB01280DD049
:1057F00069463046FFF7F9FA012806D10098694654
:10580000C0E900543046FFF7F1FBF8BD00994C6049
:10581000F8BD00002DE9F041804600201D461646E7
:105820000F46044608E000BFD8F8203235F8022BB6
:10583000391940469847641CB442F5D3BDE8F0815D
:1058400010B500B9012002F011F8002010BD10B50C
:1058500002F096F8002010BD38B5D0E901120468B6
:105860003AB1C3682BB100200090204602F04DF9F8
:1058700038BD2046BDE83840002202F02BB941680F
:105880004FF0010009B102F018B902F00BB9812004
:1058900070478120704738B543684BB1012909D161
:1058A0000320002200901146012002F02EF938BD9D
:1058B000012901D0002038BD03220021012002F07F
:1058C00009F9040004D000231A46194602F064F9CD
:1058D000204638BD38B5002405460094FFF765F929
:1058E00090B16946284602F006FA012801D0FF204F
:1058F00038BD009888B10A494FF080500860BFF366
:105900004F8FBFF36F8F08E000231A4619462846D1
:1059100002F042F9012800D0FF24204638BD0000E3
:1059200004ED00E038B505004FF0000000900FD006
:105930000024481C0ED001B10C46FFF736F9B8B16F
:105940006A460021284602F079FA012816D104E0BF
:10595000802038BD4FF0FF34EFE7009880B109494F
:105960004FF080500860BFF34F8FBFF36F8F07E099
:105970002146284602F094FA012801D0FF2038BDC4
:10598000002038BD04ED00E07FB50D4604464169B6
:10599000B0F9080081B1A16971B1FFF757F9D4E9F5
:1059A00005128DE80700D4E900102B46226902F0A9
:1059B00060FB039004B070BDFFF748F903A9CDE97F
:1059C0000001208A2B4682B2D4E9001002F024FBA9
:1059D000012801D00020EDE70398EBE71CB511C8C2
:1059E0006CB1CDE90004012907D00020134602461E
:1059F000012109A002F0EEFC1CBD0120F6E7009099
:105A0000012907D0002013460246012102A002F01E
:105A1000C7FC1CBD0120F6E7000000002DE9FC4199
:105A2000002507462E4601950C0000D10124FFF702
:105A3000BCF8009690B101AB22460921384602F02D
:105A400001FD012812D1019888B10A494FF0805018
:105A50000860BFF34F8FBFF36F8F08E0002322462B
:105A60000421384602F0EEFC012800D0FF2528462C
:105A7000BDE8FC8104ED00E070474069D0F80021EA
:105A8000531CC0F800318154704770B54469154605
:105A90002046FAF708FDC4F8005170BD10B54469FE
:105AA000D4F8001109B1016A88472046BDE81040CA
:105AB000FFF7D2B82DE9F041184C0F46054626698C
:105AC0002068001D01F0E2FD38B9206890F82C1024
:105AD00001208840616981436161681C07D137B149
