:020000040800F2
:1000000018090020C5000008792C000831250008D7
:1000100000000000000000000000000000000000E0
:10002000000000000000000000000000AD2F0008EC
:100030000000000000000000E12C0008AF2F0008C5
:10004000D700000800000000D7000008D700000813
:10005000D7000008D7000008D7000008D700000824
:1000600000000000D700000809050008D7000008BC
:10007000D700000839300008D70000080000000051
:10008000D70000080000000000000000D7000008B2
:1000900000000000D7000008D7000008D7000008C3
:1000A00000000000D7000008000000002D3A000802
:1000B0000348854600F0A2F900480047413C00088B
:1000C000180900200448804704480047FEE7FEE77F
:1000D000FEE7FEE7FEE7FEE735300008B100000866
:1000E00030B50B46014600202022012409E00D46D0
:1000F000D5409D4205D31D469540491B2546954058
:1001000040191546521E002DF1DC30BDF0B51FB46C
:100110000646002082B005464024019100901BE075
:10012000019922460F46304600F020F8049A059BBC
:10013000801A994110D310461946224600F00CF956
:10014000361A8F410197224601200021009F00F0BE
:1001500003F938184D4100902046641E0028DFDC6A
:10016000019B00982946324607B0F0BD10B5202A01
:1001700004DB0846203AD040002110BD0B46D34096
:10018000D0402024A21A91400843194610BD10B552
:1001900003461C460C43A40703D009E010C9121FF4
:1001A00010C3042AFAD203E00C781C70491C5B1CB3
:1001B000521EF9D210BDD2B201E00270401C491E9D
:1001C000FBD270470022F6E710B513460A460446F4
:1001D0001946FFF7F0FF204610BDF8B502464A4029
:1001E000D40F42004B0052085B089A4202D20246EA
:1001F000084611464A0023D0C30D4A00DDB2120E54
:10020000AD1A202D35DA49020126490AF6058A1968
:10021000002C00D0524220214F1B1146B9402A41E8
:100220001018C20D9A4221D0002C17D0012D08DCE5
:10023000DA05801AD20F8019D207DBB200F0A4F8D9
:10024000F8BDDA05801A012340001B06C01880188B
:100250005A428018CA0F1043490007E04908C207F4
:100260001143DA05801A80194008801800F084F8DC
:10027000F8BD61000122511A001BF7E70122D207E5
:100280005140AAE70122D2075040A6E7024670B5C6
:100290004A40D30FDB0740002DD04A002AD0010E80
:1002A000140E000212020919400A520A8418E501CC
:1002B00004465443000A120A2E045043A41942195A
:1002C000200CC543AA18120C0125AD03521C52196B
:1002D00012047F39240400D0521C104301D4400082
:1002E000491EC2B20C06C0092018401C4008802AD2
:1002F00002D003E0002070BD40084000002900DA71
:100300000020184370BD410040020122400AD2057E
:10031000090E80187F2901DA00207047962903DC36
:100320009622511AC840704796398840704700009D
:100330000122D207002800DB101A002900DB511A25
:10034000814270470122D207002800DB101A0029E1
:1003500000DB511A8842704710B5202A04DB0146A1
:10036000203A9140002010BD914020239C1A034662
:10037000E3401943904010BD002904DA401C4900B5
:1003800001D140084000704770B40024050C05D12D
:100390001024000402D1002921D01124050E01D11E
:1003A00000020834050F01D10001241D850F01D181
:1003B0008000A41C002801DB4000641C002908D038
:1003C00020252E1B0D46F540A14000D001212943D8
:1003D000084301061B1B000ADB1D02D5002070BC70
:1003E0007047DB05181880180029F8DA401C49000E
:1003F000F5D170BC4008400070470000064C012554
:10040000064E05E0E36807CC2B430C3C98471034BC
:10041000B442F7D3FFF750FE303E0008503E0008CC
:10042000F8B504460D46002D00D1F8BD402003F07C
:1004300077FC20602068002802D1206803F0D6FBFA
:100440002021485D03F06CFC0646002E03D13046A7
:1004500003F0CCFBE9E72821485D03F061FC074687
:10046000002F03D1384603F0C1FBDEE72020415DB9
:100470003046FFF7A7FE2820415D3846FFF7A2FE71
:1004800028782168087068782168487019482168C0
:10049000486019482168886018482168C860184871
:1004A000216808611748216848612068C6610021F9
:1004B00020681C3041712020415D20681C30017192
:1004C000206847622820415D2068243001710021A6
:1004D000206824304171696B20684163E96A2068B3
:1004E000C1620021206824304175E86B2168C8632F
:1004F00000BF9AE7892A00086D290008292A000808
:1005000055280008F128000810B5034800F0B6F897
:10051000024800F0B3F810BD8C020020D002002089
:1005200010B50446054A2168881A1421FFF7D8FD42
:100530008000206401480838E06310BD08000240D4
:1005400030B50124056CAC40C56B6C600468636019
:100550004468102C04D10468A2600468E16003E0E0
:100560000468A1600468E26030BD704772B600BFE5
:10057000FEE700000EB5044A07CA6B4607C368468B
:1005800002F0AFFB0EBD0000EC3D0008F0B50346E5
:100590001046002414E01D785B1C684000250BE029
:1005A000C607F60F002E03D04610074F7E4000E02E
:1005B000461030466E1CB5B2082DF1DB651CACB29E
:1005C0008C42E8DBF0BD000001A0000001462120C4
:1005D000405C022808D00420886300BF002220204D
:1005E000425400BF01207047086800680E22904303
:1005F0000A68106008680068400840000A681060D7
:1006000001200A6C9040CA6B5060012221204254A4
:1006100000BF00222020425400BF0020E3E770B555
:10062000044600252120005D022803D00420A06399
:1006300001251EE0206800680E21884321680860BB
:100640002068006840084000216808600120216C93
:100650008840E16B486001212120015500BF002145
:100660002020015500BF606B002802D02046616B3E
:100670008847284670BD0146886B704770B50446B0
:10068000E06B0568206806680420216C88402840DB
:1006900000281BD004203040002817D020680068B4
:1006A00020210840002805D12068006804218843E3
:1006B000216808600420216C8840E16B4860E06A92
:1006C000002852D02046E16A88474EE00220216C83
:1006D00088402840002823D00220304000281FD026
:1006E0002068006820210840002808D120680068A0
:1006F0000A21884321680860012121200155022038
:10070000216C8840E16B486000BF0021202001552A
:1007100000BFA06A002828D02046A16A884724E0AC
:100720000820216C8840284000281ED00820304036
:1007300000281AD0206800680E21884321680860CC
:100740000120216C8840E16B48600120A0630121F9
:100750002120015500BF00212020015500BF206B42
:10076000002802D02046216B884770BD70B5044632
:100770000025002C01D1012070BD0221212001554E
:10078000206805680F480540A16860680843E16873
:1007900008432169084361690843A1690843E16985
:1007A00008430543206805602046FFF7B9FE002096
:1007B000A0630121212001550021202001550020A6
:1007C000DAE700000FC0FFFFF8B504460D461646F5
:1007D0001F460020009000BF2020005D012801D1AD
:1007E0000220F8BD01212020015500BF2120005D1D
:1007F00001282DD10221212001550020A06320686D
:10080000006840084000216808603B46324629469F
:100810002046FFF795FEE06A002806D020680068B1
:100820000E210843216808600BE0206800680A2157
:100830000843216808602068006804218843216813
:10084000086020680068012108432168086006E00C
:1008500000BF00212020015500BF02200090009819
:10086000BFE7000070B5044600F01AF906462546B9
:10087000681C002802D0054800782D1800BF00F041
:100880000FF9801BA842FAD370BD0000B800002009
:1008900078B503460A460021DFE001268E40146841
:1008A0003440002C7ED01579AD07AD0F012D04D05A
:1008B0001579AD07AD0F022D18D198684E000325AC
:1008C000B5400646AE4330464E00D568B540284395
:1008D0009860586801258D400646AE433046102684
:1008E000556835402D098D40284358601579AD076E
:1008F000AD0F032D0BD0D8684E000325B54006463A
:10090000AE4330464E009568B5402843D86015790F
:10091000AD07AD0F022D15D1CD08AE001D46203517
:10092000A8594D07EE0E0F25B5400646AE4330469A
:100930004E07F60E1569B5402843CD08AD001E469A
:100940002036705118684E000325B5400646AE4368
:1009500030461579AD07AD0F4E00B54028431860FD
:100960000326360455683540002D75D000BF3E4D36
:10097000AD69012635433C4EB5613546AD69ED079D
:10098000ED0F009500BF00BF384D8E08B600A85986
:100990008D072E0F0F25B5400646AE43304609257C
:1009A000ED0600E058E0AB4201D100250FE0304DEC
:1009B000AB4201D101250AE02E4DAB4201D1022507
:1009C00005E02D4DAB4201D1032500E005258E0742
:1009D000360FB5402843254D8E08B600A851274D47
:1009E000A8680546A54328460126360555683540C2
:1009F000002D02D0054625432846204DA860E86812
:100A00000546A54328460126760555683540002D44
:100A100002D0054625432846184DE860686805461B
:100A2000A54328460126760455683540002D02D09E
:100A3000054625432846114D686028680546A543AC
:100A400028460126360455683540002D02D005465B
:100A500025432846094D2860491C1568CD40002DC6
:100A600000D01AE778BD00000010024008000140E5
:100A70000004004800080048000C00480004014041
:100A8000024613690B40002B01D0012000E000203A
:100A90007047002A01D0816100E081627047000048
:100AA0000148006870470000B000002070B504469F
:100AB000002C01D1012070BD184821680860184839
:100AC000216808602168606848602168A0688860C3
:100AD000FFF7E6FF05460CE0FFF7E2FF401B272883
:100AE00007D92068C0684007400F002801D00320C4
:100AF000E1E72068C0684007400F0028ECD120687B
:100B00000169E068814203D02168E068086102E081
:100B10000448216808600020CDE70000CCCC00002C
:100B200055550000AAAA0000014602480A68106054
:100B300000207047AAAA000003480068034909780A
:100B40004018014908607047B0000020B80000203C
:100B500010B50648006810210843044908600020C9
:100B600000F006F800F02EF8002010BD0020024032
:100B700070B50446104801787D20C000FFF7B0FA38
:100B8000064631460D480068FFF7AAFA054600F010
:100B90008BFE002801D0012070BD042C07D200225A
:100BA0002146501E00F03CF80548046001E0012099
:100BB000F2E70020F0E70000B8000020BC000020B1
:100BC000B400002008B500BF0D488069012108432A
:100BD0000B49886108468069C007C00F009000BFBC
:100BE00000BF00BF0846C069090408430449C86142
:100BF0000846C06909040840009000BF00BF08BD56
:100C0000001002400146002905DBCB06DB0E012265
:100C10009A40024B1A6000BF7047000000E100E0FC
:100C200070B504460D4616462946204602F08CFF54
:100C300070BD0000F8B50446002600250121090416
:100C40002068084088427AD100274B48C0690903D0
:100C5000084000280DD100BF4748C06908434649F5
:100C6000C8610846C06909040840009000BF00BF81
:100C7000012742480068FF2101310840002816D1B1
:100C80003E48006808433D490860FFF709FF0646F3
:100C900006E0FFF705FF801B642801D90320F8BD9B
:100CA00036480068FF21013108400028F1D0324861
:100CB000006A0321090208400546002D2DD0606816
:100CC0000840A84229D02C48006A884305462A4893
:100CD000006A012109040843274908620846006A9E
:100CE0000121090488432449086208460562E8078F
:100CF000C00F002811D0FFF7D3FE064607E0FFF72C
:100D0000CFFE801B1E49884201D90320C7E71A483D
:100D1000006A022108400028F1D01748006A032128
:100D2000090288436168084313490862012F05D10D
:100D30000846C069090488430F49C86100BF20788C
:100D4000C007C00F002807D00B48006B8008800048
:100D5000A16808430849086320212068084020282A
:100D600007D10548006B10218843E1680843024918
:100D70000863002093E7000000100240007000406C
:100D80008813000070B504460D46002C01D10120E7
:100D900070BD52480068C007C00FA8420ED24F482D
:100DA00000684008400028434C4908600846006835
:100DB000C007C00FA84201D00120E9E70221206846
:100DC0000840022814D1042120680840042807D1D3
:100DD0004348406807210902884340184049486059
:100DE0003F484068F0218843A16808433C49486077
:100DF0002078C007C00F00283BD06068012808D1C8
:100E000037480068012149040840002815D1012015
:100E1000BEE76068022808D1314800680121490610
:100E20000840002809D10120B2E72D4800680221BE
:100E30000840002801D10120AAE72948406880081D
:100E400080006168084326494860FFF729FE06468E
:100E500007E0FFF725FE801B2249884201D90320C5
:100E600096E71F4840680C21084061688900884265
:100E7000EFD11A480068C007C00FA8420ED9174822
:100E8000006840084000284314490860084600688C
:100E9000C007C00FA84201D0012079E704212068D3
:100EA0000840042808D10E484068072109028843F9
:100EB000E16808430A49486000F032F80849496887
:100EC000F02211400909084A515CC84007490860EE
:100ED0000020FFF74DFE00205AE7000000200240EE
:100EE0000010024088130000183E0008BC000020DB
:100EF0000148006870470000BC00002000B5FFF703
:100F0000F7FF05494968072212021140090A034AFE
:100F1000515CC84000BD000000100240283E00089F
:100F2000F8B50024002500270026002000901D4869
:100F300044680C20204000282DD0042802D0082826
:100F400028D102E01848009028E00F2080042040BB
:100F5000800C16490E5C1348C06A0007000F144944
:100F60000D5C0120000420400121090488420AD1BF
:100F70002A4600230C481946FFF7C8F8314602F00C
:100F8000CBFD074604E00B48314602F0C5FD07469D
:100F9000009703E000BF0448009000BF00BF009826
:100FA000F8BD00000010024000127A00F83D000871
:100FB000083E000800093D00FEB50446002C01D1A2
:100FC0000120FEBD2078C007C00F002871D0FC486A
:100FD00040680C21084004280BD0F94840680840BC
:100FE000082812D1F64840680121090408408842C7
:100FF0000BD1F348006801214904084000286BD058
:101000006068002868D10120DBE700BF6068012824
:1010100007D1EB480068012109040843E84908604A
:1010200031E0606800280ED1E5480068012109041C
:101030008843E34908600846006801218904884321
:10104000DF4908601FE0606805280ED1DC480068B1
:10105000012189040843DA49086008460068012133
:1010600009040843D64908600DE0D548006801210D
:1010700009048843D24908600846006801218904B0
:101080008843CF49086000BF6068002812D0FFF78E
:1010900007FD054606E0FFF703FD401B642801D964
:1010A00003208EE7C6480068012149040840002853
:1010B000F1D011E0FFF7F4FC054606E0FFF7F0FC85
:1010C000401B642801D903207BE7BD48006801214B
:1010D000490408400028F1D1022120680840022874
:1010E00061D1B74840680C21084000280BD0B448B3
:1010F0004068084008281BD1B14840680121090414
:101100000840002814D1AE48006802210840002899
:1011100004D0E068012801D0012052E7A848006807
:10112000F82188432169C9000843A54908603AE0CD
:10113000E068002820D0A248006801210843A049A7
:101140000860FFF7ADFC054606E0FFF7A9FC401B71
:10115000022801D9032034E7994800680221084099
:101160000028F2D096480068F82188432169C90018
:1011700008439349086016E0914800684008400021
:101180008F490860FFF78CFC054606E0FFF788FCF6
:10119000401B022801D9032013E789480068022177
:1011A00008400028F2D1082120680840082831D1E1
:1011B000E069002817D08248406A0121084380492D
:1011C0004862FFF76DFC054606E0FFF769FC401B2F
:1011D000022801D90320F4E67948406A0221084038
:1011E0000028F2D016E07648406A40084000744972
:1011F0004862FFF755FC054606E0FFF751FC401B2F
:10120000022801D90320DCE66D48406A022108402B
:101210000028F2D1042120680840042873D100205E
:1012200001906748C0698906084000280ED100BFB8
:101230006348C06908436249C8610846C069090437
:101240000840009000BF00BF012001905D48006889
:10125000FF2101310840002816D15A480068084390
:1012600058490860FFF71CFC054606E0FFF718FC2C
:10127000401B642801D90320A3E652480068FF21DF
:10128000013108400028F1D000BFA068012806D134
:101290004B48006A01210843494908622BE0A068D5
:1012A00000280CD14648006A4008400044490862C2
:1012B0000846006A04218843414908621BE0A0688F
:1012C00005280CD13E48006A042108433C490862C5
:1012D0000846006A01210843394908620BE0384892
:1012E000006A40084000364908620846006A042146
:1012F00088433349086200BFA068002813D0FFF775
:10130000CFFB054608E02BE0FFF7CAFB401B2E4948
:10131000884201D9032054E62948006A0221084086
:101320000028F1D011E0FFF7BBFB054607E0FFF70F
:10133000B7FB401B2449884201D9032041E62048DD
:10134000006A022108400028F1D10198012806D145
:101350001B48C0690121090788431949C86100BFBA
:10136000102120680840102860D1606901282DD123
:101370001348406B04210843114948630846406BF9
:10138000012108430E494863FFF78AFB054606E042
:10139000FFF786FB401B022801D9032011E608480D
:1013A000406B022108400028F2D00548406BF8212C
:1013B0008843A169C90008430149486336E0000039
:1013C0000010024000700040881300006069401D5A
:1013D00000280FD15A48406B04218843584948637C
:1013E0000846406BF8218843A169C9000843544965
:1013F00048631BE05248406B04210843504948634E
:101400000846406B400840004863FFF749FB05462B
:1014100006E0FFF745FB401B022801D90320D0E579
:101420004748406B022108400028F2D1206A00287A
:101430004FD0434840680C210840082864D0206AF7
:10144000022847D13E4800680121090688433C49EB
:101450000860FFF725FB054606E0FFF721FB401B70
:10146000022801D90320ACE535480068012149066E
:1014700008400028F1D100BF3148C06A00090001CE
:10148000E16A08432E49C862616AA06A08432C4990
:1014900049683D221204914308432949486000BF2E
:1014A0000846006801210906084325490860FFF73E
:1014B000F7FA054606E0FFF7F3FA401B022801D9C8
:1014C00003207EE51E4800680121490608400028E7
:1014D000F1D033E01A480068012109068843184911
:1014E0000860FFF7DDFA054606E0FFF7D9FA401B72
:1014F000022801D9032064E511480068012149064A
:1015000008400028F1D119E0206A012800D158E5EF
:101510000B484668C76A012000043040616A88426F
:101520000AD13907090FE06A814205D10F208004F2
:101530003040A16A884201D0012042E5002040E508
:101540000010024070B50446002C01D1012070BD8E
:10155000606A002808D1FF2105316068884200D107
:1015600005E00021E16102E00021216161610021CB
:10157000A1625D20005D002804D15C200155204659
:1015800000F066F802215D200155206800684021C6
:1015900088432168086007210902E068884201D970
:1015A000002501E001252D030F210902E068884292
:1015B00006D007210902E068884201D00021A1621B
:1015C000FF2105316068084021229202A168114084
:1015D00008430222216911400843217DC907C90F30
:1015E00008431202A169114008433822E169114001
:1015F00008438022216A114008439201A16A1140E8
:10160000084321680860A069000C042108401022EA
:10161000616A114008430822616B114008430F22A0
:101620001202E168114008430121090329400843DF
:10163000216848602068C0690121C9028843216887
:10164000C8610020206601215D20015500207EE751
:1016500010B586B00446142101A8FEF7B3FD194960
:10166000206888422BD100BF17488069891408433D
:10167000154988610846806989140840009000BFB8
:1016800000BF00BF10484069490108430E49486146
:1016900008464069012149040840009000BF00BF8E
:1016A000A0200190022002900020039003200490CB
:1016B0000020059001A90920C006FFF7E9F806B04F
:1016C00010BD00000030014000100240FFB583B0A3
:1016D000044616461D460020029000BF5C20005DB7
:1016E000012802D1022007B0F0BD01215C20015584
:1016F00000BFFFF7D5F9074601965D20005D012880
:1017000002D002200290C7E00498002801D0002EE9
:1017100002D101200290BFE003215D20015500208D
:1017200020660498A063A687E68700202064002135
:10173000442001534620015300202065E06401212C
:10174000C903A06888420CD1206800684021884302
:101750002168086020680068012189030843216826
:1017600008602068006840210840402804D02068B4
:10177000006808432168086007210902E068884280
:1017800035D96068002802D00198012809D1A06BE2
:1017900000882168C860A06B801CA063E08F401E99
:1017A000E08720E0206880680221084002280AD1F2
:1017B000A06B00882168C860A06B801CA063E08FCC
:1017C000401EE0870FE0FFF76BF9C01BA84202D371
:1017D000681C002801D1002D05D1032002900121B1
:1017E0005D20015558E0E08F0028DBD134E06068CF
:1017F000002802D00198012809D1A06B0078216847
:101800000873A06B401CA063E08F401EE08720E0BF
:10181000206880680221084002280AD1A06B007865
:1018200021680873A06B401CA063E08F401EE08716
:101830000FE0FFF735F9C01BA84202D3681C00284F
:1018400001D1002D05D10320029001215D20015519
:1018500022E0E08F0028DBD13A462946204601F0FD
:1018600084FA002801D020202066A068002809D131
:1018700000BF00902068C0680090206880680090D9
:1018800000BF00BF206E002802D00120029002E0BD
:1018900001215D20015500BF00BF00215C200155E2
:1018A00000BF02981FE7000070B504462546681E79
:1018B0000949884201D901200CE0681E07494861A6
:1018C0000321081F02F040F9002004498861072025
:1018D0000861002070BD0000FFFFFF0000E000E095
:1018E0007047704730B502460B4600BF3C20805C15
:1018F000012801D1022030BD01253C20855400BFC4
:1019000002253D2085541068446810688168702560
:101910002046A843044618680443106844600D4DEF
:101920001068A84203D00C4D1068A84207D180254A
:101930000846A843014658680143106881600125A4
:101940003D20855400BF00253C20855400BF002069
:10195000D1E70000002C01400004004010B504460F
:10196000002C01D1012010BD3D20005D002805D1D3
:1019700000213C200155204600F022F802213D20A4
:101980000155211D206801F05FFB01214620015512
:1019900000BF3E2001553F20015540200155412008
:1019A000015500BF00BF422001554320015544208E
:1019B00001554520015500BF3D2001550020D2E7CB
:1019C00038B504460D492068884215D100BF0C483F
:1019D0008069C91408430A49886108468069C914A6
:1019E0000840009000BF00BF002211460D20FFF705
:1019F00017F90D20FFF706F938BD0000002C014053
:101A00000010024001463D20405C012801D0012029
:101A1000704702233D2043540868C06801231843DF
:101A20000B68D8600E4B0868984203D00D4B0868CD
:101A300098420CD1086880684207520F062A0CD0E1
:101A400008680068012318430B68186005E00868FF
:101A50000068012318430B6818600020D8E70000D5
:101A6000002C014000040040F8B504460D4600205B
:101A7000009000BF3C20005D012801D10220F8BD8C
:101A800001213C20015500BF02213D200155206865
:101A900086687721304688430646FF210902304692
:101AA00088430646206886602868502834D00CDCBD
:101AB000202851D004DC00284CD0102852D14AE014
:101AC00030284AD040284DD13AE060282ED07028E6
:101AD00007D001210903401A02D0401A42D10DE07B
:101AE00043E0EB686A68A968206801F0F5FA2068AD
:101AF0008668772006432068866036E0EB686A686F
:101B0000A968206801F0E8FA20688068012189034B
:101B100008432168886028E0EA686968206801F065
:101B2000F5FA5021206801F0E5FA1EE0EA686968DC
:101B3000206801F004FB6021206801F0DBFA14E06A
:101B4000EA686968206801F0E1FA4021206801F044
:101B5000D1FA0AE000BF00BF00BF2968206801F089
:101B6000C9FA02E00120009000BF00BF01213D2022
:101B7000015500BF00213C20015500BF00987EE7C1
:101B8000704710B5044620680069022108404008EB
:101B900000281CD02068C06808404008002816D0E3
:101BA000481F21680861012020772068806980072C
:101BB000800F002803D02046FFF7E2FF05E0204613
:101BC00000F0C3F8204600F0C1F80020207720681C
:101BD000006904210840800800281DD02068C068E2
:101BE00008408008002817D0C843216808610220F7
:101BF000207720688069032109020840002803D06B
:101C00002046FFF7BDFF05E0204600F09EF8204685
:101C100000F09CF800202077206800690821084027
:101C2000C00800281CD02068C0680840C0080028F0
:101C300016D0C84321680861042020772068C06955
:101C40008007800F002803D02046FFF799FF05E0AA
:101C5000204600F07AF8204600F078F8002020773F
:101C60002068006910210840000900281DD0206864
:101C7000C06808400009002817D0C84321680861DF
:101C8000082020772068C069032109020840002845
:101C900003D02046FFF774FF05E0204600F055F81A
:101CA000204600F053F80020207720680069C00724
:101CB000C00F01214840484000280CD02068C0686F
:101CC000084048404840002805D0C81E21680861E7
:101CD000204600F03DF82068006980210840C009D6
:101CE00000280BD02068C0680840C009002805D033
:101CF000C843216808612046FFF7F2FD20680069AB
:101D000040210840800900280BD02068C0680840A6
:101D10008009002805D0C84321680861204600F0EA
:101D200057F82068006920210840400900280BD09E
:101D30002068C06808404009002805D0C8432168D1
:101D400008612046FFF7CDFD10BD704770470000C9
:101D500070B505461C492868884233D11B48006885
:101D600000282FD019480068046821E020798007F6
:101D7000C00F00281BD0002C19D02088401C80B236
:101D800020806188884212DB20794007C00F00283C
:101D900006D0A068002803D0A168E068884704E066
:101DA000207940084000401C207100202080103421
:101DB0000648006800680549096809790901401862
:101DC000A042D3D870BD0000002C0140AC00002020
:101DD00070477047F8B50446E56F802006592068C3
:101DE000806880210840802827D1212D25D100BF7F
:101DF00001F0E6FE0746012001F0F4FE206880684D
:101E00008021884321688860384601F0EBFE00BFDE
:101E1000206F00280ED0206FFEF7D8FB002809D0D5
:101E2000206FFEF728FC202804D1102184200151C6
:101E30000320F8BD204601F05EFC20688068402148
:101E40000840402827D1222E25D100BF01F0B8FE3E
:101E50000746012001F0C6FE2068806840218843C3
:101E600021688860384601F0BDFE00BF606F002821
:101E70000ED0606FFEF7AAFB002809D0606FFEF756
:101E8000FAFB202804D11021842001510320D0E73F
:101E9000204601F0D5FB0020CBE710B5044600F04A
:101EA00083FC10BDF0B585B004462068C569206884
:101EB000066820688768E348284003900398002854
:101EC0000FD12020284000280BD0202030400028AF
:101ED00007D0A06E002802D02046A16E884705B02A
:101EE000F0BD039800287DD0F807C00F002803D16B
:101EF000D54830400028F6D0E807C00F00280DD0A4
:101F0000FF2001303040002808D0012021680862FD
:101F100084200059012108438421085102202840CF
:101F200000280CD0F807C00F002808D00220216834
:101F300008628420005904210843842108510420A8
:101F4000284000280CD0F807C00F002808D0042033
:101F50002168086284200059022108438421085125
:101F600008202840002810D020203040002803D12D
:101F7000F807C00F002808D00820216808628420D4
:101F8000005908210843842108510120C00228403B
:101F900000280ED0012080063040002809D0012002
:101FA000C00221680862842000592021084384214E
:101FB000085184200059002854D0202028400028AF
:101FC00009D020203040002805D0A06E002802D083
:101FD0002046A16E884784200059029020688068BE
:101FE000402100E03FE00840402804D0282102982A
:101FF0000840002830D0204601F022FB206880688D
:1020000040210840402823D100BF01F0D9FD0190B4
:10201000012001F0E7FD20688068402188432168A5
:102020008860019801F0DEFD00BF606F00280BD0D2
:102030008648616F4863606FFEF7F1FA002811D09F
:10204000606F416B88470DE02046FFF726FF09E0EF
:102050002046FFF722FF05E02046FFF71EFF002184
:10206000842001513BE7206E01287DD110202840BB
:10207000002879D0102030400028FAD010202168A4
:102080000862206880684021084040286ED1606F57
:102090000068406880B201900198002863D0582001
:1020A000015B019881425EDD5A2101980853606FFF
:1020B000806920284CD000BF01F082FD00900120F3
:1020C00001F090FD20680068FF21013188432168FC
:1020D0000860009801F086FD00BF00BF01F070FDB0
:1020E0000090012001F07EFD2068806840084000DB
:1020F00021688860009801F075FD00BF00BF01F005
:102100005FFD0090012001F06DFD20688068402196
:10211000884321688860009801F064FD00BF202199
:10212000802001510020206600BF01F049FD009091
:10213000012001F057FD20680068102188432168C4
:102140000860009801F04EFD00BF606FFEF73EFA98
:10215000022060665820025B5A20005B101A81B290
:102160002046FFF736FEBAE64FE0FFE75820015B56
:102170005A20005B081A80B201905A20005B0028A8
:1021800042D0019800283FD000BF01F019FD009017
:10219000012001F027FD20680068FF2121318843DC
:1021A00021680860009801F01DFD00BF00BF01F02C
:1021B00007FD0090012001F015FD206880684008AF
:1021C000400021688860009801F00CFD00BF2021CC
:1021D0008020015100202066A06600BF01F0F0FCC5
:1021E0000090012001F0FEFC206800681021884367
:1021F00021680860009801F0F5FC00BF02206066CD
:1022000020460199FFF7E5FD69E680202840002877
:102210000AD080203040002806D0E06E002802D08E
:102220002046E16E88475AE640202840002807D023
:1022300040203040002803D0204601F041FA4EE60D
:1022400000BF4CE60F0800002001000479340008AC
:1022500010B50446002C01D1012010BDA069002852
:1022600000D000E000BFE06F002805D100217820F9
:102270000155204600F02CF82420E0672068006813
:102280004008400021680860204601F04BFA012810
:1022900000D1E2E7606A002802D0204600F0F4FF97
:1022A000206840680121C90288432168486020688D
:1022B00080680821884321688860206800680121BF
:1022C000084321680860204601F056F8C5E7000081
:1022D00010B586B00446142101A8FDF773FF3B49F1
:1022E000206888426FD100BF394880690121890385
:1022F00008433749886108468069012189030840FD
:10230000009000BF00BF00BF31484069C9000843CA
:102310002F4948610846406901214904084000905E
:1023200000BF00BF03204002019002200290002065
:102330000390032004900120059001A90920C00604
:10234000FEF7A6FA234824490860102048600021BF
:10235000214881608021C16000210161416181616A
:1023600001210903C161FEF701FA002801D0FEF73F
:10237000FDF800BF18482067446200BF15481430BC
:1023800016490860002048600021144881608021BF
:10239000C160002101614161816101214903C16185
:1023A000FEF7E4F9002801D0FEF7E0F800BF0B4883
:1023B0006067446200BF002211461B20FEF730FC1C
:1023C0001B20FEF71FFC06B010BD000000380140C6
:1023D000001002401C0002408C020020D0020020AD
:1023E000F8B504460D46164680200059202834D101
:1023F000002D01D0002E01D10120F8BD01210903DB
:10240000A068884208D12069002805D1E807C00FDC
:10241000002801D00120F0E70020206620684068F5
:102420000121C9050840002811D000BF01F0C8FBF8
:102430000746012001F0D6FB2068006801218906CB
:10244000084321680860384601F0CCFB00BF3246E3
:102450002946204601F026FACFE70220CDE7704753
:1024600070470000F8B504460E461546E06F202878
:1024700053D1002E01D0002D01D10120F8BD012142
:102480000903A068884208D12069002805D1F00717
:10249000C00F002801D00120F0E7E664502005536A
:1024A000522005530021842001512120E067206F34
:1024B00000281CD01A48216F88621A48216FC86210
:1024C0001948216F08630020216F486323681A466A
:1024D00028322B46E16C206FFEF776F9002806D0F3
:1024E0001021842001512020E0670120C6E7402010
:1024F0002168086200BF01F063FB0746012001F07C
:1025000071FB206880688021084321688860384614
:1025100001F068FB00BF0020B0E70220AEE700003A
:10252000D5350008333600089134000870477047ED
:1025300000BFFEE730B50546064C012D00D100E096
:10254000002021688871012120688173204601F0F4
:1025500083FA30BD5800002008B500BF0A48406922
:10256000012108430849486108464069C007C00F77
:10257000009000BF00BF002211460A20FEF750FB6A
:102580000A20FEF73FFB08BD0010024000B587B0EF
:10259000142102A8FDF716FE00BF2B484069012157
:1025A0008905084328494861084640690121890591
:1025B0000840019000BF00BF00BF23484069491197
:1025C00008432149486108464069012149040840FF
:1025D000019000BF00BF00BF1B484069490008438D
:1025E0001949486108464069012189040840019061
:1025F00000BF00BF012215490920C006FEF749FAB5
:10260000124802900120039004900320059002A933
:102610000920C006FEF73CF94020029003200390F9
:102620000020049002A90920C006FEF731F902201B
:102630000290002003900120049002A90448FEF7B4
:1026400027F907B000BD0000001002401F60000025
:102650000004004810B50848084908600420486094
:1026600007490648C16007498160FEF71FFA002844
:1026700001D0FDF77BFF10BD003000404801002075
:10268000FF0F0000E204000010B590B0FDF772FFEC
:102690006946487048780407240F0F2C01DC204657
:1026A00000E0102069460870802107A8017109A880
:1026B000017106490B9106480F9006490D91694634
:1026C0000548FDF7ADFE10B010BD0000440000202D
:1026D00004020020C80000204000002010B512486D
:1026E00012490860FF200530486000210F488160D2
:1026F0000F210902C16000210161416101214902EC
:1027000081610821C161002101624162816207216A
:10271000C1620021016308214163FEF713FF002815
:1027200001D0FDF723FF10BD00300140580100200B
:1027300000B587B0002003900490059006900190AA
:1027400002901748174908602F204860002115485B
:1027500081607D21C900C16000210161416180214A
:102760008161FFF7FBF8002801D0FDF7FFFE012093
:102770000003039003A90B48FFF776F9002801D066
:10278000FDF7F4FE00200190029001A90548FFF733
:10279000A9F8002801D0FDF7E9FE07B000BD000050
:1027A000002C0140BC01002010B50E480E49086005
:1027B000E1204002486000210B488160C160016156
:1027C0000C21416100218161C16101620020064943
:1027D00048620846FFF73CFD002801D0FDF7C6FE21
:1027E00010BD0000003801400402002073B504460B
:1027F000164D002D29D06068002826D068468088B4
:102800000105090D01912078002802D00B2000035A
:1028100001E003200003694689880843019022896A
:1028200010231A43114600226068FEF732F9084B64
:10283000022201A92846FEF749FF228910231A43E4
:10284000114601226068FEF724F97CBD5801002082
:10285000FFFF0000FEB504460E4617461D461AA1AE
:1028600003C901910090217868460170311281708E
:10287000C670002101716908417185712022115DC6
:10288000E069FDF79FFC00212120015507226946E0
:10289000E069FDF77CFC2120005DC01DC1B2212054
:1028A00001552121095DE26950182A463946FDF794
:1028B0006EFC2120005D4019C1B22120015500218C
:1028C0002046E2689047FEBD004600000000000080
:1028D00010B5044605480068002805D00348006884
:1028E000816802480068884710BD00004000002051
:1028F000FFB583B004460D4616463020005D022821
:1029000001DA102000E02020029000270298854282
:1029100028DA3820005D00280ED101963020005DB5
:10292000022803D16900606B401803E0606B4030FF
:102930006900401800900DE03020005D022803D1AE
:102940006900606B401803E0606B4030690040181C
:1029500001900096069A00990198FDF718FC00284E
:1029600000D00127384607B0F0BD000070B504461E
:1029700000253920005D002853D000213920015561
:102980002920005D022808D92922125D921E91B2E9
:10299000244A606AFDF7FAFD0546606A00782178EE
:1029A000884236D12920005D801E616A085C0102E0
:1029B0002920005D401E626A105C014328122A0231
:1029C000104380B2814224D1606A407806280FD03B
:1029D00004DC032807D0042819D105E0102808D00A
:1029E000112814D109E000BF204600F076F80FE06E
:1029F00000BF204600F000F90AE0204600F0CEF8C3
:102A0000E06A002802D00121E06A017000E000BF06
:102A100000BF2922115D606AFDF7D4FB0021292047
:102A2000015570BDFFFF000038B504460D46002D6E
:102A300017D12122115D134AE069FDF7A7FD00902F
:102A40002120005DE1690918684600780870684631
:102A5000407848702120005D801CC1B221200155C2
:102A600000BF21231A5DE169E06BFFF7FBFC00BFAB
:102A7000E06B0068C0694021084080090028F7D059
:102A800038BD0000FFFF000070B504460D46E06B46
:102A90000068C06910210840000900281CD01020DF
:102AA000E16B09680862002C13D0606A002810D01E
:102AB000E06BFFF78FF92820005D29684968401A0C
:102AC000C1B22920015528231A5D616AE06BFFF726
:102AD00087FC01213920015570BDF8B50446606AB4
:102AE00000790002616A497908434006050E2846CC
:102AF00001F016F90646002E00D14BE0294630467B
:102B0000FDF760FB2022115DE069FDF75BFB002112
:102B100021200155616A0A78E069027049784170A4
:102B20002120005D801CC1B221200155005DE169BA
:102B30000D542120005D401CC1B221200155606A66
:102B40004078032801D1032100E002213020015503
:102B5000002138200155606A80780002626AD278CC
:102B6000104301462B46324620466769B84721216B
:102B7000095DE26950182A463146FDF708FB21201D
:102B8000005D4019C1B22120015500212046E268B4
:102B9000904700BF304601F029F8F8BD10B5044653
:102BA0002022115DE069FDF70DFB00212120015578
:102BB000616A0A78E0690270497841702120005DFD
:102BC000801CC1B2212001550121025D005D401C25
:102BD000C3B221200355E069815461782120025D50
:102BE000005D401CC3B221200355E06981540021DF
:102BF0002046E268904710BDF8B504460026002044
:102C00000090032130200155012138200155606AD0
:102C10004078062809D102200090606A061D29200C
:102C2000015D21200155012508E0606A807900904E
:102C3000606AC61D0621212001550025002E0BD0FB
:102C4000606A80780002626AD27810430146676940
:102C500032462046009BB8472022115DE069FDF70F
:102C6000B1FA21231A5D616AE069FDF790FA2946FD
:102C70002046E2689047F8BD00BFFEE7F8B504467D
:102C80000D466178C900134A50582946FDF7FEFAEF
:102C900000906078C0000F4A801841680098FDF7E6
:102CA0009CFA0746FDF72FFB86B200212846FDF768
:102CB0003FFB08D008492846FDF744FB01D80748E8
:102CC00002E0304600E00020064631462046FFF78D
:102CD0008DFDF8BD000000200000A841FFFF0000AE
:102CE000704770B504460026002C3CD020680028B0
:102CF00039D00020216809688871002120680068A7
:102D00008173206800F0A8FE01202168096888719D
:102D10000121206800688173206800F09DFE002575
:102D20001FE0606800281AD00021206800688173C5
:102D3000206800F091FE21896068FDF7A1FEA07275
:102D4000A07AC007C00F0721491B88403043C6B294
:102D50000121206800688173206800F07DFE681CF6
:102D6000C5B2082DDDD3304670BDF8B504460E4619
:102D70001546334600220321C9022046009500F083
:102D800029F8002805D0206E202108432066032062
:102D9000F8BD3346002280212046009500F098F8C7
:102DA000002805D0206E2021084320660320EFE78D
:102DB00033460022032149022046009500F00AF81C
:102DC000002805D0206E2021084320660320DFE77D
:102DD0000020DDE7F0B585B004460D4616461F46D7
:102DE00000200090FDF75CFE0A99401A381A039003
:102DF000FDF756FE029020680C30019033480068C1
:102E000023214843000D03994843049056E00320D2
:102E10004002854206D1002E04D10198017800912C
:102E200068460078781C002848D0FDF739FE0299E2
:102E3000411A0398814202D20398002837D12068B2
:102E40004068E021884321684860FF2105316068BF
:102E500088420ED10121C903A068884203D04911DC
:102E6000A068884205D12068006840218843216815
:102E7000086001214903A06A88420DD100BF206883
:102E800000688843216808602068006801214903C0
:102E900008432168086000BF01215D20015500BF83
:102EA00000215C20015500BF032005B0F0BD04984F
:102EB000002800D103900498401E04902068806888
:102EC0002840B042A3D10020EFE70000BC00002062
:102ED000FFB583B004460D461E46FDF7E1FD0C9993
:102EE000401A371AFDF7DCFD01902F4800684001B9
:102EF000000D7843029049E0701C002846D0FDF791
:102F0000CFFD0199401AB84201D2002F37D1206875
:102F10004068E021884321684860FF2105316068EE
:102F200088420ED10121C903A068884203D049110B
:102F3000A068884205D12068006840218843216844
:102F4000086001214903A06A88420DD100BF2068B2
:102F500000688843216808602068006801214903EF
:102F600008432168086000BF01215D20015500BFB2
:102F700000215C20015500BF032007B0F0BD02987E
:102F8000002800D100270298401E02902068806827
:102F90002840A84201D1012100E00021059881428A
:102FA000AAD10020E9E70000BC000020704710B55E
:102FB000FDF7C2FD10BD00B595B0302109A8FDF7A1
:102FC00001F900200590069007900890019002906A
:102FD000039004900920099001200A90109002208B
:102FE0001190C1031291C10413910021149109A8F9
:102FF000FDF7E2FF002801D0FDF7B8FA07200590A1
:1030000002200690002007900890012105A8FDF7F6
:10301000B9FE002801D0FDF7A9FA01200190002097
:10302000039001A8FDF706FE002801D0FDF79EFAE7
:1030300015B000BD7047000010B50248FEF7A1FDB5
:1030400010BD0000BC01002010B502681D4B984265
:1030500002D01D4B984205D170241346A3431A4653
:103060004B681A43174B98420BD0174B984208D025
:10307000164B984205D0164B984202D0154B9842F9
:1030800006D1032424021346A3431A46CB681A43ED
:1030900080241346A3434C6923431A4602608B687D
:1030A000C3620B688362074B984205D0084B984275
:1030B00002D0084B984201D10B690363012343619D
:1030C00010BD0000002C0140000400400020004022
:1030D000004401400048014070B50C468168FF265D
:1030E00036020D46B54329461D02154325432943A3
:1030F000816070BD10B50A46816870240B46A343F9
:103100001946072313431943816010BD70B50B4660
:103110001446026A056A6D086D0005628169F02631
:103120000D46B5432946250129430A261546B543D0
:103130002A4615461D432A468161026270BD70B55C
:103140000B461446056A1026B54305628169026A7A
:103150000F2636030D46B543294625032943A026ED
:103160001546B5432A461D012A438161026270BD9E
:10317000F8B50446314805682646314FE86A00280C
:1031800001D0002E00D1F8BD2D480078C009C00143
:10319000E96A0978002901D0022109E02849497823
:1031A000C907C90F002902D02549097800E000218C
:1031B0004906490E0843224908700846007840062F
:1031C000400E002804D0012812D002282AD11EE087
:1031D0001B480078802188431949087001204880E5
:1031E000487008460078C009C001401C087019E00A
:1031F0001348007880218843803011490870C82026
:10320000488008460078C009C00108700AE0002024
:103210000B4948700846007880218843803008496F
:10322000087000BF00BF06484088708004490978D4
:10323000C809FFF77FF900BFA5E7000040000020A4
:103240006000002010B50F48006804680FE0207986
:10325000C007C00F002809D0A068002806D0A168C8
:10326000E068884720794008400020711034054804
:103270000068006803490968097909014018A042FB
:10328000E5D810BDAC000020818CC907C90F00290A
:1032900008D001684968012252049143826A1143AF
:1032A000026851600222416A1140022907D1016877
:1032B0004968D2039143C26A1143026851600422F3
:1032C000416A1140042907D10168496812049143F9
:1032D000026B1143026851600822416A11400829BB
:1032E00007D10168496812039143426B1143026898
:1032F00051601022416A1140102907D10168896884
:1033000012029143826B1143026891602022416A4C
:103310001140202907D10168896812029143C26BCC
:103320001143026891604022416A1140402915D141
:103330000168496892039143026C1143026851602D
:1033400001221205016C914208D1016849680322EB
:1033500052059143426C1143026851608022416AD8
:103360001140802907D10168496812039143826C9A
:103370001143026851607047F8B50446002184206B
:103380000151FDF78DFB05462068006808210840C3
:10339000082823D137482B46002289040090204674
:1033A00000F0EEFA002819D000BF00F009FC064634
:1033B000012000F017FC2068006880218843216804
:1033C0000860304600F00EFC00BF2020E06700BF20
:1033D00000217820015500BF0320F8BD2068006857
:1033E00004210840042836D122482B460022090532
:1033F0000090204600F0C4FA00282CD000BF00F056
:10340000DFFB0646012000F0EDFB20680068FF218D
:103410002131884321680860304600F0E3FB00BF9B
:1034200000BF00F0CDFB0646012000F0DBFB20686A
:1034300080684008400021688860304600F0D2FB78
:1034400000BF20218020015100BF002178200155BC
:1034500000BF0320C1E72020E06720218020015128
:1034600000202066606600BF00217820015500BF63
:103470000020B2E7FFFFFF0170B505466C6A00212E
:103480005A200153522001532046FEF706FD70BD1D
:10349000F8B505466C6AE66F802007592068806899
:1034A00080210840802807D1212E05D100215220FB
:1034B0000153204600F01FF9206880684021084031
:1034C000402807D1222F05D100215A200153204640
:1034D00000F0B6F8842000591021084384210851D7
:1034E0002046FEF7DAFCF8BD70B505466C6AA8699F
:1034F00020284DD000215A20015300BF00F060FB6E
:103500000646012000F06EFB20680068FF210131B3
:10351000884321680860304600F064FB00BF00BFAC
:1035200000F04EFB0646012000F05CFB206880683E
:103530004008400021688860304600F053FB00BF1F
:1035400000BF00F03DFB0646012000F04BFB206869
:1035500080684021884321688860304600F042FB43
:1035600000BF202180200151206E012810D100BF12
:1035700000F026FB0646012000F034FB20680068BE
:103580001021884321680860304600F02BFB00BF03
:1035900000206066206E012805D15820015B20467E
:1035A000FEF717FC02E02046FEF759FF70BD70B52C
:1035B00005466C6A01206066206E012806D15820FD
:1035C000005B41082046FEF704FC02E02046FEF7BF
:1035D00047FF70BD70B505466C6AA869202824D0E5
:1035E00000215220015300BF00F0EAFA06460120F4
:1035F00000F0F8FA2068806880218843216888609C
:10360000304600F0EFFA00BF00BF00F0D9FA0646DE
:10361000012000F0E7FA2068006840210843216893
:103620000860304600F0DEFA02E02046FEF77EFF3A
:1036300070BD70B50446656A2846FEF778FF70BD18
:1036400070B5044600BF00F0BBFA0546012000F04B
:10365000C9FA20680068FF21213188432168086089
:10366000284600F0BFFA00BF00BF00F0A9FA0546E7
:10367000012000F0B7FA2068806840084000216807
:103680008860284600F0AEFA00BF206E012810D1F5
:1036900000BF00F095FA0546012000F0A3FA20686B
:1036A00000681021884321680860284600F09AFAD3
:1036B00000BF20218020015100202066A06670BD3F
:1036C00070B5044600BF00F07BFA0546012000F00B
:1036D00089FA2068006840218843216808602846EC
:1036E00000F080FA00BF2020E0670020E06620465E
:1036F000FEF71CFF70BD70B5044600BF00F060FA15
:103700000546012000F06EFA20680068C021884359
:1037100021680860284600F065FA00BF2020E067B5
:1037200070BD0000FEB50446002000902169A0682D
:10373000084361690843E169084302902068006812
:10374000544908400299084321680860206840688D
:10375000032109038843E168084321684860A069A0
:103760000290206A029908430290206880680B2129
:1037700009028843029908432168886000BF4648CF
:10378000006B8007800F002806D0012808D002288F
:1037900008D0032808D101E0002707E0022705E050
:1037A000042703E0082701E0102700BF00BF00BF87
:1037B0000121C903E069884239D1002F06D0022FC8
:1037C00008D0042F08D0082F0DD109E0FDF796FB93
:1037D00005460CE0314D0AE0FDF7A2FB054606E088
:1037E0000125ED0303E000250120009000BF00BF8C
:1037F000002D4AD06A0063685B08D0186168FCF746
:103800006FFC0646102E0FD3254886420CD824485C
:103810000F38304001903007400F01990843019064
:1038200001982168C86030E0012000902DE0002F51
:1038300006D0022F08D0042F08D0082F0DD109E0A0
:10384000FDF75CFB05460CE0144D0AE0FDF768FB54
:10385000054606E00125ED0303E000250120009068
:1038600000BF00BF002D10D061684A085019FCF756
:1038700037FC0646102E06D30948864203D8B0B25C
:103880002168C86001E0012000900020A066E06689
:103890000098FEBDF369FFFF0010024000127A009D
:1038A000FFFF0000F8B504460E4615466665582031
:1038B0000553002184200151222180200151606F95
:1038C00000281DD02B48616F88622B48616FC86249
:1038D0002A48616F08630020616F486323681946B6
:1038E00024312B46626D606FFCF76EFF002807D015
:1038F0001021842001512021802001510120F8BD98
:103900002069002811D000BF00F05AF907460120B5
:1039100000F068F920680068FF2101310843216840
:103920000860384600F05EF900BF00BF00F048F9BB
:103930000746012000F056F92068806801210843FD
:1039400021688860384600F04DF900BF00BF00F0E4
:1039500037F90746012000F045F9206880684021CA
:10396000084321688860384600F03CF900BF002019
:10397000C5E70000E9340008AF35000891340008BD
:10398000FFB581B004460D4617460A9E42E0701C02
:1039900000283FD0FDF784F80499401AB04201D8BE
:1039A000002E02D1032005B0F0BD2068006804217C
:1039B000084000282ED02068C06908210840C008AF
:1039C00000280FD00820216808622046FFF738FE43
:1039D00008218420015100BF00217820015500BF3B
:1039E0000120E0E72068C0690121C9020840C00A3F
:1039F00000280FD00846216808622046FFF720FE05
:103A000020218420015100BF00217820015500BFF2
:103A10000320C8E72068C0692840A84201D10120DE
:103A200000E00020B842B2D00020BCE710B5074843
:103A30000068002806D00548006805494268034828
:103A4000006890470348FEF72DFA10BD40000020A3
:103A5000D00200200402002010B5016809684969FD
:103A60008AB201680AE08B79002B02D08B881A4356
:103A700003E08C881346A3431A4608310479E40016
:103A800003681B198B42EED8002809D00168002971
:103A900006D091B2D3431B04194303681B68996194
:103AA00010BD0000F0B599B007466022184901A882
:103AB000FCF76DFB17480468202000F031F905463B
:103AC000002D00D11FE020212846FCF77BFB002CB5
:103AD0000AD0032130200155002138200155202330
:103AE0002A4620466669B047002609E0B200A95878
:103AF0000C22724301ABD018FFF7C0F8701CC6B29D
:103B0000082EF3D300BF284600F070F819B0F0BDBE
:103B10008C3D000840000020F8B582B28BB2040C46
:103B20000D0C10465843002126465E43370C3604E0
:103B30008019794116466E43370C36048019794155
:103B400026466E438919F8BD10B5002819DB1A4ABC
:103B500003231B02D21883089B00D2588307DC0E74
:103B6000FF23A3409A438B071B0E8407E40EA34058
:103B70001A43114B032424021B198408A4001A5170
:103B800018E00E4A03071B0F083B9B089B00D25806
:103B90008307DC0EFF23A3409A438B071B0E840789
:103BA000E40EA3401A43054B0407240F083CA40865
:103BB000A4001A5110BD000000E100E01CED00E07F
:103BC000EFF31080704702E008C8121F08C1002AF6
:103BD000FAD170477047002001E001C1121F002A8E
:103BE000FBD1704780F310887047000010B50028A3
:103BF00023D0124B0022001F196803E0814203D832
:103C00000A4649680029F9D1002A0AD01368841AA3
:103C10009C4204D1006818181060104602E0506001
:103C200000E01860002907D002680B1A934203D104
:103C30000B68D21802604968416010BDC0000020C6
:103C4000FCF786FFFFF7B7F9FEF7A0FCFEF784FC50
:103C5000FEF7AAFDFEF76CFDFEF740FDFEF7FAFC4D
:103C600029482A490860FEF70FFD29480068002806
:103C700033D027480068C06B0068006810210843F3
:103C800023490968C96B09680860214B1B68243304
:103C90001A791F4B1B68596A1D4B1B68D86BFEF7BE
:103CA0009FFB00211A4800682430417117480068C2
:103CB0000068164909680968C860154800680078F6
:103CC000002805D01248006800784000C83000E0A5
:103CD000C8200E490968096848800E480068806855
:103CE000012108430B49096888607D20C000FCF76A
:103CF000B9FD0948FDF786FE04E00848FCF714FF0B
:103D0000FFF7A0FAF9E70000A4000020AC000020B3
:103D10004000002004020020BC01002048010020D7
:103D2000F0B50B30C108C900144F0026144A0FE04B
:103D300003688B420BD38B4205D95C1A4318456844
:103D400030C3083B00E04368136002C004E0021D7A
:103D500010680028ECD13046002803D138680028CC
:103D600001D00020F0BD064A06481060064A121A2B
:103D7000D208D20044C001203860D7E7C400002038
:103D8000C00000201C0300201805002000000000D7
:103D9000000000480200010001010000000000488E
:103DA00002000100000200000000004804000100C1
:103DB00001030000000000480400010000040000AE
:103DC000000000480100010001050000000000485B
:103DD000010001000006000000000048080001008A
:103DE0000107000000000048080001005800002002
:103DF0000004004802000000020304050607080949
:103E00000A0B0C0D0E0F1010010203040506070823
:103E1000090A0B0C0D0E0F1000000000000000003E
:103E20000102030406070809000000000102030460
:103E3000503E000800000020C8000000C63B0008FB
:103E4000183F0008C800002050080000D63B0008BA
:103E5000C49C48436896C0BF1E264743FE4827417E
:103E6000907E4C436F6A9BC109B94A43AC2DA2C1F5
:103E7000C49C48436896C0BF1E264743FE4827415E
:103E8000907E4C436F6A9BC109B94A43AC2DA2C1D5
:103E900000000000000000000000004800200000BA
:103EA0000000004800400000480000200200000020
:103EB00000000000000064000600000071310008EE
:103EC000000000000000010002000000D1280008EE
:103ED000000000000000F40102000000A53A000804
:103EE0000000000000006400000000006B050008F6
:103EF000000000006400002004000000000000003A
:103F000000000000040000000100000000127A0020
:083F10000000000000000000A9
:04000005080000B13E
:00000001FF
